{
  "address": "0xBd7C4B9aB1AC188E11CA046a996e378ecBB2a031",
  "abi": [
    {
      "inputs": [
        {
          "internalType": "address",
          "name": "_user",
          "type": "address"
        },
        {
          "internalType": "contract IERC20[]",
          "name": "_tokens",
          "type": "address[]"
        },
        {
          "internalType": "address",
          "name": "_tokenSpender",
          "type": "address"
        }
      ],
      "name": "balancesOf",
      "outputs": [
        {
          "internalType": "uint256",
          "name": "ethBalance",
          "type": "uint256"
        },
        {
          "components": [
            {
              "internalType": "uint256",
              "name": "total",
              "type": "uint256"
            },
            {
              "internalType": "uint256",
              "name": "allowance",
              "type": "uint256"
            }
          ],
          "internalType": "struct BalanceHelper.TokenBalance[]",
          "name": "tokensBalances",
          "type": "tuple[]"
        }
      ],
      "stateMutability": "view",
      "type": "function"
    }
  ],
  "transactionHash": "0x8ac4b22c6f345f008456ccca96029d0a7cb259893ed4eb1d8b6a4f93c50a8def",
  "args": [],
  "solcInputHash": "7f3b3703bf8bc451e97d7ab184b21d6a",
  "bytecode": "0x608060405234801561001057600080fd5b5061046e806100206000396000f3fe608060405234801561001057600080fd5b506004361061002b5760003560e01c8063cbf4a6a014610030575b600080fd5b61004361003e366004610269565b61005a565b604051610051929190610373565b60405180910390f35b81516001600160a01b038416319060609067ffffffffffffffff8111156100835761008361040a565b6040519080825280602002602001820160405280156100c857816020015b60408051808201909152600080825260208201528152602001906001900390816100a15790505b50905060005b84518110156102505760405180604001604052808683815181106100f4576100f46103f4565b60209081029190910101516040516370a0823160e01b81526001600160a01b038a81166004830152909116906370a082319060240160206040518083038186803b15801561014157600080fd5b505afa158015610155573d6000803e3d6000fd5b505050506040513d601f19601f82011682018060405250810190610179919061035a565b8152602001868381518110610190576101906103f4565b6020908102919091010151604051636eb1769f60e11b81526001600160a01b038a8116600483015288811660248301529091169063dd62ed3e9060440160206040518083038186803b1580156101e557600080fd5b505afa1580156101f9573d6000803e3d6000fd5b505050506040513d601f19601f8201168201806040525081019061021d919061035a565b815250828281518110610232576102326103f4565b60200260200101819052508080610248906103cb565b9150506100ce565b50935093915050565b803561026481610420565b919050565b60008060006060848603121561027e57600080fd5b833561028981610420565b925060208481013567ffffffffffffffff808211156102a757600080fd5b818701915087601f8301126102bb57600080fd5b8135818111156102cd576102cd61040a565b8060051b604051601f19603f830116810181811085821117156102f2576102f261040a565b604052828152858101935084860182860187018c101561031157600080fd5b600095505b8386101561033b5761032781610259565b855260019590950194938601938601610316565b5080975050505050505061035160408501610259565b90509250925092565b60006020828403121561036c57600080fd5b5051919050565b6000604080830185845260208281860152818651808452606087019150828801935060005b818110156103bd57845180518452840151848401529383019391850191600101610398565b509098975050505050505050565b60006000198214156103ed57634e487b7160e01b600052601160045260246000fd5b5060010190565b634e487b7160e01b600052603260045260246000fd5b634e487b7160e01b600052604160045260246000fd5b6001600160a01b038116811461043557600080fd5b5056fea2646970667358221220bc120b3bf50b21bf74a77b58555c773306237a35945b643c19659f4abe67f33364736f6c63430008050033",
  "devdoc": {
    "kind": "dev",
    "methods": {},
    "version": 1
  },
  "userdoc": {
    "kind": "user",
    "methods": {},
    "version": 1
  },
  "storageLayout": {
    "storage": [],
    "types": null
  }
}