{
  "address": "0x5dBd7721Cf857d4C949167Fd71C4cC8Ec36fEa0b",
  "abi": [
    {
      "anonymous": false,
      "inputs": [
        {
          "indexed": false,
          "internalType": "bytes32",
          "name": "_derivativeHash",
          "type": "bytes32"
        },
        {
          "indexed": true,
          "internalType": "address",
          "name": "_positionAddress",
          "type": "address"
        }
      ],
      "name": "LogLongPositionTokenAddress",
      "type": "event"
    },
    {
      "anonymous": false,
      "inputs": [
        {
          "indexed": true,
          "internalType": "address",
          "name": "_positionAddress",
          "type": "address"
        },
        {
          "indexed": false,
          "internalType": "uint256",
          "name": "_amount",
          "type": "uint256"
        }
      ],
      "name": "LogMintLongPosition",
      "type": "event"
    },
    {
      "anonymous": false,
      "inputs": [
        {
          "indexed": true,
          "internalType": "address",
          "name": "_positionAddress",
          "type": "address"
        },
        {
          "indexed": false,
          "internalType": "uint256",
          "name": "_amount",
          "type": "uint256"
        }
      ],
      "name": "LogMintShortPosition",
      "type": "event"
    },
    {
      "anonymous": false,
      "inputs": [
        {
          "indexed": false,
          "internalType": "bytes32",
          "name": "_derivativeHash",
          "type": "bytes32"
        },
        {
          "indexed": true,
          "internalType": "address",
          "name": "_positionAddress",
          "type": "address"
        }
      ],
      "name": "LogShortPositionTokenAddress",
      "type": "event"
    },
    {
      "inputs": [
        {
          "internalType": "address",
          "name": "_positionOwner",
          "type": "address"
        },
        {
          "internalType": "address",
          "name": "_positionAddress",
          "type": "address"
        },
        {
          "internalType": "uint256",
          "name": "_amount",
          "type": "uint256"
        }
      ],
      "name": "burn",
      "outputs": [],
      "stateMutability": "nonpayable",
      "type": "function"
    },
    {
      "inputs": [
        {
          "internalType": "address",
          "name": "_positionOwner",
          "type": "address"
        },
        {
          "internalType": "address",
          "name": "_longPositionAddress",
          "type": "address"
        },
        {
          "internalType": "address",
          "name": "_shortPositionAddress",
          "type": "address"
        },
        {
          "internalType": "uint256",
          "name": "_amount",
          "type": "uint256"
        }
      ],
      "name": "burnPair",
      "outputs": [],
      "stateMutability": "nonpayable",
      "type": "function"
    },
    {
      "inputs": [
        {
          "internalType": "address",
          "name": "_buyer",
          "type": "address"
        },
        {
          "internalType": "address",
          "name": "_seller",
          "type": "address"
        },
        {
          "internalType": "uint256",
          "name": "_amount",
          "type": "uint256"
        },
        {
          "internalType": "bytes32",
          "name": "_derivativeHash",
          "type": "bytes32"
        },
        {
          "components": [
            {
              "internalType": "uint256",
              "name": "margin",
              "type": "uint256"
            },
            {
              "internalType": "uint256",
              "name": "endTime",
              "type": "uint256"
            },
            {
              "internalType": "uint256[]",
              "name": "params",
              "type": "uint256[]"
            },
            {
              "internalType": "address",
              "name": "oracleId",
              "type": "address"
            },
            {
              "internalType": "address",
              "name": "token",
              "type": "address"
            },
            {
              "internalType": "address",
              "name": "syntheticId",
              "type": "address"
            }
          ],
          "internalType": "struct LibDerivative.Derivative",
          "name": "_derivative",
          "type": "tuple"
        }
      ],
      "name": "create",
      "outputs": [],
      "stateMutability": "nonpayable",
      "type": "function"
    },
    {
      "inputs": [],
      "name": "getImplementationAddress",
      "outputs": [
        {
          "internalType": "address",
          "name": "",
          "type": "address"
        }
      ],
      "stateMutability": "view",
      "type": "function"
    },
    {
      "inputs": [
        {
          "internalType": "address",
          "name": "_registry",
          "type": "address"
        }
      ],
      "name": "initialize",
      "outputs": [],
      "stateMutability": "nonpayable",
      "type": "function"
    },
    {
      "inputs": [
        {
          "internalType": "address",
          "name": "_buyer",
          "type": "address"
        },
        {
          "internalType": "address",
          "name": "_seller",
          "type": "address"
        },
        {
          "internalType": "address",
          "name": "_longPositionAddress",
          "type": "address"
        },
        {
          "internalType": "address",
          "name": "_shortPositionAddress",
          "type": "address"
        },
        {
          "internalType": "uint256",
          "name": "_amount",
          "type": "uint256"
        }
      ],
      "name": "mintPair",
      "outputs": [],
      "stateMutability": "nonpayable",
      "type": "function"
    }
  ],
  "transactionHash": "0x6a400323270a8229bd7c066618faea294350a9f48301f6601fda6ea43afeed22",
  "args": [],
  "solcInputHash": "658042053585c715e56757d0a4fb45c0",
  "bytecode": "0x608060405234801561001057600080fd5b50612792806100206000396000f3fe608060405234801561001057600080fd5b50600436106100725760003560e01c80639873dba9116100505780639873dba9146100be578063c4d66de8146100d1578063f6b911bc146100e457600080fd5b80630cbcae701461007757806347704dbd146100965780636ade6d19146100ab575b600080fd5b600154604080516001600160a01b039092168252519081900360200190f35b6100a96100a4366004610cf1565b6100f7565b005b6100a96100b9366004610d55565b610388565b6100a96100cc366004610de7565b61051d565b6100a96100df366004610cb0565b6108ce565b6100a96100f2366004610da6565b610a25565b600060029054906101000a90046001600160a01b03166001600160a01b031663da4fbe526040518163ffffffff1660e01b815260040160206040518083038186803b15801561014557600080fd5b505afa158015610159573d6000803e3d6000fd5b505050506040513d601f19601f8201168201806040525081019061017d9190610cd4565b6001600160a01b0316336001600160a01b0316146101c75760405162461bcd60e51b8152602060048201526002602482015261553160f01b60448201526064015b60405180910390fd5b6001833b1515146101ff5760405162461bcd60e51b81526020600482015260026024820152614f3160f01b60448201526064016101be565b6001823b1515146102375760405162461bcd60e51b81526020600482015260026024820152614f3160f01b60448201526064016101be565b6040516340c10f1960e01b81526001600160a01b038681166004830152602482018390528416906340c10f1990604401600060405180830381600087803b15801561028157600080fd5b505af1158015610295573d6000803e3d6000fd5b50506040516340c10f1960e01b81526001600160a01b03878116600483015260248201859052851692506340c10f199150604401600060405180830381600087803b1580156102e357600080fd5b505af11580156102f7573d6000803e3d6000fd5b50505050826001600160a01b03167f889c12c582d734b56236af0c19c78a458eb3effacf9bef729f1c33a712a942128260405161033691815260200190565b60405180910390a2816001600160a01b03167fa1bf8e5784337c55932f8dda1d26667d0655c94cfbd96863b3557084c65b11718260405161037991815260200190565b60405180910390a25050505050565b600060029054906101000a90046001600160a01b03166001600160a01b031663da4fbe526040518163ffffffff1660e01b815260040160206040518083038186803b1580156103d657600080fd5b505afa1580156103ea573d6000803e3d6000fd5b505050506040513d601f19601f8201168201806040525081019061040e9190610cd4565b6001600160a01b0316336001600160a01b0316146104535760405162461bcd60e51b8152602060048201526002602482015261553160f01b60448201526064016101be565b604051632770a7eb60e21b81526001600160a01b03858116600483015260248201839052841690639dc29fac90604401600060405180830381600087803b15801561049d57600080fd5b505af11580156104b1573d6000803e3d6000fd5b5050604051632770a7eb60e21b81526001600160a01b0387811660048301526024820185905285169250639dc29fac9150604401600060405180830381600087803b1580156104ff57600080fd5b505af1158015610513573d6000803e3d6000fd5b5050505050505050565b600060029054906101000a90046001600160a01b03166001600160a01b031663da4fbe526040518163ffffffff1660e01b815260040160206040518083038186803b15801561056b57600080fd5b505afa15801561057f573d6000803e3d6000fd5b505050506040513d601f19601f820116820180604052508101906105a39190610cd4565b6001600160a01b0316336001600160a01b0316146105e85760405162461bcd60e51b8152602060048201526002602482015261553160f01b60448201526064016101be565b60015460009061060490849083906001600160a01b0316610b57565b600180549192506000916106229186916001600160a01b0316610b57565b6040516372d6d1b960e01b81529091506001600160a01b038216906372d6d1b9906106569087906001908890600401610efa565b600060405180830381600087803b15801561067057600080fd5b505af1158015610684573d6000803e3d6000fd5b50506040516372d6d1b960e01b81526001600160a01b03851692506372d6d1b991506106b99087906000908890600401610efa565b600060405180830381600087803b1580156106d357600080fd5b505af11580156106e7573d6000803e3d6000fd5b50505050600085111561083f576040516340c10f1960e01b81526001600160a01b038881166004830152602482018790528216906340c10f1990604401600060405180830381600087803b15801561073e57600080fd5b505af1158015610752573d6000803e3d6000fd5b50506040516340c10f1960e01b81526001600160a01b03898116600483015260248201899052851692506340c10f199150604401600060405180830381600087803b1580156107a057600080fd5b505af11580156107b4573d6000803e3d6000fd5b50505050806001600160a01b03167f889c12c582d734b56236af0c19c78a458eb3effacf9bef729f1c33a712a94212866040516107f391815260200190565b60405180910390a2816001600160a01b03167fa1bf8e5784337c55932f8dda1d26667d0655c94cfbd96863b3557084c65b11718660405161083691815260200190565b60405180910390a25b806001600160a01b03167f465cae67a4311f87068378bb8e17175f56d70f9e85ac2877a4282f988be397c58560405161087a91815260200190565b60405180910390a2816001600160a01b03167fdbf1b2b979cbbd2cce2444ea076ff822131b915a2b81cc5234bbbc0272d60980856040516108bd91815260200190565b60405180910390a250505050505050565b600054610100900460ff16806108e7575060005460ff16155b6109595760405162461bcd60e51b815260206004820152602e60248201527f496e697469616c697a61626c653a20636f6e747261637420697320616c72656160448201527f647920696e697469616c697a656400000000000000000000000000000000000060648201526084016101be565b600054610100900460ff1615801561097b576000805461ffff19166101011790555b60405161098790610c93565b604051809103906000f0801580156109a3573d6000803e3d6000fd5b50600180547fffffffffffffffffffffffff0000000000000000000000000000000000000000166001600160a01b03928316179055600080547fffffffffffffffffffff0000000000000000000000000000000000000000ffff1662010000928516929092029190911790558015610a21576000805461ff00191690555b5050565b600060029054906101000a90046001600160a01b03166001600160a01b031663da4fbe526040518163ffffffff1660e01b815260040160206040518083038186803b158015610a7357600080fd5b505afa158015610a87573d6000803e3d6000fd5b505050506040513d601f19601f82011682018060405250810190610aab9190610cd4565b6001600160a01b0316336001600160a01b031614610af05760405162461bcd60e51b8152602060048201526002602482015261553160f01b60448201526064016101be565b604051632770a7eb60e21b81526001600160a01b03848116600483015260248201839052831690639dc29fac90604401600060405180830381600087803b158015610b3a57600080fd5b505af1158015610b4e573d6000803e3d6000fd5b50505050505050565b6000808484610b7f57604051806040016040528060018152602001605360f81b815250610b9a565b604051806040016040528060018152602001601360fa1b8152505b604051602001610bab929190610eb3565b604051602081830303815290604052805190602001209050610bcd8382610bd6565b95945050505050565b60006040517f3d602d80600a3d3981f3363d3d373d3d3d363d7300000000000000000000000081528360601b60148201527f5af43d82803e903d91602b57fd5bf300000000000000000000000000000000006028820152826037826000f59150506001600160a01b038116610c8d5760405162461bcd60e51b815260206004820152601760248201527f455243313136373a2063726561746532206661696c656400000000000000000060448201526064016101be565b92915050565b6117518061100c83390190565b8035610cab81610ff3565b919050565b600060208284031215610cc257600080fd5b8135610ccd81610ff3565b9392505050565b600060208284031215610ce657600080fd5b8151610ccd81610ff3565b600080600080600060a08688031215610d0957600080fd5b8535610d1481610ff3565b94506020860135610d2481610ff3565b93506040860135610d3481610ff3565b92506060860135610d4481610ff3565b949793965091946080013592915050565b60008060008060808587031215610d6b57600080fd5b8435610d7681610ff3565b93506020850135610d8681610ff3565b92506040850135610d9681610ff3565b9396929550929360600135925050565b600080600060608486031215610dbb57600080fd5b8335610dc681610ff3565b92506020840135610dd681610ff3565b929592945050506040919091013590565b600080600080600060a08688031215610dff57600080fd5b8535610e0a81610ff3565b94506020860135610e1a81610ff3565b93506040860135925060608601359150608086013567ffffffffffffffff811115610e4457600080fd5b860160c08189031215610e5657600080fd5b809150509295509295909350565b81835260007f07ffffffffffffffffffffffffffffffffffffffffffffffffffffffffffffff831115610e9657600080fd5b8260051b8083602087013760009401602001938452509192915050565b8281526000825160005b81811015610ed957602081860181015185830182015201610ebd565b81811115610eeb576000602083860101525b50919091016020019392505050565b838152600060028410610f1d57634e487b7160e01b600052602160045260246000fd5b8360208301526060604083015282356060830152602083013560808301526040830135601e19843603018112610f5257600080fd5b8301803567ffffffffffffffff811115610f6b57600080fd5b8060051b3603851315610f7d57600080fd5b60c060a0850152610f9661012085018260208501610e64565b915050610fa560608501610ca0565b6001600160a01b031660c0840152610fbf60808501610ca0565b6001600160a01b031660e0840152610fd960a08501610ca0565b6001600160a01b0381166101008501525095945050505050565b6001600160a01b038116811461100857600080fd5b5056fe608060405234801561001057600080fd5b50611731806100206000396000f3fe608060405234801561001057600080fd5b50600436106101005760003560e01c806372d6d1b911610097578063a9059cbb11610066578063a9059cbb1461020c578063a9c2e36c1461021f578063ce21286d1461023a578063dd62ed3e1461024f57600080fd5b806372d6d1b9146101cb57806395d89b41146101de5780639dc29fac146101e6578063a457c2d7146101f957600080fd5b8063313ce567116100d3578063313ce5671461016b578063395093511461017a57806340c10f191461018d57806370a08231146101a257600080fd5b806306fdde0314610105578063095ea7b31461012357806318160ddd1461014657806323b872dd14610158575b600080fd5b61010d610288565b60405161011a91906113e0565b60405180910390f35b610136610131366004611330565b61031a565b604051901515815260200161011a565b6035545b60405190815260200161011a565b6101366101663660046112f4565b610330565b6040516012815260200161011a565b610136610188366004611330565b6103f4565b6101a061019b366004611330565b610430565b005b61014a6101b036600461129f565b6001600160a01b031660009081526033602052604090205490565b6101a06101d936600461135a565b6104d0565b61010d61076b565b6101a06101f4366004611330565b61077a565b610136610207366004611330565b610816565b61013661021a366004611330565b6108c7565b6065546040516001600160a01b03909116815260200161011a565b6102426108d4565b60405161011a9190611435565b61014a61025d3660046112c1565b6001600160a01b03918216600090815260346020908152604080832093909416825291909152205490565b6060603680546102979061167e565b80601f01602080910402602001604051908101604052809291908181526020018280546102c39061167e565b80156103105780601f106102e557610100808354040283529160200191610310565b820191906000526020600020905b8154815290600101906020018083116102f357829003601f168201915b5050505050905090565b6000610327338484610a0c565b50600192915050565b600061033d848484610b30565b6001600160a01b0384166000908152603460209081526040808320338452909152902054828110156103dc5760405162461bcd60e51b815260206004820152602860248201527f45524332303a207472616e7366657220616d6f756e742065786365656473206160448201527f6c6c6f77616e636500000000000000000000000000000000000000000000000060648201526084015b60405180910390fd5b6103e98533858403610a0c565b506001949350505050565b3360008181526034602090815260408083206001600160a01b0387168452909152812054909161032791859061042b908690611552565b610a0c565b6065546001600160a01b031661047a5760405162461bcd60e51b815260206004820152600f60248201526e119050d513d49657d254d7d3955313608a1b60448201526064016103d3565b6065546001600160a01b031633146104c25760405162461bcd60e51b815260206004820152600b60248201526a4e4f545f464143544f525960a81b60448201526064016103d3565b6104cc8282610d2d565b5050565b600054610100900460ff16806104e9575060005460ff16155b61054c5760405162461bcd60e51b815260206004820152602e60248201527f496e697469616c697a61626c653a20636f6e747261637420697320616c72656160448201526d191e481a5b9a5d1a585b1a5e995960921b60648201526084016103d3565b600054610100900460ff1615801561056e576000805461ffff19166101011790555b6001836001811115610582576105826116cf565b146105e7576105e26040518060400160405280601181526020017f4f5049554d2053484f525420544f4b454e0000000000000000000000000000008152506040518060400160405280600481526020016309ea0a6960e31b815250610e0c565b610642565b6106426040518060400160405280601081526020017f4f5049554d204c4f4e4720544f4b454e000000000000000000000000000000008152506040518060400160405280600481526020016327a8262760e11b815250610e0c565b6065805473ffffffffffffffffffffffffffffffffffffffff19163317905560408051606081019091528061067684611581565b815260200184600181111561068d5761068d6116cf565b815260209081018690528151805160669081558183015160675560408201518051919384926106c09260689201906111b0565b50606082015160038201805473ffffffffffffffffffffffffffffffffffffffff199081166001600160a01b03938416179091556080840151600484018054831691841691909117905560a090930151600590920180549093169116179055602082015160068201805460ff191660018381811115610741576107416116cf565b0217905550604082015181600701559050508015610765576000805461ff00191690555b50505050565b6060603780546102979061167e565b6065546001600160a01b03166107c45760405162461bcd60e51b815260206004820152600f60248201526e119050d513d49657d254d7d3955313608a1b60448201526064016103d3565b6065546001600160a01b0316331461080c5760405162461bcd60e51b815260206004820152600b60248201526a4e4f545f464143544f525960a81b60448201526064016103d3565b6104cc8282610ed3565b3360009081526034602090815260408083206001600160a01b0386168452909152812054828110156108b05760405162461bcd60e51b815260206004820152602560248201527f45524332303a2064656372656173656420616c6c6f77616e63652062656c6f7760448201527f207a65726f00000000000000000000000000000000000000000000000000000060648201526084016103d3565b6108bd3385858403610a0c565b5060019392505050565b6000610327338484610b30565b6040805161012081018252600060608083018281526080840183905260a084019190915260c0830182905260e08301829052610100830182905282526020820181905291810191909152604080516101208101825260668054606083019081526067546080840152606880548551602082810282018101909752818152949593948694869360a0870193909183018282801561098f57602002820191906000526020600020905b81548152602001906001019080831161097b575b505050918352505060038201546001600160a01b0390811660208084019190915260048401548216604084015260059093015416606090910152908252600683015491019060ff1660018111156109e8576109e86116cf565b60018111156109f9576109f96116cf565b8152602001600782015481525050905090565b6001600160a01b038316610a6e5760405162461bcd60e51b8152602060048201526024808201527f45524332303a20617070726f76652066726f6d20746865207a65726f206164646044820152637265737360e01b60648201526084016103d3565b6001600160a01b038216610acf5760405162461bcd60e51b815260206004820152602260248201527f45524332303a20617070726f766520746f20746865207a65726f206164647265604482015261737360f01b60648201526084016103d3565b6001600160a01b0383811660008181526034602090815260408083209487168084529482529182902085905590518481527f8c5be1e5ebec7d5bd14f71427d1e84f3dd0314c0f7b2291e5b200ac8c7c3b925910160405180910390a3505050565b6001600160a01b038316610bac5760405162461bcd60e51b815260206004820152602560248201527f45524332303a207472616e736665722066726f6d20746865207a65726f20616460448201527f647265737300000000000000000000000000000000000000000000000000000060648201526084016103d3565b6001600160a01b038216610c0e5760405162461bcd60e51b815260206004820152602360248201527f45524332303a207472616e7366657220746f20746865207a65726f206164647260448201526265737360e81b60648201526084016103d3565b6001600160a01b03831660009081526033602052604090205481811015610c9d5760405162461bcd60e51b815260206004820152602660248201527f45524332303a207472616e7366657220616d6f756e742065786365656473206260448201527f616c616e6365000000000000000000000000000000000000000000000000000060648201526084016103d3565b6001600160a01b03808516600090815260336020526040808220858503905591851681529081208054849290610cd4908490611552565b92505081905550826001600160a01b0316846001600160a01b03167fddf252ad1be2c89b69c2b068fc378daa952ba7f163c4a11628f55a4df523b3ef84604051610d2091815260200190565b60405180910390a3610765565b6001600160a01b038216610d835760405162461bcd60e51b815260206004820152601f60248201527f45524332303a206d696e7420746f20746865207a65726f20616464726573730060448201526064016103d3565b8060356000828254610d959190611552565b90915550506001600160a01b03821660009081526033602052604081208054839290610dc2908490611552565b90915550506040518181526001600160a01b038316906000907fddf252ad1be2c89b69c2b068fc378daa952ba7f163c4a11628f55a4df523b3ef9060200160405180910390a35050565b600054610100900460ff1680610e25575060005460ff16155b610e885760405162461bcd60e51b815260206004820152602e60248201527f496e697469616c697a61626c653a20636f6e747261637420697320616c72656160448201526d191e481a5b9a5d1a585b1a5e995960921b60648201526084016103d3565b600054610100900460ff16158015610eaa576000805461ffff19166101011790555b610eb2611021565b610ebc83836110d4565b8015610ece576000805461ff00191690555b505050565b6001600160a01b038216610f335760405162461bcd60e51b815260206004820152602160248201527f45524332303a206275726e2066726f6d20746865207a65726f206164647265736044820152607360f81b60648201526084016103d3565b6001600160a01b03821660009081526033602052604090205481811015610fa75760405162461bcd60e51b815260206004820152602260248201527f45524332303a206275726e20616d6f756e7420657863656564732062616c616e604482015261636560f01b60648201526084016103d3565b6001600160a01b0383166000908152603360205260408120838303905560358054849290610fd690849061156a565b90915550506040518281526000906001600160a01b038516907fddf252ad1be2c89b69c2b068fc378daa952ba7f163c4a11628f55a4df523b3ef9060200160405180910390a3505050565b600054610100900460ff168061103a575060005460ff16155b61109d5760405162461bcd60e51b815260206004820152602e60248201527f496e697469616c697a61626c653a20636f6e747261637420697320616c72656160448201526d191e481a5b9a5d1a585b1a5e995960921b60648201526084016103d3565b600054610100900460ff161580156110bf576000805461ffff19166101011790555b80156110d1576000805461ff00191690555b50565b600054610100900460ff16806110ed575060005460ff16155b6111505760405162461bcd60e51b815260206004820152602e60248201527f496e697469616c697a61626c653a20636f6e747261637420697320616c72656160448201526d191e481a5b9a5d1a585b1a5e995960921b60648201526084016103d3565b600054610100900460ff16158015611172576000805461ffff19166101011790555b82516111859060369060208601906111fb565b5081516111999060379060208501906111fb565b508015610ece576000805461ff0019169055505050565b8280548282559060005260206000209081019282156111eb579160200282015b828111156111eb5782518255916020019190600101906111d0565b506111f792915061126e565b5090565b8280546112079061167e565b90600052602060002090601f01602090048101928261122957600085556111eb565b82601f1061124257805160ff19168380011785556111eb565b828001600101855582156111eb57918201828111156111eb5782518255916020019190600101906111d0565b5b808211156111f7576000815560010161126f565b80356001600160a01b038116811461129a57600080fd5b919050565b6000602082840312156112b157600080fd5b6112ba82611283565b9392505050565b600080604083850312156112d457600080fd5b6112dd83611283565b91506112eb60208401611283565b90509250929050565b60008060006060848603121561130957600080fd5b61131284611283565b925061132060208501611283565b9150604084013590509250925092565b6000806040838503121561134357600080fd5b61134c83611283565b946020939093013593505050565b60008060006060848603121561136f57600080fd5b8335925060208401356002811061138557600080fd5b9150604084013567ffffffffffffffff8111156113a157600080fd5b840160c081870312156113b357600080fd5b809150509250925092565b600281106113dc57634e487b7160e01b600052602160045260246000fd5b9052565b600060208083528351808285015260005b8181101561140d578581018301518582016040015282016113f1565b8181111561141f576000604083870101525b50601f01601f1916929092016040019392505050565b60208082528251606083830152805160808401528082015160a0840152604081015160c08085015280516101408501819052600093929183019084906101608701905b808310156114985783518252928501926001929092019190850190611478565b5060608401516001600160a01b0390811660e089015260808501518082166101008a015260a09095015190811661012089015293925093870151936114e060408801866113be565b60408801516060880152809550505050505092915050565b60405160c0810167ffffffffffffffff8111828210171561151b5761151b6116e5565b60405290565b604051601f8201601f1916810167ffffffffffffffff8111828210171561154a5761154a6116e5565b604052919050565b60008219821115611565576115656116b9565b500190565b60008282101561157c5761157c6116b9565b500390565b600060c0823603121561159357600080fd5b61159b6114f8565b8235815260208084013581830152604084013567ffffffffffffffff808211156115c457600080fd5b9085019036601f8301126115d757600080fd5b8135818111156115e9576115e96116e5565b8060051b91506115fa848301611521565b81815284810190848601368587018801111561161557600080fd5b600095505b8386101561163857803583526001959095019491860191860161161a565b5080604088015250505050505061165160608401611283565b606082015261166260808401611283565b608082015261167360a08401611283565b60a082015292915050565b600181811c9082168061169257607f821691505b602082108114156116b357634e487b7160e01b600052602260045260246000fd5b50919050565b634e487b7160e01b600052601160045260246000fd5b634e487b7160e01b600052602160045260246000fd5b634e487b7160e01b600052604160045260246000fdfea2646970667358221220f2467a600c6df471f72aaf72fa108fa6ae188fac10227145413e704e0c86676164736f6c63430008050033a2646970667358221220dc0b65cd2135085ed685fde67f6c86d95df7be184a321d646ca4fe9ac97ad57f64736f6c63430008050033",
  "devdoc": {
    "kind": "dev",
    "methods": {
      "burn(address,address,uint256)": {
        "details": "the ERC20 position token's address is calculated via create2 - if a contract already exists at the create2 address of either the LONG or SHORT position then the entire function reverts",
        "params": {
          "_amount": "amount of position tokens to be minted to the _positionHolder",
          "_positionAddress": "address of the position token to be burnt",
          "_positionOwner": "address of the owner of the specified position token"
        }
      },
      "burnPair(address,address,address,uint256)": {
        "params": {
          "_amount": "amount of position tokens to be minted to the _positionHolder",
          "_longPositionAddress": "address of the deployed LONG position token",
          "_positionOwner": "address of the owner of the LONG/SHORT position tokens",
          "_shortPositionAddress": "address of the deployed SHORT position token"
        }
      },
      "create(address,address,uint256,bytes32,(uint256,uint256,uint256[],address,address,address))": {
        "details": "the ERC20 position token's address is calculated via create2 - if a contract already exists at the create2 address of either the LONG or SHORT position then the entire function reverts",
        "params": {
          "_amount": "amount of position tokens to be minted to the _positionHolder",
          "_buyer": "address of the recipient of the LONG position tokens",
          "_derivative": "LibDerivative.Derivative Derivative definition",
          "_derivativeHash": "bytes32 hash of `LibDerivative.Derivative`",
          "_seller": "address of the recipient of the SHORT position tokens"
        }
      },
      "getImplementationAddress()": {
        "returns": {
          "_0": "_opiumPositionTokenParams OpiumPositionTokenParams struct which contains `LibDerivative.Derivative` schema of the derivative, the ` LibDerivative.PositionType` of the present ERC20 token and the bytes32 hash `derivativeHash` of the `LibDerivative.Derivative` derivative"
        }
      },
      "initialize(address)": {
        "details": "it sets the the address of the implementation of the OpiumPositionToken contract which will be used for the factory-deployment of erc20 positions via the minimal proxy contract",
        "params": {
          "_registry": "address of Opium.Registry"
        }
      },
      "mintPair(address,address,address,address,uint256)": {
        "details": "the ERC20 position token's address is calculated via create2 - if a contract already exists at the create2 address of either the LONG or SHORT position then the function reverts",
        "params": {
          "_amount": "amount of position tokens to be minted to the _positionHolder",
          "_buyer": "address of the recipient of the LONG position tokens",
          "_longPositionAddress": "address of the deployed LONG position token",
          "_seller": "address of the recipient of the SHORT position tokens",
          "_shortPositionAddress": "address of the deployed SHORT position token"
        }
      }
    },
    "title": "Opium.OpiumProxyFactory contract manages the deployment of ERC20 LONG/SHORT positions for a given `LibDerivative.Derivative` structure and it's responsible for minting and burning positions according to the parameters supplied by `Opium.Core`",
    "version": 1
  },
  "userdoc": {
    "kind": "user",
    "methods": {
      "burn(address,address,uint256)": {
        "notice": "it burns specified amount of a specific position tokens on behalf of a specified ownerit is consumed by Opium.Core to execute or cancel a specific position type"
      },
      "burnPair(address,address,address,uint256)": {
        "notice": "it burns specified amount of LONG/SHORT position tokens on behalf of a specified ownerit is consumed by Opium.Core to redeem market neutral position pairs"
      },
      "create(address,address,uint256,bytes32,(uint256,uint256,uint256[],address,address,address))": {
        "notice": "it creates a specified amount of LONG/SHORT position tokens on behalf of the buyer(LONG) and seller(SHORT) - the specified amount can be 0 in which case the ERC20 contract of the position tokens will only be deployed"
      },
      "getImplementationAddress()": {
        "notice": "read-only getter to retrieve the information about the underlying derivative"
      },
      "initialize(address)": {
        "notice": "it is called only once upon deployment of the contract"
      },
      "mintPair(address,address,address,address,uint256)": {
        "notice": "it creates a specified amount of LONG/SHORT position tokens on behalf of the buyer(LONG) and seller(SHORT) - the specified amount can be 0 in which case the ERC20 contract of the position tokens will only be deployed"
      }
    },
    "version": 1
  },
  "storageLayout": {
    "storage": [
      {
        "astId": 413,
        "contract": "contracts/OpiumProxyFactory.sol:OpiumProxyFactory",
        "label": "_initialized",
        "offset": 0,
        "slot": "0",
        "type": "t_bool"
      },
      {
        "astId": 416,
        "contract": "contracts/OpiumProxyFactory.sol:OpiumProxyFactory",
        "label": "_initializing",
        "offset": 1,
        "slot": "0",
        "type": "t_bool"
      },
      {
        "astId": 4811,
        "contract": "contracts/OpiumProxyFactory.sol:OpiumProxyFactory",
        "label": "registry",
        "offset": 2,
        "slot": "0",
        "type": "t_contract(IRegistry)4245"
      },
      {
        "astId": 4813,
        "contract": "contracts/OpiumProxyFactory.sol:OpiumProxyFactory",
        "label": "opiumPositionTokenImplementation",
        "offset": 0,
        "slot": "1",
        "type": "t_address"
      }
    ],
    "types": {
      "t_address": {
        "encoding": "inplace",
        "label": "address",
        "numberOfBytes": "20"
      },
      "t_bool": {
        "encoding": "inplace",
        "label": "bool",
        "numberOfBytes": "1"
      },
      "t_contract(IRegistry)4245": {
        "encoding": "inplace",
        "label": "contract IRegistry",
        "numberOfBytes": "20"
      }
    }
  }
}