{
  "address": "0xB73346aEb81dF6Cd055E6115bbED17dce711A56F",
  "abi": [
    {
      "inputs": [],
      "stateMutability": "nonpayable",
      "type": "constructor"
    },
    {
      "anonymous": false,
      "inputs": [
        {
          "indexed": false,
          "internalType": "string",
          "name": "metadata",
          "type": "string"
        }
      ],
      "name": "MetadataSet",
      "type": "event"
    },
    {
      "inputs": [
        {
          "internalType": "bool",
          "name": "allow",
          "type": "bool"
        }
      ],
      "name": "allowThirdpartyExecution",
      "outputs": [],
      "stateMutability": "nonpayable",
      "type": "function"
    },
    {
      "inputs": [],
      "name": "getAuthorAddress",
      "outputs": [
        {
          "internalType": "address",
          "name": "",
          "type": "address"
        }
      ],
      "stateMutability": "view",
      "type": "function"
    },
    {
      "inputs": [],
      "name": "getAuthorCommission",
      "outputs": [
        {
          "internalType": "uint256",
          "name": "",
          "type": "uint256"
        }
      ],
      "stateMutability": "view",
      "type": "function"
    },
    {
      "inputs": [
        {
          "components": [
            {
              "internalType": "uint256",
              "name": "margin",
              "type": "uint256"
            },
            {
              "internalType": "uint256",
              "name": "endTime",
              "type": "uint256"
            },
            {
              "internalType": "uint256[]",
              "name": "params",
              "type": "uint256[]"
            },
            {
              "internalType": "address",
              "name": "oracleId",
              "type": "address"
            },
            {
              "internalType": "address",
              "name": "token",
              "type": "address"
            },
            {
              "internalType": "address",
              "name": "syntheticId",
              "type": "address"
            }
          ],
          "internalType": "struct LibDerivative.Derivative",
          "name": "_derivative",
          "type": "tuple"
        },
        {
          "internalType": "uint256",
          "name": "_result",
          "type": "uint256"
        }
      ],
      "name": "getExecutionPayout",
      "outputs": [
        {
          "internalType": "uint256",
          "name": "buyerPayout",
          "type": "uint256"
        },
        {
          "internalType": "uint256",
          "name": "sellerPayout",
          "type": "uint256"
        }
      ],
      "stateMutability": "view",
      "type": "function"
    },
    {
      "inputs": [
        {
          "components": [
            {
              "internalType": "uint256",
              "name": "margin",
              "type": "uint256"
            },
            {
              "internalType": "uint256",
              "name": "endTime",
              "type": "uint256"
            },
            {
              "internalType": "uint256[]",
              "name": "params",
              "type": "uint256[]"
            },
            {
              "internalType": "address",
              "name": "oracleId",
              "type": "address"
            },
            {
              "internalType": "address",
              "name": "token",
              "type": "address"
            },
            {
              "internalType": "address",
              "name": "syntheticId",
              "type": "address"
            }
          ],
          "internalType": "struct LibDerivative.Derivative",
          "name": "_derivative",
          "type": "tuple"
        }
      ],
      "name": "getMargin",
      "outputs": [
        {
          "internalType": "uint256",
          "name": "buyerMargin",
          "type": "uint256"
        },
        {
          "internalType": "uint256",
          "name": "sellerMargin",
          "type": "uint256"
        }
      ],
      "stateMutability": "view",
      "type": "function"
    },
    {
      "inputs": [
        {
          "internalType": "address",
          "name": "derivativeOwner",
          "type": "address"
        }
      ],
      "name": "thirdpartyExecutionAllowed",
      "outputs": [
        {
          "internalType": "bool",
          "name": "",
          "type": "bool"
        }
      ],
      "stateMutability": "view",
      "type": "function"
    },
    {
      "inputs": [
        {
          "components": [
            {
              "internalType": "uint256",
              "name": "margin",
              "type": "uint256"
            },
            {
              "internalType": "uint256",
              "name": "endTime",
              "type": "uint256"
            },
            {
              "internalType": "uint256[]",
              "name": "params",
              "type": "uint256[]"
            },
            {
              "internalType": "address",
              "name": "oracleId",
              "type": "address"
            },
            {
              "internalType": "address",
              "name": "token",
              "type": "address"
            },
            {
              "internalType": "address",
              "name": "syntheticId",
              "type": "address"
            }
          ],
          "internalType": "struct LibDerivative.Derivative",
          "name": "_derivative",
          "type": "tuple"
        }
      ],
      "name": "validateInput",
      "outputs": [
        {
          "internalType": "bool",
          "name": "",
          "type": "bool"
        }
      ],
      "stateMutability": "view",
      "type": "function"
    }
  ],
  "transactionHash": "0xef9e9b1cfc1ca5326fa8bcb4ee391c8f3dd24cbc361c5a3bbf26c265fd0daf81",
  "args": [],
  "solcInputHash": "658042053585c715e56757d0a4fb45c0",
  "bytecode": "0x608060405234801561001057600080fd5b50600180546001600160a01b031916331790556040517f69354b8b791679340802bbe48036393ca1a4cdc6c29e8352bfb1e845c3c03108906100d090602080825260609082018190527f7b22617574686f72223a224449422e4f4e45222c2274797065223a226f70746960408301527f6f6e222c2273756274797065223a2263616c6c222c226465736372697074696f908201527f6e223a224f7074696f6e2043616c6c206c6f67696320636f6e7472616374227d608082015260a00190565b60405180910390a1610641806100e76000396000f3fe608060405234801561001057600080fd5b506004361061007d5760003560e01c80633a84543e1161005b5780633a84543e14610101578063a4300ee514610110578063dd0060fd14610130578063f22430e81461014357600080fd5b80630433fe45146100825780630e49dee8146100b05780633a6f60a9146100de575b600080fd5b61009661009036600461049d565b51600091565b604080519283526020830191909152015b60405180910390f35b6100dc6100be36600461047b565b336000908152602081905260409020805460ff191682151517905550565b005b6100f16100ec36600461049d565b61016f565b60405190151581526020016100a7565b604051601981526020016100a7565b610118610227565b6040516001600160a01b0390911681526020016100a7565b61009661013e3660046104d2565b61023b565b6100f1610151366004610460565b6001600160a01b031660009081526020819052604090205460ff1690565b60006001826040015151101561018757506000919050565b6000826040015151600214156101bd5782604001516001815181106101ae576101ae6105df565b602002602001015190506101c8565b50670de0b6b3a76400005b600083604001516000815181106101e1576101e16105df565b60200260200101519050600084600001511180156102025750428460200151115b801561020e5750600081115b801561021a5750600082115b949350505050565b905090565b60006102226001546001600160a01b031690565b6000806000808560400151600081518110610258576102586105df565b6020026020010151905085604001515160021415610296578560400151600181518110610287576102876105df565b602002602001015191506102a2565b670de0b6b3a764000091505b808511156103075760006102b68683610319565b90506102d4670de0b6b3a76400006102ce838661032c565b90610338565b87519091508110156102f857865190945084906102f19082610319565b9350610301565b86519450600093505b50610310565b85516000945092505b50509250929050565b600061032582846105b2565b9392505050565b60006103258284610593565b60006103258284610571565b80356001600160a01b038116811461035b57600080fd5b919050565b600060c0828403121561037257600080fd5b61037a610517565b90508135815260208083013581830152604083013567ffffffffffffffff808211156103a557600080fd5b818501915085601f8301126103b957600080fd5b8135818111156103cb576103cb6105f5565b8060051b91506103dc848301610540565b8181528481019084860184860187018a10156103f757600080fd5b600095505b8386101561041a5780358352600195909501949186019186016103fc565b5080604088015250505050505061043360608301610344565b606082015261044460808301610344565b608082015261045560a08301610344565b60a082015292915050565b60006020828403121561047257600080fd5b61032582610344565b60006020828403121561048d57600080fd5b8135801515811461032557600080fd5b6000602082840312156104af57600080fd5b813567ffffffffffffffff8111156104c657600080fd5b61021a84828501610360565b600080604083850312156104e557600080fd5b823567ffffffffffffffff8111156104fc57600080fd5b61050885828601610360565b95602094909401359450505050565b60405160c0810167ffffffffffffffff8111828210171561053a5761053a6105f5565b60405290565b604051601f8201601f1916810167ffffffffffffffff81118282101715610569576105696105f5565b604052919050565b60008261058e57634e487b7160e01b600052601260045260246000fd5b500490565b60008160001904831182151516156105ad576105ad6105c9565b500290565b6000828210156105c4576105c46105c9565b500390565b634e487b7160e01b600052601160045260246000fd5b634e487b7160e01b600052603260045260246000fd5b634e487b7160e01b600052604160045260246000fdfea26469706673582212201d53e170e16e245c56bd85fb22f821aed4b7e882d7c6ea90a205cbdf1f44f63c64736f6c63430008050033",
  "devdoc": {
    "kind": "dev",
    "methods": {
      "getAuthorAddress()": {
        "returns": {
          "_0": "address syntheticId author address"
        }
      },
      "getAuthorCommission()": {
        "returns": {
          "_0": "uint26 syntheticId author commission"
        }
      },
      "getExecutionPayout((uint256,uint256,uint256[],address,address,address),uint256)": {
        "params": {
          "_derivative": "Derivative Instance of derivative",
          "_result": "uint256 Data retrieved from oracleId on the maturity"
        },
        "returns": {
          "buyerPayout": "uint256 Payout in ratio for buyer (LONG position holder)",
          "sellerPayout": "uint256 Payout in ratio for seller (SHORT position holder)"
        }
      },
      "getMargin((uint256,uint256,uint256[],address,address,address))": {
        "params": {
          "_derivative": "Derivative Instance of derivative"
        },
        "returns": {
          "buyerMargin": "uint256 Margin needed from buyer (LONG position)",
          "sellerMargin": "uint256 Margin needed from seller (SHORT position)"
        }
      },
      "validateInput((uint256,uint256,uint256[],address,address,address))": {
        "params": {
          "_derivative": "Derivative Instance of derivative to validate"
        },
        "returns": {
          "_0": "Returns boolean whether ticker is valid"
        }
      }
    },
    "version": 1
  },
  "userdoc": {
    "kind": "user",
    "methods": {
      "getAuthorAddress()": {
        "notice": "Getter for syntheticId author address"
      },
      "getAuthorCommission()": {
        "notice": "Getter for syntheticId author commission"
      },
      "getExecutionPayout((uint256,uint256,uint256[],address,address,address),uint256)": {
        "notice": "Calculates payout for derivative execution"
      },
      "getMargin((uint256,uint256,uint256[],address,address,address))": {
        "notice": "Calculates margin required for derivative creation"
      },
      "validateInput((uint256,uint256,uint256[],address,address,address))": {
        "notice": "Validates ticker"
      }
    },
    "version": 1
  },
  "storageLayout": {
    "storage": [
      {
        "astId": 3732,
        "contract": "contracts/test/OptionCallSyntheticIdMock.sol:OptionCallSyntheticIdMock",
        "label": "thirdpartyExecutionAllowance",
        "offset": 0,
        "slot": "0",
        "type": "t_mapping(t_address,t_bool)"
      },
      {
        "astId": 3765,
        "contract": "contracts/test/OptionCallSyntheticIdMock.sol:OptionCallSyntheticIdMock",
        "label": "author",
        "offset": 0,
        "slot": "1",
        "type": "t_address"
      }
    ],
    "types": {
      "t_address": {
        "encoding": "inplace",
        "label": "address",
        "numberOfBytes": "20"
      },
      "t_bool": {
        "encoding": "inplace",
        "label": "bool",
        "numberOfBytes": "1"
      },
      "t_mapping(t_address,t_bool)": {
        "encoding": "mapping",
        "key": "t_address",
        "label": "mapping(address => bool)",
        "numberOfBytes": "32",
        "value": "t_bool"
      }
    }
  }
}