{
  "address": "0x59F9965e219d63a313B79F9f16F6bc7224FF3D9d",
  "abi": [
    {
      "inputs": [
        {
          "internalType": "uint256",
          "name": "timestamp",
          "type": "uint256"
        },
        {
          "internalType": "uint256",
          "name": "data",
          "type": "uint256"
        }
      ],
      "name": "__callback",
      "outputs": [],
      "stateMutability": "nonpayable",
      "type": "function"
    },
    {
      "inputs": [
        {
          "internalType": "address",
          "name": "oracleId",
          "type": "address"
        },
        {
          "internalType": "uint256",
          "name": "timestamp",
          "type": "uint256"
        }
      ],
      "name": "getData",
      "outputs": [
        {
          "internalType": "uint256",
          "name": "dataResult",
          "type": "uint256"
        }
      ],
      "stateMutability": "view",
      "type": "function"
    },
    {
      "inputs": [
        {
          "internalType": "address",
          "name": "oracleId",
          "type": "address"
        },
        {
          "internalType": "uint256",
          "name": "timestamp",
          "type": "uint256"
        }
      ],
      "name": "hasData",
      "outputs": [
        {
          "internalType": "bool",
          "name": "result",
          "type": "bool"
        }
      ],
      "stateMutability": "view",
      "type": "function"
    }
  ],
  "transactionHash": "0xe2b39aaa4740019a2d418f3e3eafcce7c0675fc759628b518ff577f5bc21f898",
  "args": [],
  "solcInputHash": "658042053585c715e56757d0a4fb45c0",
  "bytecode": "0x608060405234801561001057600080fd5b50610269806100206000396000f3fe608060405234801561001057600080fd5b50600436106100415760003560e01c80632979d025146100465780633102e5ab1461006c578063c8384d2f14610081575b600080fd5b6100596100543660046101d9565b6100ca565b6040519081526020015b60405180910390f35b61007f61007a366004610211565b61014d565b005b6100ba61008f3660046101d9565b6001600160a01b03919091166000908152600160209081526040808320938352929052205460ff1690565b6040519015158152602001610063565b6001600160a01b038216600090815260016020908152604080832084845290915281205460ff166101275760405162461bcd60e51b8152602060048201526002602482015261279960f11b60448201526064015b60405180910390fd5b506001600160a01b03909116600090815260208181526040808320938352929052205490565b33600090815260016020908152604080832085845290915290205460ff161561019d5760405162461bcd60e51b81526020600482015260026024820152614f3160f01b604482015260640161011e565b3360008181526020818152604080832086845282528083209490945591815260018083528382209482529390915220805460ff19169091179055565b600080604083850312156101ec57600080fd5b82356001600160a01b038116811461020357600080fd5b946020939093013593505050565b6000806040838503121561022457600080fd5b5050803592602090910135915056fea264697066735822122092a364308c389d5e3888e376e5ffd3c48d0bf56de4425118a838f957cdbf10a164736f6c63430008050033",
  "devdoc": {
    "kind": "dev",
    "methods": {
      "__callback(uint256,uint256)": {
        "params": {
          "data": "uint256 Data itself",
          "timestamp": "uint256 Timestamp of data"
        }
      },
      "getData(address,uint256)": {
        "params": {
          "oracleId": "address Address of the `oracleId` smart contract",
          "timestamp": "uint256 Timestamp at which data were requested"
        },
        "returns": {
          "dataResult": "uint256 Cached data provided by `oracleId`"
        }
      },
      "hasData(address,uint256)": {
        "params": {
          "oracleId": "address Address of the `oracleId` smart contract",
          "result": "bool Returns whether data were provided already",
          "timestamp": "uint256 Timestamp at which data were requested"
        }
      }
    },
    "title": "Opium.OracleAggregator contract requests and caches the data from `oracleId`s and provides them to the Core for positions execution",
    "version": 1
  },
  "userdoc": {
    "kind": "user",
    "methods": {
      "__callback(uint256,uint256)": {
        "notice": "Receives and caches data from `msg.sender`"
      },
      "getData(address,uint256)": {
        "notice": "Returns cached data if they exist, or reverts with an error"
      },
      "hasData(address,uint256)": {
        "notice": "Getter for dataExist mapping"
      }
    },
    "version": 1
  },
  "storageLayout": {
    "storage": [
      {
        "astId": 5100,
        "contract": "contracts/OracleAggregator.sol:OracleAggregator",
        "label": "dataCache",
        "offset": 0,
        "slot": "0",
        "type": "t_mapping(t_address,t_mapping(t_uint256,t_uint256))"
      },
      {
        "astId": 5106,
        "contract": "contracts/OracleAggregator.sol:OracleAggregator",
        "label": "dataExist",
        "offset": 0,
        "slot": "1",
        "type": "t_mapping(t_address,t_mapping(t_uint256,t_bool))"
      }
    ],
    "types": {
      "t_address": {
        "encoding": "inplace",
        "label": "address",
        "numberOfBytes": "20"
      },
      "t_bool": {
        "encoding": "inplace",
        "label": "bool",
        "numberOfBytes": "1"
      },
      "t_mapping(t_address,t_mapping(t_uint256,t_bool))": {
        "encoding": "mapping",
        "key": "t_address",
        "label": "mapping(address => mapping(uint256 => bool))",
        "numberOfBytes": "32",
        "value": "t_mapping(t_uint256,t_bool)"
      },
      "t_mapping(t_address,t_mapping(t_uint256,t_uint256))": {
        "encoding": "mapping",
        "key": "t_address",
        "label": "mapping(address => mapping(uint256 => uint256))",
        "numberOfBytes": "32",
        "value": "t_mapping(t_uint256,t_uint256)"
      },
      "t_mapping(t_uint256,t_bool)": {
        "encoding": "mapping",
        "key": "t_uint256",
        "label": "mapping(uint256 => bool)",
        "numberOfBytes": "32",
        "value": "t_bool"
      },
      "t_mapping(t_uint256,t_uint256)": {
        "encoding": "mapping",
        "key": "t_uint256",
        "label": "mapping(uint256 => uint256)",
        "numberOfBytes": "32",
        "value": "t_uint256"
      },
      "t_uint256": {
        "encoding": "inplace",
        "label": "uint256",
        "numberOfBytes": "32"
      }
    }
  }
}