{
  "address": "0x7ae878b18b26AFB58A077D46Fd5d5686D37F09dD",
  "abi": [
    {
      "inputs": [
        {
          "internalType": "uint256",
          "name": "_fetchPrice",
          "type": "uint256"
        },
        {
          "internalType": "address",
          "name": "_registry",
          "type": "address"
        }
      ],
      "stateMutability": "nonpayable",
      "type": "constructor"
    },
    {
      "anonymous": false,
      "inputs": [
        {
          "indexed": false,
          "internalType": "string",
          "name": "metadata",
          "type": "string"
        }
      ],
      "name": "MetadataSet",
      "type": "event"
    },
    {
      "inputs": [],
      "name": "calculateFetchPrice",
      "outputs": [
        {
          "internalType": "uint256",
          "name": "",
          "type": "uint256"
        }
      ],
      "stateMutability": "nonpayable",
      "type": "function"
    },
    {
      "inputs": [
        {
          "internalType": "uint256",
          "name": "timestamp",
          "type": "uint256"
        }
      ],
      "name": "fetchData",
      "outputs": [],
      "stateMutability": "payable",
      "type": "function"
    },
    {
      "inputs": [
        {
          "internalType": "uint256",
          "name": "timestamp",
          "type": "uint256"
        },
        {
          "internalType": "uint256",
          "name": "period",
          "type": "uint256"
        },
        {
          "internalType": "uint256",
          "name": "times",
          "type": "uint256"
        }
      ],
      "name": "recursivelyFetchData",
      "outputs": [],
      "stateMutability": "payable",
      "type": "function"
    },
    {
      "inputs": [
        {
          "internalType": "uint256",
          "name": "timestamp",
          "type": "uint256"
        },
        {
          "internalType": "uint256",
          "name": "returnData",
          "type": "uint256"
        }
      ],
      "name": "triggerCallback",
      "outputs": [],
      "stateMutability": "nonpayable",
      "type": "function"
    }
  ],
  "transactionHash": "0x597a931b96f2a7332b3aca8defb05780500e2d4b39e2c7868da1dd6b52938176",
  "args": [
    "100000000000000000",
    "0x6bceD2a78E5709Acf1B017b031312369857e0f95"
  ],
  "solcInputHash": "658042053585c715e56757d0a4fb45c0",
  "bytecode": "0x608060405234801561001057600080fd5b5060405161030b38038061030b83398101604081905261002f91610059565b600091909155600180546001600160a01b0319166001600160a01b03909216919091179055610096565b6000806040838503121561006c57600080fd5b825160208401519092506001600160a01b038116811461008b57600080fd5b809150509250929050565b610266806100a56000396000f3fe60806040526004361061003f5760003560e01c806316f937b114610044578063760768db146100665780637bc9f04a14610079578063864905ba1461009b575b600080fd5b34801561005057600080fd5b5061006461005f3660046101e2565b6100ac565b005b610064610074366004610204565b505050565b34801561008557600080fd5b5060005460405190815260200160405180910390f35b6100646100a93660046101c9565b50565b600160009054906101000a90046001600160a01b03166001600160a01b031663d34ac2bc6040518163ffffffff1660e01b815260040160206040518083038186803b1580156100fa57600080fd5b505afa15801561010e573d6000803e3d6000fd5b505050506040513d601f19601f820116820180604052508101906101329190610199565b604051633102e5ab60e01b815260048101849052602481018390526001600160a01b039190911690633102e5ab90604401600060405180830381600087803b15801561017d57600080fd5b505af1158015610191573d6000803e3d6000fd5b505050505050565b6000602082840312156101ab57600080fd5b81516001600160a01b03811681146101c257600080fd5b9392505050565b6000602082840312156101db57600080fd5b5035919050565b600080604083850312156101f557600080fd5b50508035926020909101359150565b60008060006060848603121561021957600080fd5b50508135936020830135935060409092013591905056fea2646970667358221220f6636817729fa50c38f472adfc3f5ee239d2003e821f5e63ccf4ff5ce8b5e86c64736f6c63430008050033",
  "devdoc": {
    "kind": "dev",
    "methods": {
      "calculateFetchPrice()": {
        "returns": {
          "_0": "uint256 Price of one data request in ETH"
        }
      },
      "fetchData(uint256)": {
        "params": {
          "timestamp": "uint256 Timestamp at which data are needed"
        }
      },
      "recursivelyFetchData(uint256,uint256,uint256)": {
        "params": {
          "period": "uint256 Period in seconds between multiple timestamps",
          "times": "uint256 How many timestamps are requested",
          "timestamp": "uint256 Timestamp at which data are needed for the first time"
        }
      }
    },
    "version": 1
  },
  "userdoc": {
    "kind": "user",
    "methods": {
      "calculateFetchPrice()": {
        "notice": "Requests and returns price in ETH for one request. This function could be called as `view` function. Oraclize API for price calculations restricts making this function as view."
      },
      "fetchData(uint256)": {
        "notice": "Requests data from `oracleId` one time"
      },
      "recursivelyFetchData(uint256,uint256,uint256)": {
        "notice": "Requests data from `oracleId` multiple times"
      }
    },
    "version": 1
  },
  "storageLayout": {
    "storage": [
      {
        "astId": 6371,
        "contract": "contracts/test/OracleIdMock.sol:OracleIdMock",
        "label": "fetchPrice",
        "offset": 0,
        "slot": "0",
        "type": "t_uint256"
      },
      {
        "astId": 6374,
        "contract": "contracts/test/OracleIdMock.sol:OracleIdMock",
        "label": "registry",
        "offset": 0,
        "slot": "1",
        "type": "t_contract(IRegistry)4245"
      }
    ],
    "types": {
      "t_contract(IRegistry)4245": {
        "encoding": "inplace",
        "label": "contract IRegistry",
        "numberOfBytes": "20"
      },
      "t_uint256": {
        "encoding": "inplace",
        "label": "uint256",
        "numberOfBytes": "32"
      }
    }
  }
}