{
  "address": "0x9E5900bA0f35EcDCbf75d819B2C80E8FeA05537e",
  "abi": [
    {
      "anonymous": false,
      "inputs": [
        {
          "indexed": false,
          "internalType": "uint256",
          "name": "_noDataCancellationPeriod",
          "type": "uint256"
        }
      ],
      "name": "LogNoDataCancellationPeriodChange",
      "type": "event"
    },
    {
      "anonymous": false,
      "inputs": [
        {
          "indexed": false,
          "internalType": "uint256",
          "name": "_opiumCommission",
          "type": "uint256"
        }
      ],
      "name": "LogOpiumCommissionChange",
      "type": "event"
    },
    {
      "anonymous": false,
      "inputs": [
        {
          "indexed": false,
          "internalType": "address",
          "name": "_whitelisted",
          "type": "address"
        }
      ],
      "name": "LogWhitelistAccount",
      "type": "event"
    },
    {
      "anonymous": false,
      "inputs": [
        {
          "indexed": false,
          "internalType": "address",
          "name": "_whitelisted",
          "type": "address"
        }
      ],
      "name": "LogWhitelistAccountRemoved",
      "type": "event"
    },
    {
      "anonymous": false,
      "inputs": [
        {
          "indexed": true,
          "internalType": "bytes32",
          "name": "role",
          "type": "bytes32"
        },
        {
          "indexed": true,
          "internalType": "bytes32",
          "name": "previousAdminRole",
          "type": "bytes32"
        },
        {
          "indexed": true,
          "internalType": "bytes32",
          "name": "newAdminRole",
          "type": "bytes32"
        }
      ],
      "name": "RoleAdminChanged",
      "type": "event"
    },
    {
      "anonymous": false,
      "inputs": [
        {
          "indexed": true,
          "internalType": "bytes32",
          "name": "role",
          "type": "bytes32"
        },
        {
          "indexed": true,
          "internalType": "address",
          "name": "account",
          "type": "address"
        },
        {
          "indexed": true,
          "internalType": "address",
          "name": "sender",
          "type": "address"
        }
      ],
      "name": "RoleGranted",
      "type": "event"
    },
    {
      "anonymous": false,
      "inputs": [
        {
          "indexed": true,
          "internalType": "bytes32",
          "name": "role",
          "type": "bytes32"
        },
        {
          "indexed": true,
          "internalType": "address",
          "name": "account",
          "type": "address"
        },
        {
          "indexed": true,
          "internalType": "address",
          "name": "sender",
          "type": "address"
        }
      ],
      "name": "RoleRevoked",
      "type": "event"
    },
    {
      "inputs": [],
      "name": "DEFAULT_ADMIN_ROLE",
      "outputs": [
        {
          "internalType": "bytes32",
          "name": "",
          "type": "bytes32"
        }
      ],
      "stateMutability": "view",
      "type": "function"
    },
    {
      "inputs": [
        {
          "internalType": "address",
          "name": "_whitelisted",
          "type": "address"
        }
      ],
      "name": "addToWhitelist",
      "outputs": [],
      "stateMutability": "nonpayable",
      "type": "function"
    },
    {
      "inputs": [],
      "name": "getCore",
      "outputs": [
        {
          "internalType": "address",
          "name": "",
          "type": "address"
        }
      ],
      "stateMutability": "view",
      "type": "function"
    },
    {
      "inputs": [],
      "name": "getOracleAggregator",
      "outputs": [
        {
          "internalType": "address",
          "name": "",
          "type": "address"
        }
      ],
      "stateMutability": "view",
      "type": "function"
    },
    {
      "inputs": [],
      "name": "getProtocolAddresses",
      "outputs": [
        {
          "components": [
            {
              "internalType": "address",
              "name": "core",
              "type": "address"
            },
            {
              "internalType": "contract IOpiumProxyFactory",
              "name": "opiumProxyFactory",
              "type": "address"
            },
            {
              "internalType": "contract IOracleAggregator",
              "name": "oracleAggregator",
              "type": "address"
            },
            {
              "internalType": "contract ISyntheticAggregator",
              "name": "syntheticAggregator",
              "type": "address"
            },
            {
              "internalType": "contract ITokenSpender",
              "name": "tokenSpender",
              "type": "address"
            },
            {
              "internalType": "address",
              "name": "protocolFeeReceiver",
              "type": "address"
            }
          ],
          "internalType": "struct RegistryEntities.ProtocolAddressesArgs",
          "name": "",
          "type": "tuple"
        }
      ],
      "stateMutability": "view",
      "type": "function"
    },
    {
      "inputs": [],
      "name": "getProtocolCommissionParams",
      "outputs": [
        {
          "components": [
            {
              "internalType": "uint32",
              "name": "derivativeAuthorCommissionBase",
              "type": "uint32"
            },
            {
              "internalType": "uint32",
              "name": "noDataCancellationPeriod",
              "type": "uint32"
            },
            {
              "internalType": "uint8",
              "name": "protocolFeeCommissionBase",
              "type": "uint8"
            },
            {
              "internalType": "uint8",
              "name": "protocolCommissionPart",
              "type": "uint8"
            },
            {
              "internalType": "uint8",
              "name": "precisionFactor",
              "type": "uint8"
            },
            {
              "internalType": "bool",
              "name": "paused",
              "type": "bool"
            }
          ],
          "internalType": "struct RegistryEntities.ProtocolCommissionArgs",
          "name": "",
          "type": "tuple"
        }
      ],
      "stateMutability": "view",
      "type": "function"
    },
    {
      "inputs": [
        {
          "internalType": "bytes32",
          "name": "role",
          "type": "bytes32"
        }
      ],
      "name": "getRoleAdmin",
      "outputs": [
        {
          "internalType": "bytes32",
          "name": "",
          "type": "bytes32"
        }
      ],
      "stateMutability": "view",
      "type": "function"
    },
    {
      "inputs": [
        {
          "internalType": "bytes32",
          "name": "role",
          "type": "bytes32"
        },
        {
          "internalType": "address",
          "name": "account",
          "type": "address"
        }
      ],
      "name": "grantRole",
      "outputs": [],
      "stateMutability": "nonpayable",
      "type": "function"
    },
    {
      "inputs": [
        {
          "internalType": "bytes32",
          "name": "role",
          "type": "bytes32"
        },
        {
          "internalType": "address",
          "name": "account",
          "type": "address"
        }
      ],
      "name": "hasRole",
      "outputs": [
        {
          "internalType": "bool",
          "name": "",
          "type": "bool"
        }
      ],
      "stateMutability": "view",
      "type": "function"
    },
    {
      "inputs": [
        {
          "internalType": "address",
          "name": "_governor",
          "type": "address"
        }
      ],
      "name": "initialize",
      "outputs": [],
      "stateMutability": "nonpayable",
      "type": "function"
    },
    {
      "inputs": [],
      "name": "isPaused",
      "outputs": [
        {
          "internalType": "bool",
          "name": "",
          "type": "bool"
        }
      ],
      "stateMutability": "view",
      "type": "function"
    },
    {
      "inputs": [
        {
          "internalType": "address",
          "name": "_address",
          "type": "address"
        }
      ],
      "name": "isWhitelisted",
      "outputs": [
        {
          "internalType": "bool",
          "name": "",
          "type": "bool"
        }
      ],
      "stateMutability": "view",
      "type": "function"
    },
    {
      "inputs": [],
      "name": "pause",
      "outputs": [],
      "stateMutability": "nonpayable",
      "type": "function"
    },
    {
      "inputs": [
        {
          "internalType": "address",
          "name": "_opiumProxyFactory",
          "type": "address"
        },
        {
          "internalType": "address",
          "name": "_core",
          "type": "address"
        },
        {
          "internalType": "address",
          "name": "_oracleAggregator",
          "type": "address"
        },
        {
          "internalType": "address",
          "name": "_syntheticAggregator",
          "type": "address"
        },
        {
          "internalType": "address",
          "name": "_tokenSpender",
          "type": "address"
        },
        {
          "internalType": "address",
          "name": "_protocolFeeReceiver",
          "type": "address"
        }
      ],
      "name": "registerProtocol",
      "outputs": [],
      "stateMutability": "nonpayable",
      "type": "function"
    },
    {
      "inputs": [
        {
          "internalType": "address",
          "name": "_whitelisted",
          "type": "address"
        }
      ],
      "name": "removeFromWhitelist",
      "outputs": [],
      "stateMutability": "nonpayable",
      "type": "function"
    },
    {
      "inputs": [
        {
          "internalType": "bytes32",
          "name": "role",
          "type": "bytes32"
        },
        {
          "internalType": "address",
          "name": "account",
          "type": "address"
        }
      ],
      "name": "renounceRole",
      "outputs": [],
      "stateMutability": "nonpayable",
      "type": "function"
    },
    {
      "inputs": [
        {
          "internalType": "bytes32",
          "name": "role",
          "type": "bytes32"
        },
        {
          "internalType": "address",
          "name": "account",
          "type": "address"
        }
      ],
      "name": "revokeRole",
      "outputs": [],
      "stateMutability": "nonpayable",
      "type": "function"
    },
    {
      "inputs": [
        {
          "internalType": "uint32",
          "name": "_noDataCancellationPeriod",
          "type": "uint32"
        }
      ],
      "name": "setNoDataCancellationPeriod",
      "outputs": [],
      "stateMutability": "nonpayable",
      "type": "function"
    },
    {
      "inputs": [
        {
          "internalType": "uint8",
          "name": "_protocolCommissionPart",
          "type": "uint8"
        }
      ],
      "name": "setOpiumCommissionPart",
      "outputs": [],
      "stateMutability": "nonpayable",
      "type": "function"
    },
    {
      "inputs": [
        {
          "internalType": "bytes4",
          "name": "interfaceId",
          "type": "bytes4"
        }
      ],
      "name": "supportsInterface",
      "outputs": [
        {
          "internalType": "bool",
          "name": "",
          "type": "bool"
        }
      ],
      "stateMutability": "view",
      "type": "function"
    },
    {
      "inputs": [],
      "name": "unpause",
      "outputs": [],
      "stateMutability": "nonpayable",
      "type": "function"
    }
  ],
  "transactionHash": "0x3f30caf8fa9e660f898ff2638633f6db97aa2b66a631fadaefe0abe6454b197a",
  "args": [],
  "solcInputHash": "658042053585c715e56757d0a4fb45c0",
  "bytecode": "0x608060405234801561001057600080fd5b506116df806100206000396000f3fe608060405234801561001057600080fd5b50600436106101775760003560e01c806391d14854116100d8578063c4d66de81161008c578063d547741f11610066578063d547741f14610509578063da4fbe521461051c578063e43252d71461052d57600080fd5b8063c4d66de8146104be578063c6676d6d146104d1578063d34ac2bc146104e457600080fd5b8063a217fddf116100bd578063a217fddf14610491578063a319239514610499578063b187bd26146104ac57600080fd5b806391d148541461036f578063a1774da0146103a857600080fd5b80633af32abf1161012f5780633f4ba83a116101145780633f4ba83a1461034c5780638456cb59146103545780638ab1d6811461035c57600080fd5b80633af32abf146102105780633c2ff9e41461023c57600080fd5b8063248a9ca311610160578063248a9ca3146101b95780632f2ff15d146101ea57806336568abe146101fd57600080fd5b806301ffc9a71461017c5780632420d332146101a4575b600080fd5b61018f61018a3660046114c2565b610540565b60405190151581526020015b60405180910390f35b6101b76101b2366004611512565b610577565b005b6101dc6101c736600461147d565b60009081526065602052604090206001015490565b60405190815260200161019b565b6101b76101f8366004611496565b610640565b6101b761020b366004611496565b61066b565b61018f61021e3660046113ee565b6001600160a01b03166000908152609e602052604090205460ff1690565b6102eb6040805160c081018252600080825260208201819052918101829052606081018290526080810182905260a0810191909152506040805160c08101825260975463ffffffff8082168352640100000000820416602083015260ff68010000000000000000820481169383019390935269010000000000000000008104831660608301526a0100000000000000000000810483166080830152600160581b9004909116151560a082015290565b60405161019b9190600060c08201905063ffffffff8084511683528060208501511660208401525060ff604084015116604083015260ff606084015116606083015260ff608084015116608083015260a0830151151560a083015292915050565b6101b76106f7565b6101b76107b4565b6101b761036a3660046113ee565b610873565b61018f61037d366004611496565b60009182526065602090815260408084206001600160a01b0393909316845291905290205460ff1690565b6104306040805160c081018252600080825260208201819052918101829052606081018290526080810182905260a0810191909152506040805160c0810182526098546001600160a01b03908116825260995481166020830152609a54811692820192909252609b5482166060820152609c5482166080820152609d5490911660a082015290565b60405161019b9190600060c0820190506001600160a01b038084511683528060208501511660208401528060408501511660408401528060608501511660608401528060808501511660808401528060a08501511660a08401525092915050565b6101dc600081565b6101b76104a73660046114ec565b610927565b609754600160581b900460ff1661018f565b6101b76104cc3660046113ee565b6109e0565b6101b76104df366004611409565b610a9c565b609a546001600160a01b03165b6040516001600160a01b03909116815260200161019b565b6101b7610517366004611496565b610c53565b6098546001600160a01b03166104f1565b6101b761053b3660046113ee565b610c79565b60006001600160e01b03198216637965db0b60e01b148061057157506301ffc9a760e01b6001600160e01b03198316145b92915050565b3360009081527fd0e0b7a135c76b464828dc9d8bd671c6d2e8a5ebef926d6c214cb2718fbba078602052604090205460ff166105df5760405162461bcd60e51b8152602060048201526002602482015261148d60f21b60448201526064015b60405180910390fd5b6097805469ff0000000000000000001916690100000000000000000060ff8416908102919091179091556040519081527f581e8a0876b053b6ffd11b3bc8477b4a99a47b3d70f376cc02c0e4f565d12ef3906020015b60405180910390a150565b60008281526065602052604090206001015461065c8133610d30565b6106668383610db0565b505050565b6001600160a01b03811633146106e95760405162461bcd60e51b815260206004820152602f60248201527f416363657373436f6e74726f6c3a2063616e206f6e6c792072656e6f756e636560448201527f20726f6c657320666f722073656c66000000000000000000000000000000000060648201526084016105d6565b6106f38282610e52565b5050565b3360009081527f069cdf9dfc2229276970916c1858214fdc1e7fbd582c817d68d15a269f9e469c602052604090205460ff1661075a5760405162461bcd60e51b8152602060048201526002602482015261291960f11b60448201526064016105d6565b609754600160581b900460ff16151560011461079d5760405162461bcd60e51b8152602060048201526002602482015261523760f01b60448201526064016105d6565b609780546bff000000000000000000000019169055565b3360009081527f069cdf9dfc2229276970916c1858214fdc1e7fbd582c817d68d15a269f9e469c602052604090205460ff166108175760405162461bcd60e51b8152602060048201526002602482015261291960f11b60448201526064016105d6565b609754600160581b900460ff16156108565760405162461bcd60e51b8152602060048201526002602482015261291b60f11b60448201526064016105d6565b609780546bff00000000000000000000001916600160581b179055565b3360009081527f2f54fa84bcabe2f54c105880df04fd8c3dc2d1a0ff002170576ebe448676343c602052604090205460ff166108d65760405162461bcd60e51b8152602060048201526002602482015261523360f01b60448201526064016105d6565b6001600160a01b0381166000818152609e6020908152604091829020805460ff1916905590519182527f9b20e7185aa7ad29f95184f81058e9e13bd095755c5b343fb2883a9d8b8ed9b29101610635565b3360009081527fd0e0b7a135c76b464828dc9d8bd671c6d2e8a5ebef926d6c214cb2718fbba078602052604090205460ff1661098a5760405162461bcd60e51b8152602060048201526002602482015261148d60f21b60448201526064016105d6565b6097805467ffffffff00000000191664010000000063ffffffff8416908102919091179091556040519081527fdf6662a0cff2fd6bada268038ef2afd3b85fb8111f741b174b70aa5ace6f419f90602001610635565b600054610100900460ff16806109f9575060005460ff16155b610a5c5760405162461bcd60e51b815260206004820152602e60248201527f496e697469616c697a61626c653a20636f6e747261637420697320616c72656160448201526d191e481a5b9a5d1a585b1a5e995960921b60648201526084016105d6565b600054610100900460ff16158015610a7e576000805461ffff19166101011790555b610a8782610ed5565b80156106f3576000805461ff00191690555050565b3360009081527f3aacdcebcc0b47449d9086fb19f58dfa148ee461549ae856ff2b95b720475693602052604090205460ff16610aff5760405162461bcd60e51b8152602060048201526002602482015261523160f01b60448201526064016105d6565b6001600160a01b03861615801590610b1f57506001600160a01b03851615155b8015610b3357506001600160a01b03841615155b8015610b4757506001600160a01b03831615155b8015610b5b57506001600160a01b03821615155b8015610b6f57506001600160a01b03811615155b610ba05760405162461bcd60e51b8152602060048201526002602482015261523560f01b60448201526064016105d6565b6040805160c0810182526001600160a01b039687168082529787166020820181905295871691810182905293861660608501819052928616608085018190529190951660a0909301839052609880547fffffffffffffffffffffffff00000000000000000000000000000000000000009081169097179055609980548716909417909355609a80548616909417909355609b80548516909317909255609c805484169091179055609d8054909216179055565b600082815260656020526040902060010154610c6f8133610d30565b6106668383610e52565b3360009081527f2f54fa84bcabe2f54c105880df04fd8c3dc2d1a0ff002170576ebe448676343c602052604090205460ff16610cdc5760405162461bcd60e51b8152602060048201526002602482015261523360f01b60448201526064016105d6565b6001600160a01b0381166000818152609e6020908152604091829020805460ff1916600117905590519182527f72a9179019a18e39f5015c58ef0ea3cfe01f7978344f5203c5709706a7c497949101610635565b60008281526065602090815260408083206001600160a01b038516845290915290205460ff166106f357610d6e816001600160a01b0316601461109c565b610d7983602061109c565b604051602001610d8a929190611535565b60408051601f198184030181529082905262461bcd60e51b82526105d6916004016115b6565b60008281526065602090815260408083206001600160a01b038516845290915290205460ff166106f35760008281526065602090815260408083206001600160a01b03851684529091529020805460ff19166001179055610e0e3390565b6001600160a01b0316816001600160a01b0316837f2f8788117e7eff1d82e926ec794901d17c78024a50270940304540a733656f0d60405160405180910390a45050565b60008281526065602090815260408083206001600160a01b038516845290915290205460ff16156106f35760008281526065602090815260408083206001600160a01b0385168085529252808320805460ff1916905551339285917ff6391f5c32d9c69d2a47ea670b442974b53935d1edc7fd64eb21e047a839171b9190a45050565b600054610100900460ff1680610eee575060005460ff16155b610f515760405162461bcd60e51b815260206004820152602e60248201527f496e697469616c697a61626c653a20636f6e747261637420697320616c72656160448201526d191e481a5b9a5d1a585b1a5e995960921b60648201526084016105d6565b600054610100900460ff16158015610f73576000805461ffff19166101011790555b610f7b61124c565b610f86600083611317565b610fb07f523807b0e14b2fdb694a9155924ffe8f35f22c2cc67fcced3d2c681938e6124c83611317565b610fda7f55435dd261a4b9b3364963f7738a7a662ad9c84396d64be3365284bb7f0a504183611317565b6110047f8619cecd8b9e095ab43867f5b69d492180450fe862e6b50bfbfb24b75dd84c8a83611317565b61102e7facba87e2a940d441e330bf0eb2d5ce612db851ffca550e82933626be5abd397283611317565b6040805160c0810182526127108152621275006020820152600a918101919091526001606082015260126080820152600060a090910152609780546bffffffffffffffffffffffff19166a12010a001275000000271017905580156106f3576000805461ff00191690555050565b606060006110ab836002611601565b6110b69060026115e9565b67ffffffffffffffff8111156110ce576110ce611693565b6040519080825280601f01601f1916602001820160405280156110f8576020820181803683370190505b509050600360fc1b816000815181106111135761111361167d565b60200101906001600160f81b031916908160001a905350600f60fb1b816001815181106111425761114261167d565b60200101906001600160f81b031916908160001a9053506000611166846002611601565b6111719060016115e9565b90505b60018111156111f6577f303132333435363738396162636465660000000000000000000000000000000085600f16601081106111b2576111b261167d565b1a60f81b8282815181106111c8576111c861167d565b60200101906001600160f81b031916908160001a90535060049490941c936111ef81611650565b9050611174565b5083156112455760405162461bcd60e51b815260206004820181905260248201527f537472696e67733a20686578206c656e67746820696e73756666696369656e7460448201526064016105d6565b9392505050565b600054610100900460ff1680611265575060005460ff16155b6112c85760405162461bcd60e51b815260206004820152602e60248201527f496e697469616c697a61626c653a20636f6e747261637420697320616c72656160448201526d191e481a5b9a5d1a585b1a5e995960921b60648201526084016105d6565b600054610100900460ff161580156112ea576000805461ffff19166101011790555b6112f2611321565b6112fa611321565b611302611321565b8015611314576000805461ff00191690555b50565b6106f38282610db0565b600054610100900460ff168061133a575060005460ff16155b61139d5760405162461bcd60e51b815260206004820152602e60248201527f496e697469616c697a61626c653a20636f6e747261637420697320616c72656160448201526d191e481a5b9a5d1a585b1a5e995960921b60648201526084016105d6565b600054610100900460ff16158015611302576000805461ffff19166101011790558015611314576000805461ff001916905550565b80356001600160a01b03811681146113e957600080fd5b919050565b60006020828403121561140057600080fd5b611245826113d2565b60008060008060008060c0878903121561142257600080fd5b61142b876113d2565b9550611439602088016113d2565b9450611447604088016113d2565b9350611455606088016113d2565b9250611463608088016113d2565b915061147160a088016113d2565b90509295509295509295565b60006020828403121561148f57600080fd5b5035919050565b600080604083850312156114a957600080fd5b823591506114b9602084016113d2565b90509250929050565b6000602082840312156114d457600080fd5b81356001600160e01b03198116811461124557600080fd5b6000602082840312156114fe57600080fd5b813563ffffffff8116811461124557600080fd5b60006020828403121561152457600080fd5b813560ff8116811461124557600080fd5b7f416363657373436f6e74726f6c3a206163636f756e742000000000000000000081526000835161156d816017850160208801611620565b7f206973206d697373696e6720726f6c652000000000000000000000000000000060179184019182015283516115aa816028840160208801611620565b01602801949350505050565b60208152600082518060208401526115d5816040850160208701611620565b601f01601f19169190910160400192915050565b600082198211156115fc576115fc611667565b500190565b600081600019048311821515161561161b5761161b611667565b500290565b60005b8381101561163b578181015183820152602001611623565b8381111561164a576000848401525b50505050565b60008161165f5761165f611667565b506000190190565b634e487b7160e01b600052601160045260246000fd5b634e487b7160e01b600052603260045260246000fd5b634e487b7160e01b600052604160045260246000fdfea26469706673582212208814fb928ae1ffd413f8d28ba1b096d5d02562fbc06d645f8f1ca6e4137e5b4c64736f6c63430008050033",
  "devdoc": {
    "kind": "dev",
    "methods": {
      "getProtocolAddresses()": {
        "returns": {
          "_0": "RegistryEntities.ProtocolAddressesArgs struct that packs all the interfaces of the Opium Protocol"
        }
      },
      "getProtocolCommissionParams()": {
        "returns": {
          "_0": "RegistryEntities.ProtocolAddressesArgs struct that packs all the interfaces of the Opium Protocol."
        }
      },
      "getRoleAdmin(bytes32)": {
        "details": "Returns the admin role that controls `role`. See {grantRole} and {revokeRole}. To change a role's admin, use {_setRoleAdmin}."
      },
      "grantRole(bytes32,address)": {
        "details": "Grants `role` to `account`. If `account` had not been already granted `role`, emits a {RoleGranted} event. Requirements: - the caller must have ``role``'s admin role."
      },
      "hasRole(bytes32,address)": {
        "details": "Returns `true` if `account` has been granted `role`."
      },
      "initialize(address)": {
        "details": "Calls RegistryStorageUpgradeable.__RegistryStorage__init",
        "params": {
          "_governor": "address of the governance account which will be assigned the initial admin role"
        }
      },
      "pause()": {
        "details": "it fails if the protocol is already paused"
      },
      "registerProtocol(address,address,address,address,address,address)": {
        "details": "the contracts' addresses are set using their respective interfaces",
        "params": {
          "_core": "address of Opium.Core",
          "_opiumProxyFactory": "address of Opium.OpiumProxyFactory",
          "_oracleAggregator": "address of Opium.OracleAggregator",
          "_protocolFeeReceiver": "address of the recipient of Opium Protocol's fees",
          "_syntheticAggregator": "address of Opium.SyntheticAggregator",
          "_tokenSpender": "address of Opium.TokenSpender"
        }
      },
      "renounceRole(bytes32,address)": {
        "details": "Revokes `role` from the calling account. Roles are often managed via {grantRole} and {revokeRole}: this function's purpose is to provide a mechanism for accounts to lose their privileges if they are compromised (such as when a trusted device is misplaced). If the calling account had been granted `role`, emits a {RoleRevoked} event. Requirements: - the caller must be `account`."
      },
      "revokeRole(bytes32,address)": {
        "details": "Revokes `role` from `account`. If `account` had been granted `role`, emits a {RoleRevoked} event. Requirements: - the caller must have ``role``'s admin role."
      },
      "supportsInterface(bytes4)": {
        "details": "See {IERC165-supportsInterface}."
      },
      "unpause()": {
        "details": "it fails if the protocol is not paused"
      }
    },
    "version": 1
  },
  "userdoc": {
    "kind": "user",
    "methods": {
      "addToWhitelist(address)": {
        "notice": "it allows the WHITELISTER role to add an address to the whitelist"
      },
      "getCore()": {
        "notice": "Returns address of Opium.Core"
      },
      "getOracleAggregator()": {
        "notice": "Returns address of Opium.OracleAggregator"
      },
      "getProtocolAddresses()": {
        "notice": "Returns the interfaces of the Opium protocol contracts"
      },
      "getProtocolCommissionParams()": {
        "notice": "Returns all the commission-related parameters of the Opium protocol contracts"
      },
      "initialize(address)": {
        "notice": "it is called only once upon deployment of the contract plus the protocol's fee receiver. It initializes the registry storage with the given governor address as the admin role"
      },
      "isPaused()": {
        "notice": "Returns whether the Opium protocol is paused"
      },
      "isWhitelisted(address)": {
        "notice": "Returns whether a given address is whitelisted"
      },
      "pause()": {
        "notice": "allows the GUARDIAN role to pause the Opium Protocol"
      },
      "registerProtocol(address,address,address,address,address,address)": {
        "notice": "it allows the PROTOCOL_REGISTER role to set the addresses of Opium Protocol's contracts"
      },
      "removeFromWhitelist(address)": {
        "notice": "it allows the WHITELISTER role to remove an address from the whitelist"
      },
      "setNoDataCancellationPeriod(uint32)": {
        "notice": "allows the COMMISSIONER role to change the noDataCancellationPeriod (the timeframe after which a derivative can be cancelled if the oracle has not provided any data)"
      },
      "setOpiumCommissionPart(uint8)": {
        "notice": "allows the COMMISSIONER role to change the protocolReceiver's fee"
      },
      "unpause()": {
        "notice": "allows the GUARDIAN role to unpause the Opium Protocol"
      }
    },
    "notice": "Error codes: - R5 = ERROR_REGISTRY_NOT_PAUSED - R6 = ERROR_REGISTRY_ALREADY_PAUSED",
    "version": 1
  },
  "storageLayout": {
    "storage": [
      {
        "astId": 413,
        "contract": "contracts/Registry/Registry.sol:RegistryUpgradeable",
        "label": "_initialized",
        "offset": 0,
        "slot": "0",
        "type": "t_bool"
      },
      {
        "astId": 416,
        "contract": "contracts/Registry/Registry.sol:RegistryUpgradeable",
        "label": "_initializing",
        "offset": 1,
        "slot": "0",
        "type": "t_bool"
      },
      {
        "astId": 1699,
        "contract": "contracts/Registry/Registry.sol:RegistryUpgradeable",
        "label": "__gap",
        "offset": 0,
        "slot": "1",
        "type": "t_array(t_uint256)50_storage"
      },
      {
        "astId": 1948,
        "contract": "contracts/Registry/Registry.sol:RegistryUpgradeable",
        "label": "__gap",
        "offset": 0,
        "slot": "51",
        "type": "t_array(t_uint256)50_storage"
      },
      {
        "astId": 48,
        "contract": "contracts/Registry/Registry.sol:RegistryUpgradeable",
        "label": "_roles",
        "offset": 0,
        "slot": "101",
        "type": "t_mapping(t_bytes32,t_struct(RoleData)43_storage)"
      },
      {
        "astId": 333,
        "contract": "contracts/Registry/Registry.sol:RegistryUpgradeable",
        "label": "__gap",
        "offset": 0,
        "slot": "102",
        "type": "t_array(t_uint256)49_storage"
      },
      {
        "astId": 5545,
        "contract": "contracts/Registry/Registry.sol:RegistryUpgradeable",
        "label": "protocolCommissionArgs",
        "offset": 0,
        "slot": "151",
        "type": "t_struct(ProtocolCommissionArgs)5516_storage"
      },
      {
        "astId": 5548,
        "contract": "contracts/Registry/Registry.sol:RegistryUpgradeable",
        "label": "protocolAddressesArgs",
        "offset": 0,
        "slot": "152",
        "type": "t_struct(ProtocolAddressesArgs)5533_storage"
      },
      {
        "astId": 5552,
        "contract": "contracts/Registry/Registry.sol:RegistryUpgradeable",
        "label": "whitelist",
        "offset": 0,
        "slot": "158",
        "type": "t_mapping(t_address,t_bool)"
      }
    ],
    "types": {
      "t_address": {
        "encoding": "inplace",
        "label": "address",
        "numberOfBytes": "20"
      },
      "t_array(t_uint256)49_storage": {
        "base": "t_uint256",
        "encoding": "inplace",
        "label": "uint256[49]",
        "numberOfBytes": "1568"
      },
      "t_array(t_uint256)50_storage": {
        "base": "t_uint256",
        "encoding": "inplace",
        "label": "uint256[50]",
        "numberOfBytes": "1600"
      },
      "t_bool": {
        "encoding": "inplace",
        "label": "bool",
        "numberOfBytes": "1"
      },
      "t_bytes32": {
        "encoding": "inplace",
        "label": "bytes32",
        "numberOfBytes": "32"
      },
      "t_contract(IOpiumProxyFactory)4149": {
        "encoding": "inplace",
        "label": "contract IOpiumProxyFactory",
        "numberOfBytes": "20"
      },
      "t_contract(IOracleAggregator)4177": {
        "encoding": "inplace",
        "label": "contract IOracleAggregator",
        "numberOfBytes": "20"
      },
      "t_contract(ISyntheticAggregator)4283": {
        "encoding": "inplace",
        "label": "contract ISyntheticAggregator",
        "numberOfBytes": "20"
      },
      "t_contract(ITokenSpender)4299": {
        "encoding": "inplace",
        "label": "contract ITokenSpender",
        "numberOfBytes": "20"
      },
      "t_mapping(t_address,t_bool)": {
        "encoding": "mapping",
        "key": "t_address",
        "label": "mapping(address => bool)",
        "numberOfBytes": "32",
        "value": "t_bool"
      },
      "t_mapping(t_bytes32,t_struct(RoleData)43_storage)": {
        "encoding": "mapping",
        "key": "t_bytes32",
        "label": "mapping(bytes32 => struct AccessControlUpgradeable.RoleData)",
        "numberOfBytes": "32",
        "value": "t_struct(RoleData)43_storage"
      },
      "t_struct(ProtocolAddressesArgs)5533_storage": {
        "encoding": "inplace",
        "label": "struct RegistryEntities.ProtocolAddressesArgs",
        "members": [
          {
            "astId": 5518,
            "contract": "contracts/Registry/Registry.sol:RegistryUpgradeable",
            "label": "core",
            "offset": 0,
            "slot": "0",
            "type": "t_address"
          },
          {
            "astId": 5521,
            "contract": "contracts/Registry/Registry.sol:RegistryUpgradeable",
            "label": "opiumProxyFactory",
            "offset": 0,
            "slot": "1",
            "type": "t_contract(IOpiumProxyFactory)4149"
          },
          {
            "astId": 5524,
            "contract": "contracts/Registry/Registry.sol:RegistryUpgradeable",
            "label": "oracleAggregator",
            "offset": 0,
            "slot": "2",
            "type": "t_contract(IOracleAggregator)4177"
          },
          {
            "astId": 5527,
            "contract": "contracts/Registry/Registry.sol:RegistryUpgradeable",
            "label": "syntheticAggregator",
            "offset": 0,
            "slot": "3",
            "type": "t_contract(ISyntheticAggregator)4283"
          },
          {
            "astId": 5530,
            "contract": "contracts/Registry/Registry.sol:RegistryUpgradeable",
            "label": "tokenSpender",
            "offset": 0,
            "slot": "4",
            "type": "t_contract(ITokenSpender)4299"
          },
          {
            "astId": 5532,
            "contract": "contracts/Registry/Registry.sol:RegistryUpgradeable",
            "label": "protocolFeeReceiver",
            "offset": 0,
            "slot": "5",
            "type": "t_address"
          }
        ],
        "numberOfBytes": "192"
      },
      "t_struct(ProtocolCommissionArgs)5516_storage": {
        "encoding": "inplace",
        "label": "struct RegistryEntities.ProtocolCommissionArgs",
        "members": [
          {
            "astId": 5505,
            "contract": "contracts/Registry/Registry.sol:RegistryUpgradeable",
            "label": "derivativeAuthorCommissionBase",
            "offset": 0,
            "slot": "0",
            "type": "t_uint32"
          },
          {
            "astId": 5507,
            "contract": "contracts/Registry/Registry.sol:RegistryUpgradeable",
            "label": "noDataCancellationPeriod",
            "offset": 4,
            "slot": "0",
            "type": "t_uint32"
          },
          {
            "astId": 5509,
            "contract": "contracts/Registry/Registry.sol:RegistryUpgradeable",
            "label": "protocolFeeCommissionBase",
            "offset": 8,
            "slot": "0",
            "type": "t_uint8"
          },
          {
            "astId": 5511,
            "contract": "contracts/Registry/Registry.sol:RegistryUpgradeable",
            "label": "protocolCommissionPart",
            "offset": 9,
            "slot": "0",
            "type": "t_uint8"
          },
          {
            "astId": 5513,
            "contract": "contracts/Registry/Registry.sol:RegistryUpgradeable",
            "label": "precisionFactor",
            "offset": 10,
            "slot": "0",
            "type": "t_uint8"
          },
          {
            "astId": 5515,
            "contract": "contracts/Registry/Registry.sol:RegistryUpgradeable",
            "label": "paused",
            "offset": 11,
            "slot": "0",
            "type": "t_bool"
          }
        ],
        "numberOfBytes": "32"
      },
      "t_struct(RoleData)43_storage": {
        "encoding": "inplace",
        "label": "struct AccessControlUpgradeable.RoleData",
        "members": [
          {
            "astId": 40,
            "contract": "contracts/Registry/Registry.sol:RegistryUpgradeable",
            "label": "members",
            "offset": 0,
            "slot": "0",
            "type": "t_mapping(t_address,t_bool)"
          },
          {
            "astId": 42,
            "contract": "contracts/Registry/Registry.sol:RegistryUpgradeable",
            "label": "adminRole",
            "offset": 0,
            "slot": "1",
            "type": "t_bytes32"
          }
        ],
        "numberOfBytes": "64"
      },
      "t_uint256": {
        "encoding": "inplace",
        "label": "uint256",
        "numberOfBytes": "32"
      },
      "t_uint32": {
        "encoding": "inplace",
        "label": "uint32",
        "numberOfBytes": "4"
      },
      "t_uint8": {
        "encoding": "inplace",
        "label": "uint8",
        "numberOfBytes": "1"
      }
    }
  }
}