{
  "address": "0xCB472C049C54eca1E83dfa899bB071eC1eA60523",
  "abi": [
    {
      "anonymous": false,
      "inputs": [
        {
          "components": [
            {
              "internalType": "uint256",
              "name": "margin",
              "type": "uint256"
            },
            {
              "internalType": "uint256",
              "name": "endTime",
              "type": "uint256"
            },
            {
              "internalType": "uint256[]",
              "name": "params",
              "type": "uint256[]"
            },
            {
              "internalType": "address",
              "name": "oracleId",
              "type": "address"
            },
            {
              "internalType": "address",
              "name": "token",
              "type": "address"
            },
            {
              "internalType": "address",
              "name": "syntheticId",
              "type": "address"
            }
          ],
          "indexed": false,
          "internalType": "struct LibDerivative.Derivative",
          "name": "derivative",
          "type": "tuple"
        },
        {
          "indexed": false,
          "internalType": "bytes32",
          "name": "derivativeHash",
          "type": "bytes32"
        }
      ],
      "name": "LogSyntheticInit",
      "type": "event"
    },
    {
      "inputs": [
        {
          "internalType": "bytes32",
          "name": "_derivativeHash",
          "type": "bytes32"
        },
        {
          "components": [
            {
              "internalType": "uint256",
              "name": "margin",
              "type": "uint256"
            },
            {
              "internalType": "uint256",
              "name": "endTime",
              "type": "uint256"
            },
            {
              "internalType": "uint256[]",
              "name": "params",
              "type": "uint256[]"
            },
            {
              "internalType": "address",
              "name": "oracleId",
              "type": "address"
            },
            {
              "internalType": "address",
              "name": "token",
              "type": "address"
            },
            {
              "internalType": "address",
              "name": "syntheticId",
              "type": "address"
            }
          ],
          "internalType": "struct LibDerivative.Derivative",
          "name": "_derivative",
          "type": "tuple"
        }
      ],
      "name": "getMargin",
      "outputs": [
        {
          "internalType": "uint256",
          "name": "buyerMargin",
          "type": "uint256"
        },
        {
          "internalType": "uint256",
          "name": "sellerMargin",
          "type": "uint256"
        }
      ],
      "stateMutability": "nonpayable",
      "type": "function"
    },
    {
      "inputs": [
        {
          "internalType": "bytes32",
          "name": "_derivativeHash",
          "type": "bytes32"
        },
        {
          "components": [
            {
              "internalType": "uint256",
              "name": "margin",
              "type": "uint256"
            },
            {
              "internalType": "uint256",
              "name": "endTime",
              "type": "uint256"
            },
            {
              "internalType": "uint256[]",
              "name": "params",
              "type": "uint256[]"
            },
            {
              "internalType": "address",
              "name": "oracleId",
              "type": "address"
            },
            {
              "internalType": "address",
              "name": "token",
              "type": "address"
            },
            {
              "internalType": "address",
              "name": "syntheticId",
              "type": "address"
            }
          ],
          "internalType": "struct LibDerivative.Derivative",
          "name": "_derivative",
          "type": "tuple"
        }
      ],
      "name": "getSyntheticCache",
      "outputs": [
        {
          "components": [
            {
              "internalType": "uint256",
              "name": "buyerMargin",
              "type": "uint256"
            },
            {
              "internalType": "uint256",
              "name": "sellerMargin",
              "type": "uint256"
            },
            {
              "internalType": "uint256",
              "name": "commission",
              "type": "uint256"
            },
            {
              "internalType": "address",
              "name": "authorAddress",
              "type": "address"
            },
            {
              "internalType": "bool",
              "name": "init",
              "type": "bool"
            }
          ],
          "internalType": "struct SyntheticAggregator.SyntheticCache",
          "name": "",
          "type": "tuple"
        }
      ],
      "stateMutability": "nonpayable",
      "type": "function"
    },
    {
      "inputs": [
        {
          "internalType": "address",
          "name": "_registry",
          "type": "address"
        }
      ],
      "name": "initialize",
      "outputs": [],
      "stateMutability": "nonpayable",
      "type": "function"
    }
  ],
  "transactionHash": "0xdce853803c797820a455b587365a392c88d01294e694d2b075379465184006b1",
  "args": [],
  "solcInputHash": "658042053585c715e56757d0a4fb45c0",
  "bytecode": "0x608060405234801561001057600080fd5b50610be2806100206000396000f3fe608060405234801561001057600080fd5b50600436106100415760003560e01c806399f685ee14610046578063ae7a39d414610073578063c4d66de8146100d3575b600080fd5b61005961005436600461079b565b6100e8565b604080519283526020830191909152015b60405180910390f35b61008661008136600461079b565b610160565b60405161006a9190600060a0820190508251825260208301516020830152604083015160408301526001600160a01b03606084015116606083015260808301511515608083015292915050565b6100e66100e136600461075a565b61020a565b005b6000806100fd846100f885610a81565b61030a565b505050600090815260016020818152604092839020835160a081018552815480825293820154928101839052600282015494810194909452600301546001600160a01b0381166060850152600160a01b900460ff16151560809093019290925291565b61019d6040518060a0016040528060008152602001600081526020016000815260200160006001600160a01b031681526020016000151581525090565b6101aa836100f884610a81565b5050600090815260016020818152604092839020835160a0810185528154815292810154918301919091526002810154928201929092526003909101546001600160a01b0381166060830152600160a01b900460ff161515608082015290565b600054610100900460ff1680610223575060005460ff16155b61029a5760405162461bcd60e51b815260206004820152602e60248201527f496e697469616c697a61626c653a20636f6e747261637420697320616c72656160448201527f647920696e697469616c697a656400000000000000000000000000000000000060648201526084015b60405180910390fd5b600054610100900460ff161580156102bc576000805461ffff19166101011790555b600080547fffffffffffffffffffff0000000000000000000000000000000000000000ffff16620100006001600160a01b038516021790558015610306576000805461ff00191690555b5050565b600082815260016020819052604090912060030154600160a01b900460ff1615151415610335575050565b6000610340826106d8565b90508281146103765760405162461bcd60e51b8152602060048201526002602482015261533160f01b6044820152606401610291565b6000808360a001516001600160a01b0316630433fe45856040518263ffffffff1660e01b81526004016103a991906109f2565b604080518083038186803b1580156103c057600080fd5b505afa1580156103d4573d6000803e3d6000fd5b505050506040513d601f19601f820116820180604052508101906103f891906108a8565b9150915081600014158061040b57508015155b61043c5760405162461bcd60e51b8152602060048201526002602482015261299960f11b6044820152606401610291565b60008460a001516001600160a01b0316633a84543e6040518163ffffffff1660e01b815260040160206040518083038186803b15801561047b57600080fd5b505afa15801561048f573d6000803e3d6000fd5b505050506040513d601f19601f820116820180604052508101906104b3919061088f565b905060008060029054906101000a90046001600160a01b03166001600160a01b0316633c2ff9e46040518163ffffffff1660e01b815260040160c06040518083038186803b15801561050457600080fd5b505afa158015610518573d6000803e3d6000fd5b505050506040513d601f19601f8201168201806040525081019061053c91906107e9565b805190915063ffffffff1682111561057b5760405162461bcd60e51b8152602060048201526002602482015261533360f01b6044820152606401610291565b6040518060a001604052808581526020018481526020018381526020018760a001516001600160a01b031663a4300ee56040518163ffffffff1660e01b815260040160206040518083038186803b1580156105d557600080fd5b505afa1580156105e9573d6000803e3d6000fd5b505050506040513d601f19601f8201168201806040525081019061060d919061077e565b6001600160a01b0390811682526001602092830181905260008981528184526040908190208551815593850151918401919091558381015160028401556060840151600390930180546080909501511515600160a01b027fffffffffffffffffffffff000000000000000000000000000000000000000000909516939092169290921792909217909155517f29aa7d92d69bcc6e17d252d7860e10e2a096dbb7d00b9017322852681fc86935906106c79088908890610a05565b60405180910390a150505050505050565b80516020808301516040808501516060860151608087015160a08801519351600097610708979096959101610981565b604051602081830303815290604052805190602001209050919050565b803561073081610b94565b919050565b805163ffffffff8116811461073057600080fd5b805160ff8116811461073057600080fd5b60006020828403121561076c57600080fd5b813561077781610b94565b9392505050565b60006020828403121561079057600080fd5b815161077781610b94565b600080604083850312156107ae57600080fd5b82359150602083013567ffffffffffffffff8111156107cc57600080fd5b830160c081860312156107de57600080fd5b809150509250929050565b600060c082840312156107fb57600080fd5b60405160c0810181811067ffffffffffffffff8211171561081e5761081e610b7e565b60405261082a83610735565b815261083860208401610735565b602082015261084960408401610749565b604082015261085a60608401610749565b606082015261086b60808401610749565b608082015260a0830151801515811461088357600080fd5b60a08201529392505050565b6000602082840312156108a157600080fd5b5051919050565b600080604083850312156108bb57600080fd5b505080516020909101519092909150565b600060c083018251845260208084015181860152604084015160c0604087015282815180855260e0880191508383019450600092505b808310156109225784518252938301936001929092019190830190610902565b506060860151935061093f60608801856001600160a01b03169052565b6080860151935061095b60808801856001600160a01b03169052565b60a0860151935061097760a08801856001600160a01b03169052565b9695505050505050565b86815260006020878184015260408301875182890160005b828110156109b557815184529284019290840190600101610999565b5050506bffffffffffffffffffffffff19606097881b8116825295871b861660148201529390951b909316602883015250603c0195945050505050565b60208152600061077760208301846108cc565b604081526000610a1860408301856108cc565b90508260208301529392505050565b60405160c0810167ffffffffffffffff81118282101715610a4a57610a4a610b7e565b60405290565b604051601f8201601f1916810167ffffffffffffffff81118282101715610a7957610a79610b7e565b604052919050565b600060c08236031215610a9357600080fd5b610a9b610a27565b8235815260208084013581830152604084013567ffffffffffffffff80821115610ac457600080fd5b9085019036601f830112610ad757600080fd5b813581811115610ae957610ae9610b7e565b8060051b9150610afa848301610a50565b818152848101908486013685870188011115610b1557600080fd5b600095505b83861015610b38578035835260019590950194918601918601610b1a565b50806040880152505050505050610b5160608401610725565b6060820152610b6260808401610725565b6080820152610b7360a08401610725565b60a082015292915050565b634e487b7160e01b600052604160045260246000fd5b6001600160a01b0381168114610ba957600080fd5b5056fea2646970667358221220a32abf3ea8c62ecbebaa56d2ff9c662719c7afd120cc2c4693dd4d1ce9ca377164736f6c63430008050033",
  "devdoc": {
    "kind": "dev",
    "methods": {
      "getMargin(bytes32,(uint256,uint256,uint256[],address,address,address))": {
        "params": {
          "_derivative": "Derivative Derivative itself",
          "_derivativeHash": "bytes32 Hash of derivative"
        },
        "returns": {
          "buyerMargin": "uint256 Margin of buyer",
          "sellerMargin": "uint256 Margin of seller"
        }
      }
    },
    "version": 1
  },
  "userdoc": {
    "kind": "user",
    "methods": {
      "getMargin(bytes32,(uint256,uint256,uint256[],address,address,address))": {
        "notice": "Initializes ticker, if was not initialized and returns buyer and seller margin from cache"
      },
      "getSyntheticCache(bytes32,(uint256,uint256,uint256[],address,address,address))": {
        "notice": "Initializes ticker, if was not initialized and returns `syntheticId` author address from cache"
      }
    },
    "notice": "Opium.SyntheticAggregator contract initialized, identifies and caches syntheticId sensitive data",
    "version": 1
  },
  "storageLayout": {
    "storage": [
      {
        "astId": 413,
        "contract": "contracts/SyntheticAggregator.sol:SyntheticAggregator",
        "label": "_initialized",
        "offset": 0,
        "slot": "0",
        "type": "t_bool"
      },
      {
        "astId": 416,
        "contract": "contracts/SyntheticAggregator.sol:SyntheticAggregator",
        "label": "_initializing",
        "offset": 1,
        "slot": "0",
        "type": "t_bool"
      },
      {
        "astId": 5685,
        "contract": "contracts/SyntheticAggregator.sol:SyntheticAggregator",
        "label": "registry",
        "offset": 2,
        "slot": "0",
        "type": "t_contract(IRegistry)4245"
      },
      {
        "astId": 5701,
        "contract": "contracts/SyntheticAggregator.sol:SyntheticAggregator",
        "label": "syntheticCaches",
        "offset": 0,
        "slot": "1",
        "type": "t_mapping(t_bytes32,t_struct(SyntheticCache)5696_storage)"
      }
    ],
    "types": {
      "t_address": {
        "encoding": "inplace",
        "label": "address",
        "numberOfBytes": "20"
      },
      "t_bool": {
        "encoding": "inplace",
        "label": "bool",
        "numberOfBytes": "1"
      },
      "t_bytes32": {
        "encoding": "inplace",
        "label": "bytes32",
        "numberOfBytes": "32"
      },
      "t_contract(IRegistry)4245": {
        "encoding": "inplace",
        "label": "contract IRegistry",
        "numberOfBytes": "20"
      },
      "t_mapping(t_bytes32,t_struct(SyntheticCache)5696_storage)": {
        "encoding": "mapping",
        "key": "t_bytes32",
        "label": "mapping(bytes32 => struct SyntheticAggregator.SyntheticCache)",
        "numberOfBytes": "32",
        "value": "t_struct(SyntheticCache)5696_storage"
      },
      "t_struct(SyntheticCache)5696_storage": {
        "encoding": "inplace",
        "label": "struct SyntheticAggregator.SyntheticCache",
        "members": [
          {
            "astId": 5687,
            "contract": "contracts/SyntheticAggregator.sol:SyntheticAggregator",
            "label": "buyerMargin",
            "offset": 0,
            "slot": "0",
            "type": "t_uint256"
          },
          {
            "astId": 5689,
            "contract": "contracts/SyntheticAggregator.sol:SyntheticAggregator",
            "label": "sellerMargin",
            "offset": 0,
            "slot": "1",
            "type": "t_uint256"
          },
          {
            "astId": 5691,
            "contract": "contracts/SyntheticAggregator.sol:SyntheticAggregator",
            "label": "commission",
            "offset": 0,
            "slot": "2",
            "type": "t_uint256"
          },
          {
            "astId": 5693,
            "contract": "contracts/SyntheticAggregator.sol:SyntheticAggregator",
            "label": "authorAddress",
            "offset": 0,
            "slot": "3",
            "type": "t_address"
          },
          {
            "astId": 5695,
            "contract": "contracts/SyntheticAggregator.sol:SyntheticAggregator",
            "label": "init",
            "offset": 20,
            "slot": "3",
            "type": "t_bool"
          }
        ],
        "numberOfBytes": "128"
      },
      "t_uint256": {
        "encoding": "inplace",
        "label": "uint256",
        "numberOfBytes": "32"
      }
    }
  }
}