{
  "address": "0x06d58321Ee68ab56e8A2e60c51F6E691C15e81d9",
  "abi": [
    {
      "inputs": [
        {
          "internalType": "contract IERC20Upgradeable",
          "name": "token",
          "type": "address"
        },
        {
          "internalType": "address",
          "name": "from",
          "type": "address"
        },
        {
          "internalType": "address",
          "name": "to",
          "type": "address"
        },
        {
          "internalType": "uint256",
          "name": "amount",
          "type": "uint256"
        }
      ],
      "name": "claimTokens",
      "outputs": [],
      "stateMutability": "nonpayable",
      "type": "function"
    },
    {
      "inputs": [
        {
          "internalType": "address",
          "name": "_registry",
          "type": "address"
        }
      ],
      "name": "initialize",
      "outputs": [],
      "stateMutability": "nonpayable",
      "type": "function"
    }
  ],
  "transactionHash": "0x21a9cc178c9dd4c09cd3a791587fe9b993a32c2dadf959213e4a537048713f83",
  "args": [],
  "solcInputHash": "658042053585c715e56757d0a4fb45c0",
  "bytecode": "0x608060405234801561001057600080fd5b5061065b806100206000396000f3fe608060405234801561001057600080fd5b50600436106100365760003560e01c80630a5ea4661461003b578063c4d66de814610050575b600080fd5b61004e610049366004610541565b610063565b005b61004e61005e366004610502565b610134565b600054604051633af32abf60e01b8152336004820152620100009091046001600160a01b031690633af32abf9060240160206040518083038186803b1580156100ab57600080fd5b505afa1580156100bf573d6000803e3d6000fd5b505050506040513d601f19601f820116820180604052508101906100e3919061051f565b6101195760405162461bcd60e51b81526020600482015260026024820152612a9960f11b60448201526064015b60405180910390fd5b61012e6001600160a01b03851684848461022f565b50505050565b600054610100900460ff168061014d575060005460ff16155b6101bf5760405162461bcd60e51b815260206004820152602e60248201527f496e697469616c697a61626c653a20636f6e747261637420697320616c72656160448201527f647920696e697469616c697a65640000000000000000000000000000000000006064820152608401610110565b600054610100900460ff161580156101e1576000805461ffff19166101011790555b600080547fffffffffffffffffffff0000000000000000000000000000000000000000ffff16620100006001600160a01b03851602179055801561022b576000805461ff00191690555b5050565b604080516001600160a01b038581166024830152848116604483015260648083018590528351808403909101815260849092018352602080830180517bffffffffffffffffffffffffffffffffffffffffffffffffffffffff166323b872dd60e01b17905283518085019094528084527f5361666545524332303a206c6f772d6c6576656c2063616c6c206661696c65649084015261012e928792916000916102dc918516908490610371565b80519091501561036c57808060200190518101906102fa919061051f565b61036c5760405162461bcd60e51b815260206004820152602a60248201527f5361666545524332303a204552433230206f7065726174696f6e20646964206e60448201527f6f742073756363656564000000000000000000000000000000000000000000006064820152608401610110565b505050565b6060610380848460008561038a565b90505b9392505050565b6060824710156104025760405162461bcd60e51b815260206004820152602660248201527f416464726573733a20696e73756666696369656e742062616c616e636520666f60448201527f722063616c6c00000000000000000000000000000000000000000000000000006064820152608401610110565b843b6104505760405162461bcd60e51b815260206004820152601d60248201527f416464726573733a2063616c6c20746f206e6f6e2d636f6e74726163740000006044820152606401610110565b600080866001600160a01b0316858760405161046c9190610592565b60006040518083038185875af1925050503d80600081146104a9576040519150601f19603f3d011682016040523d82523d6000602084013e6104ae565b606091505b50915091506104be8282866104c9565b979650505050505050565b606083156104d8575081610383565b8251156104e85782518084602001fd5b8160405162461bcd60e51b815260040161011091906105ae565b60006020828403121561051457600080fd5b81356103838161060d565b60006020828403121561053157600080fd5b8151801515811461038357600080fd5b6000806000806080858703121561055757600080fd5b84356105628161060d565b935060208501356105728161060d565b925060408501356105828161060d565b9396929550929360600135925050565b600082516105a48184602087016105e1565b9190910192915050565b60208152600082518060208401526105cd8160408501602087016105e1565b601f01601f19169190910160400192915050565b60005b838110156105fc5781810151838201526020016105e4565b8381111561012e5750506000910152565b6001600160a01b038116811461062257600080fd5b5056fea2646970667358221220b0047e9768456c83682b87f3cb8d4c185a2493ec76a94dcbdae9196bbce81c5564736f6c63430008050033",
  "devdoc": {
    "kind": "dev",
    "methods": {
      "claimTokens(address,address,address,uint256)": {
        "params": {
          "amount": "uint256 Amount of tokens to be transferred",
          "from": "address Address from which tokens are transferred",
          "to": "address Address of tokens receiver",
          "token": "IERC20 Instance of token"
        }
      },
      "initialize(address)": {
        "params": {
          "_registry": "address Address of governor, who is allowed to adjust whitelist"
        }
      }
    },
    "title": "Opium.TokenSpender contract holds users ERC20 approvals and allows whitelisted contracts to use tokens",
    "version": 1
  },
  "userdoc": {
    "kind": "user",
    "methods": {
      "claimTokens(address,address,address,uint256)": {
        "notice": "Using this function whitelisted contracts could call ERC20 transfers"
      },
      "initialize(address)": {
        "notice": "Calls constructors of super-contracts"
      }
    },
    "version": 1
  },
  "storageLayout": {
    "storage": [
      {
        "astId": 413,
        "contract": "contracts/TokenSpender.sol:TokenSpender",
        "label": "_initialized",
        "offset": 0,
        "slot": "0",
        "type": "t_bool"
      },
      {
        "astId": 416,
        "contract": "contracts/TokenSpender.sol:TokenSpender",
        "label": "_initializing",
        "offset": 1,
        "slot": "0",
        "type": "t_bool"
      },
      {
        "astId": 5889,
        "contract": "contracts/TokenSpender.sol:TokenSpender",
        "label": "registry",
        "offset": 2,
        "slot": "0",
        "type": "t_contract(IRegistry)4245"
      }
    ],
    "types": {
      "t_bool": {
        "encoding": "inplace",
        "label": "bool",
        "numberOfBytes": "1"
      },
      "t_contract(IRegistry)4245": {
        "encoding": "inplace",
        "label": "contract IRegistry",
        "numberOfBytes": "20"
      }
    }
  }
}