{
  "address": "0x46172e4A88521DE78301cF99544129072C1fd04D",
  "abi": [
    {
      "inputs": [
        {
          "internalType": "address",
          "name": "_registry",
          "type": "address"
        }
      ],
      "stateMutability": "nonpayable",
      "type": "constructor"
    },
    {
      "inputs": [
        {
          "internalType": "bytes32",
          "name": "_derivativeHash",
          "type": "bytes32"
        }
      ],
      "name": "getDerivativePositionsSupply",
      "outputs": [
        {
          "components": [
            {
              "internalType": "address",
              "name": "positionAddress",
              "type": "address"
            },
            {
              "internalType": "string",
              "name": "name",
              "type": "string"
            },
            {
              "internalType": "string",
              "name": "symbol",
              "type": "string"
            },
            {
              "internalType": "uint256",
              "name": "totalSupply",
              "type": "uint256"
            },
            {
              "components": [
                {
                  "internalType": "uint256",
                  "name": "margin",
                  "type": "uint256"
                },
                {
                  "internalType": "uint256",
                  "name": "endTime",
                  "type": "uint256"
                },
                {
                  "internalType": "uint256[]",
                  "name": "params",
                  "type": "uint256[]"
                },
                {
                  "internalType": "address",
                  "name": "oracleId",
                  "type": "address"
                },
                {
                  "internalType": "address",
                  "name": "token",
                  "type": "address"
                },
                {
                  "internalType": "address",
                  "name": "syntheticId",
                  "type": "address"
                }
              ],
              "internalType": "struct LibDerivative.Derivative",
              "name": "derivative",
              "type": "tuple"
            },
            {
              "internalType": "bool",
              "name": "isLong",
              "type": "bool"
            }
          ],
          "internalType": "struct PositionTotalSupply[2]",
          "name": "",
          "type": "tuple[2]"
        }
      ],
      "stateMutability": "view",
      "type": "function"
    },
    {
      "inputs": [
        {
          "internalType": "bytes32[]",
          "name": "_derivativesHash",
          "type": "bytes32[]"
        }
      ],
      "name": "getDerivativesPositionsSupply",
      "outputs": [
        {
          "components": [
            {
              "internalType": "address",
              "name": "positionAddress",
              "type": "address"
            },
            {
              "internalType": "string",
              "name": "name",
              "type": "string"
            },
            {
              "internalType": "string",
              "name": "symbol",
              "type": "string"
            },
            {
              "internalType": "uint256",
              "name": "totalSupply",
              "type": "uint256"
            },
            {
              "components": [
                {
                  "internalType": "uint256",
                  "name": "margin",
                  "type": "uint256"
                },
                {
                  "internalType": "uint256",
                  "name": "endTime",
                  "type": "uint256"
                },
                {
                  "internalType": "uint256[]",
                  "name": "params",
                  "type": "uint256[]"
                },
                {
                  "internalType": "address",
                  "name": "oracleId",
                  "type": "address"
                },
                {
                  "internalType": "address",
                  "name": "token",
                  "type": "address"
                },
                {
                  "internalType": "address",
                  "name": "syntheticId",
                  "type": "address"
                }
              ],
              "internalType": "struct LibDerivative.Derivative",
              "name": "derivative",
              "type": "tuple"
            },
            {
              "internalType": "bool",
              "name": "isLong",
              "type": "bool"
            }
          ],
          "internalType": "struct PositionTotalSupply[2][]",
          "name": "",
          "type": "tuple[2][]"
        }
      ],
      "stateMutability": "view",
      "type": "function"
    },
    {
      "inputs": [],
      "name": "registry",
      "outputs": [
        {
          "internalType": "contract IRegistry",
          "name": "",
          "type": "address"
        }
      ],
      "stateMutability": "view",
      "type": "function"
    }
  ],
  "transactionHash": "0x6e1a2b68a08de86d38e88bca9d108898fd9786b13d6f936c2666c755b43e947b",
  "args": [
    "0x9285CAA6F92D9Ba197966E854174e9B27B2061e5"
  ],
  "solcInputHash": "6906dc93f57e85482da6ea178e2dedc3",
  "bytecode": "0x60a060405234801561001057600080fd5b506040516110cd3803806110cd83398101604081905261002f91610044565b60601b6001600160601b031916608052610074565b60006020828403121561005657600080fd5b81516001600160a01b038116811461006d57600080fd5b9392505050565b60805160601c61103561009860003960008181607401526101ae01526110356000f3fe608060405234801561001057600080fd5b50600436106100415760003560e01c806320d9b652146100465780637b1039991461006f578063ac8a6437146100ae575b600080fd5b610059610054366004610a0d565b6100ce565b6040516100669190610ec6565b60405180910390f35b6100967f000000000000000000000000000000000000000000000000000000000000000081565b6040516001600160a01b039091168152602001610066565b6100c16100bc366004610998565b6100e5565b6040516100669190610e64565b6100d6610879565b6100df826101a2565b92915050565b606060008267ffffffffffffffff81111561010257610102610fe9565b60405190808252806020026020018201604052801561013b57816020015b610128610879565b8152602001906001900390816101205790505b50905060005b8381101561019a5761016a85858381811061015e5761015e610fd3565b905060200201356101a2565b82828151811061017c5761017c610fd3565b6020026020010181905250808061019290610faa565b915050610141565b509392505050565b6101aa610879565b60007f00000000000000000000000000000000000000000000000000000000000000006001600160a01b031663a1774da06040518163ffffffff1660e01b81526004016101206040518083038186803b15801561020657600080fd5b505afa15801561021a573d6000803e3d6000fd5b505050506040513d601f19601f8201168201806040525081019061023e9190610c1e565b60200151905060006102c56001836001600160a01b0316630cbcae706040518163ffffffff1660e01b815260040160206040518083038186803b15801561028457600080fd5b505afa158015610298573d6000803e3d6000fd5b505050506040513d601f19601f820116820180604052508101906102bc9190610976565b86919085610772565b905060006103486000846001600160a01b0316630cbcae706040518163ffffffff1660e01b815260040160206040518083038186803b15801561030757600080fd5b505afa15801561031b573d6000803e3d6000fd5b505050506040513d601f19601f8201168201806040525081019061033f9190610976565b87919086610772565b905060405180604001604052806040518060c00160405280856001600160a01b03168152602001856001600160a01b03166306fdde036040518163ffffffff1660e01b815260040160006040518083038186803b1580156103a857600080fd5b505afa1580156103bc573d6000803e3d6000fd5b505050506040513d6000823e601f3d908101601f191682016040526103e49190810190610a26565b8152602001856001600160a01b03166395d89b416040518163ffffffff1660e01b815260040160006040518083038186803b15801561042257600080fd5b505afa158015610436573d6000803e3d6000fd5b505050506040513d6000823e601f3d908101601f1916820160405261045e9190810190610a26565b8152602001856001600160a01b03166318160ddd6040518163ffffffff1660e01b815260040160206040518083038186803b15801561049c57600080fd5b505afa1580156104b0573d6000803e3d6000fd5b505050506040513d601f19601f820116820180604052508101906104d49190610cd4565b8152602001856001600160a01b031663ce21286d6040518163ffffffff1660e01b815260040160006040518083038186803b15801561051257600080fd5b505afa158015610526573d6000803e3d6000fd5b505050506040513d6000823e601f3d908101601f1916820160405261054e9190810190610aba565b6000015181526020016001151581525081526020016040518060c00160405280846001600160a01b03168152602001846001600160a01b03166306fdde036040518163ffffffff1660e01b815260040160006040518083038186803b1580156105b657600080fd5b505afa1580156105ca573d6000803e3d6000fd5b505050506040513d6000823e601f3d908101601f191682016040526105f29190810190610a26565b8152602001846001600160a01b03166395d89b416040518163ffffffff1660e01b815260040160006040518083038186803b15801561063057600080fd5b505afa158015610644573d6000803e3d6000fd5b505050506040513d6000823e601f3d908101601f1916820160405261066c9190810190610a26565b8152602001846001600160a01b03166318160ddd6040518163ffffffff1660e01b815260040160206040518083038186803b1580156106aa57600080fd5b505afa1580156106be573d6000803e3d6000fd5b505050506040513d601f19601f820116820180604052508101906106e29190610cd4565b8152602001846001600160a01b031663ce21286d6040518163ffffffff1660e01b815260040160006040518083038186803b15801561072057600080fd5b505afa158015610734573d6000803e3d6000fd5b505050506040513d6000823e601f3d908101601f1916820160405261075c9190810190610aba565b5181526000602090910152905295945050505050565b600061078085858585610789565b95945050505050565b60008085856107b157604051806040016040528060018152602001605360f81b8152506107cc565b604051806040016040528060018152602001601360fa1b8152505b6040516020016107dd929190610e3e565b60405160208183030381529060405280519060200120905061086f8482856040517f3d602d80600a3d3981f3363d3d373d3d3d363d730000000000000000000000008152606093841b60148201527f5af43d82803e903d91602b57fd5bf3ff000000000000000000000000000000006028820152921b6038830152604c8201526037808220606c830152605591012090565b9695505050505050565b60405180604001604052806002905b6108906108a6565b8152602001906001900390816108885790505090565b6040518060c0016040528060006001600160a01b0316815260200160608152602001606081526020016000815260200161092a6040518060c0016040528060008152602001600081526020016060815260200160006001600160a01b0316815260200160006001600160a01b0316815260200160006001600160a01b031681525090565b8152600060209091015290565b80516001600160a01b038116811461094e57600080fd5b919050565b80516002811061094e57600080fd5b805163ffffffff8116811461094e57600080fd5b60006020828403121561098857600080fd5b61099182610937565b9392505050565b600080602083850312156109ab57600080fd5b823567ffffffffffffffff808211156109c357600080fd5b818501915085601f8301126109d757600080fd5b8135818111156109e657600080fd5b8660208260051b85010111156109fb57600080fd5b60209290920196919550909350505050565b600060208284031215610a1f57600080fd5b5035919050565b600060208284031215610a3857600080fd5b815167ffffffffffffffff80821115610a5057600080fd5b818401915084601f830112610a6457600080fd5b815181811115610a7657610a76610fe9565b610a89601f8201601f1916602001610f49565b9150808252856020828501011115610aa057600080fd5b610ab1816020840160208601610f7a565b50949350505050565b60006020808385031215610acd57600080fd5b825167ffffffffffffffff80821115610ae557600080fd5b9084019060608287031215610af957600080fd5b610b01610ed9565b825182811115610b1057600080fd5b830160c08189031215610b2257600080fd5b610b2a610f02565b815181528582015186820152604082015184811115610b4857600080fd5b8201601f81018a13610b5957600080fd5b805185811115610b6b57610b6b610fe9565b8060051b9550610b7c888701610f49565b81815288810190838a018885018b018e1015610b9757600080fd5b600098505b83891015610bba578051835260019890980197918a01918a01610b9c565b50604085015250610bd091505060608301610937565b6060820152610be160808301610937565b6080820152610bf260a08301610937565b60a0820152825250610c05838501610953565b9381019390935250604090810151908201529392505050565b60006101208284031215610c3157600080fd5b610c39610f25565b610c4283610937565b8152610c5060208401610937565b6020820152610c6160408401610937565b6040820152610c7260608401610937565b6060820152610c8360808401610937565b6080820152610c9460a08401610937565b60a0820152610ca560c08401610937565b60c0820152610cb660e08401610962565b60e0820152610100610cc9818501610962565b908201529392505050565b600060208284031215610ce657600080fd5b5051919050565b6000826040808201846000805b6002811015610e05578584038952825160c06001600160a01b0382511686526020808301518282890152610d3083890182610e12565b9050888401518882038a8a0152610d478282610e12565b915050606080850151818a01526080808601518a8403828c01528584018151855285820151868601528c820151878e870152819750805180835260e08701985087820192508b91505b80821015610db05782518952978701979187019160019190910190610d90565b505050828101516001600160a01b03908116938501939093528181015183169184019190915260a090810151909116918101919091529283015115159690920195909552988901989290920191600101610cfa565b5091979650505050505050565b60008151808452610e2a816020860160208601610f7a565b601f01601f19169290920160200192915050565b82815260008251610e56816020850160208701610f7a565b919091016020019392505050565b6000602080830181845280855180835260408601915060408160051b870101925083870160005b82811015610eb957603f19888603018452610ea7858351610ced565b94509285019290850190600101610e8b565b5092979650505050505050565b6020815260006109916020830184610ced565b6040516060810167ffffffffffffffff81118282101715610efc57610efc610fe9565b60405290565b60405160c0810167ffffffffffffffff81118282101715610efc57610efc610fe9565b604051610120810167ffffffffffffffff81118282101715610efc57610efc610fe9565b604051601f8201601f1916810167ffffffffffffffff81118282101715610f7257610f72610fe9565b604052919050565b60005b83811015610f95578181015183820152602001610f7d565b83811115610fa4576000848401525b50505050565b6000600019821415610fcc57634e487b7160e01b600052601160045260246000fd5b5060010190565b634e487b7160e01b600052603260045260246000fd5b634e487b7160e01b600052604160045260246000fdfea26469706673582212204fd8ba46cc971cee5b56bcf613b89e7611e8b41c6bd94134e8c1f6e49619379564736f6c63430008050033",
  "devdoc": {
    "kind": "dev",
    "methods": {},
    "version": 1
  },
  "userdoc": {
    "kind": "user",
    "methods": {},
    "version": 1
  },
  "storageLayout": {
    "storage": [],
    "types": null
  }
}