{
  "address": "0x5C97c97ea1015E4f2aE4274c022A06957Eddbb46",
  "abi": [
    {
      "anonymous": false,
      "inputs": [
        {
          "indexed": true,
          "internalType": "bytes32",
          "name": "_derivativeHash",
          "type": "bytes32"
        },
        {
          "indexed": true,
          "internalType": "address",
          "name": "_longPositionAddress",
          "type": "address"
        },
        {
          "indexed": true,
          "internalType": "address",
          "name": "_shortPositionAddress",
          "type": "address"
        }
      ],
      "name": "LogPositionTokenPair",
      "type": "event"
    },
    {
      "anonymous": false,
      "inputs": [
        {
          "indexed": true,
          "internalType": "address",
          "name": "_changer",
          "type": "address"
        },
        {
          "indexed": true,
          "internalType": "address",
          "name": "_newRegistryAddress",
          "type": "address"
        }
      ],
      "name": "LogRegistryChanged",
      "type": "event"
    },
    {
      "inputs": [
        {
          "internalType": "address",
          "name": "_positionOwner",
          "type": "address"
        },
        {
          "internalType": "address",
          "name": "_positionAddress",
          "type": "address"
        },
        {
          "internalType": "uint256",
          "name": "_amount",
          "type": "uint256"
        }
      ],
      "name": "burn",
      "outputs": [],
      "stateMutability": "nonpayable",
      "type": "function"
    },
    {
      "inputs": [
        {
          "internalType": "address",
          "name": "_positionOwner",
          "type": "address"
        },
        {
          "internalType": "address",
          "name": "_longPositionAddress",
          "type": "address"
        },
        {
          "internalType": "address",
          "name": "_shortPositionAddress",
          "type": "address"
        },
        {
          "internalType": "uint256",
          "name": "_amount",
          "type": "uint256"
        }
      ],
      "name": "burnPair",
      "outputs": [],
      "stateMutability": "nonpayable",
      "type": "function"
    },
    {
      "inputs": [
        {
          "internalType": "address",
          "name": "_buyer",
          "type": "address"
        },
        {
          "internalType": "address",
          "name": "_seller",
          "type": "address"
        },
        {
          "internalType": "uint256",
          "name": "_amount",
          "type": "uint256"
        },
        {
          "internalType": "bytes32",
          "name": "_derivativeHash",
          "type": "bytes32"
        },
        {
          "components": [
            {
              "internalType": "uint256",
              "name": "margin",
              "type": "uint256"
            },
            {
              "internalType": "uint256",
              "name": "endTime",
              "type": "uint256"
            },
            {
              "internalType": "uint256[]",
              "name": "params",
              "type": "uint256[]"
            },
            {
              "internalType": "address",
              "name": "oracleId",
              "type": "address"
            },
            {
              "internalType": "address",
              "name": "token",
              "type": "address"
            },
            {
              "internalType": "address",
              "name": "syntheticId",
              "type": "address"
            }
          ],
          "internalType": "struct LibDerivative.Derivative",
          "name": "_derivative",
          "type": "tuple"
        }
      ],
      "name": "create",
      "outputs": [],
      "stateMutability": "nonpayable",
      "type": "function"
    },
    {
      "inputs": [],
      "name": "getImplementationAddress",
      "outputs": [
        {
          "internalType": "address",
          "name": "",
          "type": "address"
        }
      ],
      "stateMutability": "view",
      "type": "function"
    },
    {
      "inputs": [],
      "name": "getRegistry",
      "outputs": [
        {
          "internalType": "address",
          "name": "",
          "type": "address"
        }
      ],
      "stateMutability": "view",
      "type": "function"
    },
    {
      "inputs": [
        {
          "internalType": "address",
          "name": "_registry",
          "type": "address"
        }
      ],
      "name": "initialize",
      "outputs": [],
      "stateMutability": "nonpayable",
      "type": "function"
    },
    {
      "inputs": [
        {
          "internalType": "address",
          "name": "_buyer",
          "type": "address"
        },
        {
          "internalType": "address",
          "name": "_seller",
          "type": "address"
        },
        {
          "internalType": "address",
          "name": "_longPositionAddress",
          "type": "address"
        },
        {
          "internalType": "address",
          "name": "_shortPositionAddress",
          "type": "address"
        },
        {
          "internalType": "uint256",
          "name": "_amount",
          "type": "uint256"
        }
      ],
      "name": "mintPair",
      "outputs": [],
      "stateMutability": "nonpayable",
      "type": "function"
    },
    {
      "inputs": [
        {
          "internalType": "address",
          "name": "_registry",
          "type": "address"
        }
      ],
      "name": "setRegistry",
      "outputs": [],
      "stateMutability": "nonpayable",
      "type": "function"
    }
  ],
  "transactionHash": "0xe836a9320c3368dafe9744cacb1d5942df15af13d8f372ede39f3407873c5d4f",
  "args": [],
  "solcInputHash": "6906dc93f57e85482da6ea178e2dedc3",
  "bytecode": "0x608060405234801561001057600080fd5b506138b5806100206000396000f3fe608060405234801561001057600080fd5b50600436106100885760003560e01c80639873dba91161005b5780639873dba9146100f5578063a91ee0dc14610108578063c4d66de81461011b578063f6b911bc1461012e57600080fd5b80630cbcae701461008d57806347704dbd146100b65780635ab1bd53146100cb5780636ade6d19146100e2575b600080fd5b6033546001600160a01b03165b6040516001600160a01b03909116815260200160405180910390f35b6100c96100c4366004610d7b565b610141565b005b6000546201000090046001600160a01b031661009a565b6100c96100f0366004610ddf565b6102dc565b6100c9610103366004610e71565b610471565b6100c9610116366004610d3a565b610756565b6100c9610129366004610d3a565b610869565b6100c961013c366004610e30565b61098d565b600060029054906101000a90046001600160a01b03166001600160a01b031663da4fbe526040518163ffffffff1660e01b815260040160206040518083038186803b15801561018f57600080fd5b505afa1580156101a3573d6000803e3d6000fd5b505050506040513d601f19601f820116820180604052508101906101c79190610d5e565b6001600160a01b0316336001600160a01b0316146102115760405162461bcd60e51b8152602060048201526002602482015261463160f01b60448201526064015b60405180910390fd5b6040516340c10f1960e01b81526001600160a01b038681166004830152602482018390528416906340c10f1990604401600060405180830381600087803b15801561025b57600080fd5b505af115801561026f573d6000803e3d6000fd5b50506040516340c10f1960e01b81526001600160a01b03878116600483015260248201859052851692506340c10f199150604401600060405180830381600087803b1580156102bd57600080fd5b505af11580156102d1573d6000803e3d6000fd5b505050505050505050565b600060029054906101000a90046001600160a01b03166001600160a01b031663da4fbe526040518163ffffffff1660e01b815260040160206040518083038186803b15801561032a57600080fd5b505afa15801561033e573d6000803e3d6000fd5b505050506040513d601f19601f820116820180604052508101906103629190610d5e565b6001600160a01b0316336001600160a01b0316146103a75760405162461bcd60e51b8152602060048201526002602482015261463160f01b6044820152606401610208565b604051632770a7eb60e21b81526001600160a01b03858116600483015260248201839052841690639dc29fac90604401600060405180830381600087803b1580156103f157600080fd5b505af1158015610405573d6000803e3d6000fd5b5050604051632770a7eb60e21b81526001600160a01b0387811660048301526024820185905285169250639dc29fac9150604401600060405180830381600087803b15801561045357600080fd5b505af1158015610467573d6000803e3d6000fd5b5050505050505050565b600060029054906101000a90046001600160a01b03166001600160a01b031663da4fbe526040518163ffffffff1660e01b815260040160206040518083038186803b1580156104bf57600080fd5b505afa1580156104d3573d6000803e3d6000fd5b505050506040513d601f19601f820116820180604052508101906104f79190610d5e565b6001600160a01b0316336001600160a01b03161461053c5760405162461bcd60e51b8152602060048201526002602482015261463160f01b6044820152606401610208565b6033546000906105599084906001906001600160a01b0316610ab6565b60335490915060009061057890859083906001600160a01b0316610ab6565b6040516372d6d1b960e01b81529091506001600160a01b038316906372d6d1b9906105ac9087906001908890600401610fa6565b600060405180830381600087803b1580156105c657600080fd5b505af11580156105da573d6000803e3d6000fd5b50506040516372d6d1b960e01b81526001600160a01b03841692506372d6d1b9915061060f9087906000908890600401610fa6565b600060405180830381600087803b15801561062957600080fd5b505af115801561063d573d6000803e3d6000fd5b50505050806001600160a01b0316826001600160a01b0316857facda084bb7d7816e4761589dd38d696b720ae5609d71839a5cf8c40f9f6b3db360405160405180910390a4841561074d576040516340c10f1960e01b81526001600160a01b038881166004830152602482018790528316906340c10f1990604401600060405180830381600087803b1580156106d257600080fd5b505af11580156106e6573d6000803e3d6000fd5b50506040516340c10f1960e01b81526001600160a01b03898116600483015260248201899052841692506340c10f199150604401600060405180830381600087803b15801561073457600080fd5b505af1158015610748573d6000803e3d6000fd5b505050505b50505050505050565b600054604051634048d90960e01b8152336004820152620100009091046001600160a01b031690634048d9099060240160206040518083038186803b15801561079e57600080fd5b505afa1580156107b2573d6000803e3d6000fd5b505050506040513d601f19601f820116820180604052508101906107d69190610eee565b6108075760405162461bcd60e51b81526020600482015260026024820152614d3160f01b6044820152606401610208565b6000805475ffffffffffffffffffffffffffffffffffffffff00001916620100006001600160a01b038416908102919091178255604051909133917fec10a16af385903532506d1567380fd8d93d880e8ed4bcacc42b0848e781406a9190a350565b600054610100900460ff166108845760005460ff1615610888565b303b155b6108eb5760405162461bcd60e51b815260206004820152602e60248201527f496e697469616c697a61626c653a20636f6e747261637420697320616c72656160448201526d191e481a5b9a5d1a585b1a5e995960921b6064820152608401610208565b600054610100900460ff1615801561090d576000805461ffff19166101011790555b61091682610b35565b60405161092290610d1d565b604051809103906000f08015801561093e573d6000803e3d6000fd5b50603380547fffffffffffffffffffffffff0000000000000000000000000000000000000000166001600160a01b03929092169190911790558015610989576000805461ff00191690555b5050565b600060029054906101000a90046001600160a01b03166001600160a01b031663da4fbe526040518163ffffffff1660e01b815260040160206040518083038186803b1580156109db57600080fd5b505afa1580156109ef573d6000803e3d6000fd5b505050506040513d601f19601f82011682018060405250810190610a139190610d5e565b6001600160a01b0316336001600160a01b031614610a585760405162461bcd60e51b8152602060048201526002602482015261463160f01b6044820152606401610208565b604051632770a7eb60e21b81526001600160a01b03848116600483015260248201839052831690639dc29fac90604401600060405180830381600087803b158015610aa257600080fd5b505af115801561074d573d6000803e3d6000fd5b6000808484610ade57604051806040016040528060018152602001605360f81b815250610af9565b604051806040016040528060018152602001601360fa1b8152505b604051602001610b0a929190610f5f565b604051602081830303815290604052805190602001209050610b2c8382610c60565b95945050505050565b600054610100900460ff16610b505760005460ff1615610b54565b303b155b610bb75760405162461bcd60e51b815260206004820152602e60248201527f496e697469616c697a61626c653a20636f6e747261637420697320616c72656160448201526d191e481a5b9a5d1a585b1a5e995960921b6064820152608401610208565b600054610100900460ff16158015610bd9576000805461ffff19166101011790555b6001600160a01b038216610bec57600080fd5b6000805475ffffffffffffffffffffffffffffffffffffffff00001916620100006001600160a01b038516908102919091178255604051909133917fec10a16af385903532506d1567380fd8d93d880e8ed4bcacc42b0848e781406a9190a38015610989576000805461ff00191690555050565b60006040517f3d602d80600a3d3981f3363d3d373d3d3d363d7300000000000000000000000081528360601b60148201527f5af43d82803e903d91602b57fd5bf300000000000000000000000000000000006028820152826037826000f59150506001600160a01b038116610d175760405162461bcd60e51b815260206004820152601760248201527f455243313136373a2063726561746532206661696c65640000000000000000006044820152606401610208565b92915050565b6127c8806110b883390190565b8035610d358161109f565b919050565b600060208284031215610d4c57600080fd5b8135610d578161109f565b9392505050565b600060208284031215610d7057600080fd5b8151610d578161109f565b600080600080600060a08688031215610d9357600080fd5b8535610d9e8161109f565b94506020860135610dae8161109f565b93506040860135610dbe8161109f565b92506060860135610dce8161109f565b949793965091946080013592915050565b60008060008060808587031215610df557600080fd5b8435610e008161109f565b93506020850135610e108161109f565b92506040850135610e208161109f565b9396929550929360600135925050565b600080600060608486031215610e4557600080fd5b8335610e508161109f565b92506020840135610e608161109f565b929592945050506040919091013590565b600080600080600060a08688031215610e8957600080fd5b8535610e948161109f565b94506020860135610ea48161109f565b93506040860135925060608601359150608086013567ffffffffffffffff811115610ece57600080fd5b860160c08189031215610ee057600080fd5b809150509295509295909350565b600060208284031215610f0057600080fd5b81518015158114610d5757600080fd5b81835260007f07ffffffffffffffffffffffffffffffffffffffffffffffffffffffffffffff831115610f4257600080fd5b8260051b8083602087013760009401602001938452509192915050565b8281526000825160005b81811015610f8557602081860181015185830182015201610f69565b81811115610f97576000602083860101525b50919091016020019392505050565b838152600060028410610fc957634e487b7160e01b600052602160045260246000fd5b8360208301526060604083015282356060830152602083013560808301526040830135601e19843603018112610ffe57600080fd5b8301803567ffffffffffffffff81111561101757600080fd5b8060051b360385131561102957600080fd5b60c060a085015261104261012085018260208501610f10565b91505061105160608501610d2a565b6001600160a01b031660c084015261106b60808501610d2a565b6001600160a01b031660e084015261108560a08501610d2a565b6001600160a01b0381166101008501525095945050505050565b6001600160a01b03811681146110b457600080fd5b5056fe608060405234801561001057600080fd5b506127a8806100206000396000f3fe608060405234801561001057600080fd5b50600436106101515760003560e01c806372d6d1b9116100cd578063a9059cbb11610081578063ce21286d11610066578063ce21286d146102a6578063d505accf146102bb578063dd62ed3e146102ce57600080fd5b8063a9059cbb14610278578063a9c2e36c1461028b57600080fd5b806395d89b41116100b257806395d89b411461024a5780639dc29fac14610252578063a457c2d71461026557600080fd5b806372d6d1b9146102245780637ecebe001461023757600080fd5b8063313ce56711610124578063395093511161010957806339509351146101d357806340c10f19146101e657806370a08231146101fb57600080fd5b8063313ce567146101bc5780633644e515146101cb57600080fd5b806306fdde0314610156578063095ea7b31461017457806318160ddd1461019757806323b872dd146101a9575b600080fd5b61015e610307565b60405161016b9190612265565b60405180910390f35b610187610182366004611f85565b610496565b604051901515815260200161016b565b6035545b60405190815260200161016b565b6101876101b7366004611ed6565b6104ac565b6040516012815260200161016b565b61019b610570565b6101876101e1366004611f85565b61057f565b6101f96101f4366004611f85565b6105bb565b005b61019b610209366004611e81565b6001600160a01b031660009081526033602052604090205490565b6101f9610232366004611faf565b610608565b61019b610245366004611e81565b61087c565b61015e61089c565b6101f9610260366004611f85565b6109dc565b610187610273366004611f85565b610a25565b610187610286366004611f85565b610ad6565b60cc546040516001600160a01b03909116815260200161016b565b6102ae610ae3565b60405161016b9190612298565b6101f96102c9366004611f12565b610c1b565b61019b6102dc366004611ea3565b6001600160a01b03918216600090815260346020908152604080832093909416825291909152205490565b60d254604080516307ac921760e31b815290516060926000926001600160a01b0390911691633d6490b8916004808201928692909190829003018186803b15801561035157600080fd5b505afa158015610365573d6000803e3d6000fd5b505050506040513d6000823e601f3d908101601f1916820160405261038d9190810190612013565b9050600061039f60cd60070154610d61565b60ce549091506000906103b190610e6f565b905060008184846040516020016103ca93929190612164565b60408051601f19818403018152919052905080600160d35460ff1660018111156103f6576103f6612730565b14610436576040518060400160405280600681526020017f2d53484f5254000000000000000000000000000000000000000000000000000081525061046d565b6040518060400160405280600581526020017f2d4c4f4e470000000000000000000000000000000000000000000000000000008152505b60405160200161047e9291906120c9565b60405160208183030381529060405294505050505090565b60006104a3338484610f37565b50600192915050565b60006104b984848461105c565b6001600160a01b0384166000908152603460209081526040808320338452909152902054828110156105585760405162461bcd60e51b815260206004820152602860248201527f45524332303a207472616e7366657220616d6f756e742065786365656473206160448201527f6c6c6f77616e636500000000000000000000000000000000000000000000000060648201526084015b60405180910390fd5b6105658533858403610f37565b506001949350505050565b600061057a611259565b905090565b3360008181526034602090815260408083206001600160a01b038716845290915281205490916104a39185906105b69086906123f5565b610f37565b60cc546001600160a01b031633146105fa5760405162461bcd60e51b8152602060048201526002602482015261503160f01b604482015260640161054f565b61060482826112d4565b5050565b600054610100900460ff166106235760005460ff1615610627565b303b155b6106995760405162461bcd60e51b815260206004820152602e60248201527f496e697469616c697a61626c653a20636f6e747261637420697320616c72656160448201527f647920696e697469616c697a6564000000000000000000000000000000000000606482015260840161054f565b600054610100900460ff161580156106bb576000805461ffff19166101011790555b6106e360405180602001604052806000815250604051806020016040528060008152506113b3565b61073b6040518060400160405280601481526020017f4f7069756d20506f736974696f6e20546f6b656e000000000000000000000000815250604051806040016040528060018152602001603160f81b815250611430565b610753604051806020016040528060008152506114b5565b60cc805473ffffffffffffffffffffffffffffffffffffffff19163317905560408051606081019091528061078784612577565b815260200184600181111561079e5761079e612730565b815260209081018690528151805160cd9081558183015160ce5560408201518051919384926107d19260cf920190611d92565b50606082015160038201805473ffffffffffffffffffffffffffffffffffffffff199081166001600160a01b03938416179091556080840151600484018054831691841691909117905560a090930151600590920180549093169116179055602082015160068201805460ff19166001838181111561085257610852612730565b0217905550604082015181600701559050508015610876576000805461ff00191690555b50505050565b6001600160a01b0381166000908152609960205260408120545b92915050565b60d254604080516307ac921760e31b815290516060926000926001600160a01b0390911691633d6490b8916004808201928692909190829003018186803b1580156108e657600080fd5b505afa1580156108fa573d6000803e3d6000fd5b505050506040513d6000823e601f3d908101601f191682016040526109229190810190612013565b9050600061093460cd60070154610d61565b60ce5490915060009061094690610e6f565b9050600081848460405160200161095f939291906121e7565b60408051601f19818403018152919052905080600160d35460ff16600181111561098b5761098b612730565b146109b057604051806040016040528060028152602001615f5360f01b81525061046d565b6040518060400160405280600281526020016117d360f21b81525060405160200161047e9291906120c9565b60cc546001600160a01b03163314610a1b5760405162461bcd60e51b8152602060048201526002602482015261503160f01b604482015260640161054f565b6106048282611547565b3360009081526034602090815260408083206001600160a01b038616845290915281205482811015610abf5760405162461bcd60e51b815260206004820152602560248201527f45524332303a2064656372656173656420616c6c6f77616e63652062656c6f7760448201527f207a65726f000000000000000000000000000000000000000000000000000000606482015260840161054f565b610acc3385858403610f37565b5060019392505050565b60006104a333848461105c565b6040805161012081018252600060608083018281526080840183905260a084019190915260c0830182905260e08301829052610100830182905282526020820181905291810191909152604080516101208101825260cd80546060830190815260ce54608084015260cf80548551602082810282018101909752818152949593948694869360a08701939091830182828015610b9e57602002820191906000526020600020905b815481526020019060010190808311610b8a575b505050918352505060038201546001600160a01b0390811660208084019190915260048401548216604084015260059093015416606090910152908252600683015491019060ff166001811115610bf757610bf7612730565b6001811115610c0857610c08612730565b8152602001600782015481525050905090565b83421115610c6b5760405162461bcd60e51b815260206004820152601d60248201527f45524332305065726d69743a206578706972656420646561646c696e65000000604482015260640161054f565b6000609a54888888610c7c8c611692565b6040805160208101969096526001600160a01b0394851690860152929091166060840152608083015260a082015260c0810186905260e0016040516020818303038152906040528051906020012090506000610cd7826116ba565b90506000610ce782878787611708565b9050896001600160a01b0316816001600160a01b031614610d4a5760405162461bcd60e51b815260206004820152601e60248201527f45524332305065726d69743a20696e76616c6964207369676e61747572650000604482015260640161054f565b610d558a8a8a610f37565b50505050505050505050565b6060600f60f81b600483811c91909116600f60f01b600885901c161783821b7f0f000f000f000f000f000f000f000f000f000f000f000f000f000f000f000f00167e0f000f000f000f000f000f000f000f000f000f000f000f000f000f000f000f85161760101c1790610ddc60e083901c630606060661240d565b63ffffffff16901c630f0f0f0f166007610df691906124f5565b610e0860e083901c633030303061240d565b610e12919061240d565b60e01b604051602001610e58919061060f60f31b81527fffffffff0000000000000000000000000000000000000000000000000000000091909116600282015260060190565b604051602081830303815290604052915050919050565b60606000806000610e7f85611730565b925092509250610e8e83611756565b600a8310610ea457610e9f83611756565b610ecd565b610ead83611756565b604051602001610ebd919061213b565b6040516020818303038152906040525b600a8310610ee357610ede83611756565b610f0c565b610eec83611756565b604051602001610efc919061213b565b6040516020818303038152906040525b604051602001610f1e939291906120f8565b6040516020818303038152906040529350505050919050565b6001600160a01b038316610f995760405162461bcd60e51b8152602060048201526024808201527f45524332303a20617070726f76652066726f6d20746865207a65726f206164646044820152637265737360e01b606482015260840161054f565b6001600160a01b038216610ffa5760405162461bcd60e51b815260206004820152602260248201527f45524332303a20617070726f766520746f20746865207a65726f206164647265604482015261737360f01b606482015260840161054f565b6001600160a01b0383811660008181526034602090815260408083209487168084529482529182902085905590518481527f8c5be1e5ebec7d5bd14f71427d1e84f3dd0314c0f7b2291e5b200ac8c7c3b92591015b60405180910390a3505050565b6001600160a01b0383166110d85760405162461bcd60e51b815260206004820152602560248201527f45524332303a207472616e736665722066726f6d20746865207a65726f20616460448201527f6472657373000000000000000000000000000000000000000000000000000000606482015260840161054f565b6001600160a01b03821661113a5760405162461bcd60e51b815260206004820152602360248201527f45524332303a207472616e7366657220746f20746865207a65726f206164647260448201526265737360e81b606482015260840161054f565b6001600160a01b038316600090815260336020526040902054818110156111c95760405162461bcd60e51b815260206004820152602660248201527f45524332303a207472616e7366657220616d6f756e742065786365656473206260448201527f616c616e63650000000000000000000000000000000000000000000000000000606482015260840161054f565b6001600160a01b038085166000908152603360205260408082208585039055918516815290812080548492906112009084906123f5565b92505081905550826001600160a01b0316846001600160a01b03167fddf252ad1be2c89b69c2b068fc378daa952ba7f163c4a11628f55a4df523b3ef8460405161124c91815260200190565b60405180910390a3610876565b600061057a7f8b73c3c69bb8fe3d512ecc4cf759cc79239f7b179b0ffacaa9a75d522b39400f61128860655490565b6066546040805160208101859052908101839052606081018290524660808201523060a082015260009060c0016040516020818303038152906040528051906020012090509392505050565b6001600160a01b03821661132a5760405162461bcd60e51b815260206004820152601f60248201527f45524332303a206d696e7420746f20746865207a65726f206164647265737300604482015260640161054f565b806035600082825461133c91906123f5565b90915550506001600160a01b038216600090815260336020526040812080548392906113699084906123f5565b90915550506040518181526001600160a01b038316906000907fddf252ad1be2c89b69c2b068fc378daa952ba7f163c4a11628f55a4df523b3ef9060200160405180910390a35050565b600054610100900460ff1661141e5760405162461bcd60e51b815260206004820152602b60248201527f496e697469616c697a61626c653a20636f6e7472616374206973206e6f74206960448201526a6e697469616c697a696e6760a81b606482015260840161054f565b611426611874565b61060482826118e1565b600054610100900460ff1661149b5760405162461bcd60e51b815260206004820152602b60248201527f496e697469616c697a61626c653a20636f6e7472616374206973206e6f74206960448201526a6e697469616c697a696e6760a81b606482015260840161054f565b815160209283012081519190920120606591909155606655565b600054610100900460ff166115205760405162461bcd60e51b815260206004820152602b60248201527f496e697469616c697a61626c653a20636f6e7472616374206973206e6f74206960448201526a6e697469616c697a696e6760a81b606482015260840161054f565b507f6e71edae12b1b97f4d1f60370fef10105fa2faae0126114a169c64845d6126c9609a55565b6001600160a01b0382166115a75760405162461bcd60e51b815260206004820152602160248201527f45524332303a206275726e2066726f6d20746865207a65726f206164647265736044820152607360f81b606482015260840161054f565b6001600160a01b0382166000908152603360205260409020548181101561161b5760405162461bcd60e51b815260206004820152602260248201527f45524332303a206275726e20616d6f756e7420657863656564732062616c616e604482015261636560f01b606482015260840161054f565b6001600160a01b038316600090815260336020526040812083830390556035805484929061164a908490612560565b90915550506040518281526000906001600160a01b038516907fddf252ad1be2c89b69c2b068fc378daa952ba7f163c4a11628f55a4df523b3ef9060200161104f565b505050565b6001600160a01b03811660009081526099602052604090208054600181018255905b50919050565b60006108966116c7611259565b8360405161190160f01b6020820152602281018390526042810182905260009060620160405160208183030381529060405280519060200120905092915050565b600080600061171987878787611973565b9150915061172681611a60565b5095945050505050565b60008080611749611744620151808661245a565b611c1e565b9196909550909350915050565b60608161177a5750506040805180820190915260018152600360fc1b602082015290565b8160005b81156117a4578061178e816126d5565b915061179d9050600a8361245a565b915061177e565b60008167ffffffffffffffff8111156117bf576117bf61275c565b6040519080825280601f01601f1916602001820160405280156117e9576020820181803683370190505b5090505b841561186c576117fe600183612560565b915061180b600a866126f0565b6118169060306123f5565b60f81b81838151811061182b5761182b612746565b60200101907effffffffffffffffffffffffffffffffffffffffffffffffffffffffffffff1916908160001a905350611865600a8661245a565b94506117ed565b949350505050565b600054610100900460ff166118df5760405162461bcd60e51b815260206004820152602b60248201527f496e697469616c697a61626c653a20636f6e7472616374206973206e6f74206960448201526a6e697469616c697a696e6760a81b606482015260840161054f565b565b600054610100900460ff1661194c5760405162461bcd60e51b815260206004820152602b60248201527f496e697469616c697a61626c653a20636f6e7472616374206973206e6f74206960448201526a6e697469616c697a696e6760a81b606482015260840161054f565b815161195f906036906020850190611ddd565b50805161168d906037906020840190611ddd565b6000807f7fffffffffffffffffffffffffffffff5d576e7357a4501ddfe92f46681b20a08311156119aa5750600090506003611a57565b8460ff16601b141580156119c257508460ff16601c14155b156119d35750600090506004611a57565b6040805160008082526020820180845289905260ff881692820192909252606081018690526080810185905260019060a0016020604051602081039080840390855afa158015611a27573d6000803e3d6000fd5b5050604051601f1901519150506001600160a01b038116611a5057600060019250925050611a57565b9150600090505b94509492505050565b6000816004811115611a7457611a74612730565b1415611a7d5750565b6001816004811115611a9157611a91612730565b1415611adf5760405162461bcd60e51b815260206004820152601860248201527f45434453413a20696e76616c6964207369676e61747572650000000000000000604482015260640161054f565b6002816004811115611af357611af3612730565b1415611b415760405162461bcd60e51b815260206004820152601f60248201527f45434453413a20696e76616c6964207369676e6174757265206c656e67746800604482015260640161054f565b6003816004811115611b5557611b55612730565b1415611bae5760405162461bcd60e51b815260206004820152602260248201527f45434453413a20696e76616c6964207369676e6174757265202773272076616c604482015261756560f01b606482015260840161054f565b6004816004811115611bc257611bc2612730565b1415611c1b5760405162461bcd60e51b815260206004820152602260248201527f45434453413a20696e76616c6964207369676e6174757265202776272076616c604482015261756560f01b606482015260840161054f565b50565b60008080838162253d8c611c358362010bd96123b5565b611c3f91906123b5565b9050600062023ab1611c5283600461246e565b611c5c919061242c565b90506004611c6d8262023ab161246e565b611c789060036123b5565b611c82919061242c565b611c8c9083612521565b9150600062164b09611c9f8460016123b5565b611cab90610fa061246e565b611cb5919061242c565b90506004611cc5826105b561246e565b611ccf919061242c565b611cd99084612521565b611ce490601f6123b5565b9250600061098f611cf685605061246e565b611d00919061242c565b905060006050611d128361098f61246e565b611d1c919061242c565b611d269086612521565b9050611d33600b8361242c565b9450611d4085600c61246e565b611d4b8360026123b5565b611d559190612521565b91508483611d64603187612521565b611d6f90606461246e565b611d7991906123b5565b611d8391906123b5565b9a919950975095505050505050565b828054828255906000526020600020908101928215611dcd579160200282015b82811115611dcd578251825591602001919060010190611db2565b50611dd9929150611e50565b5090565b828054611de9906126a0565b90600052602060002090601f016020900481019282611e0b5760008555611dcd565b82601f10611e2457805160ff1916838001178555611dcd565b82800160010185558215611dcd5791820182811115611dcd578251825591602001919060010190611db2565b5b80821115611dd95760008155600101611e51565b80356001600160a01b0381168114611e7c57600080fd5b919050565b600060208284031215611e9357600080fd5b611e9c82611e65565b9392505050565b60008060408385031215611eb657600080fd5b611ebf83611e65565b9150611ecd60208401611e65565b90509250929050565b600080600060608486031215611eeb57600080fd5b611ef484611e65565b9250611f0260208501611e65565b9150604084013590509250925092565b600080600080600080600060e0888a031215611f2d57600080fd5b611f3688611e65565b9650611f4460208901611e65565b95506040880135945060608801359350608088013560ff81168114611f6857600080fd5b9699959850939692959460a0840135945060c09093013592915050565b60008060408385031215611f9857600080fd5b611fa183611e65565b946020939093013593505050565b600080600060608486031215611fc457600080fd5b83359250602084013560028110611fda57600080fd5b9150604084013567ffffffffffffffff811115611ff657600080fd5b840160c0818703121561200857600080fd5b809150509250925092565b60006020828403121561202557600080fd5b815167ffffffffffffffff8082111561203d57600080fd5b818401915084601f83011261205157600080fd5b8151818111156120635761206361275c565b612076601f8201601f1916602001612384565b915080825285602082850101111561208d57600080fd5b61209e816020840160208601612674565b50949350505050565b600281106120c557634e487b7160e01b600052602160045260246000fd5b9052565b600083516120db818460208801612674565b8351908301906120ef818360208801612674565b01949350505050565b6000845161210a818460208901612674565b84519083019061211e818360208901612674565b8451910190612131818360208801612674565b0195945050505050565b600360fc1b815260008251612157816001850160208701612674565b9190910160010192915050565b7f4f7069756d3a000000000000000000000000000000000000000000000000000081526000845161219c816006850160208901612674565b8083019050602d60f81b80600683015285516121bf816007850160208a01612674565b600792019182015283516121da816008840160208801612674565b0160080195945050505050565b7f4f5049554d00000000000000000000000000000000000000000000000000000081526000605f60f81b806005840152855161222a816006860160208a01612674565b80840190508160068201528551612248816007840160208a01612674565b0160078101919091528351906121da826008830160208801612674565b6020815260008251806020840152612284816040850160208701612674565b601f01601f19169190910160400192915050565b60208082528251606083830152805160808401528082015160a0840152604081015160c08085015280516101408501819052600093929183019084906101608701905b808310156122fb57835182529285019260019290920191908501906122db565b5060608401516001600160a01b0390811660e089015260808501518082166101008a015260a090950151908116610120890152939250938701519361234360408801866120a7565b60408801516060880152809550505050505092915050565b60405160c0810167ffffffffffffffff8111828210171561237e5761237e61275c565b60405290565b604051601f8201601f1916810167ffffffffffffffff811182821017156123ad576123ad61275c565b604052919050565b6000808212826001600160ff1b03038413811516156123d6576123d6612704565b600160ff1b83900384128116156123ef576123ef612704565b50500190565b6000821982111561240857612408612704565b500190565b600063ffffffff8083168185168083038211156120ef576120ef612704565b60008261243b5761243b61271a565b600160ff1b82146000198414161561245557612455612704565b500590565b6000826124695761246961271a565b500490565b60006001600160ff1b0360008413600084138583048511828216161561249657612496612704565b600160ff1b60008712828116878305891216156124b5576124b5612704565b600087129250878205871284841616156124d1576124d1612704565b878505871281841616156124e7576124e7612704565b505050929093029392505050565b600063ffffffff8083168185168183048111821515161561251857612518612704565b02949350505050565b60008083128015600160ff1b85018412161561253f5761253f612704565b836001600160ff1b0301831381161561255a5761255a612704565b50500390565b60008282101561257257612572612704565b500390565b600060c0823603121561258957600080fd5b61259161235b565b8235815260208084013581830152604084013567ffffffffffffffff808211156125ba57600080fd5b9085019036601f8301126125cd57600080fd5b8135818111156125df576125df61275c565b8060051b91506125f0848301612384565b81815284810190848601368587018801111561260b57600080fd5b600095505b8386101561262e578035835260019590950194918601918601612610565b5080604088015250505050505061264760608401611e65565b606082015261265860808401611e65565b608082015261266960a08401611e65565b60a082015292915050565b60005b8381101561268f578181015183820152602001612677565b838111156108765750506000910152565b600181811c908216806126b457607f821691505b602082108114156116b457634e487b7160e01b600052602260045260246000fd5b60006000198214156126e9576126e9612704565b5060010190565b6000826126ff576126ff61271a565b500690565b634e487b7160e01b600052601160045260246000fd5b634e487b7160e01b600052601260045260246000fd5b634e487b7160e01b600052602160045260246000fd5b634e487b7160e01b600052603260045260246000fd5b634e487b7160e01b600052604160045260246000fdfea2646970667358221220d013804a35b6569a79e1c51da50e3c7627c6c41797383926a7a7f6e21d13efe864736f6c63430008050033a26469706673582212208c263834c46e17e36e9f84ff59097b8743d41380defaddedaec80da87e983b6864736f6c63430008050033",
  "devdoc": {
    "kind": "dev",
    "methods": {
      "burn(address,address,uint256)": {
        "details": "if no position has been deployed at the provided address, it is expected to revert",
        "params": {
          "_amount": "amount of position tokens to be minted to the _positionHolder",
          "_positionAddress": "address of the position token to be burnt",
          "_positionOwner": "address of the owner of the specified position token"
        }
      },
      "burnPair(address,address,address,uint256)": {
        "params": {
          "_amount": "amount of position tokens to be minted to the _positionHolder",
          "_longPositionAddress": "address of the deployed LONG position token",
          "_positionOwner": "address of the owner of the LONG/SHORT position tokens",
          "_shortPositionAddress": "address of the deployed SHORT position token"
        }
      },
      "create(address,address,uint256,bytes32,(uint256,uint256,uint256[],address,address,address))": {
        "details": "if either of the LONG or SHORT position contracts already exists then it is expected to fail",
        "params": {
          "_amount": "amount of position tokens to be minted to the _positionHolder",
          "_buyer": "address of the recipient of the LONG position tokens",
          "_derivative": "LibDerivative.Derivative Derivative definition",
          "_derivativeHash": "bytes32 hash of `LibDerivative.Derivative`",
          "_seller": "address of the recipient of the SHORT position tokens"
        }
      },
      "getImplementationAddress()": {
        "returns": {
          "_0": "_opiumPositionTokenParams OpiumPositionTokenParams struct which contains `LibDerivative.Derivative` schema of the derivative, the ` LibDerivative.PositionType` of the present ERC20 token and the bytes32 hash `derivativeHash` of the `LibDerivative.Derivative` derivative"
        }
      },
      "initialize(address)": {
        "details": "It sets the the address of the implementation of the OpiumPositionToken contract which will be used for the factory-deployment of erc20 positions via the minimal proxy contract",
        "params": {
          "_registry": "address of Opium.Registry"
        }
      },
      "mintPair(address,address,address,address,uint256)": {
        "details": "if LONG or SHORT position contracts have not been deployed yet at the provided addresses then it is expected to fail",
        "params": {
          "_amount": "amount of position tokens to be minted to the _positionHolder",
          "_buyer": "address of the recipient of the LONG position tokens",
          "_longPositionAddress": "address of the deployed LONG position token",
          "_seller": "address of the recipient of the SHORT position tokens",
          "_shortPositionAddress": "address of the deployed SHORT position token"
        }
      }
    },
    "title": "Opium.OpiumProxyFactory contract manages the deployment of ERC20 LONG/SHORT positions for a given `LibDerivative.Derivative` structure and it's responsible for minting and burning positions according to the parameters supplied by `Opium.Core`",
    "version": 1
  },
  "userdoc": {
    "kind": "user",
    "methods": {
      "burn(address,address,uint256)": {
        "notice": "it burns specified amount of a specific position tokens on behalf of a specified ownerit is consumed by Opium.Core to execute or cancel a specific position type"
      },
      "burnPair(address,address,address,uint256)": {
        "notice": "It burns the specified amount of LONG/SHORT position tokens on behalf of a specified ownerIt is consumed by Opium.Core to redeem market neutral position pairs"
      },
      "create(address,address,uint256,bytes32,(uint256,uint256,uint256[],address,address,address))": {
        "notice": "It creates a specified amount of LONG/SHORT position tokens on behalf of the buyer(LONG) and seller(SHORT) - the specified amount can be 0 in which case the ERC20 contract of the position tokens will only be deployed"
      },
      "getImplementationAddress()": {
        "notice": "It retrieves the information about the underlying derivative"
      },
      "initialize(address)": {
        "notice": "It is called only once upon deployment of the contract"
      },
      "mintPair(address,address,address,address,uint256)": {
        "notice": "it creates a specified amount of LONG/SHORT position tokens on behalf of the buyer(LONG) and seller(SHORT) - the specified amount can be 0 in which case the ERC20 contract of the position tokens will only be deployed"
      }
    },
    "version": 1
  },
  "storageLayout": {
    "storage": [
      {
        "astId": 542,
        "contract": "contracts/core/OpiumProxyFactory.sol:OpiumProxyFactory",
        "label": "_initialized",
        "offset": 0,
        "slot": "0",
        "type": "t_bool"
      },
      {
        "astId": 545,
        "contract": "contracts/core/OpiumProxyFactory.sol:OpiumProxyFactory",
        "label": "_initializing",
        "offset": 1,
        "slot": "0",
        "type": "t_bool"
      },
      {
        "astId": 5862,
        "contract": "contracts/core/OpiumProxyFactory.sol:OpiumProxyFactory",
        "label": "registry",
        "offset": 2,
        "slot": "0",
        "type": "t_contract(IRegistry)8169"
      },
      {
        "astId": 5952,
        "contract": "contracts/core/OpiumProxyFactory.sol:OpiumProxyFactory",
        "label": "__gap",
        "offset": 0,
        "slot": "1",
        "type": "t_array(t_uint256)50_storage"
      },
      {
        "astId": 5338,
        "contract": "contracts/core/OpiumProxyFactory.sol:OpiumProxyFactory",
        "label": "opiumPositionTokenImplementation",
        "offset": 0,
        "slot": "51",
        "type": "t_address"
      },
      {
        "astId": 5557,
        "contract": "contracts/core/OpiumProxyFactory.sol:OpiumProxyFactory",
        "label": "__gap",
        "offset": 0,
        "slot": "52",
        "type": "t_array(t_uint256)50_storage"
      }
    ],
    "types": {
      "t_address": {
        "encoding": "inplace",
        "label": "address",
        "numberOfBytes": "20"
      },
      "t_array(t_uint256)50_storage": {
        "base": "t_uint256",
        "encoding": "inplace",
        "label": "uint256[50]",
        "numberOfBytes": "1600"
      },
      "t_bool": {
        "encoding": "inplace",
        "label": "bool",
        "numberOfBytes": "1"
      },
      "t_contract(IRegistry)8169": {
        "encoding": "inplace",
        "label": "contract IRegistry",
        "numberOfBytes": "20"
      },
      "t_uint256": {
        "encoding": "inplace",
        "label": "uint256",
        "numberOfBytes": "32"
      }
    }
  }
}