{
  "address": "0xCd833F9A4b298626cf38B8Fe154114635091cd7e",
  "abi": [
    {
      "inputs": [],
      "stateMutability": "nonpayable",
      "type": "constructor"
    },
    {
      "anonymous": false,
      "inputs": [
        {
          "indexed": false,
          "internalType": "string",
          "name": "metadata",
          "type": "string"
        }
      ],
      "name": "LogMetadataSet",
      "type": "event"
    },
    {
      "inputs": [
        {
          "internalType": "bool",
          "name": "allow",
          "type": "bool"
        }
      ],
      "name": "allowThirdpartyExecution",
      "outputs": [],
      "stateMutability": "nonpayable",
      "type": "function"
    },
    {
      "inputs": [],
      "name": "getAuthorAddress",
      "outputs": [
        {
          "internalType": "address",
          "name": "",
          "type": "address"
        }
      ],
      "stateMutability": "view",
      "type": "function"
    },
    {
      "inputs": [],
      "name": "getAuthorCommission",
      "outputs": [
        {
          "internalType": "uint256",
          "name": "",
          "type": "uint256"
        }
      ],
      "stateMutability": "view",
      "type": "function"
    },
    {
      "inputs": [
        {
          "components": [
            {
              "internalType": "uint256",
              "name": "margin",
              "type": "uint256"
            },
            {
              "internalType": "uint256",
              "name": "endTime",
              "type": "uint256"
            },
            {
              "internalType": "uint256[]",
              "name": "params",
              "type": "uint256[]"
            },
            {
              "internalType": "address",
              "name": "oracleId",
              "type": "address"
            },
            {
              "internalType": "address",
              "name": "token",
              "type": "address"
            },
            {
              "internalType": "address",
              "name": "syntheticId",
              "type": "address"
            }
          ],
          "internalType": "struct LibDerivative.Derivative",
          "name": "_derivative",
          "type": "tuple"
        },
        {
          "internalType": "uint256",
          "name": "_result",
          "type": "uint256"
        }
      ],
      "name": "getExecutionPayout",
      "outputs": [
        {
          "internalType": "uint256",
          "name": "buyerPayout",
          "type": "uint256"
        },
        {
          "internalType": "uint256",
          "name": "sellerPayout",
          "type": "uint256"
        }
      ],
      "stateMutability": "pure",
      "type": "function"
    },
    {
      "inputs": [
        {
          "components": [
            {
              "internalType": "uint256",
              "name": "margin",
              "type": "uint256"
            },
            {
              "internalType": "uint256",
              "name": "endTime",
              "type": "uint256"
            },
            {
              "internalType": "uint256[]",
              "name": "params",
              "type": "uint256[]"
            },
            {
              "internalType": "address",
              "name": "oracleId",
              "type": "address"
            },
            {
              "internalType": "address",
              "name": "token",
              "type": "address"
            },
            {
              "internalType": "address",
              "name": "syntheticId",
              "type": "address"
            }
          ],
          "internalType": "struct LibDerivative.Derivative",
          "name": "_derivative",
          "type": "tuple"
        }
      ],
      "name": "getMargin",
      "outputs": [
        {
          "internalType": "uint256",
          "name": "buyerMargin",
          "type": "uint256"
        },
        {
          "internalType": "uint256",
          "name": "sellerMargin",
          "type": "uint256"
        }
      ],
      "stateMutability": "pure",
      "type": "function"
    },
    {
      "inputs": [],
      "name": "getSyntheticIdName",
      "outputs": [
        {
          "internalType": "string",
          "name": "",
          "type": "string"
        }
      ],
      "stateMutability": "pure",
      "type": "function"
    },
    {
      "inputs": [
        {
          "internalType": "address",
          "name": "derivativeOwner",
          "type": "address"
        }
      ],
      "name": "thirdpartyExecutionAllowed",
      "outputs": [
        {
          "internalType": "bool",
          "name": "",
          "type": "bool"
        }
      ],
      "stateMutability": "view",
      "type": "function"
    },
    {
      "inputs": [
        {
          "components": [
            {
              "internalType": "uint256",
              "name": "margin",
              "type": "uint256"
            },
            {
              "internalType": "uint256",
              "name": "endTime",
              "type": "uint256"
            },
            {
              "internalType": "uint256[]",
              "name": "params",
              "type": "uint256[]"
            },
            {
              "internalType": "address",
              "name": "oracleId",
              "type": "address"
            },
            {
              "internalType": "address",
              "name": "token",
              "type": "address"
            },
            {
              "internalType": "address",
              "name": "syntheticId",
              "type": "address"
            }
          ],
          "internalType": "struct LibDerivative.Derivative",
          "name": "_derivative",
          "type": "tuple"
        }
      ],
      "name": "validateInput",
      "outputs": [
        {
          "internalType": "bool",
          "name": "",
          "type": "bool"
        }
      ],
      "stateMutability": "view",
      "type": "function"
    }
  ],
  "transactionHash": "0xc23bc6e089e738e6c36a91f308461b4810e3393346306ef63c0d5860e5d899c8",
  "args": [],
  "solcInputHash": "58dbb558cb816b5402f8301bbf18d319",
  "bytecode": "0x608060405234801561001057600080fd5b50600180546001600160a01b031916331790556040517f0b11cbc9c1f60ccfdad79229add00f3dfa05137343e96ef525274af03c5d19d0906100cf9060208082526055908201527f7b22617574686f72223a224f7069756d44414f222c2274797065223a226f707460408201527f696f6e222c2273756274797065223a22707574222c226465736372697074696f60608201527f6e223a22505554206f7074696f6e206d6f636b227d0000000000000000000000608082015260a00190565b60405180910390a16105db806100e66000396000f3fe608060405234801561001057600080fd5b50600436106100885760003560e01c80633d6490b81161005b5780633d6490b81461011d578063a4300ee51461015c578063dd0060fd1461017c578063f22430e81461018f57600080fd5b80630433fe451461008d5780630e49dee8146100bd5780633a6f60a9146100eb5780633a84543e1461010e575b600080fd5b6100a361009b366004610401565b600091903590565b604080519283526020830191909152015b60405180910390f35b6100e96100cb3660046103df565b336000908152602081905260409020805460ff191682151517905550565b005b6100fe6100f9366004610401565b6101bb565b60405190151581526020016100b4565b604051601981526020016100b4565b604080518082018252601a81527f526963636172646f277320646572697661746976652073686f70000000000000602082015290516100b4919061047b565b610164610291565b6040516001600160a01b0390911681526020016100b4565b6100a361018a366004610436565b6102a5565b6100fe61019d3660046103af565b6001600160a01b031660009081526020819052604090205460ff1690565b600060016101cc60408401846104d0565b905010156101dc57506000919050565b60006101eb60408401846104d0565b9050600214156102215761020260408401846104d0565b60018181106102135761021361058f565b90506020020135905061022c565b50670de0b6b3a76400005b600061023b60408501856104d0565b600081811061024c5761024c61058f565b9050602002013590506000846000013511801561026c5750428460200135115b80156102785750600081115b80156102845750600082115b949350505050565b905090565b600061028c6001546001600160a01b031690565b60008080806102b760408701876104d0565b60008181106102c8576102c861058f565b9050602002013590508580604001906102e191906104d0565b905060021415610317576102f860408701876104d0565b60018181106103095761030961058f565b905060200201359150610323565b670de0b6b3a764000091505b808510156103855760006103378683610562565b9050670de0b6b3a764000061034c8483610543565b6103569190610521565b905086358110156103765793508361036f818835610562565b935061037f565b86359450600093505b5061038e565b60009350853592505b50509250929050565b600060c082840312156103a957600080fd5b50919050565b6000602082840312156103c157600080fd5b81356001600160a01b03811681146103d857600080fd5b9392505050565b6000602082840312156103f157600080fd5b813580151581146103d857600080fd5b60006020828403121561041357600080fd5b813567ffffffffffffffff81111561042a57600080fd5b61028484828501610397565b6000806040838503121561044957600080fd5b823567ffffffffffffffff81111561046057600080fd5b61046c85828601610397565b95602094909401359450505050565b600060208083528351808285015260005b818110156104a85785810183015185820160400152820161048c565b818111156104ba576000604083870101525b50601f01601f1916929092016040019392505050565b6000808335601e198436030181126104e757600080fd5b83018035915067ffffffffffffffff82111561050257600080fd5b6020019150600581901b360382131561051a57600080fd5b9250929050565b60008261053e57634e487b7160e01b600052601260045260246000fd5b500490565b600081600019048311821515161561055d5761055d610579565b500290565b60008282101561057457610574610579565b500390565b634e487b7160e01b600052601160045260246000fd5b634e487b7160e01b600052603260045260246000fdfea264697066735822122042ef2a7cdecc88dbc8b4f231766809bba7e711f20c8cb1bf8b38774b9661538964736f6c63430008050033",
  "devdoc": {
    "kind": "dev",
    "methods": {
      "getAuthorAddress()": {
        "returns": {
          "_0": "address syntheticId author address"
        }
      },
      "getAuthorCommission()": {
        "returns": {
          "_0": "uint26 syntheticId author commission"
        }
      },
      "getExecutionPayout((uint256,uint256,uint256[],address,address,address),uint256)": {
        "params": {
          "_derivative": "Derivative Instance of derivative",
          "_result": "uint256 Data retrieved from oracleId on the maturity"
        },
        "returns": {
          "buyerPayout": "uint256 Payout in ratio for buyer (LONG position holder)",
          "sellerPayout": "uint256 Payout in ratio for seller (SHORT position holder)"
        }
      },
      "getMargin((uint256,uint256,uint256[],address,address,address))": {
        "params": {
          "_derivative": "Derivative Instance of derivative"
        },
        "returns": {
          "buyerMargin": "uint256 Margin needed from buyer (LONG position)",
          "sellerMargin": "uint256 Margin needed from seller (SHORT position)"
        }
      },
      "getSyntheticIdName()": {
        "returns": {
          "_0": "Returns the custom name of a derivative ticker which will be used as part of the name of its positions"
        }
      },
      "validateInput((uint256,uint256,uint256[],address,address,address))": {
        "params": {
          "_derivative": "Derivative Instance of derivative to validate"
        },
        "returns": {
          "_0": "Returns boolean whether ticker is valid"
        }
      }
    },
    "version": 1
  },
  "userdoc": {
    "kind": "user",
    "methods": {
      "getAuthorAddress()": {
        "notice": "Getter for syntheticId author address"
      },
      "getAuthorCommission()": {
        "notice": "Getter for syntheticId author commission"
      },
      "getExecutionPayout((uint256,uint256,uint256[],address,address,address),uint256)": {
        "notice": "Calculates payout for derivative execution"
      },
      "getMargin((uint256,uint256,uint256[],address,address,address))": {
        "notice": "Calculates margin required for derivative creation"
      },
      "validateInput((uint256,uint256,uint256[],address,address,address))": {
        "notice": "Validates ticker"
      }
    },
    "version": 1
  },
  "storageLayout": {
    "storage": [
      {
        "astId": 7164,
        "contract": "contracts/test/mocks/synthetics/OptionPutSyntheticIdMock.sol:OptionPutSyntheticIdMock",
        "label": "thirdpartyExecutionAllowance",
        "offset": 0,
        "slot": "0",
        "type": "t_mapping(t_address,t_bool)"
      },
      {
        "astId": 7197,
        "contract": "contracts/test/mocks/synthetics/OptionPutSyntheticIdMock.sol:OptionPutSyntheticIdMock",
        "label": "author",
        "offset": 0,
        "slot": "1",
        "type": "t_address"
      }
    ],
    "types": {
      "t_address": {
        "encoding": "inplace",
        "label": "address",
        "numberOfBytes": "20"
      },
      "t_bool": {
        "encoding": "inplace",
        "label": "bool",
        "numberOfBytes": "1"
      },
      "t_mapping(t_address,t_bool)": {
        "encoding": "mapping",
        "key": "t_address",
        "label": "mapping(address => bool)",
        "numberOfBytes": "32",
        "value": "t_bool"
      }
    }
  }
}