{
  "address": "0x48cCef1eCC69E0b5e5Fd3340C15f9A2e18563022",
  "abi": [
    {
      "anonymous": false,
      "inputs": [
        {
          "indexed": true,
          "internalType": "address",
          "name": "_setter",
          "type": "address"
        },
        {
          "indexed": true,
          "internalType": "uint32",
          "name": "_derivativeAuthorExecutionFeeCap",
          "type": "uint32"
        }
      ],
      "name": "LogDerivativeAuthorExecutionFeeCapChanged",
      "type": "event"
    },
    {
      "anonymous": false,
      "inputs": [
        {
          "indexed": true,
          "internalType": "address",
          "name": "_setter",
          "type": "address"
        },
        {
          "indexed": true,
          "internalType": "uint32",
          "name": "_derivativeAuthorRedemptionReservePart",
          "type": "uint32"
        }
      ],
      "name": "LogDerivativeAuthorRedemptionReservePartChanged",
      "type": "event"
    },
    {
      "anonymous": false,
      "inputs": [
        {
          "indexed": true,
          "internalType": "address",
          "name": "_setter",
          "type": "address"
        },
        {
          "indexed": true,
          "internalType": "uint256",
          "name": "_noDataCancellationPeriod",
          "type": "uint256"
        }
      ],
      "name": "LogNoDataCancellationPeriodChanged",
      "type": "event"
    },
    {
      "anonymous": false,
      "inputs": [
        {
          "indexed": true,
          "internalType": "address",
          "name": "_setter",
          "type": "address"
        },
        {
          "indexed": true,
          "internalType": "address",
          "name": "_protocolExecutionReserveClaimer",
          "type": "address"
        }
      ],
      "name": "LogProtocolExecutionReserveClaimerChanged",
      "type": "event"
    },
    {
      "anonymous": false,
      "inputs": [
        {
          "indexed": true,
          "internalType": "address",
          "name": "_setter",
          "type": "address"
        },
        {
          "indexed": true,
          "internalType": "uint32",
          "name": "_protocolExecutionReservePart",
          "type": "uint32"
        }
      ],
      "name": "LogProtocolExecutionReservePartChanged",
      "type": "event"
    },
    {
      "anonymous": false,
      "inputs": [
        {
          "indexed": true,
          "internalType": "address",
          "name": "_setter",
          "type": "address"
        },
        {
          "indexed": true,
          "internalType": "bool",
          "name": "_state",
          "type": "bool"
        },
        {
          "indexed": true,
          "internalType": "bytes32",
          "name": "_role",
          "type": "bytes32"
        }
      ],
      "name": "LogProtocolPausableStateChanged",
      "type": "event"
    },
    {
      "anonymous": false,
      "inputs": [
        {
          "indexed": true,
          "internalType": "address",
          "name": "_setter",
          "type": "address"
        },
        {
          "indexed": true,
          "internalType": "address",
          "name": "_protocolRedemptionReserveClaimer",
          "type": "address"
        }
      ],
      "name": "LogProtocolRedemptionReserveClaimerChanged",
      "type": "event"
    },
    {
      "anonymous": false,
      "inputs": [
        {
          "indexed": true,
          "internalType": "address",
          "name": "_setter",
          "type": "address"
        },
        {
          "indexed": true,
          "internalType": "uint32",
          "name": "_protocolRedemptionReservePart",
          "type": "uint32"
        }
      ],
      "name": "LogProtocolRedemptionReservePartChanged",
      "type": "event"
    },
    {
      "anonymous": false,
      "inputs": [
        {
          "indexed": true,
          "internalType": "address",
          "name": "_setter",
          "type": "address"
        },
        {
          "indexed": true,
          "internalType": "address",
          "name": "_whitelisted",
          "type": "address"
        }
      ],
      "name": "LogWhitelistAccountAdded",
      "type": "event"
    },
    {
      "anonymous": false,
      "inputs": [
        {
          "indexed": true,
          "internalType": "address",
          "name": "_setter",
          "type": "address"
        },
        {
          "indexed": true,
          "internalType": "address",
          "name": "_unlisted",
          "type": "address"
        }
      ],
      "name": "LogWhitelistAccountRemoved",
      "type": "event"
    },
    {
      "anonymous": false,
      "inputs": [
        {
          "indexed": true,
          "internalType": "bytes32",
          "name": "role",
          "type": "bytes32"
        },
        {
          "indexed": true,
          "internalType": "bytes32",
          "name": "previousAdminRole",
          "type": "bytes32"
        },
        {
          "indexed": true,
          "internalType": "bytes32",
          "name": "newAdminRole",
          "type": "bytes32"
        }
      ],
      "name": "RoleAdminChanged",
      "type": "event"
    },
    {
      "anonymous": false,
      "inputs": [
        {
          "indexed": true,
          "internalType": "bytes32",
          "name": "role",
          "type": "bytes32"
        },
        {
          "indexed": true,
          "internalType": "address",
          "name": "account",
          "type": "address"
        },
        {
          "indexed": true,
          "internalType": "address",
          "name": "sender",
          "type": "address"
        }
      ],
      "name": "RoleGranted",
      "type": "event"
    },
    {
      "anonymous": false,
      "inputs": [
        {
          "indexed": true,
          "internalType": "bytes32",
          "name": "role",
          "type": "bytes32"
        },
        {
          "indexed": true,
          "internalType": "address",
          "name": "account",
          "type": "address"
        },
        {
          "indexed": true,
          "internalType": "address",
          "name": "sender",
          "type": "address"
        }
      ],
      "name": "RoleRevoked",
      "type": "event"
    },
    {
      "inputs": [],
      "name": "DEFAULT_ADMIN_ROLE",
      "outputs": [
        {
          "internalType": "bytes32",
          "name": "",
          "type": "bytes32"
        }
      ],
      "stateMutability": "view",
      "type": "function"
    },
    {
      "inputs": [
        {
          "internalType": "address",
          "name": "_whitelisted",
          "type": "address"
        }
      ],
      "name": "addToWhitelist",
      "outputs": [],
      "stateMutability": "nonpayable",
      "type": "function"
    },
    {
      "inputs": [],
      "name": "getCore",
      "outputs": [
        {
          "internalType": "address",
          "name": "",
          "type": "address"
        }
      ],
      "stateMutability": "view",
      "type": "function"
    },
    {
      "inputs": [],
      "name": "getProtocolAddresses",
      "outputs": [
        {
          "components": [
            {
              "internalType": "address",
              "name": "core",
              "type": "address"
            },
            {
              "internalType": "address",
              "name": "opiumProxyFactory",
              "type": "address"
            },
            {
              "internalType": "address",
              "name": "oracleAggregator",
              "type": "address"
            },
            {
              "internalType": "address",
              "name": "syntheticAggregator",
              "type": "address"
            },
            {
              "internalType": "address",
              "name": "tokenSpender",
              "type": "address"
            },
            {
              "internalType": "address",
              "name": "protocolExecutionReserveClaimer",
              "type": "address"
            },
            {
              "internalType": "address",
              "name": "protocolRedemptionReserveClaimer",
              "type": "address"
            },
            {
              "internalType": "uint32",
              "name": "__gapOne",
              "type": "uint32"
            },
            {
              "internalType": "uint32",
              "name": "__gapTwo",
              "type": "uint32"
            }
          ],
          "internalType": "struct RegistryEntities.ProtocolAddressesArgs",
          "name": "",
          "type": "tuple"
        }
      ],
      "stateMutability": "view",
      "type": "function"
    },
    {
      "inputs": [],
      "name": "getProtocolParameters",
      "outputs": [
        {
          "components": [
            {
              "internalType": "uint32",
              "name": "noDataCancellationPeriod",
              "type": "uint32"
            },
            {
              "internalType": "uint32",
              "name": "derivativeAuthorExecutionFeeCap",
              "type": "uint32"
            },
            {
              "internalType": "uint32",
              "name": "derivativeAuthorRedemptionReservePart",
              "type": "uint32"
            },
            {
              "internalType": "uint32",
              "name": "protocolExecutionReservePart",
              "type": "uint32"
            },
            {
              "internalType": "uint32",
              "name": "protocolRedemptionReservePart",
              "type": "uint32"
            },
            {
              "internalType": "uint32",
              "name": "__gapOne",
              "type": "uint32"
            },
            {
              "internalType": "uint32",
              "name": "__gapTwo",
              "type": "uint32"
            },
            {
              "internalType": "uint32",
              "name": "__gapThree",
              "type": "uint32"
            }
          ],
          "internalType": "struct RegistryEntities.ProtocolParametersArgs",
          "name": "",
          "type": "tuple"
        }
      ],
      "stateMutability": "view",
      "type": "function"
    },
    {
      "inputs": [
        {
          "internalType": "bytes32",
          "name": "role",
          "type": "bytes32"
        }
      ],
      "name": "getRoleAdmin",
      "outputs": [
        {
          "internalType": "bytes32",
          "name": "",
          "type": "bytes32"
        }
      ],
      "stateMutability": "view",
      "type": "function"
    },
    {
      "inputs": [
        {
          "internalType": "bytes32",
          "name": "role",
          "type": "bytes32"
        },
        {
          "internalType": "address",
          "name": "account",
          "type": "address"
        }
      ],
      "name": "grantRole",
      "outputs": [],
      "stateMutability": "nonpayable",
      "type": "function"
    },
    {
      "inputs": [
        {
          "internalType": "bytes32",
          "name": "role",
          "type": "bytes32"
        },
        {
          "internalType": "address",
          "name": "account",
          "type": "address"
        }
      ],
      "name": "hasRole",
      "outputs": [
        {
          "internalType": "bool",
          "name": "",
          "type": "bool"
        }
      ],
      "stateMutability": "view",
      "type": "function"
    },
    {
      "inputs": [
        {
          "internalType": "address",
          "name": "_governor",
          "type": "address"
        }
      ],
      "name": "initialize",
      "outputs": [],
      "stateMutability": "nonpayable",
      "type": "function"
    },
    {
      "inputs": [
        {
          "internalType": "address",
          "name": "_address",
          "type": "address"
        }
      ],
      "name": "isCoreConfigurationUpdater",
      "outputs": [
        {
          "internalType": "bool",
          "name": "",
          "type": "bool"
        }
      ],
      "stateMutability": "view",
      "type": "function"
    },
    {
      "inputs": [
        {
          "internalType": "address",
          "name": "_address",
          "type": "address"
        }
      ],
      "name": "isCoreSpenderWhitelisted",
      "outputs": [
        {
          "internalType": "bool",
          "name": "",
          "type": "bool"
        }
      ],
      "stateMutability": "view",
      "type": "function"
    },
    {
      "inputs": [],
      "name": "isProtocolPaused",
      "outputs": [
        {
          "internalType": "bool",
          "name": "",
          "type": "bool"
        }
      ],
      "stateMutability": "view",
      "type": "function"
    },
    {
      "inputs": [],
      "name": "isProtocolPositionCancellationPaused",
      "outputs": [
        {
          "internalType": "bool",
          "name": "",
          "type": "bool"
        }
      ],
      "stateMutability": "view",
      "type": "function"
    },
    {
      "inputs": [],
      "name": "isProtocolPositionCreationPaused",
      "outputs": [
        {
          "internalType": "bool",
          "name": "",
          "type": "bool"
        }
      ],
      "stateMutability": "view",
      "type": "function"
    },
    {
      "inputs": [],
      "name": "isProtocolPositionExecutionPaused",
      "outputs": [
        {
          "internalType": "bool",
          "name": "",
          "type": "bool"
        }
      ],
      "stateMutability": "view",
      "type": "function"
    },
    {
      "inputs": [],
      "name": "isProtocolPositionMintingPaused",
      "outputs": [
        {
          "internalType": "bool",
          "name": "",
          "type": "bool"
        }
      ],
      "stateMutability": "view",
      "type": "function"
    },
    {
      "inputs": [],
      "name": "isProtocolPositionRedemptionPaused",
      "outputs": [
        {
          "internalType": "bool",
          "name": "",
          "type": "bool"
        }
      ],
      "stateMutability": "view",
      "type": "function"
    },
    {
      "inputs": [],
      "name": "isProtocolReserveClaimPaused",
      "outputs": [
        {
          "internalType": "bool",
          "name": "",
          "type": "bool"
        }
      ],
      "stateMutability": "view",
      "type": "function"
    },
    {
      "inputs": [
        {
          "internalType": "address",
          "name": "_address",
          "type": "address"
        }
      ],
      "name": "isRegistryManager",
      "outputs": [
        {
          "internalType": "bool",
          "name": "",
          "type": "bool"
        }
      ],
      "stateMutability": "view",
      "type": "function"
    },
    {
      "inputs": [],
      "name": "pause",
      "outputs": [],
      "stateMutability": "nonpayable",
      "type": "function"
    },
    {
      "inputs": [],
      "name": "pauseProtocolPositionCancellation",
      "outputs": [],
      "stateMutability": "nonpayable",
      "type": "function"
    },
    {
      "inputs": [],
      "name": "pauseProtocolPositionCreation",
      "outputs": [],
      "stateMutability": "nonpayable",
      "type": "function"
    },
    {
      "inputs": [],
      "name": "pauseProtocolPositionExecution",
      "outputs": [],
      "stateMutability": "nonpayable",
      "type": "function"
    },
    {
      "inputs": [],
      "name": "pauseProtocolPositionMinting",
      "outputs": [],
      "stateMutability": "nonpayable",
      "type": "function"
    },
    {
      "inputs": [],
      "name": "pauseProtocolPositionRedemption",
      "outputs": [],
      "stateMutability": "nonpayable",
      "type": "function"
    },
    {
      "inputs": [],
      "name": "pauseProtocolReserveClaim",
      "outputs": [],
      "stateMutability": "nonpayable",
      "type": "function"
    },
    {
      "inputs": [
        {
          "internalType": "address",
          "name": "_whitelisted",
          "type": "address"
        }
      ],
      "name": "removeFromWhitelist",
      "outputs": [],
      "stateMutability": "nonpayable",
      "type": "function"
    },
    {
      "inputs": [
        {
          "internalType": "bytes32",
          "name": "role",
          "type": "bytes32"
        },
        {
          "internalType": "address",
          "name": "account",
          "type": "address"
        }
      ],
      "name": "renounceRole",
      "outputs": [],
      "stateMutability": "nonpayable",
      "type": "function"
    },
    {
      "inputs": [
        {
          "internalType": "bytes32",
          "name": "role",
          "type": "bytes32"
        },
        {
          "internalType": "address",
          "name": "account",
          "type": "address"
        }
      ],
      "name": "revokeRole",
      "outputs": [],
      "stateMutability": "nonpayable",
      "type": "function"
    },
    {
      "inputs": [
        {
          "internalType": "uint32",
          "name": "_derivativeAuthorExecutionFeeCap",
          "type": "uint32"
        }
      ],
      "name": "setDerivativeAuthorExecutionFeeCap",
      "outputs": [],
      "stateMutability": "nonpayable",
      "type": "function"
    },
    {
      "inputs": [
        {
          "internalType": "uint32",
          "name": "_derivativeAuthorRedemptionReservePart",
          "type": "uint32"
        }
      ],
      "name": "setDerivativeAuthorRedemptionReservePart",
      "outputs": [],
      "stateMutability": "nonpayable",
      "type": "function"
    },
    {
      "inputs": [
        {
          "internalType": "uint32",
          "name": "_noDataCancellationPeriod",
          "type": "uint32"
        }
      ],
      "name": "setNoDataCancellationPeriod",
      "outputs": [],
      "stateMutability": "nonpayable",
      "type": "function"
    },
    {
      "inputs": [
        {
          "internalType": "address",
          "name": "_opiumProxyFactory",
          "type": "address"
        },
        {
          "internalType": "address",
          "name": "_core",
          "type": "address"
        },
        {
          "internalType": "address",
          "name": "_oracleAggregator",
          "type": "address"
        },
        {
          "internalType": "address",
          "name": "_syntheticAggregator",
          "type": "address"
        },
        {
          "internalType": "address",
          "name": "_tokenSpender",
          "type": "address"
        }
      ],
      "name": "setProtocolAddresses",
      "outputs": [],
      "stateMutability": "nonpayable",
      "type": "function"
    },
    {
      "inputs": [
        {
          "internalType": "address",
          "name": "_protocolExecutionReserveClaimer",
          "type": "address"
        }
      ],
      "name": "setProtocolExecutionReserveClaimer",
      "outputs": [],
      "stateMutability": "nonpayable",
      "type": "function"
    },
    {
      "inputs": [
        {
          "internalType": "uint32",
          "name": "_protocolExecutionReservePart",
          "type": "uint32"
        }
      ],
      "name": "setProtocolExecutionReservePart",
      "outputs": [],
      "stateMutability": "nonpayable",
      "type": "function"
    },
    {
      "inputs": [
        {
          "internalType": "address",
          "name": "_protocolRedemptionReserveClaimer",
          "type": "address"
        }
      ],
      "name": "setProtocolRedemptionReserveClaimer",
      "outputs": [],
      "stateMutability": "nonpayable",
      "type": "function"
    },
    {
      "inputs": [
        {
          "internalType": "uint32",
          "name": "_protocolRedemptionReservePart",
          "type": "uint32"
        }
      ],
      "name": "setProtocolRedemptionReservePart",
      "outputs": [],
      "stateMutability": "nonpayable",
      "type": "function"
    },
    {
      "inputs": [
        {
          "internalType": "bytes4",
          "name": "interfaceId",
          "type": "bytes4"
        }
      ],
      "name": "supportsInterface",
      "outputs": [
        {
          "internalType": "bool",
          "name": "",
          "type": "bool"
        }
      ],
      "stateMutability": "view",
      "type": "function"
    },
    {
      "inputs": [],
      "name": "unpause",
      "outputs": [],
      "stateMutability": "nonpayable",
      "type": "function"
    }
  ],
  "transactionHash": "0x2cbe92ae5dea2a56e607c21bae4e1991d4bf48455e94a4a01c7e15f01b78b9c6",
  "args": [],
  "solcInputHash": "6906dc93f57e85482da6ea178e2dedc3",
  "bytecode": "0x608060405234801561001057600080fd5b506126b7806100206000396000f3fe608060405234801561001057600080fd5b50600436106102ac5760003560e01c8063a31923951161017b578063dac88561116100d8578063f10827e01161008c578063f6c228a811610071578063f6c228a8146106e3578063fbb5cfec146106eb578063fbc422f6146106f357600080fd5b8063f10827e0146106d3578063f5e0f847146106db57600080fd5b8063e26c6b7d116100bd578063e26c6b7d146106a5578063e43252d7146106b8578063e455d587146106cb57600080fd5b8063dac8856114610692578063dd1eb52c1461069d57600080fd5b8063c58aad871161012f578063cc0549e311610114578063cc0549e31461065c578063d547741f14610664578063da4fbe521461067757600080fd5b8063c58aad8714610573578063c823b5db1461065457600080fd5b8063b990690711610160578063b990690714610521578063bd6962d114610534578063c4d66de81461056057600080fd5b8063a319239514610506578063b2037c551461051957600080fd5b8063488f1cbe1161022957806391d14854116101dd5780639e30941b116101c25780639e30941b14610410578063a1774da014610423578063a217fddf146104fe57600080fd5b806391d14854146103cf5780639baacb871461040857600080fd5b8063698ef9931161020e578063698ef993146103a15780638456cb59146103b45780638ab1d681146103bc57600080fd5b8063488f1cbe146103865780634e562cbb1461039957600080fd5b80632f2ff15d1161028057806336568abe1161026557806336568abe146103585780633f4ba83a1461036b5780634048d9091461037357600080fd5b80632f2ff15d14610332578063315d0db41461034557600080fd5b8062c92e42146102b157806301ffc9a7146102c657806307d7ecb6146102ee578063248a9ca314610301575b600080fd5b6102c46102bf3660046123d4565b6106fb565b005b6102d96102d43660046123aa565b61080a565b60405190151581526020015b60405180910390f35b6102c46102fc366004612300565b610841565b61032461030f366004612365565b60009081526065602052604090206001015490565b6040519081526020016102e5565b6102c461034036600461237e565b610991565b6102c46103533660046122e5565b6109bc565b6102c461036636600461237e565b610aa7565b6102c4610b33565b6102d96103813660046122e5565b610bfc565b6102c46103943660046123d4565b610c3c565b6102d9610d38565b6102d96103af3660046122e5565b610d5c565b6102c4610d9c565b6102c46103ca3660046122e5565b610e98565b6102d96103dd36600461237e565b60009182526065602090815260408084206001600160a01b0393909316845291905290205460ff1690565b6102c4610f45565b6102c461041e3660046122e5565b611048565b6104f16040805161012081018252600080825260208201819052918101829052606081018290526080810182905260a0810182905260c0810182905260e081018290526101008101919091525060408051610120810182526098546001600160a01b03908116825260995481166020830152609a54811692820192909252609b5482166060820152609c5482166080820152609d54821660a0820152609e5491821660c082015263ffffffff600160a01b8304811660e0830152600160c01b90920490911661010082015290565b6040516102e591906124ae565b610324600081565b6102c46105143660046123d4565b611133565b6102c46111dc565b6102c461052f3660046123d4565b6112e5565b6102d96105423660046122e5565b6001600160a01b0316600090815260a0602052604090205460ff1690565b6102c461056e3660046122e5565b6113e9565b6106476040805161010081018252600080825260208201819052918101829052606081018290526080810182905260a0810182905260c0810182905260e081019190915250604080516101008101825260975463ffffffff80821683526401000000008204811660208401526801000000000000000082048116938301939093526c01000000000000000000000000810483166060830152600160801b810483166080830152600160a01b8104831660a0830152600160c01b8104831660c0830152600160e01b900490911660e082015290565b6040516102e5919061253a565b6102d96117dc565b6102c46117fd565b6102c461067236600461237e565b61190f565b6098546040516001600160a01b0390911681526020016102e5565b609f5460ff166102d9565b6102d9611935565b6102c46106b33660046123d4565b611954565b6102c46106c63660046122e5565b611a48565b6102c4611af8565b6102d9611c04565b6102d9611c24565b6102c4611c47565b6102c4611d4d565b6102d9611e5c565b3360009081527f0faad572c43c9761ed61f423d6d106c39e1b0065a51556d39d05bcdec380d7f3602052604090205460ff166107635760405162461bcd60e51b8152602060048201526002602482015261523960f01b60448201526064015b60405180910390fd5b6127108163ffffffff16106107a05760405162461bcd60e51b815260206004820152600360248201526205232360ec1b604482015260640161075a565b609780547fffffffffffffffffffffffff00000000ffffffffffffffffffffffffffffffff16600160801b63ffffffff84169081029190911790915560405133907f1a1468e93fd8855e6609e537f786724a4321061b8b716e3f37393c53f721a2a390600090a350565b60006001600160e01b03198216637965db0b60e01b148061083b57506301ffc9a760e01b6001600160e01b03198316145b92915050565b3360009081527ff860dc4d49b58b15761fa013a40ed9a8e5c703456c7681d309655e2140ffc53a602052604090205460ff166108a45760405162461bcd60e51b8152602060048201526002602482015261523160f01b604482015260640161075a565b6001600160a01b038516158015906108c457506001600160a01b03841615155b80156108d857506001600160a01b03831615155b80156108ec57506001600160a01b03821615155b801561090057506001600160a01b03811615155b6109325760405162461bcd60e51b815260206004820152600360248201526229189960e91b604482015260640161075a565b609980546001600160a01b03199081166001600160a01b039788161790915560988054821695871695909517909455609a8054851693861693909317909255609b80548416918516919091179055609c80549092169216919091179055565b6000828152606560205260409020600101546109ad8133611e7a565b6109b78383611efa565b505050565b3360009081527f0a7485b578decb844695fec73e47de9e3a0a0f61ade08dc3183b30f6ddac5f03602052604090205460ff16610a1f5760405162461bcd60e51b8152602060048201526002602482015261523360f01b604482015260640161075a565b6001600160a01b038116610a5b5760405162461bcd60e51b815260206004820152600360248201526229189960e91b604482015260640161075a565b609e80546001600160a01b0319166001600160a01b03831690811790915560405133907fe1b970507d04d56360abbd36d859d78cd6e65104574141796e49aa6c72da517190600090a350565b6001600160a01b0381163314610b255760405162461bcd60e51b815260206004820152602f60248201527f416363657373436f6e74726f6c3a2063616e206f6e6c792072656e6f756e636560448201527f20726f6c657320666f722073656c660000000000000000000000000000000000606482015260840161075a565b610b2f8282611f9c565b5050565b3360009081527f2d416a7e271f66853844bd9dc5cd274140b3d4ed65d3f4afcf1cfebd790dacaa602052604090205460ff16610b975760405162461bcd60e51b815260206004820152600360248201526252313960e81b604482015260640161075a565b609f80546affffffffffffffffffffff191690556040517f75d435b8ed45738e662759d0e2a87a699b5c6e9cdd9593f483f195bfc764e6909060009033907f6033cdcd2199d6fdde99ce0b60a809d3f980ce9597551944dfd8af7f33ec0a62908390a4565b6001600160a01b03811660009081527f575d0b624afc72dea7d42668674270c86384c6196dd270cbc4fc1b5ed5cdbcff602052604081205460ff1661083b565b3360009081527f0faad572c43c9761ed61f423d6d106c39e1b0065a51556d39d05bcdec380d7f3602052604090205460ff16610c9f5760405162461bcd60e51b8152602060048201526002602482015261523960f01b604482015260640161075a565b60648163ffffffff161115610cdc5760405162461bcd60e51b815260206004820152600360248201526205232360ec1b604482015260640161075a565b609780546bffffffff000000000000000019166801000000000000000063ffffffff84169081029190911790915560405133907fd8cef7e691d07b1709503d29fa0717df64a78dbc8d86de1efabb15cf614b1ccd90600090a350565b609f5460009060ff1680610d575750609f5465010000000000900460ff165b905090565b6001600160a01b03811660009081527faaf2a71ee48636e8ae3a1955ae821e40d2cf5ab657d8933f1c1465e2a5bc4464602052604081205460ff1661083b565b3360009081527f1ce91ab5e0e81f316105d9217fc91329058104a15dc4476cf1844d77125686a5602052604090205460ff16610dff5760405162461bcd60e51b8152602060048201526002602482015261291b60f11b604482015260640161075a565b609f5460ff1615610e385760405162461bcd60e51b815260206004820152600360248201526205231360ec1b604482015260640161075a565b609f805460ff191660019081179091556040517f2ca8e8dfde9481c8a047cde1353357bf2e606d7d1eca452231d961937a4c5aca919033907f6033cdcd2199d6fdde99ce0b60a809d3f980ce9597551944dfd8af7f33ec0a6290600090a4565b3360009081527f7a8dde43a7bc7e69e79f4e84c777c056b60ffe4a66e8627aaef837e50f847a24602052604090205460ff16610efb5760405162461bcd60e51b8152602060048201526002602482015261523760f01b604482015260640161075a565b6001600160a01b038116600081815260a06020526040808220805460ff191690555133917fd358711b94a3144deea84d17279846b11eac142209e2dbd93bc9eb9fb604db4c91a350565b3360009081527fb6b9868e4af9bfd0fc3575c1c867f9d0e77d5ed2905add1f763bcb8431db891e602052604090205460ff16610fa95760405162461bcd60e51b815260206004820152600360248201526252313360e81b604482015260640161075a565b609f54610100900460ff1615610fe75760405162461bcd60e51b815260206004820152600360248201526205231360ec1b604482015260640161075a565b609f805461ff0019166101001790556040517ff3de4533ff00ef299a11d619e1a5d244e6ff5fa1f474c653ed54cbb6ef9394369060019033907f6033cdcd2199d6fdde99ce0b60a809d3f980ce9597551944dfd8af7f33ec0a6290600090a4565b3360009081527fa32a36b5c1804037ae493fce4127c36b5d0307d0508b7072f2ef402ea4851120602052604090205460ff166110ab5760405162461bcd60e51b8152602060048201526002602482015261291960f11b604482015260640161075a565b6001600160a01b0381166110e75760405162461bcd60e51b815260206004820152600360248201526229189960e91b604482015260640161075a565b609d80546001600160a01b0319166001600160a01b03831690811790915560405133907fd5c726c653300378b00ef01ee104e9b96adc0bc2442f71d420cd3a3d4bec188790600090a350565b3360009081527f84865fc2265c4ba049bd22aa05d3408f1b8cdf3f3e74978e5465ec4aa715cde8602052604090205460ff166111965760405162461bcd60e51b8152602060048201526002602482015261523560f01b604482015260640161075a565b6097805463ffffffff191663ffffffff831690811790915560405133907fec3d573c5a02aa38f73469c1fc6a491757b0a37dd6d2203b225fabedf2faaf3490600090a350565b3360009081527fd3425a59594079ca15994324f0b074f0d18f9670d322b79481b9220713780f70602052604090205460ff166112405760405162461bcd60e51b815260206004820152600360248201526252313560e81b604482015260640161075a565b609f546301000000900460ff16156112805760405162461bcd60e51b815260206004820152600360248201526205231360ec1b604482015260640161075a565b609f805463ff000000191663010000001790556040517f1492d97ab6e4d8c7ca956834bc38263ad70284a7fdf818879444c466f060a8739060019033907f6033cdcd2199d6fdde99ce0b60a809d3f980ce9597551944dfd8af7f33ec0a6290600090a4565b3360009081527f3b51f19727f995496c81c5d4aad41d5c583bbd77a06ae445f5fb07d146f44861602052604090205460ff166113485760405162461bcd60e51b8152602060048201526002602482015261148d60f21b604482015260640161075a565b6127108163ffffffff16106113855760405162461bcd60e51b815260206004820152600360248201526205232360ec1b604482015260640161075a565b609780546fffffffff00000000000000000000000019166c0100000000000000000000000063ffffffff84169081029190911790915560405133907f26dfdabb870fe87855acdd50ba095834d3b321959344d33c4e4d1ced661dc02390600090a350565b600054610100900460ff166114045760005460ff1615611408565b303b155b61147a5760405162461bcd60e51b815260206004820152602e60248201527f496e697469616c697a61626c653a20636f6e747261637420697320616c72656160448201527f647920696e697469616c697a6564000000000000000000000000000000000000606482015260840161075a565b600054610100900460ff1615801561149c576000805461ffff19166101011790555b6114a461201f565b6114af6000836120a4565b6114d97f8bed349beb182b4c10ffa09b24228eeab3af7dfd7ed1f15102a7dbe7a6f5d813836120a4565b6115037fea6cbf7d4e5f24055ba3677c8ea492419947fab4a7deeed8f4803fe415aad050836120a4565b61152d7f88cc9cd9c54f9fbc935dfdf1daaa59ded01685c6fc56d4cb843e720a8d1c183d836120a4565b6115577f0f4989a44d2d609558af77c6ff340e14d02f94ee75ea4ad3948292d33e8ed7b1836120a4565b6115817f390296b51502c03a83e20c8a2c4c75d5f9a6a9b012895550215a37783529363a836120a4565b6115ab7f6b7485dc29163dc8d5a5ba04f2e13702d6d8acaacfe7f15bfc9daeb62e0c1db6836120a4565b6115d57f1632efe3ce40cb1d1888fdab2f730ce74336e4153192c4fae3aa5d9fd8edcd03836120a4565b6115ff7fab2c7b53772c7d4909be14bd92182b417e0e3ccbc293e79bb476c884c5b9eacb836120a4565b6116297f70c561384e26c2d11e737b3121a1bf9f8952b626d42bcd32efa0c805e750f844836120a4565b6116537fce5263906f3edf48ea37bf5a7fd9e307ecfb9a93febf8fbbd02951271e2a5935836120a4565b61167d7f2ca8e8dfde9481c8a047cde1353357bf2e606d7d1eca452231d961937a4c5aca836120a4565b6116a77ff3de4533ff00ef299a11d619e1a5d244e6ff5fa1f474c653ed54cbb6ef939436836120a4565b6116d17f2455f7a8bbdd0bb4e98fefba1846d37b1c2aaefb411547a266276157e5c75d2d836120a4565b6116fb7f1492d97ab6e4d8c7ca956834bc38263ad70284a7fdf818879444c466f060a873836120a4565b6117257f60a9770968af425ab1edbca869fda04c84d1c0fd21db260dfc186a3ef3e3e14f836120a4565b61174f7ff29bdb744edfeb41e2161a3a29b928fe654603a4e2b5577a7855149e9916a64b836120a4565b6117797f50a9ed8fc1c890456f829cbba972ff82bb1658c43895e7bee5d1fec9871e9b39836120a4565b6117a37f75d435b8ed45738e662759d0e2a87a699b5c6e9cdd9593f483f195bfc764e690836120a4565b609780546001600160a01b0319167103e8000003e80000000a000003e8001275001790558015610b2f576000805461ff00191690555050565b609f5460009060ff1680610d57575050609f54640100000000900460ff1690565b3360009081527f3da570987684dbd89cdc86e6f721d2e0b7865d41bbb84be8fd033708221cb9b6602052604090205460ff166118615760405162461bcd60e51b81526020600482015260036024820152620a462760eb1b604482015260640161075a565b609f546601000000000000900460ff16156118a45760405162461bcd60e51b815260206004820152600360248201526205231360ec1b604482015260640161075a565b609f805466ff000000000000191666010000000000001790556040517f50a9ed8fc1c890456f829cbba972ff82bb1658c43895e7bee5d1fec9871e9b399060019033907f6033cdcd2199d6fdde99ce0b60a809d3f980ce9597551944dfd8af7f33ec0a6290600090a4565b60008281526065602052604090206001015461192b8133611e7a565b6109b78383611f9c565b609f5460009060ff1680610d57575050609f5462010000900460ff1690565b3360009081527fdac563a5eca333c5ee2ee69b76f4796bd8890408c930745ef9b47200c0b4a121602052604090205460ff166119b75760405162461bcd60e51b81526020600482015260026024820152610a4760f31b604482015260640161075a565b6127108163ffffffff16106119f45760405162461bcd60e51b815260206004820152600360248201526205232360ec1b604482015260640161075a565b6097805467ffffffff00000000191664010000000063ffffffff84169081029190911790915560405133907f456798d7429d6deef71c19b900fa05ce0bc150d970f312fac0396efe0ed89e2f90600090a350565b3360009081527f7a8dde43a7bc7e69e79f4e84c777c056b60ffe4a66e8627aaef837e50f847a24602052604090205460ff16611aab5760405162461bcd60e51b8152602060048201526002602482015261523760f01b604482015260640161075a565b6001600160a01b038116600081815260a06020526040808220805460ff191660011790555133917f0beb05eda27aaa12c3879f90bf15e464bae38f391a8e75a12dc287ac2fdc29b591a350565b3360009081527f77f13b16c87b7f2f2e4e7e8fee3e2c404557d2df5b89ffd3e0e81d5b6a75af32602052604090205460ff16611b5c5760405162461bcd60e51b815260206004820152600360248201526229189b60e91b604482015260640161075a565b609f54640100000000900460ff1615611b9d5760405162461bcd60e51b815260206004820152600360248201526205231360ec1b604482015260640161075a565b609f805464ff0000000019166401000000001790556040517f60a9770968af425ab1edbca869fda04c84d1c0fd21db260dfc186a3ef3e3e14f9060019033907f6033cdcd2199d6fdde99ce0b60a809d3f980ce9597551944dfd8af7f33ec0a6290600090a4565b609f5460009060ff1680610d57575050609f546301000000900460ff1690565b609f5460009060ff1680610d57575050609f546601000000000000900460ff1690565b3360009081527f53ebb4d5020e385d4b47c75dab8fa68f4e9953c2ea2a824d50ad61d7fbe1e85e602052604090205460ff16611cab5760405162461bcd60e51b8152602060048201526003602482015262148c4d60ea1b604482015260640161075a565b609f5462010000900460ff1615611cea5760405162461bcd60e51b815260206004820152600360248201526205231360ec1b604482015260640161075a565b609f805462ff00001916620100001790556040517f2455f7a8bbdd0bb4e98fefba1846d37b1c2aaefb411547a266276157e5c75d2d9060019033907f6033cdcd2199d6fdde99ce0b60a809d3f980ce9597551944dfd8af7f33ec0a6290600090a4565b3360009081527fff6cba3daff300f2d51631d1bfa726734b8a02fb6bf1bfe8fabaa748202a8518602052604090205460ff16611db15760405162461bcd60e51b815260206004820152600360248201526252313760e81b604482015260640161075a565b609f5465010000000000900460ff1615611df35760405162461bcd60e51b815260206004820152600360248201526205231360ec1b604482015260640161075a565b609f805465ff00000000001916650100000000001790556040517ff29bdb744edfeb41e2161a3a29b928fe654603a4e2b5577a7855149e9916a64b9060019033907f6033cdcd2199d6fdde99ce0b60a809d3f980ce9597551944dfd8af7f33ec0a6290600090a4565b609f5460009060ff1680610d57575050609f54610100900460ff1690565b60008281526065602090815260408083206001600160a01b038516845290915290205460ff16610b2f57611eb8816001600160a01b031660146120ae565b611ec38360206120ae565b604051602001611ed49291906123fa565b60408051601f198184030181529082905262461bcd60e51b825261075a9160040161247b565b60008281526065602090815260408083206001600160a01b038516845290915290205460ff16610b2f5760008281526065602090815260408083206001600160a01b03851684529091529020805460ff19166001179055611f583390565b6001600160a01b0316816001600160a01b0316837f2f8788117e7eff1d82e926ec794901d17c78024a50270940304540a733656f0d60405160405180910390a45050565b60008281526065602090815260408083206001600160a01b038516845290915290205460ff1615610b2f5760008281526065602090815260408083206001600160a01b0385168085529252808320805460ff1916905551339285917ff6391f5c32d9c69d2a47ea670b442974b53935d1edc7fd64eb21e047a839171b9190a45050565b600054610100900460ff1661208a5760405162461bcd60e51b815260206004820152602b60248201527f496e697469616c697a61626c653a20636f6e7472616374206973206e6f74206960448201526a6e697469616c697a696e6760a81b606482015260840161075a565b61209261225e565b61209a61225e565b6120a261225e565b565b610b2f8282611efa565b606060006120bd8360026125d9565b6120c89060026125c1565b67ffffffffffffffff8111156120e0576120e061266b565b6040519080825280601f01601f19166020018201604052801561210a576020820181803683370190505b509050600360fc1b8160008151811061212557612125612655565b60200101906001600160f81b031916908160001a905350600f60fb1b8160018151811061215457612154612655565b60200101906001600160f81b031916908160001a90535060006121788460026125d9565b6121839060016125c1565b90505b6001811115612208577f303132333435363738396162636465660000000000000000000000000000000085600f16601081106121c4576121c4612655565b1a60f81b8282815181106121da576121da612655565b60200101906001600160f81b031916908160001a90535060049490941c9361220181612628565b9050612186565b5083156122575760405162461bcd60e51b815260206004820181905260248201527f537472696e67733a20686578206c656e67746820696e73756666696369656e74604482015260640161075a565b9392505050565b600054610100900460ff166120a25760405162461bcd60e51b815260206004820152602b60248201527f496e697469616c697a61626c653a20636f6e7472616374206973206e6f74206960448201526a6e697469616c697a696e6760a81b606482015260840161075a565b80356001600160a01b03811681146122e057600080fd5b919050565b6000602082840312156122f757600080fd5b612257826122c9565b600080600080600060a0868803121561231857600080fd5b612321866122c9565b945061232f602087016122c9565b935061233d604087016122c9565b925061234b606087016122c9565b9150612359608087016122c9565b90509295509295909350565b60006020828403121561237757600080fd5b5035919050565b6000806040838503121561239157600080fd5b823591506123a1602084016122c9565b90509250929050565b6000602082840312156123bc57600080fd5b81356001600160e01b03198116811461225757600080fd5b6000602082840312156123e657600080fd5b813563ffffffff8116811461225757600080fd5b7f416363657373436f6e74726f6c3a206163636f756e74200000000000000000008152600083516124328160178501602088016125f8565b7f206973206d697373696e6720726f6c6520000000000000000000000000000000601791840191820152835161246f8160288401602088016125f8565b01602801949350505050565b602081526000825180602084015261249a8160408501602087016125f8565b601f01601f19169190910160400192915050565b81516001600160a01b03908116825260208084015182169083015260408084015182169083015260608084015182169083015260808084015182169083015260a08084015182169083015260c080840151918216908301526101208201905060e083015161252460e084018263ffffffff169052565b506101009283015163ffffffff16919092015290565b60006101008201905063ffffffff8084511683528060208501511660208401528060408501511660408401528060608501511660608401528060808501511660808401528060a08501511660a08401525060c08301516125a260c084018263ffffffff169052565b5060e08301516125ba60e084018263ffffffff169052565b5092915050565b600082198211156125d4576125d461263f565b500190565b60008160001904831182151516156125f3576125f361263f565b500290565b60005b838110156126135781810151838201526020016125fb565b83811115612622576000848401525b50505050565b6000816126375761263761263f565b506000190190565b634e487b7160e01b600052601160045260246000fd5b634e487b7160e01b600052603260045260246000fd5b634e487b7160e01b600052604160045260246000fdfea26469706673582212203480ae9c0018a635f2d62eb41a6ba115e842beb89a6ea70a64c888e8a24c230864736f6c63430008050033",
  "devdoc": {
    "kind": "dev",
    "methods": {
      "getCore()": {
        "returns": {
          "_0": "`Opium.Core`"
        }
      },
      "getProtocolAddresses()": {
        "returns": {
          "_0": "RegistryEntities.ProtocolAddressesArgs struct that packs all the interfaces of the Opium Protocol"
        }
      },
      "getProtocolParameters()": {
        "returns": {
          "_0": "RegistryEntities.getProtocolParameters struct that packs the protocol lifecycle parameters {see RegistryEntities comments}"
        }
      },
      "getRoleAdmin(bytes32)": {
        "details": "Returns the admin role that controls `role`. See {grantRole} and {revokeRole}. To change a role's admin, use {_setRoleAdmin}."
      },
      "grantRole(bytes32,address)": {
        "details": "Grants `role` to `account`. If `account` had not been already granted `role`, emits a {RoleGranted} event. Requirements: - the caller must have ``role``'s admin role."
      },
      "hasRole(bytes32,address)": {
        "details": "Returns `true` if `account` has been granted `role`."
      },
      "initialize(address)": {
        "details": "internally, it assigns all the setters roles to the DEFAULT_ADMIN_ROLE and it sets the initial protocol parameters",
        "params": {
          "_governor": "address of the governance account which will be assigned all the roles included in the LibRoles library and the OpenZeppelin AccessControl.DEFAULT_ADMIN_ROLE"
        }
      },
      "isCoreConfigurationUpdater(address)": {
        "details": "it is meant to be consumed by the RegistryManager module",
        "params": {
          "_address": "address to be checked"
        }
      },
      "isProtocolPositionCancellationPaused()": {
        "returns": {
          "_0": "true if protocol is globally paused or if protocolPositionCancellation is paused"
        }
      },
      "isProtocolPositionCreationPaused()": {
        "returns": {
          "_0": "true if protocol is globally paused or if protocolPositionCreation is paused"
        }
      },
      "isProtocolPositionExecutionPaused()": {
        "returns": {
          "_0": "true if protocol is globally paused or if protocolPositionExecution is paused"
        }
      },
      "isProtocolPositionMintingPaused()": {
        "returns": {
          "_0": "true if protocol is globally paused or if protocolPositionMinting is paused"
        }
      },
      "isProtocolPositionRedemptionPaused()": {
        "returns": {
          "_0": "true if protocol is globally paused or if protocolPositionRedemption is paused"
        }
      },
      "isProtocolReserveClaimPaused()": {
        "returns": {
          "_0": "true if protocol is globally paused or if protocolReserveClaim is paused"
        }
      },
      "isRegistryManager(address)": {
        "details": "it is meant to be consumed by the RegistryManager module",
        "params": {
          "_address": "address to be checked"
        }
      },
      "pause()": {
        "details": "it fails if the entire protocol is already paused"
      },
      "pauseProtocolPositionCancellation()": {
        "details": "it fails if the cancellation of positions is paused"
      },
      "pauseProtocolPositionCreation()": {
        "details": "it fails if the creation of positions is paused"
      },
      "pauseProtocolPositionExecution()": {
        "details": "it fails if the execution of positions is paused"
      },
      "pauseProtocolPositionMinting()": {
        "details": "it fails if the minting of positions is paused"
      },
      "pauseProtocolPositionRedemption()": {
        "details": "it fails if the redemption of positions is paused"
      },
      "pauseProtocolReserveClaim()": {
        "details": "it fails if the reserves claims are paused"
      },
      "renounceRole(bytes32,address)": {
        "details": "Revokes `role` from the calling account. Roles are often managed via {grantRole} and {revokeRole}: this function's purpose is to provide a mechanism for accounts to lose their privileges if they are compromised (such as when a trusted device is misplaced). If the calling account had been revoked `role`, emits a {RoleRevoked} event. Requirements: - the caller must be `account`."
      },
      "revokeRole(bytes32,address)": {
        "details": "Revokes `role` from `account`. If `account` had been granted `role`, emits a {RoleRevoked} event. Requirements: - the caller must have ``role``'s admin role."
      },
      "setDerivativeAuthorExecutionFeeCap(uint32)": {
        "params": {
          "_derivativeAuthorExecutionFeeCap": "must be less than 100%"
        }
      },
      "setDerivativeAuthorRedemptionReservePart(uint32)": {
        "params": {
          "_derivativeAuthorRedemptionReservePart": "must be less than 1%"
        }
      },
      "setProtocolAddresses(address,address,address,address,address)": {
        "details": "It must be called as part of the protocol's deployment setup after the core addresses have been deployedthe contracts' addresses are set using their respective interfaces",
        "params": {
          "_core": "address of Opium.Core",
          "_opiumProxyFactory": "address of Opium.OpiumProxyFactory",
          "_oracleAggregator": "address of Opium.OracleAggregator",
          "_syntheticAggregator": "address of Opium.SyntheticAggregator",
          "_tokenSpender": "address of Opium.TokenSpender"
        }
      },
      "setProtocolExecutionReserveClaimer(address)": {
        "details": "It must be called as part of the protocol's deployment setup after the core addresses have been deployedit must be a non-null address",
        "params": {
          "_protocolExecutionReserveClaimer": "address that will replace the current `protocolExecutionReserveClaimer`"
        }
      },
      "setProtocolExecutionReservePart(uint32)": {
        "params": {
          "_protocolExecutionReservePart": "must be less than 100%"
        }
      },
      "setProtocolRedemptionReserveClaimer(address)": {
        "details": "It must be called as part of the protocol's deployment setup after the core addresses have been deployedit must be a non-null address",
        "params": {
          "_protocolRedemptionReserveClaimer": "address that will replace the current `protocolAddressesArgs.protocolRedemptionReserveClaimer`"
        }
      },
      "setProtocolRedemptionReservePart(uint32)": {
        "params": {
          "_protocolRedemptionReservePart": "must be less than 100%"
        }
      },
      "supportsInterface(bytes4)": {
        "details": "See {IERC165-supportsInterface}."
      }
    },
    "version": 1
  },
  "userdoc": {
    "kind": "user",
    "methods": {
      "addToWhitelist(address)": {
        "notice": "It allows the WHITELISTER_ROLE to add an address to the whitelist"
      },
      "initialize(address)": {
        "notice": "it is called only once upon deployment of the contract. It initializes the DEFAULT_ADMIN_ROLE with the given governor address.it sets the default ProtocolParametersArgs protocol parameters"
      },
      "isCoreConfigurationUpdater(address)": {
        "notice": "Returns true if msg.sender has been assigned the CORE_CONFIGURATION_UPDATER_ROLE role"
      },
      "isCoreSpenderWhitelisted(address)": {
        "notice": "It returns whether a given address is allowed to manage Opium.Core ERC20 balances"
      },
      "isProtocolPaused()": {
        "notice": "It returns true if the protocol is globally paused"
      },
      "isProtocolPositionCancellationPaused()": {
        "notice": "It returns whether Core.cancel() is currently paused"
      },
      "isProtocolPositionCreationPaused()": {
        "notice": "It returns whether Core.create() is currently paused"
      },
      "isProtocolPositionExecutionPaused()": {
        "notice": "It returns whether Core.execute() is currently paused"
      },
      "isProtocolPositionMintingPaused()": {
        "notice": "It returns whether Core.mint() is currently paused"
      },
      "isProtocolPositionRedemptionPaused()": {
        "notice": "It returns whether Core.redeem() is currently paused"
      },
      "isProtocolReserveClaimPaused()": {
        "notice": "It returns whether Core.execute() is currently paused"
      },
      "isRegistryManager(address)": {
        "notice": "Returns true if msg.sender has been assigned the REGISTRY_MANAGER_ROLE role"
      },
      "pause()": {
        "notice": "It allows the GUARDIAN role to pause the entire Opium Protocol"
      },
      "pauseProtocolPositionCancellation()": {
        "notice": "It allows the PARTIAL_CANCEL_PAUSE_ROLE role to pause the cancellation of positions"
      },
      "pauseProtocolPositionCreation()": {
        "notice": "It allows the PARTIAL_CREATE_PAUSE_ROLE role to pause the creation of positions"
      },
      "pauseProtocolPositionExecution()": {
        "notice": "It allows the PARTIAL_EXECUTE_PAUSE_ROLE role to pause the execution of positions"
      },
      "pauseProtocolPositionMinting()": {
        "notice": "It allows the PARTIAL_MINT_PAUSE_ROLE role to pause the minting of positions"
      },
      "pauseProtocolPositionRedemption()": {
        "notice": "It allows the PARTIAL_REDEEM_PAUSE_ROLE role to pause the redemption of positions"
      },
      "pauseProtocolReserveClaim()": {
        "notice": "It allows the PARTIAL_CLAIM_RESERVE_PAUSE_ROLE role to pause the reserves claims"
      },
      "removeFromWhitelist(address)": {
        "notice": "It allows the WHITELISTER_ROLE to remove an address from the whitelist"
      },
      "setDerivativeAuthorExecutionFeeCap(uint32)": {
        "notice": "It allows the DERIVATIVE_AUTHOR_EXECUTION_FEE_CAP_SETTER_ROLE role to change max fee that derivative author can set"
      },
      "setDerivativeAuthorRedemptionReservePart(uint32)": {
        "notice": "It allows the REDEMPTION_RESERVE_PART_SETTER_ROLE role to change the fixed part (percentage) that the derivative author receives for each redemption of market neutral positions"
      },
      "setNoDataCancellationPeriod(uint32)": {
        "notice": "It allows the NO_DATA_CANCELLATION_PERIOD_SETTER_ROLE role to change the noDataCancellationPeriod (the timeframe after which a derivative can be cancelled if the oracle has not provided any data)"
      },
      "setProtocolAddresses(address,address,address,address,address)": {
        "notice": "It allows the PROTOCOL_ADDRESSES_SETTER_ROLE role to set the addresses of Opium Protocol's contracts"
      },
      "setProtocolExecutionReserveClaimer(address)": {
        "notice": "It allows the EXECUTION_RESERVE_CLAIMER_ADDRESS_SETTER_ROLE role to change the address of the recipient of execution protocol reserves"
      },
      "setProtocolExecutionReservePart(uint32)": {
        "notice": "It allows the EXECUTION_RESERVE_PART_SETTER_ROLE role to change part of derivative author reserves originated from derivative executions go to the protocol reserves"
      },
      "setProtocolRedemptionReserveClaimer(address)": {
        "notice": "It allows the REDEMPTION_RESERVE_CLAIMER_ADDRESS_SETTER_ROLE role to change the address of the recipient of redemption protocol reserves"
      },
      "setProtocolRedemptionReservePart(uint32)": {
        "notice": "It allows the REDEMPTION_RESERVE_PART_SETTER_ROLE role to change part of derivative author reserves originated from redemption of market neutral positions go to the protocol reserves"
      },
      "unpause()": {
        "notice": "It allows the PROTOCOL_UNPAUSER_ROLE to unpause the Opium Protocol"
      }
    },
    "notice": "Error codes: - R1 = ERROR_REGISTRY_ONLY_PROTOCOL_ADDRESSES_SETTER_ROLE - R2 = ERROR_REGISTRY_ONLY_EXECUTION_RESERVE_CLAIMER_ADDRESS_SETTER_ROLE - R3 = ERROR_REGISTRY_ONLY_REDEMPTION_RESERVE_CLAIMER_ADDRESS_SETTER_ROLE - R4 = ERROR_REGISTRY_ONLY_EXECUTION_RESERVE_PART_SETTER_ROLE - R5 = ERROR_REGISTRY_ONLY_NO_DATA_CANCELLATION_PERIOD_SETTER_ROLE - R6 = ERROR_REGISTRY_ONLY_GUARDIAN_ROLE - R7 = ERROR_REGISTRY_ONLY_WHITELISTER_ROLE - R8 = ERROR_REGISTRY_ONLY_DERIVATIVE_AUTHOR_EXECUTION_FEE_CAP_SETTER_ROLE - R9 = ERROR_REGISTRY_ONLY_REDEMPTION_RESERVE_PART_SETTER_ROLE - R10 = ERROR_REGISTRY_ALREADY_PAUSED - R11 = ERROR_REGISTRY_NOT_PAUSED - R12 = ERROR_REGISTRY_NULL_ADDRESS - R13 = ERROR_REGISTRY_ONLY_PARTIAL_CREATE_PAUSE_ROLE - R14 = ERROR_REGISTRY_ONLY_PARTIAL_MINT_PAUSE_ROLE - R15 = ERROR_REGISTRY_ONLY_PARTIAL_REDEEM_PAUSE_ROLE - R16 = ERROR_REGISTRY_ONLY_PARTIAL_EXECUTE_PAUSE_ROLE - R17 = ERROR_REGISTRY_ONLY_PARTIAL_CANCEL_PAUSE_ROLE - R18 = ERROR_REGISTRY_ONLY_PARTIAL_CLAIM_RESERVE_PAUSE_ROLE - R19 = ERROR_REGISTRY_ONLY_PROTOCOL_UNPAUSER_ROLE - R20 = ERROR_REGISTRY_INVALID_VALUE",
    "version": 1
  },
  "storageLayout": {
    "storage": [
      {
        "astId": 542,
        "contract": "contracts/core/registry/Registry.sol:Registry",
        "label": "_initialized",
        "offset": 0,
        "slot": "0",
        "type": "t_bool"
      },
      {
        "astId": 545,
        "contract": "contracts/core/registry/Registry.sol:Registry",
        "label": "_initializing",
        "offset": 1,
        "slot": "0",
        "type": "t_bool"
      },
      {
        "astId": 2088,
        "contract": "contracts/core/registry/Registry.sol:Registry",
        "label": "__gap",
        "offset": 0,
        "slot": "1",
        "type": "t_array(t_uint256)50_storage"
      },
      {
        "astId": 2950,
        "contract": "contracts/core/registry/Registry.sol:Registry",
        "label": "__gap",
        "offset": 0,
        "slot": "51",
        "type": "t_array(t_uint256)50_storage"
      },
      {
        "astId": 94,
        "contract": "contracts/core/registry/Registry.sol:Registry",
        "label": "_roles",
        "offset": 0,
        "slot": "101",
        "type": "t_mapping(t_bytes32,t_struct(RoleData)89_storage)"
      },
      {
        "astId": 381,
        "contract": "contracts/core/registry/Registry.sol:Registry",
        "label": "__gap",
        "offset": 0,
        "slot": "102",
        "type": "t_array(t_uint256)49_storage"
      },
      {
        "astId": 6031,
        "contract": "contracts/core/registry/Registry.sol:Registry",
        "label": "protocolParametersArgs",
        "offset": 0,
        "slot": "151",
        "type": "t_struct(ProtocolParametersArgs)7165_storage"
      },
      {
        "astId": 6034,
        "contract": "contracts/core/registry/Registry.sol:Registry",
        "label": "protocolAddressesArgs",
        "offset": 0,
        "slot": "152",
        "type": "t_struct(ProtocolAddressesArgs)7185_storage"
      },
      {
        "astId": 6037,
        "contract": "contracts/core/registry/Registry.sol:Registry",
        "label": "protocolPausabilityArgs",
        "offset": 0,
        "slot": "159",
        "type": "t_struct(ProtocolPausabilityArgs)7209_storage"
      },
      {
        "astId": 6041,
        "contract": "contracts/core/registry/Registry.sol:Registry",
        "label": "coreSpenderWhitelist",
        "offset": 0,
        "slot": "160",
        "type": "t_mapping(t_address,t_bool)"
      },
      {
        "astId": 7144,
        "contract": "contracts/core/registry/Registry.sol:Registry",
        "label": "__gap",
        "offset": 0,
        "slot": "161",
        "type": "t_array(t_uint256)50_storage"
      }
    ],
    "types": {
      "t_address": {
        "encoding": "inplace",
        "label": "address",
        "numberOfBytes": "20"
      },
      "t_array(t_uint256)49_storage": {
        "base": "t_uint256",
        "encoding": "inplace",
        "label": "uint256[49]",
        "numberOfBytes": "1568"
      },
      "t_array(t_uint256)50_storage": {
        "base": "t_uint256",
        "encoding": "inplace",
        "label": "uint256[50]",
        "numberOfBytes": "1600"
      },
      "t_bool": {
        "encoding": "inplace",
        "label": "bool",
        "numberOfBytes": "1"
      },
      "t_bytes32": {
        "encoding": "inplace",
        "label": "bytes32",
        "numberOfBytes": "32"
      },
      "t_mapping(t_address,t_bool)": {
        "encoding": "mapping",
        "key": "t_address",
        "label": "mapping(address => bool)",
        "numberOfBytes": "32",
        "value": "t_bool"
      },
      "t_mapping(t_bytes32,t_struct(RoleData)89_storage)": {
        "encoding": "mapping",
        "key": "t_bytes32",
        "label": "mapping(bytes32 => struct AccessControlUpgradeable.RoleData)",
        "numberOfBytes": "32",
        "value": "t_struct(RoleData)89_storage"
      },
      "t_struct(ProtocolAddressesArgs)7185_storage": {
        "encoding": "inplace",
        "label": "struct RegistryEntities.ProtocolAddressesArgs",
        "members": [
          {
            "astId": 7167,
            "contract": "contracts/core/registry/Registry.sol:Registry",
            "label": "core",
            "offset": 0,
            "slot": "0",
            "type": "t_address"
          },
          {
            "astId": 7169,
            "contract": "contracts/core/registry/Registry.sol:Registry",
            "label": "opiumProxyFactory",
            "offset": 0,
            "slot": "1",
            "type": "t_address"
          },
          {
            "astId": 7171,
            "contract": "contracts/core/registry/Registry.sol:Registry",
            "label": "oracleAggregator",
            "offset": 0,
            "slot": "2",
            "type": "t_address"
          },
          {
            "astId": 7173,
            "contract": "contracts/core/registry/Registry.sol:Registry",
            "label": "syntheticAggregator",
            "offset": 0,
            "slot": "3",
            "type": "t_address"
          },
          {
            "astId": 7175,
            "contract": "contracts/core/registry/Registry.sol:Registry",
            "label": "tokenSpender",
            "offset": 0,
            "slot": "4",
            "type": "t_address"
          },
          {
            "astId": 7177,
            "contract": "contracts/core/registry/Registry.sol:Registry",
            "label": "protocolExecutionReserveClaimer",
            "offset": 0,
            "slot": "5",
            "type": "t_address"
          },
          {
            "astId": 7179,
            "contract": "contracts/core/registry/Registry.sol:Registry",
            "label": "protocolRedemptionReserveClaimer",
            "offset": 0,
            "slot": "6",
            "type": "t_address"
          },
          {
            "astId": 7182,
            "contract": "contracts/core/registry/Registry.sol:Registry",
            "label": "__gapOne",
            "offset": 20,
            "slot": "6",
            "type": "t_uint32"
          },
          {
            "astId": 7184,
            "contract": "contracts/core/registry/Registry.sol:Registry",
            "label": "__gapTwo",
            "offset": 24,
            "slot": "6",
            "type": "t_uint32"
          }
        ],
        "numberOfBytes": "224"
      },
      "t_struct(ProtocolParametersArgs)7165_storage": {
        "encoding": "inplace",
        "label": "struct RegistryEntities.ProtocolParametersArgs",
        "members": [
          {
            "astId": 7149,
            "contract": "contracts/core/registry/Registry.sol:Registry",
            "label": "noDataCancellationPeriod",
            "offset": 0,
            "slot": "0",
            "type": "t_uint32"
          },
          {
            "astId": 7151,
            "contract": "contracts/core/registry/Registry.sol:Registry",
            "label": "derivativeAuthorExecutionFeeCap",
            "offset": 4,
            "slot": "0",
            "type": "t_uint32"
          },
          {
            "astId": 7153,
            "contract": "contracts/core/registry/Registry.sol:Registry",
            "label": "derivativeAuthorRedemptionReservePart",
            "offset": 8,
            "slot": "0",
            "type": "t_uint32"
          },
          {
            "astId": 7155,
            "contract": "contracts/core/registry/Registry.sol:Registry",
            "label": "protocolExecutionReservePart",
            "offset": 12,
            "slot": "0",
            "type": "t_uint32"
          },
          {
            "astId": 7157,
            "contract": "contracts/core/registry/Registry.sol:Registry",
            "label": "protocolRedemptionReservePart",
            "offset": 16,
            "slot": "0",
            "type": "t_uint32"
          },
          {
            "astId": 7160,
            "contract": "contracts/core/registry/Registry.sol:Registry",
            "label": "__gapOne",
            "offset": 20,
            "slot": "0",
            "type": "t_uint32"
          },
          {
            "astId": 7162,
            "contract": "contracts/core/registry/Registry.sol:Registry",
            "label": "__gapTwo",
            "offset": 24,
            "slot": "0",
            "type": "t_uint32"
          },
          {
            "astId": 7164,
            "contract": "contracts/core/registry/Registry.sol:Registry",
            "label": "__gapThree",
            "offset": 28,
            "slot": "0",
            "type": "t_uint32"
          }
        ],
        "numberOfBytes": "32"
      },
      "t_struct(ProtocolPausabilityArgs)7209_storage": {
        "encoding": "inplace",
        "label": "struct RegistryEntities.ProtocolPausabilityArgs",
        "members": [
          {
            "astId": 7187,
            "contract": "contracts/core/registry/Registry.sol:Registry",
            "label": "protocolGlobal",
            "offset": 0,
            "slot": "0",
            "type": "t_bool"
          },
          {
            "astId": 7189,
            "contract": "contracts/core/registry/Registry.sol:Registry",
            "label": "protocolPositionCreation",
            "offset": 1,
            "slot": "0",
            "type": "t_bool"
          },
          {
            "astId": 7191,
            "contract": "contracts/core/registry/Registry.sol:Registry",
            "label": "protocolPositionMinting",
            "offset": 2,
            "slot": "0",
            "type": "t_bool"
          },
          {
            "astId": 7193,
            "contract": "contracts/core/registry/Registry.sol:Registry",
            "label": "protocolPositionRedemption",
            "offset": 3,
            "slot": "0",
            "type": "t_bool"
          },
          {
            "astId": 7195,
            "contract": "contracts/core/registry/Registry.sol:Registry",
            "label": "protocolPositionExecution",
            "offset": 4,
            "slot": "0",
            "type": "t_bool"
          },
          {
            "astId": 7197,
            "contract": "contracts/core/registry/Registry.sol:Registry",
            "label": "protocolPositionCancellation",
            "offset": 5,
            "slot": "0",
            "type": "t_bool"
          },
          {
            "astId": 7199,
            "contract": "contracts/core/registry/Registry.sol:Registry",
            "label": "protocolReserveClaim",
            "offset": 6,
            "slot": "0",
            "type": "t_bool"
          },
          {
            "astId": 7202,
            "contract": "contracts/core/registry/Registry.sol:Registry",
            "label": "__gapOne",
            "offset": 7,
            "slot": "0",
            "type": "t_bool"
          },
          {
            "astId": 7204,
            "contract": "contracts/core/registry/Registry.sol:Registry",
            "label": "__gapTwo",
            "offset": 8,
            "slot": "0",
            "type": "t_bool"
          },
          {
            "astId": 7206,
            "contract": "contracts/core/registry/Registry.sol:Registry",
            "label": "__gapThree",
            "offset": 9,
            "slot": "0",
            "type": "t_bool"
          },
          {
            "astId": 7208,
            "contract": "contracts/core/registry/Registry.sol:Registry",
            "label": "__gapFour",
            "offset": 10,
            "slot": "0",
            "type": "t_bool"
          }
        ],
        "numberOfBytes": "32"
      },
      "t_struct(RoleData)89_storage": {
        "encoding": "inplace",
        "label": "struct AccessControlUpgradeable.RoleData",
        "members": [
          {
            "astId": 86,
            "contract": "contracts/core/registry/Registry.sol:Registry",
            "label": "members",
            "offset": 0,
            "slot": "0",
            "type": "t_mapping(t_address,t_bool)"
          },
          {
            "astId": 88,
            "contract": "contracts/core/registry/Registry.sol:Registry",
            "label": "adminRole",
            "offset": 0,
            "slot": "1",
            "type": "t_bytes32"
          }
        ],
        "numberOfBytes": "64"
      },
      "t_uint256": {
        "encoding": "inplace",
        "label": "uint256",
        "numberOfBytes": "32"
      },
      "t_uint32": {
        "encoding": "inplace",
        "label": "uint32",
        "numberOfBytes": "4"
      }
    }
  }
}