{
  "address": "0x01A44DbFE8a2b9568BEA0C0Db938E0dF93682910",
  "abi": [
    {
      "anonymous": false,
      "inputs": [
        {
          "indexed": true,
          "internalType": "address",
          "name": "_changer",
          "type": "address"
        },
        {
          "indexed": true,
          "internalType": "address",
          "name": "_newRegistryAddress",
          "type": "address"
        }
      ],
      "name": "LogRegistryChanged",
      "type": "event"
    },
    {
      "anonymous": false,
      "inputs": [
        {
          "components": [
            {
              "internalType": "uint256",
              "name": "margin",
              "type": "uint256"
            },
            {
              "internalType": "uint256",
              "name": "endTime",
              "type": "uint256"
            },
            {
              "internalType": "uint256[]",
              "name": "params",
              "type": "uint256[]"
            },
            {
              "internalType": "address",
              "name": "oracleId",
              "type": "address"
            },
            {
              "internalType": "address",
              "name": "token",
              "type": "address"
            },
            {
              "internalType": "address",
              "name": "syntheticId",
              "type": "address"
            }
          ],
          "indexed": true,
          "internalType": "struct LibDerivative.Derivative",
          "name": "derivative",
          "type": "tuple"
        },
        {
          "indexed": true,
          "internalType": "bytes32",
          "name": "derivativeHash",
          "type": "bytes32"
        }
      ],
      "name": "LogSyntheticInit",
      "type": "event"
    },
    {
      "inputs": [
        {
          "internalType": "bytes32",
          "name": "_derivativeHash",
          "type": "bytes32"
        },
        {
          "components": [
            {
              "internalType": "uint256",
              "name": "margin",
              "type": "uint256"
            },
            {
              "internalType": "uint256",
              "name": "endTime",
              "type": "uint256"
            },
            {
              "internalType": "uint256[]",
              "name": "params",
              "type": "uint256[]"
            },
            {
              "internalType": "address",
              "name": "oracleId",
              "type": "address"
            },
            {
              "internalType": "address",
              "name": "token",
              "type": "address"
            },
            {
              "internalType": "address",
              "name": "syntheticId",
              "type": "address"
            }
          ],
          "internalType": "struct LibDerivative.Derivative",
          "name": "_derivative",
          "type": "tuple"
        }
      ],
      "name": "getOrCacheMargin",
      "outputs": [
        {
          "internalType": "uint256",
          "name": "buyerMargin",
          "type": "uint256"
        },
        {
          "internalType": "uint256",
          "name": "sellerMargin",
          "type": "uint256"
        }
      ],
      "stateMutability": "nonpayable",
      "type": "function"
    },
    {
      "inputs": [
        {
          "internalType": "bytes32",
          "name": "_derivativeHash",
          "type": "bytes32"
        },
        {
          "components": [
            {
              "internalType": "uint256",
              "name": "margin",
              "type": "uint256"
            },
            {
              "internalType": "uint256",
              "name": "endTime",
              "type": "uint256"
            },
            {
              "internalType": "uint256[]",
              "name": "params",
              "type": "uint256[]"
            },
            {
              "internalType": "address",
              "name": "oracleId",
              "type": "address"
            },
            {
              "internalType": "address",
              "name": "token",
              "type": "address"
            },
            {
              "internalType": "address",
              "name": "syntheticId",
              "type": "address"
            }
          ],
          "internalType": "struct LibDerivative.Derivative",
          "name": "_derivative",
          "type": "tuple"
        }
      ],
      "name": "getOrCacheSyntheticCache",
      "outputs": [
        {
          "components": [
            {
              "internalType": "uint256",
              "name": "buyerMargin",
              "type": "uint256"
            },
            {
              "internalType": "uint256",
              "name": "sellerMargin",
              "type": "uint256"
            },
            {
              "internalType": "uint256",
              "name": "authorCommission",
              "type": "uint256"
            },
            {
              "internalType": "address",
              "name": "authorAddress",
              "type": "address"
            },
            {
              "internalType": "bool",
              "name": "init",
              "type": "bool"
            }
          ],
          "internalType": "struct SyntheticAggregator.SyntheticCache",
          "name": "",
          "type": "tuple"
        }
      ],
      "stateMutability": "nonpayable",
      "type": "function"
    },
    {
      "inputs": [],
      "name": "getRegistry",
      "outputs": [
        {
          "internalType": "address",
          "name": "",
          "type": "address"
        }
      ],
      "stateMutability": "view",
      "type": "function"
    },
    {
      "inputs": [
        {
          "internalType": "address",
          "name": "_registry",
          "type": "address"
        }
      ],
      "name": "initialize",
      "outputs": [],
      "stateMutability": "nonpayable",
      "type": "function"
    },
    {
      "inputs": [
        {
          "internalType": "address",
          "name": "_registry",
          "type": "address"
        }
      ],
      "name": "setRegistry",
      "outputs": [],
      "stateMutability": "nonpayable",
      "type": "function"
    }
  ],
  "transactionHash": "0x184f303974454faf404d4d281a715d03cdad20b1e1430a6eb752ef9c3566551b",
  "args": [],
  "solcInputHash": "6906dc93f57e85482da6ea178e2dedc3",
  "bytecode": "0x608060405234801561001057600080fd5b50610fa4806100206000396000f3fe608060405234801561001057600080fd5b50600436106100675760003560e01c8063a28702f111610050578063a28702f1146100b4578063a91ee0dc14610114578063c4d66de81461012957600080fd5b80635ab1bd531461006c5780638d52f0701461008c575b600080fd5b6033546040516001600160a01b0390911681526020015b60405180910390f35b61009f61009a366004610b13565b61013c565b60408051928352602083019190915201610083565b6100c76100c2366004610b13565b61018d565b6040516100839190600060a0820190508251825260208301516020830152604083015160408301526001600160a01b03606084015116606083015260808301511515608083015292915050565b610127610122366004610ab0565b610258565b005b610127610137366004610ab0565b610362565b6000828152606660205260408120600301548190600160a01b900460ff16610170576101708461016b85610e43565b61042d565b505050600090815260666020526040902080546001909101549091565b6101ca6040518060a0016040528060008152602001600081526020016000815260200160006001600160a01b031681526020016000151581525090565b600083815260666020526040902060030154600160a01b900460ff166101f7576101f78361016b84610e43565b5050600090815260666020908152604091829020825160a081018452815481526001820154928101929092526002810154928201929092526003909101546001600160a01b0381166060830152600160a01b900460ff161515608082015290565b603354604051634048d90960e01b81523360048201526001600160a01b0390911690634048d9099060240160206040518083038186803b15801561029b57600080fd5b505afa1580156102af573d6000803e3d6000fd5b505050506040513d601f19601f820116820180604052508101906102d39190610af1565b6103095760405162461bcd60e51b81526020600482015260026024820152614d3160f01b60448201526064015b60405180910390fd5b6033805473ffffffffffffffffffffffffffffffffffffffff19166001600160a01b03831690811790915560405133907fec10a16af385903532506d1567380fd8d93d880e8ed4bcacc42b0848e781406a90600090a350565b600054610100900460ff1661037d5760005460ff1615610381565b303b155b6103e45760405162461bcd60e51b815260206004820152602e60248201527f496e697469616c697a61626c653a20636f6e747261637420697320616c72656160448201526d191e481a5b9a5d1a585b1a5e995960921b6064820152608401610300565b600054610100900460ff16158015610406576000805461ffff19166101011790555b61040f82610837565b610417610959565b8015610429576000805461ff00191690555b5050565b600260015414156104805760405162461bcd60e51b815260206004820152601f60248201527f5265656e7472616e637947756172643a207265656e7472616e742063616c6c006044820152606401610300565b60026001556000610490826109ce565b90508281146104c65760405162461bcd60e51b8152602060048201526002602482015261533160f01b6044820152606401610300565b6000808360a001516001600160a01b0316630433fe45856040518263ffffffff1660e01b81526004016104f99190610d3f565b604080518083038186803b15801561051057600080fd5b505afa158015610524573d6000803e3d6000fd5b505050506040513d601f19601f820116820180604052508101906105489190610c3f565b9150915081600014158061055b57508015155b61058c5760405162461bcd60e51b8152602060048201526002602482015261299960f11b6044820152606401610300565b60008460a001516001600160a01b0316633a84543e6040518163ffffffff1660e01b815260040160206040518083038186803b1580156105cb57600080fd5b505afa1580156105df573d6000803e3d6000fd5b505050506040513d601f19601f820116820180604052508101906106039190610c26565b90506000603360009054906101000a90046001600160a01b03166001600160a01b031663c58aad876040518163ffffffff1660e01b81526004016101006040518083038186803b15801561065657600080fd5b505afa15801561066a573d6000803e3d6000fd5b505050506040513d601f19601f8201168201806040525081019061068e9190610b61565b9050806020015163ffffffff168211156106cf5760405162461bcd60e51b8152602060048201526002602482015261533360f01b6044820152606401610300565b6040518060a001604052808581526020018481526020018381526020018760a001516001600160a01b031663a4300ee56040518163ffffffff1660e01b815260040160206040518083038186803b15801561072957600080fd5b505afa15801561073d573d6000803e3d6000fd5b505050506040513d601f19601f820116820180604052508101906107619190610ad4565b6001600160a01b039081168252600160209283018190526000898152606684526040908190208551815593850151918401919091558381015160028401556060840151600390930180546080909501511515600160a01b027fffffffffffffffffffffff0000000000000000000000000000000000000000009095169390921692909217929092179091555185906107fa908890610c96565b604051908190038120907f29aa7d92d69bcc6e17d252d7860e10e2a096dbb7d00b9017322852681fc8693590600090a35050600180555050505050565b600054610100900460ff166108525760005460ff1615610856565b303b155b6108b95760405162461bcd60e51b815260206004820152602e60248201527f496e697469616c697a61626c653a20636f6e747261637420697320616c72656160448201526d191e481a5b9a5d1a585b1a5e995960921b6064820152608401610300565b600054610100900460ff161580156108db576000805461ffff19166101011790555b6001600160a01b0382166108ee57600080fd5b6033805473ffffffffffffffffffffffffffffffffffffffff19166001600160a01b03841690811790915560405133907fec10a16af385903532506d1567380fd8d93d880e8ed4bcacc42b0848e781406a90600090a38015610429576000805461ff00191690555050565b600054610100900460ff166109c45760405162461bcd60e51b815260206004820152602b60248201527f496e697469616c697a61626c653a20636f6e7472616374206973206e6f74206960448201526a6e697469616c697a696e6760a81b6064820152608401610300565b6109cc610a1b565b565b80516020808301516040808501516060860151608087015160a088015193516000976109fe979096959101610cee565b604051602081830303815290604052805190602001209050919050565b600054610100900460ff16610a865760405162461bcd60e51b815260206004820152602b60248201527f496e697469616c697a61626c653a20636f6e7472616374206973206e6f74206960448201526a6e697469616c697a696e6760a81b6064820152608401610300565b60018055565b8035610a9781610f56565b919050565b805163ffffffff81168114610a9757600080fd5b600060208284031215610ac257600080fd5b8135610acd81610f56565b9392505050565b600060208284031215610ae657600080fd5b8151610acd81610f56565b600060208284031215610b0357600080fd5b81518015158114610acd57600080fd5b60008060408385031215610b2657600080fd5b82359150602083013567ffffffffffffffff811115610b4457600080fd5b830160c08186031215610b5657600080fd5b809150509250929050565b6000610100808385031215610b7557600080fd5b6040519081019067ffffffffffffffff82118183101715610b9857610b98610f40565b81604052610ba584610a9c565b8152610bb360208501610a9c565b6020820152610bc460408501610a9c565b6040820152610bd560608501610a9c565b6060820152610be660808501610a9c565b6080820152610bf760a08501610a9c565b60a0820152610c0860c08501610a9c565b60c0820152610c1960e08501610a9c565b60e0820152949350505050565b600060208284031215610c3857600080fd5b5051919050565b60008060408385031215610c5257600080fd5b505080516020909101519092909150565b60008151602080840160005b83811015610c8b57815187529582019590820190600101610c6f565b509495945050505050565b81518152602082015160208201526000610cb7604083016040850151610c63565b6001600160a01b038060608601511682528060808601511660208301528060a0860151166040830152506060810191505092915050565b8681528560208201526000610d066040830187610c63565b6bffffffffffffffffffffffff19606096871b8116825294861b851660148201529290941b9092166028820152603c0195945050505050565b6000602080835260e08301845182850152818501516040850152604085015160c06060860152818151808452610100870191508483019350600092505b80831015610d9c5783518252928401926001929092019190840190610d7c565b5060608701516001600160a01b0381166080880152935060808701516001600160a01b03811660a0880152935060a08701516001600160a01b03811660c088015293509695505050505050565b60405160c0810167ffffffffffffffff81118282101715610e0c57610e0c610f40565b60405290565b604051601f8201601f1916810167ffffffffffffffff81118282101715610e3b57610e3b610f40565b604052919050565b600060c08236031215610e5557600080fd5b610e5d610de9565b8235815260208084013581830152604084013567ffffffffffffffff80821115610e8657600080fd5b9085019036601f830112610e9957600080fd5b813581811115610eab57610eab610f40565b8060051b9150610ebc848301610e12565b818152848101908486013685870188011115610ed757600080fd5b600095505b83861015610efa578035835260019590950194918601918601610edc565b50806040880152505050505050610f1360608401610a8c565b6060820152610f2460808401610a8c565b6080820152610f3560a08401610a8c565b60a082015292915050565b634e487b7160e01b600052604160045260246000fd5b6001600160a01b0381168114610f6b57600080fd5b5056fea2646970667358221220bdda9d198fe0ec226c4c49e83b1433300d6579972a72b0a1c28a9f3904ce14ff64736f6c63430008050033",
  "devdoc": {
    "kind": "dev",
    "methods": {
      "getOrCacheMargin(bytes32,(uint256,uint256,uint256[],address,address,address))": {
        "params": {
          "_derivative": "LibDerivative.Derivative itself",
          "_derivativeHash": "bytes32 hash of derivative"
        },
        "returns": {
          "buyerMargin": "uint256 Margin of buyer",
          "sellerMargin": "uint256 Margin of seller"
        }
      },
      "getOrCacheSyntheticCache(bytes32,(uint256,uint256,uint256[],address,address,address))": {
        "params": {
          "_derivative": "LibDerivative.Derivative itself",
          "_derivativeHash": "bytes32 hash of derivative"
        }
      }
    },
    "version": 1
  },
  "userdoc": {
    "kind": "user",
    "methods": {
      "getOrCacheMargin(bytes32,(uint256,uint256,uint256[],address,address,address))": {
        "notice": "Initializes ticker, if was not initialized and returns buyer and seller margin from cache"
      },
      "getOrCacheSyntheticCache(bytes32,(uint256,uint256,uint256[],address,address,address))": {
        "notice": "Initializes ticker if not previously initialized and returns the cached `syntheticId` data"
      }
    },
    "notice": "Opium.SyntheticAggregator contract initialized, identifies and caches syntheticId sensitive data",
    "version": 1
  },
  "storageLayout": {
    "storage": [
      {
        "astId": 542,
        "contract": "contracts/core/SyntheticAggregator.sol:SyntheticAggregator",
        "label": "_initialized",
        "offset": 0,
        "slot": "0",
        "type": "t_bool"
      },
      {
        "astId": 545,
        "contract": "contracts/core/SyntheticAggregator.sol:SyntheticAggregator",
        "label": "_initializing",
        "offset": 1,
        "slot": "0",
        "type": "t_bool"
      },
      {
        "astId": 623,
        "contract": "contracts/core/SyntheticAggregator.sol:SyntheticAggregator",
        "label": "_status",
        "offset": 0,
        "slot": "1",
        "type": "t_uint256"
      },
      {
        "astId": 666,
        "contract": "contracts/core/SyntheticAggregator.sol:SyntheticAggregator",
        "label": "__gap",
        "offset": 0,
        "slot": "2",
        "type": "t_array(t_uint256)49_storage"
      },
      {
        "astId": 5862,
        "contract": "contracts/core/SyntheticAggregator.sol:SyntheticAggregator",
        "label": "registry",
        "offset": 0,
        "slot": "51",
        "type": "t_contract(IRegistry)8169"
      },
      {
        "astId": 5952,
        "contract": "contracts/core/SyntheticAggregator.sol:SyntheticAggregator",
        "label": "__gap",
        "offset": 0,
        "slot": "52",
        "type": "t_array(t_uint256)50_storage"
      },
      {
        "astId": 5597,
        "contract": "contracts/core/SyntheticAggregator.sol:SyntheticAggregator",
        "label": "syntheticCaches",
        "offset": 0,
        "slot": "102",
        "type": "t_mapping(t_bytes32,t_struct(SyntheticCache)5592_storage)"
      },
      {
        "astId": 5777,
        "contract": "contracts/core/SyntheticAggregator.sol:SyntheticAggregator",
        "label": "__gap",
        "offset": 0,
        "slot": "103",
        "type": "t_array(t_uint256)50_storage"
      }
    ],
    "types": {
      "t_address": {
        "encoding": "inplace",
        "label": "address",
        "numberOfBytes": "20"
      },
      "t_array(t_uint256)49_storage": {
        "base": "t_uint256",
        "encoding": "inplace",
        "label": "uint256[49]",
        "numberOfBytes": "1568"
      },
      "t_array(t_uint256)50_storage": {
        "base": "t_uint256",
        "encoding": "inplace",
        "label": "uint256[50]",
        "numberOfBytes": "1600"
      },
      "t_bool": {
        "encoding": "inplace",
        "label": "bool",
        "numberOfBytes": "1"
      },
      "t_bytes32": {
        "encoding": "inplace",
        "label": "bytes32",
        "numberOfBytes": "32"
      },
      "t_contract(IRegistry)8169": {
        "encoding": "inplace",
        "label": "contract IRegistry",
        "numberOfBytes": "20"
      },
      "t_mapping(t_bytes32,t_struct(SyntheticCache)5592_storage)": {
        "encoding": "mapping",
        "key": "t_bytes32",
        "label": "mapping(bytes32 => struct SyntheticAggregator.SyntheticCache)",
        "numberOfBytes": "32",
        "value": "t_struct(SyntheticCache)5592_storage"
      },
      "t_struct(SyntheticCache)5592_storage": {
        "encoding": "inplace",
        "label": "struct SyntheticAggregator.SyntheticCache",
        "members": [
          {
            "astId": 5583,
            "contract": "contracts/core/SyntheticAggregator.sol:SyntheticAggregator",
            "label": "buyerMargin",
            "offset": 0,
            "slot": "0",
            "type": "t_uint256"
          },
          {
            "astId": 5585,
            "contract": "contracts/core/SyntheticAggregator.sol:SyntheticAggregator",
            "label": "sellerMargin",
            "offset": 0,
            "slot": "1",
            "type": "t_uint256"
          },
          {
            "astId": 5587,
            "contract": "contracts/core/SyntheticAggregator.sol:SyntheticAggregator",
            "label": "authorCommission",
            "offset": 0,
            "slot": "2",
            "type": "t_uint256"
          },
          {
            "astId": 5589,
            "contract": "contracts/core/SyntheticAggregator.sol:SyntheticAggregator",
            "label": "authorAddress",
            "offset": 0,
            "slot": "3",
            "type": "t_address"
          },
          {
            "astId": 5591,
            "contract": "contracts/core/SyntheticAggregator.sol:SyntheticAggregator",
            "label": "init",
            "offset": 20,
            "slot": "3",
            "type": "t_bool"
          }
        ],
        "numberOfBytes": "128"
      },
      "t_uint256": {
        "encoding": "inplace",
        "label": "uint256",
        "numberOfBytes": "32"
      }
    }
  }
}