{
  "address": "0xD433fe2b883EDB7950741f787286fD40800c5290",
  "abi": [
    {
      "anonymous": false,
      "inputs": [
        {
          "indexed": true,
          "internalType": "address",
          "name": "_positionOwner",
          "type": "address"
        },
        {
          "indexed": true,
          "internalType": "bytes32",
          "name": "_derivativeHash",
          "type": "bytes32"
        },
        {
          "indexed": false,
          "internalType": "uint256",
          "name": "_amount",
          "type": "uint256"
        }
      ],
      "name": "LogCancelled",
      "type": "event"
    },
    {
      "anonymous": false,
      "inputs": [
        {
          "indexed": true,
          "internalType": "address",
          "name": "_buyer",
          "type": "address"
        },
        {
          "indexed": true,
          "internalType": "address",
          "name": "_seller",
          "type": "address"
        },
        {
          "indexed": true,
          "internalType": "bytes32",
          "name": "_derivativeHash",
          "type": "bytes32"
        },
        {
          "indexed": false,
          "internalType": "uint256",
          "name": "_amount",
          "type": "uint256"
        }
      ],
      "name": "LogCreated",
      "type": "event"
    },
    {
      "anonymous": false,
      "inputs": [
        {
          "indexed": true,
          "internalType": "address",
          "name": "_positionOwner",
          "type": "address"
        },
        {
          "indexed": true,
          "internalType": "bytes32",
          "name": "_derivativeHash",
          "type": "bytes32"
        }
      ],
      "name": "LogDerivativeHashCancelled",
      "type": "event"
    },
    {
      "anonymous": false,
      "inputs": [
        {
          "indexed": true,
          "internalType": "address",
          "name": "_positionsOwner",
          "type": "address"
        },
        {
          "indexed": true,
          "internalType": "address",
          "name": "_positionAddress",
          "type": "address"
        },
        {
          "indexed": false,
          "internalType": "uint256",
          "name": "_amount",
          "type": "uint256"
        }
      ],
      "name": "LogExecuted",
      "type": "event"
    },
    {
      "anonymous": false,
      "inputs": [
        {
          "indexed": true,
          "internalType": "address",
          "name": "_buyer",
          "type": "address"
        },
        {
          "indexed": true,
          "internalType": "address",
          "name": "_seller",
          "type": "address"
        },
        {
          "indexed": true,
          "internalType": "bytes32",
          "name": "_derivativeHash",
          "type": "bytes32"
        },
        {
          "indexed": false,
          "internalType": "uint256",
          "name": "_amount",
          "type": "uint256"
        }
      ],
      "name": "LogMinted",
      "type": "event"
    },
    {
      "anonymous": false,
      "inputs": [
        {
          "indexed": true,
          "internalType": "address",
          "name": "_positionOwner",
          "type": "address"
        },
        {
          "indexed": true,
          "internalType": "bytes32",
          "name": "_derivativeHash",
          "type": "bytes32"
        },
        {
          "indexed": false,
          "internalType": "uint256",
          "name": "_amount",
          "type": "uint256"
        }
      ],
      "name": "LogRedeemed",
      "type": "event"
    },
    {
      "anonymous": false,
      "inputs": [
        {
          "indexed": true,
          "internalType": "address",
          "name": "_changer",
          "type": "address"
        },
        {
          "indexed": true,
          "internalType": "address",
          "name": "_newRegistryAddress",
          "type": "address"
        }
      ],
      "name": "LogRegistryChanged",
      "type": "event"
    },
    {
      "inputs": [
        {
          "internalType": "address[]",
          "name": "_positionsAddresses",
          "type": "address[]"
        },
        {
          "internalType": "uint256[]",
          "name": "_amounts",
          "type": "uint256[]"
        }
      ],
      "name": "cancel",
      "outputs": [],
      "stateMutability": "nonpayable",
      "type": "function"
    },
    {
      "inputs": [
        {
          "internalType": "address",
          "name": "_positionAddress",
          "type": "address"
        },
        {
          "internalType": "uint256",
          "name": "_amount",
          "type": "uint256"
        }
      ],
      "name": "cancel",
      "outputs": [],
      "stateMutability": "nonpayable",
      "type": "function"
    },
    {
      "inputs": [
        {
          "internalType": "address",
          "name": "_tokenAddress",
          "type": "address"
        },
        {
          "internalType": "uint256",
          "name": "_amount",
          "type": "uint256"
        }
      ],
      "name": "claimReserves",
      "outputs": [],
      "stateMutability": "nonpayable",
      "type": "function"
    },
    {
      "inputs": [
        {
          "internalType": "address",
          "name": "_tokenAddress",
          "type": "address"
        }
      ],
      "name": "claimReserves",
      "outputs": [],
      "stateMutability": "nonpayable",
      "type": "function"
    },
    {
      "inputs": [
        {
          "components": [
            {
              "internalType": "uint256",
              "name": "margin",
              "type": "uint256"
            },
            {
              "internalType": "uint256",
              "name": "endTime",
              "type": "uint256"
            },
            {
              "internalType": "uint256[]",
              "name": "params",
              "type": "uint256[]"
            },
            {
              "internalType": "address",
              "name": "oracleId",
              "type": "address"
            },
            {
              "internalType": "address",
              "name": "token",
              "type": "address"
            },
            {
              "internalType": "address",
              "name": "syntheticId",
              "type": "address"
            }
          ],
          "internalType": "struct LibDerivative.Derivative",
          "name": "_derivative",
          "type": "tuple"
        },
        {
          "internalType": "uint256",
          "name": "_amount",
          "type": "uint256"
        },
        {
          "internalType": "address[2]",
          "name": "_positionsOwners",
          "type": "address[2]"
        }
      ],
      "name": "create",
      "outputs": [],
      "stateMutability": "nonpayable",
      "type": "function"
    },
    {
      "inputs": [
        {
          "components": [
            {
              "internalType": "uint256",
              "name": "margin",
              "type": "uint256"
            },
            {
              "internalType": "uint256",
              "name": "endTime",
              "type": "uint256"
            },
            {
              "internalType": "uint256[]",
              "name": "params",
              "type": "uint256[]"
            },
            {
              "internalType": "address",
              "name": "oracleId",
              "type": "address"
            },
            {
              "internalType": "address",
              "name": "token",
              "type": "address"
            },
            {
              "internalType": "address",
              "name": "syntheticId",
              "type": "address"
            }
          ],
          "internalType": "struct LibDerivative.Derivative",
          "name": "_derivative",
          "type": "tuple"
        },
        {
          "internalType": "uint256",
          "name": "_amount",
          "type": "uint256"
        },
        {
          "internalType": "address[2]",
          "name": "_positionsOwners",
          "type": "address[2]"
        }
      ],
      "name": "createAndMint",
      "outputs": [],
      "stateMutability": "nonpayable",
      "type": "function"
    },
    {
      "inputs": [
        {
          "internalType": "address",
          "name": "_positionAddress",
          "type": "address"
        },
        {
          "internalType": "uint256",
          "name": "_amount",
          "type": "uint256"
        }
      ],
      "name": "execute",
      "outputs": [],
      "stateMutability": "nonpayable",
      "type": "function"
    },
    {
      "inputs": [
        {
          "internalType": "address[]",
          "name": "_positionsAddresses",
          "type": "address[]"
        },
        {
          "internalType": "uint256[]",
          "name": "_amounts",
          "type": "uint256[]"
        }
      ],
      "name": "execute",
      "outputs": [],
      "stateMutability": "nonpayable",
      "type": "function"
    },
    {
      "inputs": [
        {
          "internalType": "address",
          "name": "_positionsOwner",
          "type": "address"
        },
        {
          "internalType": "address[]",
          "name": "_positionsAddresses",
          "type": "address[]"
        },
        {
          "internalType": "uint256[]",
          "name": "_amounts",
          "type": "uint256[]"
        }
      ],
      "name": "execute",
      "outputs": [],
      "stateMutability": "nonpayable",
      "type": "function"
    },
    {
      "inputs": [
        {
          "internalType": "address",
          "name": "_positionOwner",
          "type": "address"
        },
        {
          "internalType": "address",
          "name": "_positionAddress",
          "type": "address"
        },
        {
          "internalType": "uint256",
          "name": "_amount",
          "type": "uint256"
        }
      ],
      "name": "execute",
      "outputs": [],
      "stateMutability": "nonpayable",
      "type": "function"
    },
    {
      "inputs": [
        {
          "internalType": "bytes32",
          "name": "_derivativeHash",
          "type": "bytes32"
        }
      ],
      "name": "getDerivativePayouts",
      "outputs": [
        {
          "internalType": "uint256[2]",
          "name": "",
          "type": "uint256[2]"
        }
      ],
      "stateMutability": "view",
      "type": "function"
    },
    {
      "inputs": [
        {
          "internalType": "bytes32",
          "name": "_derivativeHash",
          "type": "bytes32"
        }
      ],
      "name": "getP2pDerivativeVaultFunds",
      "outputs": [
        {
          "internalType": "uint256",
          "name": "",
          "type": "uint256"
        }
      ],
      "stateMutability": "view",
      "type": "function"
    },
    {
      "inputs": [],
      "name": "getProtocolAddresses",
      "outputs": [
        {
          "components": [
            {
              "internalType": "address",
              "name": "core",
              "type": "address"
            },
            {
              "internalType": "address",
              "name": "opiumProxyFactory",
              "type": "address"
            },
            {
              "internalType": "address",
              "name": "oracleAggregator",
              "type": "address"
            },
            {
              "internalType": "address",
              "name": "syntheticAggregator",
              "type": "address"
            },
            {
              "internalType": "address",
              "name": "tokenSpender",
              "type": "address"
            },
            {
              "internalType": "address",
              "name": "protocolExecutionReserveClaimer",
              "type": "address"
            },
            {
              "internalType": "address",
              "name": "protocolRedemptionReserveClaimer",
              "type": "address"
            },
            {
              "internalType": "uint32",
              "name": "__gapOne",
              "type": "uint32"
            },
            {
              "internalType": "uint32",
              "name": "__gapTwo",
              "type": "uint32"
            }
          ],
          "internalType": "struct RegistryEntities.ProtocolAddressesArgs",
          "name": "",
          "type": "tuple"
        }
      ],
      "stateMutability": "view",
      "type": "function"
    },
    {
      "inputs": [],
      "name": "getProtocolParametersArgs",
      "outputs": [
        {
          "components": [
            {
              "internalType": "uint32",
              "name": "noDataCancellationPeriod",
              "type": "uint32"
            },
            {
              "internalType": "uint32",
              "name": "derivativeAuthorExecutionFeeCap",
              "type": "uint32"
            },
            {
              "internalType": "uint32",
              "name": "derivativeAuthorRedemptionReservePart",
              "type": "uint32"
            },
            {
              "internalType": "uint32",
              "name": "protocolExecutionReservePart",
              "type": "uint32"
            },
            {
              "internalType": "uint32",
              "name": "protocolRedemptionReservePart",
              "type": "uint32"
            },
            {
              "internalType": "uint32",
              "name": "__gapOne",
              "type": "uint32"
            },
            {
              "internalType": "uint32",
              "name": "__gapTwo",
              "type": "uint32"
            },
            {
              "internalType": "uint32",
              "name": "__gapThree",
              "type": "uint32"
            }
          ],
          "internalType": "struct RegistryEntities.ProtocolParametersArgs",
          "name": "",
          "type": "tuple"
        }
      ],
      "stateMutability": "view",
      "type": "function"
    },
    {
      "inputs": [],
      "name": "getRegistry",
      "outputs": [
        {
          "internalType": "address",
          "name": "",
          "type": "address"
        }
      ],
      "stateMutability": "view",
      "type": "function"
    },
    {
      "inputs": [
        {
          "internalType": "address",
          "name": "_reseveRecipient",
          "type": "address"
        },
        {
          "internalType": "address",
          "name": "_token",
          "type": "address"
        }
      ],
      "name": "getReservesVaultBalance",
      "outputs": [
        {
          "internalType": "uint256",
          "name": "",
          "type": "uint256"
        }
      ],
      "stateMutability": "view",
      "type": "function"
    },
    {
      "inputs": [
        {
          "internalType": "address",
          "name": "_registry",
          "type": "address"
        }
      ],
      "name": "initialize",
      "outputs": [],
      "stateMutability": "nonpayable",
      "type": "function"
    },
    {
      "inputs": [
        {
          "internalType": "bytes32",
          "name": "_derivativeHash",
          "type": "bytes32"
        }
      ],
      "name": "isDerivativeCancelled",
      "outputs": [
        {
          "internalType": "bool",
          "name": "",
          "type": "bool"
        }
      ],
      "stateMutability": "view",
      "type": "function"
    },
    {
      "inputs": [
        {
          "internalType": "uint256",
          "name": "_amount",
          "type": "uint256"
        },
        {
          "internalType": "address[2]",
          "name": "_positionsAddresses",
          "type": "address[2]"
        },
        {
          "internalType": "address[2]",
          "name": "_positionsOwners",
          "type": "address[2]"
        }
      ],
      "name": "mint",
      "outputs": [],
      "stateMutability": "nonpayable",
      "type": "function"
    },
    {
      "inputs": [
        {
          "internalType": "address[2]",
          "name": "_positionsAddresses",
          "type": "address[2]"
        },
        {
          "internalType": "uint256",
          "name": "_amount",
          "type": "uint256"
        }
      ],
      "name": "redeem",
      "outputs": [],
      "stateMutability": "nonpayable",
      "type": "function"
    },
    {
      "inputs": [
        {
          "internalType": "address[2][]",
          "name": "_positionsAddresses",
          "type": "address[2][]"
        },
        {
          "internalType": "uint256[]",
          "name": "_amounts",
          "type": "uint256[]"
        }
      ],
      "name": "redeem",
      "outputs": [],
      "stateMutability": "nonpayable",
      "type": "function"
    },
    {
      "inputs": [
        {
          "internalType": "address",
          "name": "_registry",
          "type": "address"
        }
      ],
      "name": "setRegistry",
      "outputs": [],
      "stateMutability": "nonpayable",
      "type": "function"
    },
    {
      "inputs": [],
      "name": "updateProtocolAddresses",
      "outputs": [],
      "stateMutability": "nonpayable",
      "type": "function"
    },
    {
      "inputs": [],
      "name": "updateProtocolParametersArgs",
      "outputs": [],
      "stateMutability": "nonpayable",
      "type": "function"
    }
  ],
  "transactionHash": "0x209bc223cb423b939930e2e8c983f034bd0aafc5a37f3bdad26d958e17b95f47",
  "args": [],
  "solcInputHash": "58dbb558cb816b5402f8301bbf18d319",
  "bytecode": "0x608060405234801561001057600080fd5b50614d05806100206000396000f3fe608060405234801561001057600080fd5b50600436106101985760003560e01c8063a91ee0dc116100e3578063d7acb4481161008c578063e4a86da311610066578063e4a86da3146104fe578063e884c9d114610511578063eafaddfd1461052457600080fd5b8063d7acb448146104d0578063dca5a0b7146104e3578063df849d9c146104eb57600080fd5b8063c4d66de8116100bd578063c4d66de814610487578063ca6fd6cb1461049a578063cc15e2d2146104c857600080fd5b8063a91ee0dc14610389578063a95feeb61461039c578063ad9a9f4f1461047457600080fd5b80635d8228131161014557806398590ef91161011f57806398590ef9146102885780639aeea99d1461029b578063a1774da0146102ae57600080fd5b80635d8228131461024f57806372d33582146102625780637f2743c61461027557600080fd5b80634f937afc116101765780634f937afc146101ee578063553500b4146102215780635ab1bd531461023457600080fd5b80633b89bb861461019d57806346c22429146101b25780634ac77ac3146101c5575b600080fd5b6101b06101ab366004613f9f565b610537565b005b6101b06101c0366004613f9f565b610595565b6101d86101d33660046140fe565b61073b565b6040516101e591906147e1565b60405180910390f35b6102116101fc3660046140fe565b6000908152606f602052604090205460ff1690565b60405190151581526020016101e5565b6101b061022f366004613ff6565b610782565b6033546040516001600160a01b0390911681526020016101e5565b6101b061025d366004613f1c565b61086d565b6101b0610270366004613ff6565b610926565b6101b0610283366004614117565b610a05565b6101b0610296366004613f9f565b610be0565b6101b06102a9366004613e68565b610c30565b61037c6040805161012081018252600080825260208201819052918101829052606081018290526080810182905260a0810182905260c0810182905260e081018290526101008101919091525060408051610120810182526067546001600160a01b03908116825260685481166020830152606954811692820192909252606a5482166060820152606b5482166080820152606c54821660a0820152606d5491821660c082015263ffffffff600160a01b8304811660e0830152600160c01b90920490911661010082015290565b6040516101e591906148ac565b6101b0610397366004613e68565b610d5b565b6104676040805161010081018252600080825260208201819052918101829052606081018290526080810182905260a0810182905260c0810182905260e081019190915250604080516101008101825260665463ffffffff8082168352640100000000820481166020840152680100000000000000008204811693830193909352600160601b810483166060830152600160801b810483166080830152600160a01b8104831660a0830152600160c01b8104831660c0830152600160e01b900490911660e082015290565b6040516101e59190614938565b6101b06104823660046144df565b610e60565b6101b0610495366004613e68565b610ef5565b6104ba6104a83660046140fe565b6000908152606e602052604090205490565b6040519081526020016101e5565b6101b0611140565b6101b06104de366004614117565b611389565b6101b06113e6565b6101b06104f9366004613fcb565b611630565b6101b061050c366004614062565b6116a5565b6104ba61051f366004613ea2565b61179f565b6101b0610532366004613edb565b6117cc565b6002600154141561057d5760405162461bcd60e51b815260206004820152601f6024820152600080516020614cb083398151915260448201526064015b60405180910390fd5b600260015561058d338383611819565b505060018055565b600260015414156105d65760405162461bcd60e51b815260206004820152601f6024820152600080516020614cb08339815191526044820152606401610574565b60026001556033546040805163f5e0f84760e01b815290516001600160a01b039092169163f5e0f84791600480820192602092909190829003018186803b15801561062057600080fd5b505afa158015610634573d6000803e3d6000fd5b505050506040513d601f19601f8201168201806040525081019061065891906140e3565b1561068b5760405162461bcd60e51b815260206004820152600360248201526221991960e91b6044820152606401610574565b3360009081526071602090815260408083206001600160a01b0386168452909152902054818110156106e55760405162461bcd60e51b815260206004820152600360248201526243313560e81b6044820152606401610574565b3360009081526071602090815260408083206001600160a01b038716845290915281208054849290610718908490614acf565b9091555061073290506001600160a01b0384163384611ba2565b50506001805550565b610743613d4c565b600082815260706020526040908190208151808301928390529160029082845b8154815260200190600101908083116107635750505050509050919050565b600260015414156107c35760405162461bcd60e51b815260206004820152601f6024820152600080516020614cb08339815191526044820152606401610574565b60026001558281146107fc5760405162461bcd60e51b8152602060048201526002602482015261433160f01b6044820152606401610574565b60005b83811015610862576108503386868481811061081d5761081d614c6e565b90506020020160208101906108329190613e68565b85858581811061084457610844614c6e565b90506020020135611819565b8061085a81614bfd565b9150506107ff565b505060018055505050565b600260015414156108ae5760405162461bcd60e51b815260206004820152601f6024820152600080516020614cb08339815191526044820152606401610574565b60026001558281146108e75760405162461bcd60e51b8152602060048201526002602482015261433160f01b6044820152606401610574565b60005b8381101561091a576109088686868481811061081d5761081d614c6e565b8061091281614bfd565b9150506108ea565b50506001805550505050565b600260015414156109675760405162461bcd60e51b815260206004820152601f6024820152600080516020614cb08339815191526044820152606401610574565b60026001558281146109a05760405162461bcd60e51b8152602060048201526002602482015261433160f01b6044820152606401610574565b60005b83811015610862576109f38585838181106109c0576109c0614c6e565b90506020020160208101906109d59190613e68565b8484848181106109e7576109e7614c6e565b90506020020135611bf9565b806109fd81614bfd565b9150506109a3565b60026001541415610a465760405162461bcd60e51b815260206004820152601f6024820152600080516020614cb08339815191526044820152606401610574565b60026001556000610a5e610a5985614ae6565b612124565b90506000606760010160009054906101000a90046001600160a01b03166001600160a01b0316630cbcae706040518163ffffffff1660e01b815260040160206040518083038186803b158015610ab357600080fd5b505afa158015610ac7573d6000803e3d6000fd5b505050506040513d601f19601f82011682018060405250810190610aeb9190613e85565b6068549091506000908190610b0f90859060019086906001600160a01b0316612171565b60685491935091506000908190610b34908790839088906001600160a01b0316612171565b9150915080151583151514610b715760405162461bcd60e51b815260206004820152600360248201526243323360e81b6044820152606401610574565b82610b8757610b8289878a8a612192565b610bd1565b6040805180820182526001600160a01b0380871682528416602082015281518083018352610bd1928b9291908b9060029083908390808284376000920191909152506126b9915050565b50506001805550505050505050565b60026001541415610c215760405162461bcd60e51b815260206004820152601f6024820152600080516020614cb08339815191526044820152606401610574565b600260015561058d8282611bf9565b60026001541415610c715760405162461bcd60e51b815260206004820152601f6024820152600080516020614cb08339815191526044820152606401610574565b60026001556033546040805163f5e0f84760e01b815290516001600160a01b039092169163f5e0f84791600480820192602092909190829003018186803b158015610cbb57600080fd5b505afa158015610ccf573d6000803e3d6000fd5b505050506040513d601f19601f82011682018060405250810190610cf391906140e3565b15610d265760405162461bcd60e51b815260206004820152600360248201526221991960e91b6044820152606401610574565b3360008181526071602090815260408083206001600160a01b038616808552925282208054929055909161058d919083611ba2565b603354604051634048d90960e01b81523360048201526001600160a01b0390911690634048d9099060240160206040518083038186803b158015610d9e57600080fd5b505afa158015610db2573d6000803e3d6000fd5b505050506040513d601f19601f82011682018060405250810190610dd691906140e3565b610e075760405162461bcd60e51b81526020600482015260026024820152614d3160f01b6044820152606401610574565b6033805473ffffffffffffffffffffffffffffffffffffffff19166001600160a01b03831690811790915560405133907fec10a16af385903532506d1567380fd8d93d880e8ed4bcacc42b0848e781406a90600090a350565b60026001541415610ea15760405162461bcd60e51b815260206004820152601f6024820152600080516020614cb08339815191526044820152606401610574565b600260018190556040805180820182526107329286928691908390839080828437600092019190915250506040805180820182529150859060029083908390808284376000920191909152506126b9915050565b600054610100900460ff1680610f0e575060005460ff16155b610f715760405162461bcd60e51b815260206004820152602e60248201527f496e697469616c697a61626c653a20636f6e747261637420697320616c72656160448201526d191e481a5b9a5d1a585b1a5e995960921b6064820152608401610574565b600054610100900460ff16158015610f93576000805461ffff19166101011790555b610f9c82612ccd565b610fa4612de9565b816001600160a01b031663c58aad876040518163ffffffff1660e01b81526004016101006040518083038186803b158015610fde57600080fd5b505afa158015610ff2573d6000803e3d6000fd5b505050506040513d601f19601f820116820180604052508101906110169190614384565b805160668054602084015160408501516060860151608087015160a088015160c089015160e09099015163ffffffff908116600160e01b026001600160e01b039a8216600160c01b029a909a1677ffffffffffffffffffffffffffffffffffffffffffffffff928216600160a01b0263ffffffff60a01b19948316600160801b029490941667ffffffffffffffff60801b19958316600160601b026fffffffff000000000000000000000000199784166801000000000000000002979097166fffffffffffffffff0000000000000000199884166401000000000267ffffffffffffffff19909a1693909b1692909217979097179590951697909717929092171691909117179290921691909117919091179055801561113c576000805461ff00191690555b5050565b60335460405163698ef99360e01b81523360048201526001600160a01b039091169063698ef9939060240160206040518083038186803b15801561118357600080fd5b505afa158015611197573d6000803e3d6000fd5b505050506040513d601f19601f820116820180604052508101906111bb91906140e3565b6111ec5760405162461bcd60e51b8152602060048201526002602482015261269960f11b6044820152606401610574565b603360009054906101000a90046001600160a01b03166001600160a01b031663c58aad876040518163ffffffff1660e01b81526004016101006040518083038186803b15801561123b57600080fd5b505afa15801561124f573d6000803e3d6000fd5b505050506040513d601f19601f820116820180604052508101906112739190614384565b805160668054602084015160408501516060860151608087015160a088015160c089015160e09099015163ffffffff908116600160e01b026001600160e01b039a8216600160c01b029a909a1677ffffffffffffffffffffffffffffffffffffffffffffffff928216600160a01b0263ffffffff60a01b19948316600160801b029490941667ffffffffffffffff60801b19958316600160601b026fffffffff000000000000000000000000199784166801000000000000000002979097166fffffffffffffffff0000000000000000199884166401000000000267ffffffffffffffff19909a1693909b1692909217979097179590951697909717929092171691909117179290921691909117919091179055565b600260015414156113ca5760405162461bcd60e51b815260206004820152601f6024820152600080516020614cb08339815191526044820152606401610574565b6002600155610732836113df610a5982614ae6565b8484612192565b60335460405163698ef99360e01b81523360048201526001600160a01b039091169063698ef9939060240160206040518083038186803b15801561142957600080fd5b505afa15801561143d573d6000803e3d6000fd5b505050506040513d601f19601f8201168201806040525081019061146191906140e3565b6114925760405162461bcd60e51b8152602060048201526002602482015261269960f11b6044820152606401610574565b603360009054906101000a90046001600160a01b03166001600160a01b031663a1774da06040518163ffffffff1660e01b81526004016101206040518083038186803b1580156114e157600080fd5b505afa1580156114f5573d6000803e3d6000fd5b505050506040513d601f19601f8201168201806040525081019061151991906142ce565b80516067805473ffffffffffffffffffffffffffffffffffffffff199081166001600160a01b0393841617909155602083015160688054831691841691909117905560408301516069805483169184169190911790556060830151606a805483169184169190911790556080830151606b8054831691841691909117905560a0830151606c805490921690831617905560c0820151606d805460e085015161010090950151929093167fffffffffffffffff00000000000000000000000000000000000000000000000090931692909217600160a01b63ffffffff94851602177fffffffff00000000ffffffffffffffffffffffffffffffffffffffffffffffff16600160c01b9390911692909202919091179055565b600260015414156116715760405162461bcd60e51b815260206004820152601f6024820152600080516020614cb08339815191526044820152606401610574565b6002600181905560408051808201825261058d9290918591908390839080828437600092019190915250849150612ea49050565b600260015414156116e65760405162461bcd60e51b815260206004820152601f6024820152600080516020614cb08339815191526044820152606401610574565b600260015582811461171f5760405162461bcd60e51b8152602060048201526002602482015261433160f01b6044820152606401610574565b60005b838110156108625761178d85858381811061173f5761173f614c6e565b90506040020160028060200260405190810160405280929190826002602002808284376000920191909152508691508590508481811061178157611781614c6e565b90506020020135612ea4565b8061179781614bfd565b915050611722565b6001600160a01b038083166000908152607160209081526040808320938516835292905220545b92915050565b6002600154141561180d5760405162461bcd60e51b815260206004820152601f6024820152600080516020614cb08339815191526044820152606401610574565b60026001556107328383835b603360009054906101000a90046001600160a01b03166001600160a01b031663c823b5db6040518163ffffffff1660e01b815260040160206040518083038186803b15801561186757600080fd5b505afa15801561187b573d6000803e3d6000fd5b505050506040513d601f19601f8201168201806040525081019061189f91906140e3565b156118d25760405162461bcd60e51b815260206004820152600360248201526204332360ec1b6044820152606401610574565b6000826001600160a01b031663ce21286d6040518163ffffffff1660e01b815260040160006040518083038186803b15801561190d57600080fd5b505afa158015611921573d6000803e3d6000fd5b505050506040513d6000823e601f3d908101601f191682016040526119499190810190614174565b9050611955838261332b565b6040808201516000908152606f602052205460ff161561199c5760405162461bcd60e51b8152602060048201526002602482015261433760f01b6044820152606401610574565b8051602001514210156119d75760405162461bcd60e51b815260206004820152600360248201526204331360ec1b6044820152606401610574565b6001600160a01b038416331480611a695750805160a00151604051631e44861d60e31b81526001600160a01b0386811660048301529091169063f22430e89060240160206040518083038186803b158015611a3157600080fd5b505afa158015611a45573d6000803e3d6000fd5b505050506040513d601f19601f82011682018060405250810190611a6991906140e3565b611a9b5760405162461bcd60e51b815260206004820152600360248201526243313160e81b6044820152606401610574565b606854604051633dae446f60e21b81526001600160a01b0386811660048301528581166024830152604482018590529091169063f6b911bc90606401600060405180830381600087803b158015611af157600080fd5b505af1158015611b05573d6000803e3d6000fd5b5050606a5460695460009350611b2c9250849186916001600160a01b039182169116613434565b90508015611b4e57815160800151611b4e906001600160a01b03168683611ba2565b836001600160a01b0316856001600160a01b03167fe7f87f0b9d521ac925b66f1e1599d5389bf92e298a6cbf0750f68d5beffed1a685604051611b9391815260200190565b60405180910390a35050505050565b604080516001600160a01b038416602482015260448082018490528251808303909101815260649091019091526020810180516001600160e01b031663a9059cbb60e01b179052611bf4908490613785565b505050565b603360009054906101000a90046001600160a01b03166001600160a01b0316634e562cbb6040518163ffffffff1660e01b815260040160206040518083038186803b158015611c4757600080fd5b505afa158015611c5b573d6000803e3d6000fd5b505050506040513d601f19601f82011682018060405250810190611c7f91906140e3565b15611cb25760405162461bcd60e51b815260206004820152600360248201526243323160e81b6044820152606401610574565b6000826001600160a01b031663ce21286d6040518163ffffffff1660e01b815260040160006040518083038186803b158015611ced57600080fd5b505afa158015611d01573d6000803e3d6000fd5b505050506040513d6000823e601f3d908101601f19168201604052611d299190810190614174565b9050611d35838261332b565b6040808201516000908152606f602052205460ff16611eec578051606001516001600160a01b0316611d8e5760405162461bcd60e51b8152602060048201526002602482015261219b60f11b6044820152606401610574565b6066548151602001514291611dab9163ffffffff90911690614a84565b1115611ddf5760405162461bcd60e51b815260206004820152600360248201526243313360e81b6044820152606401610574565b6069548151606081015160209091015160405163c8384d2f60e01b81526001600160a01b039283166004820152602481019190915291169063c8384d2f9060440160206040518083038186803b158015611e3857600080fd5b505afa158015611e4c573d6000803e3d6000fd5b505050506040513d601f19601f82011682018060405250810190611e7091906140e3565b15611ea35760405162461bcd60e51b815260206004820152600360248201526243313360e81b6044820152606401610574565b604080820180516000908152606f602052828120805460ff191660011790559051915133917f0eebb9e336ae26031f3bedd462ffab2102cba74395b046ff8dcfc9ecbf1e7bca91a35b6000600182602001516001811115611f0657611f06614c58565b1415611fab57606a54604080840151845191516308d52f0760e41b81526000936001600160a01b031692638d52f07092611f459290919060040161482b565b6040805180830381600087803b158015611f5e57600080fd5b505af1158015611f72573d6000803e3d6000fd5b505050506040513d601f19601f82011682018060405250810190611f969190614514565b509050611fa3818561386a565b915050612047565b606a54604080840151845191516308d52f0760e41b81526000936001600160a01b031692638d52f07092611fe49290919060040161482b565b6040805180830381600087803b158015611ffd57600080fd5b505af1158015612011573d6000803e3d6000fd5b505050506040513d601f19601f820116820180604052508101906120359190614514565b91506120439050818561386a565b9150505b612055826040015182613890565b606854604051633dae446f60e21b81523360048201526001600160a01b038681166024830152604482018690529091169063f6b911bc90606401600060405180830381600087803b1580156120a957600080fd5b505af11580156120bd573d6000803e3d6000fd5b5050505060008111156120e4578151608001516120e4906001600160a01b03163383611ba2565b604080830151905184815233907fd07fdd78e4cc0e5509d86fabf263fbcd1113f9b43fd927f6631b0c13bd18a00c9060200160405180910390a350505050565b80516020808301516040808501516060860151608087015160a08801519351600097612154979096959101614738565b604051602081830303815290604052805190602001209050919050565b6000806000612182878787876138fa565b97883b1515975095505050505050565b836020013542106121cb5760405162461bcd60e51b815260206004820152600360248201526221989b60e91b6044820152606401610574565b603360009054906101000a90046001600160a01b03166001600160a01b031663fbc422f66040518163ffffffff1660e01b815260040160206040518083038186803b15801561221957600080fd5b505afa15801561222d573d6000803e3d6000fd5b505050506040513d601f19601f8201168201806040525081019061225191906140e3565b156122845760405162461bcd60e51b815260206004820152600360248201526243313760e81b6044820152606401610574565b61229460c0850160a08601613e68565b6001600160a01b0316633a6f60a9856040518263ffffffff1660e01b81526004016122bf9190614877565b60206040518083038186803b1580156122d757600080fd5b505afa1580156122eb573d6000803e3d6000fd5b505050506040513d601f19601f8201168201806040525081019061230f91906140e3565b6123405760405162461bcd60e51b8152602060048201526002602482015261086760f31b6044820152606401610574565b612348613d4c565b606a546040516308d52f0760e41b81526001600160a01b0390911690638d52f0709061237a9087908990600401614812565b6040805180830381600087803b15801561239357600080fd5b505af11580156123a7573d6000803e3d6000fd5b505050506040513d601f19601f820116820180604052508101906123cb9190614514565b602083018190528183526000916123e29190614a84565b90506123f66123f18583614ab0565b6139ea565b156124285760405162461bcd60e51b8152602060048201526002602482015261433560f01b6044820152606401610574565b6000612434828661386a565b90508061244760a0890160808a01613e68565b606b54604051636eb1769f60e11b81523360048201526001600160a01b03918216602482015291169063dd62ed3e9060440160206040518083038186803b15801561249157600080fd5b505afa1580156124a5573d6000803e3d6000fd5b505050506040513d601f19601f820116820180604052508101906124c991906144c6565b10156124fd5760405162461bcd60e51b815260206004820152600360248201526221989960e91b6044820152606401610574565b61250786826139fe565b606b546001600160a01b0316630a5ea46661252860a08a0160808b01613e68565b6040517fffffffff0000000000000000000000000000000000000000000000000000000060e084901b1681526001600160a01b03909116600482015233602482015230604482015260648101849052608401600060405180830381600087803b15801561259457600080fd5b505af11580156125a8573d6000803e3d6000fd5b50506068546001600160a01b03169150639873dba990506125cc6020870187613e68565b6125dc6040880160208901613e68565b888a8c6040518663ffffffff1660e01b81526004016125ff9594939291906147a9565b600060405180830381600087803b15801561261957600080fd5b505af115801561262d573d6000803e3d6000fd5b50505050858460016002811061264557612645614c6e565b6020020160208101906126589190613e68565b6001600160a01b031661266e6020870187613e68565b6001600160a01b03167fed55db682403ff79a20059d95317cb2e4f4d322b5b4d062ca27c10de39bdcae4886040516126a891815260200190565b60405180910390a450505050505050565b603360009054906101000a90046001600160a01b03166001600160a01b031663dd1eb52c6040518163ffffffff1660e01b815260040160206040518083038186803b15801561270757600080fd5b505afa15801561271b573d6000803e3d6000fd5b505050506040513d601f19601f8201168201806040525081019061273f91906140e3565b156127725760405162461bcd60e51b815260206004820152600360248201526208662760eb1b6044820152606401610574565b6000828160200201516001600160a01b031663ce21286d6040518163ffffffff1660e01b815260040160006040518083038186803b1580156127b357600080fd5b505afa1580156127c7573d6000803e3d6000fd5b505050506040513d6000823e601f3d908101601f191682016040526127ef9190810190614174565b9050600083600160200201516001600160a01b031663ce21286d6040518163ffffffff1660e01b815260040160006040518083038186803b15801561283357600080fd5b505afa158015612847573d6000803e3d6000fd5b505050506040513d6000823e601f3d908101601f1916820160405261286f9190810190614174565b90506128838460005b60200201518361332b565b6128958460015b60200201518261332b565b81604001518160400151146128d15760405162461bcd60e51b8152602060048201526002602482015261219960f11b6044820152606401610574565b6001826020015160018111156128e9576128e9614c58565b1461291b5760405162461bcd60e51b8152602060048201526002602482015261433360f01b6044820152606401610574565b60008160200151600181111561293357612933614c58565b146129655760405162461bcd60e51b8152602060048201526002602482015261433360f01b6044820152606401610574565b815160200151421061299f5760405162461bcd60e51b815260206004820152600360248201526221989b60e91b6044820152606401610574565b6129a7613d4c565b606a54604080850151855191516308d52f0760e41b81526001600160a01b0390931692638d52f070926129dd929160040161482b565b6040805180830381600087803b1580156129f657600080fd5b505af1158015612a0a573d6000803e3d6000fd5b505050506040513d601f19601f82011682018060405250810190612a2e9190614514565b60208301819052818352600091612a459190614a84565b9050612a546123f18883614ab0565b15612a865760405162461bcd60e51b8152602060048201526002602482015261433560f01b6044820152606401610574565b6000612a92828961386a565b855160800151606b54604051636eb1769f60e11b81523360048201526001600160a01b039182166024820152929350839291169063dd62ed3e9060440160206040518083038186803b158015612ae757600080fd5b505afa158015612afb573d6000803e3d6000fd5b505050506040513d601f19601f82011682018060405250810190612b1f91906144c6565b1015612b535760405162461bcd60e51b815260206004820152600360248201526221989960e91b6044820152606401610574565b612b618560400151826139fe565b606b5485516080015160405163052f523360e11b81526001600160a01b03918216600482015233602482015230604482015260648101849052911690630a5ea46690608401600060405180830381600087803b158015612bc057600080fd5b505af1158015612bd4573d6000803e3d6000fd5b505060685488516020808b01518c51918d01516040516347704dbd60e01b81526001600160a01b039485166004820152918416602483015291831660448201529082166064820152608481018d9052911692506347704dbd915060a401600060405180830381600087803b158015612c4b57600080fd5b505af1158015612c5f573d6000803e3d6000fd5b50505050604085015186600160200201516001600160a01b031687600060200201516001600160a01b03167fa30ccd8346a5af0c1bc132bb36cd047e4aa428d028231aba6802e45bc4d172a58b604051612cbb91815260200190565b60405180910390a45050505050505050565b600054610100900460ff1680612ce6575060005460ff16155b612d495760405162461bcd60e51b815260206004820152602e60248201527f496e697469616c697a61626c653a20636f6e747261637420697320616c72656160448201526d191e481a5b9a5d1a585b1a5e995960921b6064820152608401610574565b600054610100900460ff16158015612d6b576000805461ffff19166101011790555b6001600160a01b038216612d7e57600080fd5b6033805473ffffffffffffffffffffffffffffffffffffffff19166001600160a01b03841690811790915560405133907fec10a16af385903532506d1567380fd8d93d880e8ed4bcacc42b0848e781406a90600090a3801561113c576000805461ff00191690555050565b600054610100900460ff1680612e02575060005460ff16155b612e655760405162461bcd60e51b815260206004820152602e60248201527f496e697469616c697a61626c653a20636f6e747261637420697320616c72656160448201526d191e481a5b9a5d1a585b1a5e995960921b6064820152608401610574565b600054610100900460ff16158015612e87576000805461ffff19166101011790555b612e8f613a1c565b8015612ea1576000805461ff00191690555b50565b603360009054906101000a90046001600160a01b03166001600160a01b031663f10827e06040518163ffffffff1660e01b815260040160206040518083038186803b158015612ef257600080fd5b505afa158015612f06573d6000803e3d6000fd5b505050506040513d601f19601f82011682018060405250810190612f2a91906140e3565b15612f5d5760405162461bcd60e51b815260206004820152600360248201526243313960e81b6044820152606401610574565b6000828160200201516001600160a01b031663ce21286d6040518163ffffffff1660e01b815260040160006040518083038186803b158015612f9e57600080fd5b505afa158015612fb2573d6000803e3d6000fd5b505050506040513d6000823e601f3d908101601f19168201604052612fda9190810190614174565b9050600083600160200201516001600160a01b031663ce21286d6040518163ffffffff1660e01b815260040160006040518083038186803b15801561301e57600080fd5b505afa158015613032573d6000803e3d6000fd5b505050506040513d6000823e601f3d908101601f1916820160405261305a9190810190614174565b9050613067846000612878565b61307284600161288a565b81604001518160400151146130ae5760405162461bcd60e51b8152602060048201526002602482015261219960f11b6044820152606401610574565b6001826020015160018111156130c6576130c6614c58565b146130f85760405162461bcd60e51b8152602060048201526002602482015261433360f01b6044820152606401610574565b60008160200151600181111561311057613110614c58565b146131425760405162461bcd60e51b8152602060048201526002602482015261433360f01b6044820152606401610574565b606a546040808301518351915163a28702f160e01b81526000936001600160a01b03169263a28702f19261317b9290919060040161482b565b60a060405180830381600087803b15801561319557600080fd5b505af11580156131a9573d6000803e3d6000fd5b505050506040513d601f19601f820116820180604052508101906131cd9190614449565b905060006131ef85836020015184600001516131e99190614a84565b9061386a565b6060830151845160800151606d546066549394506000936132389392916001600160a01b03169063ffffffff680100000000000000008204811691600160801b90041687613ad2565b9050613248846040015183613890565b60685487516020890151604051636ade6d1960e01b81523360048201526001600160a01b039283166024820152908216604482015260648101899052911690636ade6d1990608401600060405180830381600087803b1580156132aa57600080fd5b505af11580156132be573d6000803e3d6000fd5b505050506132e83382846132d29190614acf565b8651608001516001600160a01b03169190611ba2565b604080850151905187815233907f8f0329a95509d4de040892b232f60d694b862b6a18f929f332f3bf24d33cb69c9060200160405180910390a350505050505050565b60006133eb60018360200151600181111561334857613348614c58565b14606760010160009054906101000a90046001600160a01b03166001600160a01b0316630cbcae706040518163ffffffff1660e01b815260040160206040518083038186803b15801561339a57600080fd5b505afa1580156133ae573d6000803e3d6000fd5b505050506040513d601f19601f820116820180604052508101906133d29190613e85565b60685460408601519291906001600160a01b0316613ba6565b9050806001600160a01b0316836001600160a01b031614611bf45760405162461bcd60e51b815260206004820152600360248201526210cc4d60ea1b6044820152606401610574565b600080600061345b8760400151600090815260706020526040902080546001909101549091565b9150915081600014801561346d575080155b156135eb578651606001516000906001600160a01b0316156135295787516060810151602090910151604051632979d02560e01b81526001600160a01b03881692632979d025926134d4926004016001600160a01b03929092168252602082015260400190565b60206040518083038186803b1580156134ec57600080fd5b505afa158015613500573d6000803e3d6000fd5b505050506040513d601f19601f8201168201806040525081019061352491906144c6565b61352c565b60005b885160a081015160405163dd0060fd60e01b81529293506001600160a01b03169163dd0060fd9161356191859060040161488a565b604080518083038186803b15801561357857600080fd5b505afa15801561358c573d6000803e3d6000fd5b505050506040513d601f19601f820116820180604052508101906135b09190614514565b60408051808201825283815260208082018490528c83015160009081526070909152919091209295509093506135e891906002613d6a565b50505b6040808801518851915163a28702f160e01b81526000926001600160a01b0389169263a28702f192613620929060040161482b565b60a060405180830381600087803b15801561363a57600080fd5b505af115801561364e573d6000803e3d6000fd5b505050506040513d601f19601f820116820180604052508101906136729190614449565b9050600060018960200151600181111561368e5761368e614c58565b14156136de576136c8886136a28587614a84565b6020850151855188916136b491614a84565b6136be9190614ab0565b6131e99190614a9c565b82519095506136d7908961386a565b9050613713565b6136fe886136ec8587614a84565b6020850151855187916136b491614a84565b6020830151909550613710908961386a565b90505b613721896040015186613890565b80851115613779576060820151895160800151606c54604085015160665461376c9493926001600160a01b03169190600160601b900463ffffffff16613767878c614acf565b613ad2565b6137769086614acf565b94505b50505050949350505050565b60006137da826040518060400160405280602081526020017f5361666545524332303a206c6f772d6c6576656c2063616c6c206661696c6564815250856001600160a01b0316613bbd9092919063ffffffff16565b805190915015611bf457808060200190518101906137f891906140e3565b611bf45760405162461bcd60e51b815260206004820152602a60248201527f5361666545524332303a204552433230206f7065726174696f6e20646964206e60448201527f6f742073756363656564000000000000000000000000000000000000000000006064820152608401610574565b6000670de0b6b3a764000061387f8385614ab0565b6138899190614a9c565b9392505050565b6000828152606e60205260409020548111156138d35760405162461bcd60e51b8152602060048201526002602482015261433960f01b6044820152606401610574565b6000828152606e6020526040812080548392906138f1908490614acf565b90915550505050565b600080858561392257604051806040016040528060018152602001605360f81b81525061393d565b604051806040016040528060018152602001601360fa1b8152505b60405160200161394e9291906146f6565b6040516020818303038152906040528051906020012090506139e08482856040517f3d602d80600a3d3981f3363d3d373d3d3d363d730000000000000000000000008152606093841b60148201527f5af43d82803e903d91602b57fd5bf3ff000000000000000000000000000000006028820152921b6038830152604c8201526037808220606c830152605591012090565b9695505050505050565b60006117c6670de0b6b3a764000083614c18565b6000828152606e6020526040812080548392906138f1908490614a84565b600054610100900460ff1680613a35575060005460ff16155b613a985760405162461bcd60e51b815260206004820152602e60248201527f496e697469616c697a61626c653a20636f6e747261637420697320616c72656160448201526d191e481a5b9a5d1a585b1a5e995960921b6064820152608401610574565b600054610100900460ff16158015613aba576000805461ffff19166101011790555b600180558015612ea1576000805461ff001916905550565b6000612710613ae18584614ab0565b613aeb9190614a9c565b905080613afa575060006139e0565b6000612710613b098584614ab0565b613b139190614a9c565b6001600160a01b038088166000908152607160209081526040808320938c16835292905290812080549293508392909190613b4f908490614a84565b90915550613b5f90508183614acf565b6001600160a01b03808a166000908152607160209081526040808320938c1683529290529081208054909190613b96908490614a84565b9091555050509695505050505050565b6000613bb4858585856138fa565b95945050505050565b6060613bcc8484600085613bd4565b949350505050565b606082471015613c4c5760405162461bcd60e51b815260206004820152602660248201527f416464726573733a20696e73756666696369656e742062616c616e636520666f60448201527f722063616c6c00000000000000000000000000000000000000000000000000006064820152608401610574565b843b613c9a5760405162461bcd60e51b815260206004820152601d60248201527f416464726573733a2063616c6c20746f206e6f6e2d636f6e74726163740000006044820152606401610574565b600080866001600160a01b03168587604051613cb6919061471c565b60006040518083038185875af1925050503d8060008114613cf3576040519150601f19603f3d011682016040523d82523d6000602084013e613cf8565b606091505b5091509150613d08828286613d13565b979650505050505050565b60608315613d22575081613889565b825115613d325782518084602001fd5b8160405162461bcd60e51b81526004016105749190614844565b60405180604001604052806002906020820280368337509192915050565b8260028101928215613d98579160200282015b82811115613d98578251825591602001919060010190613d7d565b50613da4929150613da8565b5090565b5b80821115613da45760008155600101613da9565b8035613dc881614c9a565b919050565b8051613dc881614c9a565b80604081018310156117c657600080fd5b60008083601f840112613dfb57600080fd5b50813567ffffffffffffffff811115613e1357600080fd5b6020830191508360208260051b8501011115613e2e57600080fd5b9250929050565b80518015158114613dc857600080fd5b805160028110613dc857600080fd5b805163ffffffff81168114613dc857600080fd5b600060208284031215613e7a57600080fd5b813561388981614c9a565b600060208284031215613e9757600080fd5b815161388981614c9a565b60008060408385031215613eb557600080fd5b8235613ec081614c9a565b91506020830135613ed081614c9a565b809150509250929050565b600080600060608486031215613ef057600080fd5b8335613efb81614c9a565b92506020840135613f0b81614c9a565b929592945050506040919091013590565b600080600080600060608688031215613f3457600080fd5b8535613f3f81614c9a565b9450602086013567ffffffffffffffff80821115613f5c57600080fd5b613f6889838a01613de9565b90965094506040880135915080821115613f8157600080fd5b50613f8e88828901613de9565b969995985093965092949392505050565b60008060408385031215613fb257600080fd5b8235613fbd81614c9a565b946020939093013593505050565b60008060608385031215613fde57600080fd5b613fe88484613dd8565b946040939093013593505050565b6000806000806040858703121561400c57600080fd5b843567ffffffffffffffff8082111561402457600080fd5b61403088838901613de9565b9096509450602087013591508082111561404957600080fd5b5061405687828801613de9565b95989497509550505050565b6000806000806040858703121561407857600080fd5b843567ffffffffffffffff8082111561409057600080fd5b818701915087601f8301126140a457600080fd5b8135818111156140b357600080fd5b8860208260061b85010111156140c857600080fd5b60209283019650945090860135908082111561404957600080fd5b6000602082840312156140f557600080fd5b61388982613e35565b60006020828403121561411057600080fd5b5035919050565b60008060006080848603121561412c57600080fd5b833567ffffffffffffffff81111561414357600080fd5b840160c0818703121561415557600080fd5b92506020840135915061416b8560408601613dd8565b90509250925092565b6000602080838503121561418757600080fd5b825167ffffffffffffffff8082111561419f57600080fd5b90840190606082870312156141b357600080fd5b6141bb6149bf565b8251828111156141ca57600080fd5b830160c081890312156141dc57600080fd5b6141e46149e8565b81518152858201518682015260408201518481111561420257600080fd5b82019350601f8401891361421557600080fd5b835161422861422382614a60565b614a2f565b8082825288820191508887018c8a8560051b8a0101111561424857600080fd5b600097505b8388101561426b57805183526001979097019691890191890161424d565b50604084015250614280905060608301613dcd565b606082015261429160808301613dcd565b60808201526142a260a08301613dcd565b60a08201528252506142b5838501613e45565b9381019390935250604090810151908201529392505050565b600061012082840312156142e157600080fd5b6142e9614a0b565b6142f283613dcd565b815261430060208401613dcd565b602082015261431160408401613dcd565b604082015261432260608401613dcd565b606082015261433360808401613dcd565b608082015261434460a08401613dcd565b60a082015261435560c08401613dcd565b60c082015261436660e08401613e54565b60e0820152610100614379818501613e54565b908201529392505050565b600061010080838503121561439857600080fd5b6040519081019067ffffffffffffffff821181831017156143bb576143bb614c84565b816040526143c884613e54565b81526143d660208501613e54565b60208201526143e760408501613e54565b60408201526143f860608501613e54565b606082015261440960808501613e54565b608082015261441a60a08501613e54565b60a082015261442b60c08501613e54565b60c082015261443c60e08501613e54565b60e0820152949350505050565b600060a0828403121561445b57600080fd5b60405160a0810181811067ffffffffffffffff8211171561447e5761447e614c84565b806040525082518152602083015160208201526040830151604082015260608301516144a981614c9a565b60608201526144ba60808401613e35565b60808201529392505050565b6000602082840312156144d857600080fd5b5051919050565b600080600060a084860312156144f457600080fd5b833592506145058560208601613dd8565b915061416b8560608601613dd8565b6000806040838503121561452757600080fd5b505080516020909101519092909150565b81835260007f07ffffffffffffffffffffffffffffffffffffffffffffffffffffffffffffff83111561456a57600080fd5b8260051b8083602087013760009401602001938452509192915050565b803582526020810135602083015260006040820135601e198336030181126145ae57600080fd5b8201803567ffffffffffffffff8111156145c757600080fd5b8060051b36038413156145d957600080fd5b60c060408601526145f160c086018260208501614538565b91505061460060608401613dbd565b6001600160a01b0316606085015261461a60808401613dbd565b6001600160a01b0316608085015261463460a08401613dbd565b6001600160a01b03811660a0860152509392505050565b600060c083018251845260208084015181860152604084015160c0604087015282815180855260e0880191508383019450600092505b808310156146a15784518252938301936001929092019190830190614681565b50606086015193506146be60608801856001600160a01b03169052565b608086015193506146da60808801856001600160a01b03169052565b60a086015193506139e060a08801856001600160a01b03169052565b8281526000825161470e816020850160208701614bcd565b919091016020019392505050565b6000825161472e818460208701614bcd565b9190910192915050565b86815260006020878184015260408301875182890160005b8281101561476c57815184529284019290840190600101614750565b5050506bffffffffffffffffffffffff19606097881b8116825295871b861660148201529390951b909316602883015250603c0195945050505050565b60006001600160a01b03808816835280871660208401525084604083015283606083015260a06080830152613d0860a0830184614587565b60408101818360005b60028110156148095781518352602092830192909101906001016147ea565b50505092915050565b828152604060208201526000613bcc6040830184614587565b828152604060208201526000613bcc604083018461464b565b6020815260008251806020840152614863816040850160208701614bcd565b601f01601f19169190910160400192915050565b6020815260006138896020830184614587565b60408152600061489d604083018561464b565b90508260208301529392505050565b81516001600160a01b03908116825260208084015182169083015260408084015182169083015260608084015182169083015260808084015182169083015260a08084015182169083015260c080840151918216908301526101208201905060e083015161492260e084018263ffffffff169052565b506101009283015163ffffffff16919092015290565b60006101008201905063ffffffff8084511683528060208501511660208401528060408501511660408401528060608501511660608401528060808501511660808401528060a08501511660a08401525060c08301516149a060c084018263ffffffff169052565b5060e08301516149b860e084018263ffffffff169052565b5092915050565b6040516060810167ffffffffffffffff811182821017156149e2576149e2614c84565b60405290565b60405160c0810167ffffffffffffffff811182821017156149e2576149e2614c84565b604051610120810167ffffffffffffffff811182821017156149e2576149e2614c84565b604051601f8201601f1916810167ffffffffffffffff81118282101715614a5857614a58614c84565b604052919050565b600067ffffffffffffffff821115614a7a57614a7a614c84565b5060051b60200190565b60008219821115614a9757614a97614c2c565b500190565b600082614aab57614aab614c42565b500490565b6000816000190483118215151615614aca57614aca614c2c565b500290565b600082821015614ae157614ae1614c2c565b500390565b600060c08236031215614af857600080fd5b614b006149e8565b8235815260208084013581830152604084013567ffffffffffffffff811115614b2857600080fd5b840136601f820112614b3957600080fd5b8035614b4761422382614a60565b8181528381019083850136600585901b860187011115614b6657600080fd5b600094505b83851015614b89578035835260019490940193918501918501614b6b565b50604086015250614ba09250505060608401613dbd565b6060820152614bb160808401613dbd565b6080820152614bc260a08401613dbd565b60a082015292915050565b60005b83811015614be8578181015183820152602001614bd0565b83811115614bf7576000848401525b50505050565b6000600019821415614c1157614c11614c2c565b5060010190565b600082614c2757614c27614c42565b500690565b634e487b7160e01b600052601160045260246000fd5b634e487b7160e01b600052601260045260246000fd5b634e487b7160e01b600052602160045260246000fd5b634e487b7160e01b600052603260045260246000fd5b634e487b7160e01b600052604160045260246000fd5b6001600160a01b0381168114612ea157600080fdfe5265656e7472616e637947756172643a207265656e7472616e742063616c6c00a26469706673582212202df20ab5f7a2ef0d1d5602a88214e216e6ccaa0a48eeb7cecd0b1503688a0e1564736f6c63430008050033",
  "devdoc": {
    "kind": "dev",
    "methods": {
      "cancel(address,uint256)": {
        "params": {
          "_amount": "uint256 Amount of positions to cancel",
          "_positionAddress": "PositionType of positions to be canceled"
        }
      },
      "cancel(address[],uint256[])": {
        "params": {
          "_amounts": "uint256[] Amount of positions to cancel for each `positionAddress`",
          "_positionsAddresses": "PositionTypes of positions to be cancelled"
        }
      },
      "claimReserves(address)": {
        "params": {
          "_tokenAddress": "address of the ERC20 token to withdraw"
        }
      },
      "claimReserves(address,uint256)": {
        "params": {
          "_amount": "uint256 amount of reserves to withdraw",
          "_tokenAddress": "address of the ERC20 token to withdraw"
        }
      },
      "create((uint256,uint256,uint256[],address,address,address),uint256,address[2])": {
        "params": {
          "_amount": "uint256 Amount of positions to create",
          "_derivative": "LibDerivative.Derivative Derivative definition",
          "_positionsOwners": "address[2] Addresses of buyer and seller [0] - buyer address [1] - seller address"
        }
      },
      "createAndMint((uint256,uint256,uint256[],address,address,address),uint256,address[2])": {
        "details": "if the position contracts have been deployed, it uses Core._create()if the position contracts have deployed, it uses Core._mint()",
        "params": {
          "_amount": "uint256 Amount of LONG and SHORT positions create and/or mint",
          "_derivative": "LibDerivative.Derivative Derivative definition",
          "_positionsOwners": "address[2] Addresses of buyer and seller _positionsOwners[0] - buyer address -> receives LONG position _positionsOwners[1] - seller address -> receives SHORT position"
        }
      },
      "execute(address,address,uint256)": {
        "params": {
          "_amount": "uint256 Amount of positions to execute",
          "_positionAddress": "address `positionAddress` of positions that needs to be executed",
          "_positionOwner": "address Address of the owner of positions"
        }
      },
      "execute(address,address[],uint256[])": {
        "params": {
          "_amounts": "uint256[] Amount of positions to execute for each `positionAddresses`",
          "_positionsAddresses": "address[] `positionAddresses` of positions that need to be executed",
          "_positionsOwner": "address Address of the owner of positions"
        }
      },
      "execute(address,uint256)": {
        "params": {
          "_amount": "uint256 Amount of positions to execute",
          "_positionAddress": "address `positionAddress` of position that needs to be executed"
        }
      },
      "execute(address[],uint256[])": {
        "params": {
          "_amounts": "uint256[] Amount of positions to execute for each `positionAddress`",
          "_positionsAddresses": "address[] `positionAddresses` of positions that need to be executed"
        }
      },
      "getDerivativePayouts(bytes32)": {
        "params": {
          "_derivativeHash": "bytes32 unique derivative identifier"
        },
        "returns": {
          "_0": "uint256[2] tuple containing LONG and SHORT payouts"
        }
      },
      "getP2pDerivativeVaultFunds(bytes32)": {
        "params": {
          "_derivativeHash": "bytes32 unique derivative identifier"
        },
        "returns": {
          "_0": "uint256 representing the remaining derivative's funds"
        }
      },
      "getProtocolAddresses()": {
        "details": "{see RegistryEntities.sol for a description of the protocolAddressesArgs struct}",
        "returns": {
          "_0": "ProtocolAddressesArgs struct including the protocol's main addresses - contracts and reseves recipients"
        }
      },
      "getProtocolParametersArgs()": {
        "details": "{see RegistryEntities.sol for a description of the ProtocolParametersArgs struct}",
        "returns": {
          "_0": "ProtocolParametersArgs struct including the protocol's main parameters"
        }
      },
      "getReservesVaultBalance(address,address)": {
        "params": {
          "_reseveRecipient": "address of the reseve recipient",
          "_token": "address of a token used as a reseve compensation"
        },
        "returns": {
          "_0": "uint256 amount of the accrued reseves denominated in the provided token"
        }
      },
      "isDerivativeCancelled(bytes32)": {
        "params": {
          "_derivativeHash": "bytes32 unique derivative identifier"
        },
        "returns": {
          "_0": "bool true if derivative has been cancelled, false if derivative has not been cancelled"
        }
      },
      "mint(uint256,address[2],address[2])": {
        "params": {
          "_amount": "uint256 Amount of positions to create",
          "_positionsAddresses": "address[2] Addresses of buyer and seller [0] - LONG erc20 position address [1] - SHORT erc20 position address",
          "_positionsOwners": "address[2] Addresses of buyer and seller _positionsOwners[0] - buyer address _positionsOwners[1] - seller address"
        }
      },
      "redeem(address[2],uint256)": {
        "params": {
          "_amount": "uint256 Amount of tokens to redeem",
          "_positionsAddresses": "address[2] `_positionsAddresses` of the positions that need to be redeemed"
        }
      },
      "redeem(address[2][],uint256[])": {
        "params": {
          "_amounts": "uint256[] Amount of tokens to redeem for each position pair",
          "_positionsAddresses": "address[2][] `_positionsAddresses` of the positions that need to be redeemed"
        }
      },
      "updateProtocolAddresses()": {
        "details": "{see RegistryEntities.sol for a description of the protocolAddressesArgs struct}should be called immediately after the deployment of the contractonly accounts who have been assigned the CORE_CONFIGURATION_UPDATER_ROLE { See LibRoles.sol } should be able to call the function"
      },
      "updateProtocolParametersArgs()": {
        "details": "{see RegistryEntities.sol for a description of the ProtocolParametersArgs struct}should be called immediately after the deployment of the contractonly accounts who have been assigned the CORE_CONFIGURATION_UPDATER_ROLE { See LibRoles.sol } should be able to call the function"
      }
    },
    "title": "Opium.Core contract creates positions, holds and distributes margin at the maturity",
    "version": 1
  },
  "userdoc": {
    "kind": "user",
    "methods": {
      "cancel(address,uint256)": {
        "notice": "It cancels the specified amount of a derivative's position { see Core._cancel for the business logic description }"
      },
      "cancel(address[],uint256[])": {
        "notice": "It cancels the specified amounts of a list of derivative's position { see Core._cancel for the business logic description }"
      },
      "claimReserves(address)": {
        "notice": "It allows a reseve recipient to claim their entire accrued reserves"
      },
      "claimReserves(address,uint256)": {
        "notice": "It allows a reserves recipient to to claim the desired amount of accrued reserves"
      },
      "create((uint256,uint256,uint256[],address,address,address),uint256,address[2])": {
        "notice": "It deploys and mints the two erc20 contracts representing a derivative's LONG and SHORT positions { see Core._create for the business logic description }"
      },
      "createAndMint((uint256,uint256,uint256[],address,address,address),uint256,address[2])": {
        "notice": "It can either 1) deploy AND mint 2) only mint.It checks whether the ERC20 contracts representing the LONG and SHORT positions of the provided `LibDerivative.Derivative` have been deployed. If not, then it deploys the respective ERC20 contracts and mints the supplied _amount respectively to the provided buyer's and seller's accounts. If they have already been deployed, it only mints the provided _amount to the provided buyer's and seller's accounts."
      },
      "execute(address,address,uint256)": {
        "notice": "Executes a single position of `_positionsOwner` with specified `positionAddress` { see Core._execute for the business logic description }"
      },
      "execute(address,address[],uint256[])": {
        "notice": "Executes several positions of `_positionsOwner` with different `positionAddresses` { see Core._execute for the business logic description }"
      },
      "execute(address,uint256)": {
        "notice": "Executes a single position of `msg.sender` with specified `positionAddress` { see Core._execute for the business logic description }"
      },
      "execute(address[],uint256[])": {
        "notice": "Executes several positions of `msg.sender` with different `positionAddresses` { see Core._execute for the business logic description }"
      },
      "getDerivativePayouts(bytes32)": {
        "notice": "It queries the buyer's and seller's payouts for a given derivativeif it returns [0, 0] then the derivative has not been executed yet"
      },
      "getP2pDerivativeVaultFunds(bytes32)": {
        "notice": "It queries the amount of funds allocated for a given derivative"
      },
      "getProtocolAddresses()": {
        "notice": "It returns Opium.Core's internal state of the protocol contracts' and recipients' addresses fetched from the Opium.Registry"
      },
      "getProtocolParametersArgs()": {
        "notice": "It returns Opium.Core's internal state of the protocol parameters fetched from the Opium.Registry"
      },
      "getReservesVaultBalance(address,address)": {
        "notice": "It returns the accrued reseves of a given address denominated in a specified token"
      },
      "initialize(address)": {
        "notice": "It is called only once upon deployment of the contract. It sets the current Opium.Registry address and assigns the current protocol parameters stored in the Opium.Registry to the Core.protocolParametersArgs private variable {see RegistryEntities.sol for a description of the ProtocolParametersArgs struct}"
      },
      "isDerivativeCancelled(bytes32)": {
        "notice": "It checks whether a given derivative has been cancelled"
      },
      "mint(uint256,address[2],address[2])": {
        "notice": "This function mints the provided amount of LONG/SHORT positions to msg.sender for a previously deployed pair of LONG/SHORT ERC20 contracts { see Core._mint for the business logic description }"
      },
      "redeem(address[2],uint256)": {
        "notice": "Redeems a single market neutral position pair { see Core._redeem for the business logic description }"
      },
      "redeem(address[2][],uint256[])": {
        "notice": "Redeems several market neutral position pairs { see Core._redeem for the business logic description }"
      },
      "updateProtocolAddresses()": {
        "notice": "Allows to sync the Core protocol's addresses with the Registry protocol's addresses in case the registry updates at least one of them"
      },
      "updateProtocolParametersArgs()": {
        "notice": "It allows to update the Opium Protocol parameters according to the current state of the Opium.Registry"
      }
    },
    "version": 1
  },
  "storageLayout": {
    "storage": [
      {
        "astId": 539,
        "contract": "contracts/core/Core.sol:Core",
        "label": "_initialized",
        "offset": 0,
        "slot": "0",
        "type": "t_bool"
      },
      {
        "astId": 542,
        "contract": "contracts/core/Core.sol:Core",
        "label": "_initializing",
        "offset": 1,
        "slot": "0",
        "type": "t_bool"
      },
      {
        "astId": 593,
        "contract": "contracts/core/Core.sol:Core",
        "label": "_status",
        "offset": 0,
        "slot": "1",
        "type": "t_uint256"
      },
      {
        "astId": 636,
        "contract": "contracts/core/Core.sol:Core",
        "label": "__gap",
        "offset": 0,
        "slot": "2",
        "type": "t_array(t_uint256)49_storage"
      },
      {
        "astId": 5809,
        "contract": "contracts/core/Core.sol:Core",
        "label": "registry",
        "offset": 0,
        "slot": "51",
        "type": "t_contract(IRegistry)8116"
      },
      {
        "astId": 5899,
        "contract": "contracts/core/Core.sol:Core",
        "label": "__gap",
        "offset": 0,
        "slot": "52",
        "type": "t_array(t_uint256)50_storage"
      },
      {
        "astId": 2999,
        "contract": "contracts/core/Core.sol:Core",
        "label": "protocolParametersArgs",
        "offset": 0,
        "slot": "102",
        "type": "t_struct(ProtocolParametersArgs)7112_storage"
      },
      {
        "astId": 3002,
        "contract": "contracts/core/Core.sol:Core",
        "label": "protocolAddressesArgs",
        "offset": 0,
        "slot": "103",
        "type": "t_struct(ProtocolAddressesArgs)7132_storage"
      },
      {
        "astId": 3006,
        "contract": "contracts/core/Core.sol:Core",
        "label": "p2pVaults",
        "offset": 0,
        "slot": "110",
        "type": "t_mapping(t_bytes32,t_uint256)"
      },
      {
        "astId": 3010,
        "contract": "contracts/core/Core.sol:Core",
        "label": "cancelledDerivatives",
        "offset": 0,
        "slot": "111",
        "type": "t_mapping(t_bytes32,t_bool)"
      },
      {
        "astId": 3017,
        "contract": "contracts/core/Core.sol:Core",
        "label": "derivativePayouts",
        "offset": 0,
        "slot": "112",
        "type": "t_mapping(t_bytes32,t_array(t_uint256)2_storage)"
      },
      {
        "astId": 3024,
        "contract": "contracts/core/Core.sol:Core",
        "label": "reservesVault",
        "offset": 0,
        "slot": "113",
        "type": "t_mapping(t_address,t_mapping(t_address,t_uint256))"
      },
      {
        "astId": 4878,
        "contract": "contracts/core/Core.sol:Core",
        "label": "__gap",
        "offset": 0,
        "slot": "114",
        "type": "t_array(t_uint256)50_storage"
      }
    ],
    "types": {
      "t_address": {
        "encoding": "inplace",
        "label": "address",
        "numberOfBytes": "20"
      },
      "t_array(t_uint256)2_storage": {
        "base": "t_uint256",
        "encoding": "inplace",
        "label": "uint256[2]",
        "numberOfBytes": "64"
      },
      "t_array(t_uint256)49_storage": {
        "base": "t_uint256",
        "encoding": "inplace",
        "label": "uint256[49]",
        "numberOfBytes": "1568"
      },
      "t_array(t_uint256)50_storage": {
        "base": "t_uint256",
        "encoding": "inplace",
        "label": "uint256[50]",
        "numberOfBytes": "1600"
      },
      "t_bool": {
        "encoding": "inplace",
        "label": "bool",
        "numberOfBytes": "1"
      },
      "t_bytes32": {
        "encoding": "inplace",
        "label": "bytes32",
        "numberOfBytes": "32"
      },
      "t_contract(IRegistry)8116": {
        "encoding": "inplace",
        "label": "contract IRegistry",
        "numberOfBytes": "20"
      },
      "t_mapping(t_address,t_mapping(t_address,t_uint256))": {
        "encoding": "mapping",
        "key": "t_address",
        "label": "mapping(address => mapping(address => uint256))",
        "numberOfBytes": "32",
        "value": "t_mapping(t_address,t_uint256)"
      },
      "t_mapping(t_address,t_uint256)": {
        "encoding": "mapping",
        "key": "t_address",
        "label": "mapping(address => uint256)",
        "numberOfBytes": "32",
        "value": "t_uint256"
      },
      "t_mapping(t_bytes32,t_array(t_uint256)2_storage)": {
        "encoding": "mapping",
        "key": "t_bytes32",
        "label": "mapping(bytes32 => uint256[2])",
        "numberOfBytes": "32",
        "value": "t_array(t_uint256)2_storage"
      },
      "t_mapping(t_bytes32,t_bool)": {
        "encoding": "mapping",
        "key": "t_bytes32",
        "label": "mapping(bytes32 => bool)",
        "numberOfBytes": "32",
        "value": "t_bool"
      },
      "t_mapping(t_bytes32,t_uint256)": {
        "encoding": "mapping",
        "key": "t_bytes32",
        "label": "mapping(bytes32 => uint256)",
        "numberOfBytes": "32",
        "value": "t_uint256"
      },
      "t_struct(ProtocolAddressesArgs)7132_storage": {
        "encoding": "inplace",
        "label": "struct RegistryEntities.ProtocolAddressesArgs",
        "members": [
          {
            "astId": 7114,
            "contract": "contracts/core/Core.sol:Core",
            "label": "core",
            "offset": 0,
            "slot": "0",
            "type": "t_address"
          },
          {
            "astId": 7116,
            "contract": "contracts/core/Core.sol:Core",
            "label": "opiumProxyFactory",
            "offset": 0,
            "slot": "1",
            "type": "t_address"
          },
          {
            "astId": 7118,
            "contract": "contracts/core/Core.sol:Core",
            "label": "oracleAggregator",
            "offset": 0,
            "slot": "2",
            "type": "t_address"
          },
          {
            "astId": 7120,
            "contract": "contracts/core/Core.sol:Core",
            "label": "syntheticAggregator",
            "offset": 0,
            "slot": "3",
            "type": "t_address"
          },
          {
            "astId": 7122,
            "contract": "contracts/core/Core.sol:Core",
            "label": "tokenSpender",
            "offset": 0,
            "slot": "4",
            "type": "t_address"
          },
          {
            "astId": 7124,
            "contract": "contracts/core/Core.sol:Core",
            "label": "protocolExecutionReserveClaimer",
            "offset": 0,
            "slot": "5",
            "type": "t_address"
          },
          {
            "astId": 7126,
            "contract": "contracts/core/Core.sol:Core",
            "label": "protocolRedemptionReserveClaimer",
            "offset": 0,
            "slot": "6",
            "type": "t_address"
          },
          {
            "astId": 7129,
            "contract": "contracts/core/Core.sol:Core",
            "label": "__gapOne",
            "offset": 20,
            "slot": "6",
            "type": "t_uint32"
          },
          {
            "astId": 7131,
            "contract": "contracts/core/Core.sol:Core",
            "label": "__gapTwo",
            "offset": 24,
            "slot": "6",
            "type": "t_uint32"
          }
        ],
        "numberOfBytes": "224"
      },
      "t_struct(ProtocolParametersArgs)7112_storage": {
        "encoding": "inplace",
        "label": "struct RegistryEntities.ProtocolParametersArgs",
        "members": [
          {
            "astId": 7096,
            "contract": "contracts/core/Core.sol:Core",
            "label": "noDataCancellationPeriod",
            "offset": 0,
            "slot": "0",
            "type": "t_uint32"
          },
          {
            "astId": 7098,
            "contract": "contracts/core/Core.sol:Core",
            "label": "derivativeAuthorExecutionFeeCap",
            "offset": 4,
            "slot": "0",
            "type": "t_uint32"
          },
          {
            "astId": 7100,
            "contract": "contracts/core/Core.sol:Core",
            "label": "derivativeAuthorRedemptionReservePart",
            "offset": 8,
            "slot": "0",
            "type": "t_uint32"
          },
          {
            "astId": 7102,
            "contract": "contracts/core/Core.sol:Core",
            "label": "protocolExecutionReservePart",
            "offset": 12,
            "slot": "0",
            "type": "t_uint32"
          },
          {
            "astId": 7104,
            "contract": "contracts/core/Core.sol:Core",
            "label": "protocolRedemptionReservePart",
            "offset": 16,
            "slot": "0",
            "type": "t_uint32"
          },
          {
            "astId": 7107,
            "contract": "contracts/core/Core.sol:Core",
            "label": "__gapOne",
            "offset": 20,
            "slot": "0",
            "type": "t_uint32"
          },
          {
            "astId": 7109,
            "contract": "contracts/core/Core.sol:Core",
            "label": "__gapTwo",
            "offset": 24,
            "slot": "0",
            "type": "t_uint32"
          },
          {
            "astId": 7111,
            "contract": "contracts/core/Core.sol:Core",
            "label": "__gapThree",
            "offset": 28,
            "slot": "0",
            "type": "t_uint32"
          }
        ],
        "numberOfBytes": "32"
      },
      "t_uint256": {
        "encoding": "inplace",
        "label": "uint256",
        "numberOfBytes": "32"
      },
      "t_uint32": {
        "encoding": "inplace",
        "label": "uint32",
        "numberOfBytes": "4"
      }
    }
  }
}