{
  "address": "0xC39C986A3636A8fE223264a029613F44974f8fe3",
  "abi": [
    {
      "inputs": [
        {
          "internalType": "string",
          "name": "_name",
          "type": "string"
        },
        {
          "internalType": "string",
          "name": "_symbol",
          "type": "string"
        },
        {
          "internalType": "uint8",
          "name": "_decimals",
          "type": "uint8"
        }
      ],
      "stateMutability": "nonpayable",
      "type": "constructor"
    },
    {
      "anonymous": false,
      "inputs": [
        {
          "indexed": true,
          "internalType": "address",
          "name": "owner",
          "type": "address"
        },
        {
          "indexed": true,
          "internalType": "address",
          "name": "spender",
          "type": "address"
        },
        {
          "indexed": false,
          "internalType": "uint256",
          "name": "value",
          "type": "uint256"
        }
      ],
      "name": "Approval",
      "type": "event"
    },
    {
      "anonymous": false,
      "inputs": [
        {
          "indexed": true,
          "internalType": "address",
          "name": "from",
          "type": "address"
        },
        {
          "indexed": true,
          "internalType": "address",
          "name": "to",
          "type": "address"
        },
        {
          "indexed": false,
          "internalType": "uint256",
          "name": "value",
          "type": "uint256"
        }
      ],
      "name": "Transfer",
      "type": "event"
    },
    {
      "inputs": [
        {
          "internalType": "address",
          "name": "owner",
          "type": "address"
        },
        {
          "internalType": "address",
          "name": "spender",
          "type": "address"
        }
      ],
      "name": "allowance",
      "outputs": [
        {
          "internalType": "uint256",
          "name": "",
          "type": "uint256"
        }
      ],
      "stateMutability": "view",
      "type": "function"
    },
    {
      "inputs": [
        {
          "internalType": "address",
          "name": "spender",
          "type": "address"
        },
        {
          "internalType": "uint256",
          "name": "amount",
          "type": "uint256"
        }
      ],
      "name": "approve",
      "outputs": [
        {
          "internalType": "bool",
          "name": "",
          "type": "bool"
        }
      ],
      "stateMutability": "nonpayable",
      "type": "function"
    },
    {
      "inputs": [
        {
          "internalType": "address",
          "name": "account",
          "type": "address"
        }
      ],
      "name": "balanceOf",
      "outputs": [
        {
          "internalType": "uint256",
          "name": "",
          "type": "uint256"
        }
      ],
      "stateMutability": "view",
      "type": "function"
    },
    {
      "inputs": [],
      "name": "decimals",
      "outputs": [
        {
          "internalType": "uint8",
          "name": "",
          "type": "uint8"
        }
      ],
      "stateMutability": "view",
      "type": "function"
    },
    {
      "inputs": [
        {
          "internalType": "address",
          "name": "spender",
          "type": "address"
        },
        {
          "internalType": "uint256",
          "name": "subtractedValue",
          "type": "uint256"
        }
      ],
      "name": "decreaseAllowance",
      "outputs": [
        {
          "internalType": "bool",
          "name": "",
          "type": "bool"
        }
      ],
      "stateMutability": "nonpayable",
      "type": "function"
    },
    {
      "inputs": [],
      "name": "getPositionTokenData",
      "outputs": [
        {
          "components": [
            {
              "components": [
                {
                  "internalType": "uint256",
                  "name": "margin",
                  "type": "uint256"
                },
                {
                  "internalType": "uint256",
                  "name": "endTime",
                  "type": "uint256"
                },
                {
                  "internalType": "uint256[]",
                  "name": "params",
                  "type": "uint256[]"
                },
                {
                  "internalType": "address",
                  "name": "oracleId",
                  "type": "address"
                },
                {
                  "internalType": "address",
                  "name": "token",
                  "type": "address"
                },
                {
                  "internalType": "address",
                  "name": "syntheticId",
                  "type": "address"
                }
              ],
              "internalType": "struct LibDerivative.Derivative",
              "name": "derivative",
              "type": "tuple"
            },
            {
              "internalType": "enum LibDerivative.PositionType",
              "name": "positionType",
              "type": "uint8"
            },
            {
              "internalType": "bytes32",
              "name": "derivativeHash",
              "type": "bytes32"
            }
          ],
          "internalType": "struct MaliciousTestToken.OpiumPositionTokenParams",
          "name": "opiumPositionTokenParams",
          "type": "tuple"
        }
      ],
      "stateMutability": "view",
      "type": "function"
    },
    {
      "inputs": [
        {
          "internalType": "address",
          "name": "spender",
          "type": "address"
        },
        {
          "internalType": "uint256",
          "name": "addedValue",
          "type": "uint256"
        }
      ],
      "name": "increaseAllowance",
      "outputs": [
        {
          "internalType": "bool",
          "name": "",
          "type": "bool"
        }
      ],
      "stateMutability": "nonpayable",
      "type": "function"
    },
    {
      "inputs": [
        {
          "internalType": "address",
          "name": "_to",
          "type": "address"
        },
        {
          "internalType": "uint256",
          "name": "_amount",
          "type": "uint256"
        }
      ],
      "name": "mint",
      "outputs": [],
      "stateMutability": "nonpayable",
      "type": "function"
    },
    {
      "inputs": [],
      "name": "name",
      "outputs": [
        {
          "internalType": "string",
          "name": "",
          "type": "string"
        }
      ],
      "stateMutability": "view",
      "type": "function"
    },
    {
      "inputs": [],
      "name": "owner",
      "outputs": [
        {
          "internalType": "address",
          "name": "",
          "type": "address"
        }
      ],
      "stateMutability": "view",
      "type": "function"
    },
    {
      "inputs": [],
      "name": "symbol",
      "outputs": [
        {
          "internalType": "string",
          "name": "",
          "type": "string"
        }
      ],
      "stateMutability": "view",
      "type": "function"
    },
    {
      "inputs": [],
      "name": "totalSupply",
      "outputs": [
        {
          "internalType": "uint256",
          "name": "",
          "type": "uint256"
        }
      ],
      "stateMutability": "view",
      "type": "function"
    },
    {
      "inputs": [
        {
          "internalType": "address",
          "name": "recipient",
          "type": "address"
        },
        {
          "internalType": "uint256",
          "name": "amount",
          "type": "uint256"
        }
      ],
      "name": "transfer",
      "outputs": [
        {
          "internalType": "bool",
          "name": "",
          "type": "bool"
        }
      ],
      "stateMutability": "nonpayable",
      "type": "function"
    },
    {
      "inputs": [
        {
          "internalType": "address",
          "name": "sender",
          "type": "address"
        },
        {
          "internalType": "address",
          "name": "recipient",
          "type": "address"
        },
        {
          "internalType": "uint256",
          "name": "amount",
          "type": "uint256"
        }
      ],
      "name": "transferFrom",
      "outputs": [
        {
          "internalType": "bool",
          "name": "",
          "type": "bool"
        }
      ],
      "stateMutability": "nonpayable",
      "type": "function"
    }
  ],
  "transactionHash": "0x3abfca7205c936b9094c1ce2d43e00a2b6762ea90543d1e99696a0c95e6e9d67",
  "args": [
    "test",
    "test",
    18
  ],
  "solcInputHash": "58dbb558cb816b5402f8301bbf18d319",
  "bytecode": "0x60806040523480156200001157600080fd5b50604051620011a5380380620011a5833981016040819052620000349162000312565b8251839083906200004d906003906020850190620001b5565b50805162000063906004906020840190620001b5565b5050600580546001600160a81b0319163360ff60a01b19811691909117600160a01b60ff86811682029290921793849055620000c494509192620000ac92900416600a620003fb565b620000be90655af3107a4000620004c9565b620000cd565b50505062000554565b6001600160a01b038216620001285760405162461bcd60e51b815260206004820152601f60248201527f45524332303a206d696e7420746f20746865207a65726f206164647265737300604482015260640160405180910390fd5b80600260008282546200013c919062000397565b90915550506001600160a01b038216600090815260208190526040812080548392906200016b90849062000397565b90915550506040518181526001600160a01b038316906000907fddf252ad1be2c89b69c2b068fc378daa952ba7f163c4a11628f55a4df523b3ef9060200160405180910390a35050565b828054620001c390620004eb565b90600052602060002090601f016020900481019282620001e7576000855562000232565b82601f106200020257805160ff191683800117855562000232565b8280016001018555821562000232579182015b828111156200023257825182559160200191906001019062000215565b506200024092915062000244565b5090565b5b8082111562000240576000815560010162000245565b600082601f8301126200026d57600080fd5b81516001600160401b03808211156200028a576200028a6200053e565b604051601f8301601f19908116603f01168101908282118183101715620002b557620002b56200053e565b81604052838152602092508683858801011115620002d257600080fd5b600091505b83821015620002f65785820183015181830184015290820190620002d7565b83821115620003085760008385830101525b9695505050505050565b6000806000606084860312156200032857600080fd5b83516001600160401b03808211156200034057600080fd5b6200034e878388016200025b565b945060208601519150808211156200036557600080fd5b5062000374868287016200025b565b925050604084015160ff811681146200038c57600080fd5b809150509250925092565b60008219821115620003ad57620003ad62000528565b500190565b600181815b80851115620003f3578160001904821115620003d757620003d762000528565b80851615620003e557918102915b93841c9390800290620003b7565b509250929050565b60006200040c60ff84168362000413565b9392505050565b6000826200042457506001620004c3565b816200043357506000620004c3565b81600181146200044c5760028114620004575762000477565b6001915050620004c3565b60ff8411156200046b576200046b62000528565b50506001821b620004c3565b5060208310610133831016604e8410600b84101617156200049c575081810a620004c3565b620004a88383620003b2565b8060001904821115620004bf57620004bf62000528565b0290505b92915050565b6000816000190483118215151615620004e657620004e662000528565b500290565b600181811c908216806200050057607f821691505b602082108114156200052257634e487b7160e01b600052602260045260246000fd5b50919050565b634e487b7160e01b600052601160045260246000fd5b634e487b7160e01b600052604160045260246000fd5b610c4180620005646000396000f3fe608060405234801561001057600080fd5b50600436106100ea5760003560e01c806370a082311161008c578063a457c2d711610066578063a457c2d714610209578063a9059cbb1461021c578063ce21286d1461022f578063dd62ed3e1461028257600080fd5b806370a08231146101ad5780638da5cb5b146101d657806395d89b411461020157600080fd5b806323b872dd116100c857806323b872dd14610142578063313ce56714610155578063395093511461018557806340c10f191461019857600080fd5b806306fdde03146100ef578063095ea7b31461010d57806318160ddd14610130575b600080fd5b6100f76102bb565b6040516101049190610a92565b60405180910390f35b61012061011b366004610a46565b61034d565b6040519015158152602001610104565b6002545b604051908152602001610104565b610120610150366004610a0a565b610363565b60055474010000000000000000000000000000000000000000900460ff1660405160ff9091168152602001610104565b610120610193366004610a46565b610427565b6101ab6101a6366004610a46565b610463565b005b6101346101bb3660046109b5565b6001600160a01b031660009081526020819052604090205490565b6005546101e9906001600160a01b031681565b6040516001600160a01b039091168152602001610104565b6100f76104cb565b610120610217366004610a46565b6104da565b61012061022a366004610a46565b61058b565b6040805161012081018252600060608083018281526080840183905260a084019190915260c0830182905260e0830182905261010083018290528252602082018190528183015290516101049190610ae7565b6101346102903660046109d7565b6001600160a01b03918216600090815260016020908152604080832093909416825291909152205490565b6060600380546102ca90610bd0565b80601f01602080910402602001604051908101604052809291908181526020018280546102f690610bd0565b80156103435780601f1061031857610100808354040283529160200191610343565b820191906000526020600020905b81548152906001019060200180831161032657829003601f168201915b5050505050905090565b600061035a338484610598565b50600192915050565b60006103708484846106bc565b6001600160a01b03841660009081526001602090815260408083203384529091529020548281101561040f5760405162461bcd60e51b815260206004820152602860248201527f45524332303a207472616e7366657220616d6f756e742065786365656473206160448201527f6c6c6f77616e636500000000000000000000000000000000000000000000000060648201526084015b60405180910390fd5b61041c8533858403610598565b506001949350505050565b3360008181526001602090815260408083206001600160a01b0387168452909152812054909161035a91859061045e908690610baa565b610598565b6005546001600160a01b031633146104bd5760405162461bcd60e51b815260206004820152601360248201527f4f6e6c79206f776e65722063616e206d696e74000000000000000000000000006044820152606401610406565b6104c782826108ba565b5050565b6060600480546102ca90610bd0565b3360009081526001602090815260408083206001600160a01b0386168452909152812054828110156105745760405162461bcd60e51b815260206004820152602560248201527f45524332303a2064656372656173656420616c6c6f77616e63652062656c6f7760448201527f207a65726f0000000000000000000000000000000000000000000000000000006064820152608401610406565b6105813385858403610598565b5060019392505050565b600061035a3384846106bc565b6001600160a01b0383166105fa5760405162461bcd60e51b8152602060048201526024808201527f45524332303a20617070726f76652066726f6d20746865207a65726f206164646044820152637265737360e01b6064820152608401610406565b6001600160a01b03821661065b5760405162461bcd60e51b815260206004820152602260248201527f45524332303a20617070726f766520746f20746865207a65726f206164647265604482015261737360f01b6064820152608401610406565b6001600160a01b0383811660008181526001602090815260408083209487168084529482529182902085905590518481527f8c5be1e5ebec7d5bd14f71427d1e84f3dd0314c0f7b2291e5b200ac8c7c3b925910160405180910390a3505050565b6001600160a01b0383166107385760405162461bcd60e51b815260206004820152602560248201527f45524332303a207472616e736665722066726f6d20746865207a65726f20616460448201527f64726573730000000000000000000000000000000000000000000000000000006064820152608401610406565b6001600160a01b03821661079a5760405162461bcd60e51b815260206004820152602360248201527f45524332303a207472616e7366657220746f20746865207a65726f206164647260448201526265737360e81b6064820152608401610406565b6001600160a01b038316600090815260208190526040902054818110156108295760405162461bcd60e51b815260206004820152602660248201527f45524332303a207472616e7366657220616d6f756e742065786365656473206260448201527f616c616e636500000000000000000000000000000000000000000000000000006064820152608401610406565b6001600160a01b03808516600090815260208190526040808220858503905591851681529081208054849290610860908490610baa565b92505081905550826001600160a01b0316846001600160a01b03167fddf252ad1be2c89b69c2b068fc378daa952ba7f163c4a11628f55a4df523b3ef846040516108ac91815260200190565b60405180910390a350505050565b6001600160a01b0382166109105760405162461bcd60e51b815260206004820152601f60248201527f45524332303a206d696e7420746f20746865207a65726f2061646472657373006044820152606401610406565b80600260008282546109229190610baa565b90915550506001600160a01b0382166000908152602081905260408120805483929061094f908490610baa565b90915550506040518181526001600160a01b038316906000907fddf252ad1be2c89b69c2b068fc378daa952ba7f163c4a11628f55a4df523b3ef9060200160405180910390a35050565b80356001600160a01b03811681146109b057600080fd5b919050565b6000602082840312156109c757600080fd5b6109d082610999565b9392505050565b600080604083850312156109ea57600080fd5b6109f383610999565b9150610a0160208401610999565b90509250929050565b600080600060608486031215610a1f57600080fd5b610a2884610999565b9250610a3660208501610999565b9150604084013590509250925092565b60008060408385031215610a5957600080fd5b610a6283610999565b946020939093013593505050565b60028110610a8e57634e487b7160e01b600052602160045260246000fd5b9052565b600060208083528351808285015260005b81811015610abf57858101830151858201604001528201610aa3565b81811115610ad1576000604083870101525b50601f01601f1916929092016040019392505050565b60208082528251606083830152805160808401528082015160a0840152604081015160c08085015280516101408501819052600093929183019084906101608701905b80831015610b4a5783518252928501926001929092019190850190610b2a565b5060608401516001600160a01b0390811660e089015260808501518082166101008a015260a0909501519081166101208901529392509387015193610b926040880186610a70565b60408801516060880152809550505050505092915050565b60008219821115610bcb57634e487b7160e01b600052601160045260246000fd5b500190565b600181811c90821680610be457607f821691505b60208210811415610c0557634e487b7160e01b600052602260045260246000fd5b5091905056fea26469706673582212203634528e9cea51e969b761364df7e9b7de8fb5b3e3612e2bad03243427b6428e64736f6c63430008050033",
  "devdoc": {
    "kind": "dev",
    "methods": {
      "allowance(address,address)": {
        "details": "See {IERC20-allowance}."
      },
      "approve(address,uint256)": {
        "details": "See {IERC20-approve}. Requirements: - `spender` cannot be the zero address."
      },
      "balanceOf(address)": {
        "details": "See {IERC20-balanceOf}."
      },
      "decimals()": {
        "details": "Returns the number of decimals used to get its user representation. For example, if `decimals` equals `2`, a balance of `505` tokens should be displayed to a user as `5.05` (`505 / 10 ** 2`). Tokens usually opt for a value of 18, imitating the relationship between Ether and Wei. This is the value {ERC20} uses, unless this function is overridden; NOTE: This information is only used for _display_ purposes: it in no way affects any of the arithmetic of the contract, including {IERC20-balanceOf} and {IERC20-transfer}."
      },
      "decreaseAllowance(address,uint256)": {
        "details": "Atomically decreases the allowance granted to `spender` by the caller. This is an alternative to {approve} that can be used as a mitigation for problems described in {IERC20-approve}. Emits an {Approval} event indicating the updated allowance. Requirements: - `spender` cannot be the zero address. - `spender` must have allowance for the caller of at least `subtractedValue`."
      },
      "increaseAllowance(address,uint256)": {
        "details": "Atomically increases the allowance granted to `spender` by the caller. This is an alternative to {approve} that can be used as a mitigation for problems described in {IERC20-approve}. Emits an {Approval} event indicating the updated allowance. Requirements: - `spender` cannot be the zero address."
      },
      "name()": {
        "details": "Returns the name of the token."
      },
      "symbol()": {
        "details": "Returns the symbol of the token, usually a shorter version of the name."
      },
      "totalSupply()": {
        "details": "See {IERC20-totalSupply}."
      },
      "transfer(address,uint256)": {
        "details": "See {IERC20-transfer}. Requirements: - `recipient` cannot be the zero address. - the caller must have a balance of at least `amount`."
      },
      "transferFrom(address,address,uint256)": {
        "details": "See {IERC20-transferFrom}. Emits an {Approval} event indicating the updated allowance. This is not required by the EIP. See the note at the beginning of {ERC20}. Requirements: - `sender` and `recipient` cannot be the zero address. - `sender` must have a balance of at least `amount`. - the caller must have allowance for ``sender``'s tokens of at least `amount`."
      }
    },
    "version": 1
  },
  "userdoc": {
    "kind": "user",
    "methods": {},
    "version": 1
  },
  "storageLayout": {
    "storage": [
      {
        "astId": 19050,
        "contract": "contracts/test/mocks/MaliciousTestToken.sol:MaliciousTestToken",
        "label": "_balances",
        "offset": 0,
        "slot": "0",
        "type": "t_mapping(t_address,t_uint256)"
      },
      {
        "astId": 19056,
        "contract": "contracts/test/mocks/MaliciousTestToken.sol:MaliciousTestToken",
        "label": "_allowances",
        "offset": 0,
        "slot": "1",
        "type": "t_mapping(t_address,t_mapping(t_address,t_uint256))"
      },
      {
        "astId": 19058,
        "contract": "contracts/test/mocks/MaliciousTestToken.sol:MaliciousTestToken",
        "label": "_totalSupply",
        "offset": 0,
        "slot": "2",
        "type": "t_uint256"
      },
      {
        "astId": 19060,
        "contract": "contracts/test/mocks/MaliciousTestToken.sol:MaliciousTestToken",
        "label": "_name",
        "offset": 0,
        "slot": "3",
        "type": "t_string_storage"
      },
      {
        "astId": 19062,
        "contract": "contracts/test/mocks/MaliciousTestToken.sol:MaliciousTestToken",
        "label": "_symbol",
        "offset": 0,
        "slot": "4",
        "type": "t_string_storage"
      },
      {
        "astId": 9011,
        "contract": "contracts/test/mocks/MaliciousTestToken.sol:MaliciousTestToken",
        "label": "owner",
        "offset": 0,
        "slot": "5",
        "type": "t_address"
      },
      {
        "astId": 9013,
        "contract": "contracts/test/mocks/MaliciousTestToken.sol:MaliciousTestToken",
        "label": "customDecimals",
        "offset": 20,
        "slot": "5",
        "type": "t_uint8"
      },
      {
        "astId": 9025,
        "contract": "contracts/test/mocks/MaliciousTestToken.sol:MaliciousTestToken",
        "label": "opiumPositionTokenParams",
        "offset": 0,
        "slot": "6",
        "type": "t_struct(OpiumPositionTokenParams)9022_storage"
      }
    ],
    "types": {
      "t_address": {
        "encoding": "inplace",
        "label": "address",
        "numberOfBytes": "20"
      },
      "t_array(t_uint256)dyn_storage": {
        "base": "t_uint256",
        "encoding": "dynamic_array",
        "label": "uint256[]",
        "numberOfBytes": "32"
      },
      "t_bytes32": {
        "encoding": "inplace",
        "label": "bytes32",
        "numberOfBytes": "32"
      },
      "t_enum(PositionType)8399": {
        "encoding": "inplace",
        "label": "enum LibDerivative.PositionType",
        "numberOfBytes": "1"
      },
      "t_mapping(t_address,t_mapping(t_address,t_uint256))": {
        "encoding": "mapping",
        "key": "t_address",
        "label": "mapping(address => mapping(address => uint256))",
        "numberOfBytes": "32",
        "value": "t_mapping(t_address,t_uint256)"
      },
      "t_mapping(t_address,t_uint256)": {
        "encoding": "mapping",
        "key": "t_address",
        "label": "mapping(address => uint256)",
        "numberOfBytes": "32",
        "value": "t_uint256"
      },
      "t_string_storage": {
        "encoding": "bytes",
        "label": "string",
        "numberOfBytes": "32"
      },
      "t_struct(Derivative)8413_storage": {
        "encoding": "inplace",
        "label": "struct LibDerivative.Derivative",
        "members": [
          {
            "astId": 8401,
            "contract": "contracts/test/mocks/MaliciousTestToken.sol:MaliciousTestToken",
            "label": "margin",
            "offset": 0,
            "slot": "0",
            "type": "t_uint256"
          },
          {
            "astId": 8403,
            "contract": "contracts/test/mocks/MaliciousTestToken.sol:MaliciousTestToken",
            "label": "endTime",
            "offset": 0,
            "slot": "1",
            "type": "t_uint256"
          },
          {
            "astId": 8406,
            "contract": "contracts/test/mocks/MaliciousTestToken.sol:MaliciousTestToken",
            "label": "params",
            "offset": 0,
            "slot": "2",
            "type": "t_array(t_uint256)dyn_storage"
          },
          {
            "astId": 8408,
            "contract": "contracts/test/mocks/MaliciousTestToken.sol:MaliciousTestToken",
            "label": "oracleId",
            "offset": 0,
            "slot": "3",
            "type": "t_address"
          },
          {
            "astId": 8410,
            "contract": "contracts/test/mocks/MaliciousTestToken.sol:MaliciousTestToken",
            "label": "token",
            "offset": 0,
            "slot": "4",
            "type": "t_address"
          },
          {
            "astId": 8412,
            "contract": "contracts/test/mocks/MaliciousTestToken.sol:MaliciousTestToken",
            "label": "syntheticId",
            "offset": 0,
            "slot": "5",
            "type": "t_address"
          }
        ],
        "numberOfBytes": "192"
      },
      "t_struct(OpiumPositionTokenParams)9022_storage": {
        "encoding": "inplace",
        "label": "struct MaliciousTestToken.OpiumPositionTokenParams",
        "members": [
          {
            "astId": 9016,
            "contract": "contracts/test/mocks/MaliciousTestToken.sol:MaliciousTestToken",
            "label": "derivative",
            "offset": 0,
            "slot": "0",
            "type": "t_struct(Derivative)8413_storage"
          },
          {
            "astId": 9019,
            "contract": "contracts/test/mocks/MaliciousTestToken.sol:MaliciousTestToken",
            "label": "positionType",
            "offset": 0,
            "slot": "6",
            "type": "t_enum(PositionType)8399"
          },
          {
            "astId": 9021,
            "contract": "contracts/test/mocks/MaliciousTestToken.sol:MaliciousTestToken",
            "label": "derivativeHash",
            "offset": 0,
            "slot": "7",
            "type": "t_bytes32"
          }
        ],
        "numberOfBytes": "256"
      },
      "t_uint256": {
        "encoding": "inplace",
        "label": "uint256",
        "numberOfBytes": "32"
      },
      "t_uint8": {
        "encoding": "inplace",
        "label": "uint8",
        "numberOfBytes": "1"
      }
    }
  }
}