{
  "address": "0xF4C5DEbE0FdB7BBa3cfbe34055A42AB14aDf9484",
  "abi": [
    {
      "anonymous": false,
      "inputs": [
        {
          "indexed": true,
          "internalType": "address",
          "name": "_changer",
          "type": "address"
        },
        {
          "indexed": true,
          "internalType": "address",
          "name": "_newRegistryAddress",
          "type": "address"
        }
      ],
      "name": "LogRegistryChanged",
      "type": "event"
    },
    {
      "anonymous": false,
      "inputs": [
        {
          "components": [
            {
              "internalType": "uint256",
              "name": "margin",
              "type": "uint256"
            },
            {
              "internalType": "uint256",
              "name": "endTime",
              "type": "uint256"
            },
            {
              "internalType": "uint256[]",
              "name": "params",
              "type": "uint256[]"
            },
            {
              "internalType": "address",
              "name": "oracleId",
              "type": "address"
            },
            {
              "internalType": "address",
              "name": "token",
              "type": "address"
            },
            {
              "internalType": "address",
              "name": "syntheticId",
              "type": "address"
            }
          ],
          "indexed": true,
          "internalType": "struct LibDerivative.Derivative",
          "name": "derivative",
          "type": "tuple"
        },
        {
          "indexed": true,
          "internalType": "bytes32",
          "name": "derivativeHash",
          "type": "bytes32"
        }
      ],
      "name": "LogSyntheticInit",
      "type": "event"
    },
    {
      "inputs": [
        {
          "internalType": "bytes32",
          "name": "_derivativeHash",
          "type": "bytes32"
        },
        {
          "components": [
            {
              "internalType": "uint256",
              "name": "margin",
              "type": "uint256"
            },
            {
              "internalType": "uint256",
              "name": "endTime",
              "type": "uint256"
            },
            {
              "internalType": "uint256[]",
              "name": "params",
              "type": "uint256[]"
            },
            {
              "internalType": "address",
              "name": "oracleId",
              "type": "address"
            },
            {
              "internalType": "address",
              "name": "token",
              "type": "address"
            },
            {
              "internalType": "address",
              "name": "syntheticId",
              "type": "address"
            }
          ],
          "internalType": "struct LibDerivative.Derivative",
          "name": "_derivative",
          "type": "tuple"
        }
      ],
      "name": "getOrCacheMargin",
      "outputs": [
        {
          "internalType": "uint256",
          "name": "buyerMargin",
          "type": "uint256"
        },
        {
          "internalType": "uint256",
          "name": "sellerMargin",
          "type": "uint256"
        }
      ],
      "stateMutability": "nonpayable",
      "type": "function"
    },
    {
      "inputs": [
        {
          "internalType": "bytes32",
          "name": "_derivativeHash",
          "type": "bytes32"
        },
        {
          "components": [
            {
              "internalType": "uint256",
              "name": "margin",
              "type": "uint256"
            },
            {
              "internalType": "uint256",
              "name": "endTime",
              "type": "uint256"
            },
            {
              "internalType": "uint256[]",
              "name": "params",
              "type": "uint256[]"
            },
            {
              "internalType": "address",
              "name": "oracleId",
              "type": "address"
            },
            {
              "internalType": "address",
              "name": "token",
              "type": "address"
            },
            {
              "internalType": "address",
              "name": "syntheticId",
              "type": "address"
            }
          ],
          "internalType": "struct LibDerivative.Derivative",
          "name": "_derivative",
          "type": "tuple"
        }
      ],
      "name": "getOrCacheSyntheticCache",
      "outputs": [
        {
          "components": [
            {
              "internalType": "uint256",
              "name": "buyerMargin",
              "type": "uint256"
            },
            {
              "internalType": "uint256",
              "name": "sellerMargin",
              "type": "uint256"
            },
            {
              "internalType": "uint256",
              "name": "authorCommission",
              "type": "uint256"
            },
            {
              "internalType": "address",
              "name": "authorAddress",
              "type": "address"
            },
            {
              "internalType": "bool",
              "name": "init",
              "type": "bool"
            }
          ],
          "internalType": "struct SyntheticAggregator.SyntheticCache",
          "name": "",
          "type": "tuple"
        }
      ],
      "stateMutability": "nonpayable",
      "type": "function"
    },
    {
      "inputs": [],
      "name": "getRegistry",
      "outputs": [
        {
          "internalType": "address",
          "name": "",
          "type": "address"
        }
      ],
      "stateMutability": "view",
      "type": "function"
    },
    {
      "inputs": [
        {
          "internalType": "address",
          "name": "_registry",
          "type": "address"
        }
      ],
      "name": "initialize",
      "outputs": [],
      "stateMutability": "nonpayable",
      "type": "function"
    },
    {
      "inputs": [
        {
          "internalType": "address",
          "name": "_registry",
          "type": "address"
        }
      ],
      "name": "setRegistry",
      "outputs": [],
      "stateMutability": "nonpayable",
      "type": "function"
    }
  ],
  "transactionHash": "0x168ffc9ddde05d245f391b1c5b6419bfc24b0056e49c85d0ca8e01acd0a9c25c",
  "args": [],
  "solcInputHash": "58dbb558cb816b5402f8301bbf18d319",
  "bytecode": "0x608060405234801561001057600080fd5b50611020806100206000396000f3fe608060405234801561001057600080fd5b50600436106100675760003560e01c8063a28702f111610050578063a28702f1146100b4578063a91ee0dc14610114578063c4d66de81461012957600080fd5b80635ab1bd531461006c5780638d52f0701461008c575b600080fd5b6033546040516001600160a01b0390911681526020015b60405180910390f35b61009f61009a366004610b92565b61013c565b60408051928352602083019190915201610083565b6100c76100c2366004610b92565b61018d565b6040516100839190600060a0820190508251825260208301516020830152604083015160408301526001600160a01b03606084015116606083015260808301511515608083015292915050565b610127610122366004610b2f565b610258565b005b610127610137366004610b2f565b610362565b6000828152606660205260408120600301548190600160a01b900460ff16610170576101708461016b85610ec2565b610427565b505050600090815260666020526040902080546001909101549091565b6101ca6040518060a0016040528060008152602001600081526020016000815260200160006001600160a01b031681526020016000151581525090565b600083815260666020526040902060030154600160a01b900460ff166101f7576101f78361016b84610ec2565b5050600090815260666020908152604091829020825160a081018452815481526001820154928101929092526002810154928201929092526003909101546001600160a01b0381166060830152600160a01b900460ff161515608082015290565b603354604051634048d90960e01b81523360048201526001600160a01b0390911690634048d9099060240160206040518083038186803b15801561029b57600080fd5b505afa1580156102af573d6000803e3d6000fd5b505050506040513d601f19601f820116820180604052508101906102d39190610b70565b6103095760405162461bcd60e51b81526020600482015260026024820152614d3160f01b60448201526064015b60405180910390fd5b6033805473ffffffffffffffffffffffffffffffffffffffff19166001600160a01b03831690811790915560405133907fec10a16af385903532506d1567380fd8d93d880e8ed4bcacc42b0848e781406a90600090a350565b600054610100900460ff168061037b575060005460ff16155b6103de5760405162461bcd60e51b815260206004820152602e60248201527f496e697469616c697a61626c653a20636f6e747261637420697320616c72656160448201526d191e481a5b9a5d1a585b1a5e995960921b6064820152608401610300565b600054610100900460ff16158015610400576000805461ffff19166101011790555b61040982610831565b61041161094d565b8015610423576000805461ff00191690555b5050565b6002600154141561047a5760405162461bcd60e51b815260206004820152601f60248201527f5265656e7472616e637947756172643a207265656e7472616e742063616c6c006044820152606401610300565b6002600155600061048a82610a08565b90508281146104c05760405162461bcd60e51b8152602060048201526002602482015261533160f01b6044820152606401610300565b6000808360a001516001600160a01b0316630433fe45856040518263ffffffff1660e01b81526004016104f39190610dbe565b604080518083038186803b15801561050a57600080fd5b505afa15801561051e573d6000803e3d6000fd5b505050506040513d601f19601f820116820180604052508101906105429190610cbe565b9150915081600014158061055557508015155b6105865760405162461bcd60e51b8152602060048201526002602482015261299960f11b6044820152606401610300565b60008460a001516001600160a01b0316633a84543e6040518163ffffffff1660e01b815260040160206040518083038186803b1580156105c557600080fd5b505afa1580156105d9573d6000803e3d6000fd5b505050506040513d601f19601f820116820180604052508101906105fd9190610ca5565b90506000603360009054906101000a90046001600160a01b03166001600160a01b031663c58aad876040518163ffffffff1660e01b81526004016101006040518083038186803b15801561065057600080fd5b505afa158015610664573d6000803e3d6000fd5b505050506040513d601f19601f820116820180604052508101906106889190610be0565b9050806020015163ffffffff168211156106c95760405162461bcd60e51b8152602060048201526002602482015261533360f01b6044820152606401610300565b6040518060a001604052808581526020018481526020018381526020018760a001516001600160a01b031663a4300ee56040518163ffffffff1660e01b815260040160206040518083038186803b15801561072357600080fd5b505afa158015610737573d6000803e3d6000fd5b505050506040513d601f19601f8201168201806040525081019061075b9190610b53565b6001600160a01b039081168252600160209283018190526000898152606684526040908190208551815593850151918401919091558381015160028401556060840151600390930180546080909501511515600160a01b027fffffffffffffffffffffff0000000000000000000000000000000000000000009095169390921692909217929092179091555185906107f4908890610d15565b604051908190038120907f29aa7d92d69bcc6e17d252d7860e10e2a096dbb7d00b9017322852681fc8693590600090a35050600180555050505050565b600054610100900460ff168061084a575060005460ff16155b6108ad5760405162461bcd60e51b815260206004820152602e60248201527f496e697469616c697a61626c653a20636f6e747261637420697320616c72656160448201526d191e481a5b9a5d1a585b1a5e995960921b6064820152608401610300565b600054610100900460ff161580156108cf576000805461ffff19166101011790555b6001600160a01b0382166108e257600080fd5b6033805473ffffffffffffffffffffffffffffffffffffffff19166001600160a01b03841690811790915560405133907fec10a16af385903532506d1567380fd8d93d880e8ed4bcacc42b0848e781406a90600090a38015610423576000805461ff00191690555050565b600054610100900460ff1680610966575060005460ff16155b6109c95760405162461bcd60e51b815260206004820152602e60248201527f496e697469616c697a61626c653a20636f6e747261637420697320616c72656160448201526d191e481a5b9a5d1a585b1a5e995960921b6064820152608401610300565b600054610100900460ff161580156109eb576000805461ffff19166101011790555b6109f3610a55565b8015610a05576000805461ff00191690555b50565b80516020808301516040808501516060860151608087015160a08801519351600097610a38979096959101610d6d565b604051602081830303815290604052805190602001209050919050565b600054610100900460ff1680610a6e575060005460ff16155b610ad15760405162461bcd60e51b815260206004820152602e60248201527f496e697469616c697a61626c653a20636f6e747261637420697320616c72656160448201526d191e481a5b9a5d1a585b1a5e995960921b6064820152608401610300565b600054610100900460ff16158015610af3576000805461ffff19166101011790555b600180558015610a05576000805461ff001916905550565b8035610b1681610fd5565b919050565b805163ffffffff81168114610b1657600080fd5b600060208284031215610b4157600080fd5b8135610b4c81610fd5565b9392505050565b600060208284031215610b6557600080fd5b8151610b4c81610fd5565b600060208284031215610b8257600080fd5b81518015158114610b4c57600080fd5b60008060408385031215610ba557600080fd5b82359150602083013567ffffffffffffffff811115610bc357600080fd5b830160c08186031215610bd557600080fd5b809150509250929050565b6000610100808385031215610bf457600080fd5b6040519081019067ffffffffffffffff82118183101715610c1757610c17610fbf565b81604052610c2484610b1b565b8152610c3260208501610b1b565b6020820152610c4360408501610b1b565b6040820152610c5460608501610b1b565b6060820152610c6560808501610b1b565b6080820152610c7660a08501610b1b565b60a0820152610c8760c08501610b1b565b60c0820152610c9860e08501610b1b565b60e0820152949350505050565b600060208284031215610cb757600080fd5b5051919050565b60008060408385031215610cd157600080fd5b505080516020909101519092909150565b60008151602080840160005b83811015610d0a57815187529582019590820190600101610cee565b509495945050505050565b81518152602082015160208201526000610d36604083016040850151610ce2565b6001600160a01b038060608601511682528060808601511660208301528060a0860151166040830152506060810191505092915050565b8681528560208201526000610d856040830187610ce2565b6bffffffffffffffffffffffff19606096871b8116825294861b851660148201529290941b9092166028820152603c0195945050505050565b6000602080835260e08301845182850152818501516040850152604085015160c06060860152818151808452610100870191508483019350600092505b80831015610e1b5783518252928401926001929092019190840190610dfb565b5060608701516001600160a01b0381166080880152935060808701516001600160a01b03811660a0880152935060a08701516001600160a01b03811660c088015293509695505050505050565b60405160c0810167ffffffffffffffff81118282101715610e8b57610e8b610fbf565b60405290565b604051601f8201601f1916810167ffffffffffffffff81118282101715610eba57610eba610fbf565b604052919050565b600060c08236031215610ed457600080fd5b610edc610e68565b8235815260208084013581830152604084013567ffffffffffffffff80821115610f0557600080fd5b9085019036601f830112610f1857600080fd5b813581811115610f2a57610f2a610fbf565b8060051b9150610f3b848301610e91565b818152848101908486013685870188011115610f5657600080fd5b600095505b83861015610f79578035835260019590950194918601918601610f5b565b50806040880152505050505050610f9260608401610b0b565b6060820152610fa360808401610b0b565b6080820152610fb460a08401610b0b565b60a082015292915050565b634e487b7160e01b600052604160045260246000fd5b6001600160a01b0381168114610a0557600080fdfea2646970667358221220d0311cba0ad1eba0015af137d5d1468a6417cfede0d61ad57a6614adcb41236864736f6c63430008050033",
  "devdoc": {
    "kind": "dev",
    "methods": {
      "getOrCacheMargin(bytes32,(uint256,uint256,uint256[],address,address,address))": {
        "params": {
          "_derivative": "LibDerivative.Derivative itself",
          "_derivativeHash": "bytes32 hash of derivative"
        },
        "returns": {
          "buyerMargin": "uint256 Margin of buyer",
          "sellerMargin": "uint256 Margin of seller"
        }
      },
      "getOrCacheSyntheticCache(bytes32,(uint256,uint256,uint256[],address,address,address))": {
        "params": {
          "_derivative": "LibDerivative.Derivative itself",
          "_derivativeHash": "bytes32 hash of derivative"
        }
      }
    },
    "version": 1
  },
  "userdoc": {
    "kind": "user",
    "methods": {
      "getOrCacheMargin(bytes32,(uint256,uint256,uint256[],address,address,address))": {
        "notice": "Initializes ticker, if was not initialized and returns buyer and seller margin from cache"
      },
      "getOrCacheSyntheticCache(bytes32,(uint256,uint256,uint256[],address,address,address))": {
        "notice": "Initializes ticker if not previously initialized and returns the cached `syntheticId` data"
      }
    },
    "notice": "Opium.SyntheticAggregator contract initialized, identifies and caches syntheticId sensitive data",
    "version": 1
  },
  "storageLayout": {
    "storage": [
      {
        "astId": 539,
        "contract": "contracts/core/SyntheticAggregator.sol:SyntheticAggregator",
        "label": "_initialized",
        "offset": 0,
        "slot": "0",
        "type": "t_bool"
      },
      {
        "astId": 542,
        "contract": "contracts/core/SyntheticAggregator.sol:SyntheticAggregator",
        "label": "_initializing",
        "offset": 1,
        "slot": "0",
        "type": "t_bool"
      },
      {
        "astId": 593,
        "contract": "contracts/core/SyntheticAggregator.sol:SyntheticAggregator",
        "label": "_status",
        "offset": 0,
        "slot": "1",
        "type": "t_uint256"
      },
      {
        "astId": 636,
        "contract": "contracts/core/SyntheticAggregator.sol:SyntheticAggregator",
        "label": "__gap",
        "offset": 0,
        "slot": "2",
        "type": "t_array(t_uint256)49_storage"
      },
      {
        "astId": 5809,
        "contract": "contracts/core/SyntheticAggregator.sol:SyntheticAggregator",
        "label": "registry",
        "offset": 0,
        "slot": "51",
        "type": "t_contract(IRegistry)8116"
      },
      {
        "astId": 5899,
        "contract": "contracts/core/SyntheticAggregator.sol:SyntheticAggregator",
        "label": "__gap",
        "offset": 0,
        "slot": "52",
        "type": "t_array(t_uint256)50_storage"
      },
      {
        "astId": 5544,
        "contract": "contracts/core/SyntheticAggregator.sol:SyntheticAggregator",
        "label": "syntheticCaches",
        "offset": 0,
        "slot": "102",
        "type": "t_mapping(t_bytes32,t_struct(SyntheticCache)5539_storage)"
      },
      {
        "astId": 5724,
        "contract": "contracts/core/SyntheticAggregator.sol:SyntheticAggregator",
        "label": "__gap",
        "offset": 0,
        "slot": "103",
        "type": "t_array(t_uint256)50_storage"
      }
    ],
    "types": {
      "t_address": {
        "encoding": "inplace",
        "label": "address",
        "numberOfBytes": "20"
      },
      "t_array(t_uint256)49_storage": {
        "base": "t_uint256",
        "encoding": "inplace",
        "label": "uint256[49]",
        "numberOfBytes": "1568"
      },
      "t_array(t_uint256)50_storage": {
        "base": "t_uint256",
        "encoding": "inplace",
        "label": "uint256[50]",
        "numberOfBytes": "1600"
      },
      "t_bool": {
        "encoding": "inplace",
        "label": "bool",
        "numberOfBytes": "1"
      },
      "t_bytes32": {
        "encoding": "inplace",
        "label": "bytes32",
        "numberOfBytes": "32"
      },
      "t_contract(IRegistry)8116": {
        "encoding": "inplace",
        "label": "contract IRegistry",
        "numberOfBytes": "20"
      },
      "t_mapping(t_bytes32,t_struct(SyntheticCache)5539_storage)": {
        "encoding": "mapping",
        "key": "t_bytes32",
        "label": "mapping(bytes32 => struct SyntheticAggregator.SyntheticCache)",
        "numberOfBytes": "32",
        "value": "t_struct(SyntheticCache)5539_storage"
      },
      "t_struct(SyntheticCache)5539_storage": {
        "encoding": "inplace",
        "label": "struct SyntheticAggregator.SyntheticCache",
        "members": [
          {
            "astId": 5530,
            "contract": "contracts/core/SyntheticAggregator.sol:SyntheticAggregator",
            "label": "buyerMargin",
            "offset": 0,
            "slot": "0",
            "type": "t_uint256"
          },
          {
            "astId": 5532,
            "contract": "contracts/core/SyntheticAggregator.sol:SyntheticAggregator",
            "label": "sellerMargin",
            "offset": 0,
            "slot": "1",
            "type": "t_uint256"
          },
          {
            "astId": 5534,
            "contract": "contracts/core/SyntheticAggregator.sol:SyntheticAggregator",
            "label": "authorCommission",
            "offset": 0,
            "slot": "2",
            "type": "t_uint256"
          },
          {
            "astId": 5536,
            "contract": "contracts/core/SyntheticAggregator.sol:SyntheticAggregator",
            "label": "authorAddress",
            "offset": 0,
            "slot": "3",
            "type": "t_address"
          },
          {
            "astId": 5538,
            "contract": "contracts/core/SyntheticAggregator.sol:SyntheticAggregator",
            "label": "init",
            "offset": 20,
            "slot": "3",
            "type": "t_bool"
          }
        ],
        "numberOfBytes": "128"
      },
      "t_uint256": {
        "encoding": "inplace",
        "label": "uint256",
        "numberOfBytes": "32"
      }
    }
  }
}