{
  "address": "0xC3e733eaCCD9c3bc54450aCe8074F589760Ae079",
  "abi": [
    {
      "anonymous": false,
      "inputs": [
        {
          "indexed": true,
          "internalType": "address",
          "name": "_oracleId",
          "type": "address"
        },
        {
          "indexed": true,
          "internalType": "uint256",
          "name": "_timestamp",
          "type": "uint256"
        },
        {
          "indexed": true,
          "internalType": "uint256",
          "name": "_data",
          "type": "uint256"
        }
      ],
      "name": "LogDataProvided",
      "type": "event"
    },
    {
      "inputs": [
        {
          "internalType": "uint256",
          "name": "timestamp",
          "type": "uint256"
        },
        {
          "internalType": "uint256",
          "name": "data",
          "type": "uint256"
        }
      ],
      "name": "__callback",
      "outputs": [],
      "stateMutability": "nonpayable",
      "type": "function"
    },
    {
      "inputs": [
        {
          "internalType": "address",
          "name": "oracleId",
          "type": "address"
        },
        {
          "internalType": "uint256",
          "name": "timestamp",
          "type": "uint256"
        }
      ],
      "name": "getData",
      "outputs": [
        {
          "internalType": "uint256",
          "name": "dataResult",
          "type": "uint256"
        }
      ],
      "stateMutability": "view",
      "type": "function"
    },
    {
      "inputs": [
        {
          "internalType": "address",
          "name": "oracleId",
          "type": "address"
        },
        {
          "internalType": "uint256",
          "name": "timestamp",
          "type": "uint256"
        }
      ],
      "name": "hasData",
      "outputs": [
        {
          "internalType": "bool",
          "name": "result",
          "type": "bool"
        }
      ],
      "stateMutability": "view",
      "type": "function"
    }
  ],
  "transactionHash": "0x2c763fdaa099e1f64690684539bb778af4fccacb3c64514a31c7c341aa1a4d02",
  "args": [],
  "solcInputHash": "bb75287ab88909f5b293c59b7a90cef6",
  "bytecode": "0x608060405234801561001057600080fd5b50610297806100206000396000f3fe608060405234801561001057600080fd5b50600436106100415760003560e01c80632979d025146100465780633102e5ab1461006c578063c8384d2f14610081575b600080fd5b610059610054366004610207565b6100ca565b6040519081526020015b60405180910390f35b61007f61007a36600461023f565b61014d565b005b6100ba61008f366004610207565b6001600160a01b03919091166000908152600160209081526040808320938352929052205460ff1690565b6040519015158152602001610063565b6001600160a01b038216600090815260016020908152604080832084845290915281205460ff166101275760405162461bcd60e51b8152602060048201526002602482015261279960f11b60448201526064015b60405180910390fd5b506001600160a01b03909116600090815260208181526040808320938352929052205490565b33600090815260016020908152604080832085845290915290205460ff161561019d5760405162461bcd60e51b81526020600482015260026024820152614f3160f01b604482015260640161011e565b3360008181526020818152604080832086845282528083208590558383526001808352818420878552909252808320805460ff1916909217909155518392859290917fbafe09c91210ac772a509fe28b36bf6b3c82f1aa1db44d58721d57a9595417de9190a45050565b6000806040838503121561021a57600080fd5b82356001600160a01b038116811461023157600080fd5b946020939093013593505050565b6000806040838503121561025257600080fd5b5050803592602090910135915056fea2646970667358221220285c5e7f5702c9e18d23c3371355364ac0c60109d736d927c56bd1a49355bd7864736f6c63430008050033",
  "devdoc": {
    "kind": "dev",
    "methods": {
      "__callback(uint256,uint256)": {
        "params": {
          "data": "uint256 Data itself",
          "timestamp": "uint256 Timestamp of data"
        }
      },
      "getData(address,uint256)": {
        "params": {
          "oracleId": "address Address of the `oracleId` smart contract",
          "timestamp": "uint256 Timestamp at which data were requested"
        },
        "returns": {
          "dataResult": "uint256 Cached data provided by `oracleId`"
        }
      },
      "hasData(address,uint256)": {
        "params": {
          "oracleId": "address Address of the `oracleId` smart contract",
          "result": "bool Returns whether data were provided already",
          "timestamp": "uint256 Timestamp at which data were requested"
        }
      }
    },
    "title": "Opium.OracleAggregator contract requests and caches the data from `oracleId`s and provides them to the Core for positions execution",
    "version": 1
  },
  "userdoc": {
    "kind": "user",
    "methods": {
      "__callback(uint256,uint256)": {
        "notice": "Receives and caches data from `msg.sender`"
      },
      "getData(address,uint256)": {
        "notice": "Returns cached data if they exist, or reverts with an error"
      },
      "hasData(address,uint256)": {
        "notice": "Getter for dataExist mapping"
      }
    },
    "version": 1
  },
  "storageLayout": {
    "storage": [
      {
        "astId": 16,
        "contract": "contracts/core/OracleAggregator.sol:OracleAggregator",
        "label": "dataCache",
        "offset": 0,
        "slot": "0",
        "type": "t_mapping(t_address,t_mapping(t_uint256,t_uint256))"
      },
      {
        "astId": 22,
        "contract": "contracts/core/OracleAggregator.sol:OracleAggregator",
        "label": "dataExist",
        "offset": 0,
        "slot": "1",
        "type": "t_mapping(t_address,t_mapping(t_uint256,t_bool))"
      },
      {
        "astId": 115,
        "contract": "contracts/core/OracleAggregator.sol:OracleAggregator",
        "label": "__gap",
        "offset": 0,
        "slot": "2",
        "type": "t_array(t_uint256)50_storage"
      }
    ],
    "types": {
      "t_address": {
        "encoding": "inplace",
        "label": "address",
        "numberOfBytes": "20"
      },
      "t_array(t_uint256)50_storage": {
        "base": "t_uint256",
        "encoding": "inplace",
        "label": "uint256[50]",
        "numberOfBytes": "1600"
      },
      "t_bool": {
        "encoding": "inplace",
        "label": "bool",
        "numberOfBytes": "1"
      },
      "t_mapping(t_address,t_mapping(t_uint256,t_bool))": {
        "encoding": "mapping",
        "key": "t_address",
        "label": "mapping(address => mapping(uint256 => bool))",
        "numberOfBytes": "32",
        "value": "t_mapping(t_uint256,t_bool)"
      },
      "t_mapping(t_address,t_mapping(t_uint256,t_uint256))": {
        "encoding": "mapping",
        "key": "t_address",
        "label": "mapping(address => mapping(uint256 => uint256))",
        "numberOfBytes": "32",
        "value": "t_mapping(t_uint256,t_uint256)"
      },
      "t_mapping(t_uint256,t_bool)": {
        "encoding": "mapping",
        "key": "t_uint256",
        "label": "mapping(uint256 => bool)",
        "numberOfBytes": "32",
        "value": "t_bool"
      },
      "t_mapping(t_uint256,t_uint256)": {
        "encoding": "mapping",
        "key": "t_uint256",
        "label": "mapping(uint256 => uint256)",
        "numberOfBytes": "32",
        "value": "t_uint256"
      },
      "t_uint256": {
        "encoding": "inplace",
        "label": "uint256",
        "numberOfBytes": "32"
      }
    }
  }
}