{
  "address": "0x5854694204828385ED3d5B9d0FF912794D78cdaE",
  "abi": [
    {
      "anonymous": false,
      "inputs": [
        {
          "indexed": true,
          "internalType": "address",
          "name": "_positionOwner",
          "type": "address"
        },
        {
          "indexed": true,
          "internalType": "bytes32",
          "name": "_derivativeHash",
          "type": "bytes32"
        },
        {
          "indexed": false,
          "internalType": "uint256",
          "name": "_amount",
          "type": "uint256"
        }
      ],
      "name": "LogCancelled",
      "type": "event"
    },
    {
      "anonymous": false,
      "inputs": [
        {
          "indexed": true,
          "internalType": "address",
          "name": "_buyer",
          "type": "address"
        },
        {
          "indexed": true,
          "internalType": "address",
          "name": "_seller",
          "type": "address"
        },
        {
          "indexed": true,
          "internalType": "bytes32",
          "name": "_derivativeHash",
          "type": "bytes32"
        },
        {
          "indexed": false,
          "internalType": "uint256",
          "name": "_amount",
          "type": "uint256"
        }
      ],
      "name": "LogCreated",
      "type": "event"
    },
    {
      "anonymous": false,
      "inputs": [
        {
          "indexed": true,
          "internalType": "address",
          "name": "_positionOwner",
          "type": "address"
        },
        {
          "indexed": true,
          "internalType": "bytes32",
          "name": "_derivativeHash",
          "type": "bytes32"
        }
      ],
      "name": "LogDerivativeHashCancelled",
      "type": "event"
    },
    {
      "anonymous": false,
      "inputs": [
        {
          "indexed": true,
          "internalType": "address",
          "name": "_positionsOwner",
          "type": "address"
        },
        {
          "indexed": true,
          "internalType": "address",
          "name": "_positionAddress",
          "type": "address"
        },
        {
          "indexed": false,
          "internalType": "uint256",
          "name": "_amount",
          "type": "uint256"
        }
      ],
      "name": "LogExecuted",
      "type": "event"
    },
    {
      "anonymous": false,
      "inputs": [
        {
          "indexed": true,
          "internalType": "address",
          "name": "_buyer",
          "type": "address"
        },
        {
          "indexed": true,
          "internalType": "address",
          "name": "_seller",
          "type": "address"
        },
        {
          "indexed": true,
          "internalType": "bytes32",
          "name": "_derivativeHash",
          "type": "bytes32"
        },
        {
          "indexed": false,
          "internalType": "uint256",
          "name": "_amount",
          "type": "uint256"
        }
      ],
      "name": "LogMinted",
      "type": "event"
    },
    {
      "anonymous": false,
      "inputs": [
        {
          "indexed": true,
          "internalType": "address",
          "name": "_positionOwner",
          "type": "address"
        },
        {
          "indexed": true,
          "internalType": "bytes32",
          "name": "_derivativeHash",
          "type": "bytes32"
        },
        {
          "indexed": false,
          "internalType": "uint256",
          "name": "_amount",
          "type": "uint256"
        }
      ],
      "name": "LogRedeemed",
      "type": "event"
    },
    {
      "anonymous": false,
      "inputs": [
        {
          "indexed": true,
          "internalType": "address",
          "name": "_changer",
          "type": "address"
        },
        {
          "indexed": true,
          "internalType": "address",
          "name": "_newRegistryAddress",
          "type": "address"
        }
      ],
      "name": "LogRegistryChanged",
      "type": "event"
    },
    {
      "inputs": [
        {
          "internalType": "address[]",
          "name": "_positionsAddresses",
          "type": "address[]"
        },
        {
          "internalType": "uint256[]",
          "name": "_amounts",
          "type": "uint256[]"
        }
      ],
      "name": "cancel",
      "outputs": [],
      "stateMutability": "nonpayable",
      "type": "function"
    },
    {
      "inputs": [
        {
          "internalType": "address",
          "name": "_positionAddress",
          "type": "address"
        },
        {
          "internalType": "uint256",
          "name": "_amount",
          "type": "uint256"
        }
      ],
      "name": "cancel",
      "outputs": [],
      "stateMutability": "nonpayable",
      "type": "function"
    },
    {
      "inputs": [
        {
          "internalType": "address",
          "name": "_tokenAddress",
          "type": "address"
        },
        {
          "internalType": "uint256",
          "name": "_amount",
          "type": "uint256"
        }
      ],
      "name": "claimReserves",
      "outputs": [],
      "stateMutability": "nonpayable",
      "type": "function"
    },
    {
      "inputs": [
        {
          "internalType": "address",
          "name": "_tokenAddress",
          "type": "address"
        }
      ],
      "name": "claimReserves",
      "outputs": [],
      "stateMutability": "nonpayable",
      "type": "function"
    },
    {
      "inputs": [
        {
          "components": [
            {
              "internalType": "uint256",
              "name": "margin",
              "type": "uint256"
            },
            {
              "internalType": "uint256",
              "name": "endTime",
              "type": "uint256"
            },
            {
              "internalType": "uint256[]",
              "name": "params",
              "type": "uint256[]"
            },
            {
              "internalType": "address",
              "name": "oracleId",
              "type": "address"
            },
            {
              "internalType": "address",
              "name": "token",
              "type": "address"
            },
            {
              "internalType": "address",
              "name": "syntheticId",
              "type": "address"
            }
          ],
          "internalType": "struct LibDerivative.Derivative",
          "name": "_derivative",
          "type": "tuple"
        },
        {
          "internalType": "uint256",
          "name": "_amount",
          "type": "uint256"
        },
        {
          "internalType": "address[2]",
          "name": "_positionsOwners",
          "type": "address[2]"
        }
      ],
      "name": "create",
      "outputs": [],
      "stateMutability": "nonpayable",
      "type": "function"
    },
    {
      "inputs": [
        {
          "components": [
            {
              "internalType": "uint256",
              "name": "margin",
              "type": "uint256"
            },
            {
              "internalType": "uint256",
              "name": "endTime",
              "type": "uint256"
            },
            {
              "internalType": "uint256[]",
              "name": "params",
              "type": "uint256[]"
            },
            {
              "internalType": "address",
              "name": "oracleId",
              "type": "address"
            },
            {
              "internalType": "address",
              "name": "token",
              "type": "address"
            },
            {
              "internalType": "address",
              "name": "syntheticId",
              "type": "address"
            }
          ],
          "internalType": "struct LibDerivative.Derivative",
          "name": "_derivative",
          "type": "tuple"
        },
        {
          "internalType": "uint256",
          "name": "_amount",
          "type": "uint256"
        },
        {
          "internalType": "address[2]",
          "name": "_positionsOwners",
          "type": "address[2]"
        }
      ],
      "name": "createAndMint",
      "outputs": [],
      "stateMutability": "nonpayable",
      "type": "function"
    },
    {
      "inputs": [
        {
          "internalType": "address",
          "name": "_positionAddress",
          "type": "address"
        },
        {
          "internalType": "uint256",
          "name": "_amount",
          "type": "uint256"
        }
      ],
      "name": "execute",
      "outputs": [],
      "stateMutability": "nonpayable",
      "type": "function"
    },
    {
      "inputs": [
        {
          "internalType": "address[]",
          "name": "_positionsAddresses",
          "type": "address[]"
        },
        {
          "internalType": "uint256[]",
          "name": "_amounts",
          "type": "uint256[]"
        }
      ],
      "name": "execute",
      "outputs": [],
      "stateMutability": "nonpayable",
      "type": "function"
    },
    {
      "inputs": [
        {
          "internalType": "address",
          "name": "_positionsOwner",
          "type": "address"
        },
        {
          "internalType": "address[]",
          "name": "_positionsAddresses",
          "type": "address[]"
        },
        {
          "internalType": "uint256[]",
          "name": "_amounts",
          "type": "uint256[]"
        }
      ],
      "name": "execute",
      "outputs": [],
      "stateMutability": "nonpayable",
      "type": "function"
    },
    {
      "inputs": [
        {
          "internalType": "address",
          "name": "_positionOwner",
          "type": "address"
        },
        {
          "internalType": "address",
          "name": "_positionAddress",
          "type": "address"
        },
        {
          "internalType": "uint256",
          "name": "_amount",
          "type": "uint256"
        }
      ],
      "name": "execute",
      "outputs": [],
      "stateMutability": "nonpayable",
      "type": "function"
    },
    {
      "inputs": [
        {
          "internalType": "bytes32",
          "name": "_derivativeHash",
          "type": "bytes32"
        }
      ],
      "name": "getDerivativePayouts",
      "outputs": [
        {
          "internalType": "uint256[2]",
          "name": "",
          "type": "uint256[2]"
        }
      ],
      "stateMutability": "view",
      "type": "function"
    },
    {
      "inputs": [
        {
          "internalType": "bytes32",
          "name": "_derivativeHash",
          "type": "bytes32"
        }
      ],
      "name": "getP2pDerivativeVaultFunds",
      "outputs": [
        {
          "internalType": "uint256",
          "name": "",
          "type": "uint256"
        }
      ],
      "stateMutability": "view",
      "type": "function"
    },
    {
      "inputs": [],
      "name": "getProtocolAddresses",
      "outputs": [
        {
          "components": [
            {
              "internalType": "address",
              "name": "core",
              "type": "address"
            },
            {
              "internalType": "address",
              "name": "opiumProxyFactory",
              "type": "address"
            },
            {
              "internalType": "address",
              "name": "oracleAggregator",
              "type": "address"
            },
            {
              "internalType": "address",
              "name": "syntheticAggregator",
              "type": "address"
            },
            {
              "internalType": "address",
              "name": "tokenSpender",
              "type": "address"
            },
            {
              "internalType": "address",
              "name": "protocolExecutionReserveClaimer",
              "type": "address"
            },
            {
              "internalType": "address",
              "name": "protocolRedemptionReserveClaimer",
              "type": "address"
            },
            {
              "internalType": "uint32",
              "name": "__gapOne",
              "type": "uint32"
            },
            {
              "internalType": "uint32",
              "name": "__gapTwo",
              "type": "uint32"
            }
          ],
          "internalType": "struct RegistryEntities.ProtocolAddressesArgs",
          "name": "",
          "type": "tuple"
        }
      ],
      "stateMutability": "view",
      "type": "function"
    },
    {
      "inputs": [],
      "name": "getProtocolParametersArgs",
      "outputs": [
        {
          "components": [
            {
              "internalType": "uint32",
              "name": "noDataCancellationPeriod",
              "type": "uint32"
            },
            {
              "internalType": "uint32",
              "name": "derivativeAuthorExecutionFeeCap",
              "type": "uint32"
            },
            {
              "internalType": "uint32",
              "name": "derivativeAuthorRedemptionReservePart",
              "type": "uint32"
            },
            {
              "internalType": "uint32",
              "name": "protocolExecutionReservePart",
              "type": "uint32"
            },
            {
              "internalType": "uint32",
              "name": "protocolRedemptionReservePart",
              "type": "uint32"
            },
            {
              "internalType": "uint32",
              "name": "__gapOne",
              "type": "uint32"
            },
            {
              "internalType": "uint32",
              "name": "__gapTwo",
              "type": "uint32"
            },
            {
              "internalType": "uint32",
              "name": "__gapThree",
              "type": "uint32"
            }
          ],
          "internalType": "struct RegistryEntities.ProtocolParametersArgs",
          "name": "",
          "type": "tuple"
        }
      ],
      "stateMutability": "view",
      "type": "function"
    },
    {
      "inputs": [],
      "name": "getRegistry",
      "outputs": [
        {
          "internalType": "address",
          "name": "",
          "type": "address"
        }
      ],
      "stateMutability": "view",
      "type": "function"
    },
    {
      "inputs": [
        {
          "internalType": "address",
          "name": "_reseveRecipient",
          "type": "address"
        },
        {
          "internalType": "address",
          "name": "_token",
          "type": "address"
        }
      ],
      "name": "getReservesVaultBalance",
      "outputs": [
        {
          "internalType": "uint256",
          "name": "",
          "type": "uint256"
        }
      ],
      "stateMutability": "view",
      "type": "function"
    },
    {
      "inputs": [
        {
          "internalType": "address",
          "name": "_registry",
          "type": "address"
        }
      ],
      "name": "initialize",
      "outputs": [],
      "stateMutability": "nonpayable",
      "type": "function"
    },
    {
      "inputs": [
        {
          "internalType": "bytes32",
          "name": "_derivativeHash",
          "type": "bytes32"
        }
      ],
      "name": "isDerivativeCancelled",
      "outputs": [
        {
          "internalType": "bool",
          "name": "",
          "type": "bool"
        }
      ],
      "stateMutability": "view",
      "type": "function"
    },
    {
      "inputs": [
        {
          "internalType": "uint256",
          "name": "_amount",
          "type": "uint256"
        },
        {
          "internalType": "address[2]",
          "name": "_positionsAddresses",
          "type": "address[2]"
        },
        {
          "internalType": "address[2]",
          "name": "_positionsOwners",
          "type": "address[2]"
        }
      ],
      "name": "mint",
      "outputs": [],
      "stateMutability": "nonpayable",
      "type": "function"
    },
    {
      "inputs": [
        {
          "internalType": "address[2]",
          "name": "_positionsAddresses",
          "type": "address[2]"
        },
        {
          "internalType": "uint256",
          "name": "_amount",
          "type": "uint256"
        }
      ],
      "name": "redeem",
      "outputs": [],
      "stateMutability": "nonpayable",
      "type": "function"
    },
    {
      "inputs": [
        {
          "internalType": "address[2][]",
          "name": "_positionsAddresses",
          "type": "address[2][]"
        },
        {
          "internalType": "uint256[]",
          "name": "_amounts",
          "type": "uint256[]"
        }
      ],
      "name": "redeem",
      "outputs": [],
      "stateMutability": "nonpayable",
      "type": "function"
    },
    {
      "inputs": [
        {
          "internalType": "address",
          "name": "_registry",
          "type": "address"
        }
      ],
      "name": "setRegistry",
      "outputs": [],
      "stateMutability": "nonpayable",
      "type": "function"
    },
    {
      "inputs": [],
      "name": "updateProtocolAddresses",
      "outputs": [],
      "stateMutability": "nonpayable",
      "type": "function"
    },
    {
      "inputs": [],
      "name": "updateProtocolParametersArgs",
      "outputs": [],
      "stateMutability": "nonpayable",
      "type": "function"
    }
  ],
  "transactionHash": "0x77d55bb119f2ae52dcf6d1349e025efa6f626884981d5f78b3d29de6a113436a",
  "args": [],
  "solcInputHash": "6906dc93f57e85482da6ea178e2dedc3",
  "bytecode": "0x608060405234801561001057600080fd5b50614c89806100206000396000f3fe608060405234801561001057600080fd5b50600436106101985760003560e01c8063a91ee0dc116100e3578063d7acb4481161008c578063e4a86da311610066578063e4a86da3146104fe578063e884c9d114610511578063eafaddfd1461052457600080fd5b8063d7acb448146104d0578063dca5a0b7146104e3578063df849d9c146104eb57600080fd5b8063c4d66de8116100bd578063c4d66de814610487578063ca6fd6cb1461049a578063cc15e2d2146104c857600080fd5b8063a91ee0dc14610389578063a95feeb61461039c578063ad9a9f4f1461047457600080fd5b80635d8228131161014557806398590ef91161011f57806398590ef9146102885780639aeea99d1461029b578063a1774da0146102ae57600080fd5b80635d8228131461024f57806372d33582146102625780637f2743c61461027557600080fd5b80634f937afc116101765780634f937afc146101ee578063553500b4146102215780635ab1bd531461023457600080fd5b80633b89bb861461019d57806346c22429146101b25780634ac77ac3146101c5575b600080fd5b6101b06101ab366004613f20565b610537565b005b6101b06101c0366004613f20565b610595565b6101d86101d336600461407f565b61073b565b6040516101e59190614762565b60405180910390f35b6102116101fc36600461407f565b6000908152606f602052604090205460ff1690565b60405190151581526020016101e5565b6101b061022f366004613f77565b610782565b6033546040516001600160a01b0390911681526020016101e5565b6101b061025d366004613e9d565b61086d565b6101b0610270366004613f77565b610926565b6101b0610283366004614098565b610a05565b6101b0610296366004613f20565b610be0565b6101b06102a9366004613de9565b610c30565b61037c6040805161012081018252600080825260208201819052918101829052606081018290526080810182905260a0810182905260c0810182905260e081018290526101008101919091525060408051610120810182526067546001600160a01b03908116825260685481166020830152606954811692820192909252606a5482166060820152606b5482166080820152606c54821660a0820152606d5491821660c082015263ffffffff600160a01b8304811660e0830152600160c01b90920490911661010082015290565b6040516101e5919061482d565b6101b0610397366004613de9565b610d5b565b6104676040805161010081018252600080825260208201819052918101829052606081018290526080810182905260a0810182905260c0810182905260e081019190915250604080516101008101825260665463ffffffff8082168352640100000000820481166020840152680100000000000000008204811693830193909352600160601b810483166060830152600160801b810483166080830152600160a01b8104831660a0830152600160c01b8104831660c0830152600160e01b900490911660e082015290565b6040516101e591906148b9565b6101b0610482366004614460565b610e60565b6101b0610495366004613de9565b610ef5565b6104ba6104a836600461407f565b6000908152606e602052604090205490565b6040519081526020016101e5565b6101b0611146565b6101b06104de366004614098565b61138f565b6101b06113ec565b6101b06104f9366004613f4c565b611636565b6101b061050c366004613fe3565b6116ab565b6104ba61051f366004613e23565b6117a5565b6101b0610532366004613e5c565b6117d2565b6002600154141561057d5760405162461bcd60e51b815260206004820152601f6024820152600080516020614c3483398151915260448201526064015b60405180910390fd5b600260015561058d33838361181f565b505060018055565b600260015414156105d65760405162461bcd60e51b815260206004820152601f6024820152600080516020614c348339815191526044820152606401610574565b60026001556033546040805163f5e0f84760e01b815290516001600160a01b039092169163f5e0f84791600480820192602092909190829003018186803b15801561062057600080fd5b505afa158015610634573d6000803e3d6000fd5b505050506040513d601f19601f820116820180604052508101906106589190614064565b1561068b5760405162461bcd60e51b815260206004820152600360248201526221991960e91b6044820152606401610574565b3360009081526071602090815260408083206001600160a01b0386168452909152902054818110156106e55760405162461bcd60e51b815260206004820152600360248201526243313560e81b6044820152606401610574565b3360009081526071602090815260408083206001600160a01b038716845290915281208054849290610718908490614a50565b9091555061073290506001600160a01b0384163384611ba8565b50506001805550565b610743613ccd565b600082815260706020526040908190208151808301928390529160029082845b8154815260200190600101908083116107635750505050509050919050565b600260015414156107c35760405162461bcd60e51b815260206004820152601f6024820152600080516020614c348339815191526044820152606401610574565b60026001558281146107fc5760405162461bcd60e51b8152602060048201526002602482015261433160f01b6044820152606401610574565b60005b83811015610862576108503386868481811061081d5761081d614bef565b90506020020160208101906108329190613de9565b85858581811061084457610844614bef565b9050602002013561181f565b8061085a81614b7e565b9150506107ff565b505060018055505050565b600260015414156108ae5760405162461bcd60e51b815260206004820152601f6024820152600080516020614c348339815191526044820152606401610574565b60026001558281146108e75760405162461bcd60e51b8152602060048201526002602482015261433160f01b6044820152606401610574565b60005b8381101561091a576109088686868481811061081d5761081d614bef565b8061091281614b7e565b9150506108ea565b50506001805550505050565b600260015414156109675760405162461bcd60e51b815260206004820152601f6024820152600080516020614c348339815191526044820152606401610574565b60026001558281146109a05760405162461bcd60e51b8152602060048201526002602482015261433160f01b6044820152606401610574565b60005b83811015610862576109f38585838181106109c0576109c0614bef565b90506020020160208101906109d59190613de9565b8484848181106109e7576109e7614bef565b90506020020135611bff565b806109fd81614b7e565b9150506109a3565b60026001541415610a465760405162461bcd60e51b815260206004820152601f6024820152600080516020614c348339815191526044820152606401610574565b60026001556000610a5e610a5985614a67565b61212a565b90506000606760010160009054906101000a90046001600160a01b03166001600160a01b0316630cbcae706040518163ffffffff1660e01b815260040160206040518083038186803b158015610ab357600080fd5b505afa158015610ac7573d6000803e3d6000fd5b505050506040513d601f19601f82011682018060405250810190610aeb9190613e06565b6068549091506000908190610b0f90859060019086906001600160a01b0316612177565b60685491935091506000908190610b34908790839088906001600160a01b0316612177565b9150915080151583151514610b715760405162461bcd60e51b815260206004820152600360248201526243323360e81b6044820152606401610574565b82610b8757610b8289878a8a612198565b610bd1565b6040805180820182526001600160a01b0380871682528416602082015281518083018352610bd1928b9291908b9060029083908390808284376000920191909152506126bf915050565b50506001805550505050505050565b60026001541415610c215760405162461bcd60e51b815260206004820152601f6024820152600080516020614c348339815191526044820152606401610574565b600260015561058d8282611bff565b60026001541415610c715760405162461bcd60e51b815260206004820152601f6024820152600080516020614c348339815191526044820152606401610574565b60026001556033546040805163f5e0f84760e01b815290516001600160a01b039092169163f5e0f84791600480820192602092909190829003018186803b158015610cbb57600080fd5b505afa158015610ccf573d6000803e3d6000fd5b505050506040513d601f19601f82011682018060405250810190610cf39190614064565b15610d265760405162461bcd60e51b815260206004820152600360248201526221991960e91b6044820152606401610574565b3360008181526071602090815260408083206001600160a01b038616808552925282208054929055909161058d919083611ba8565b603354604051634048d90960e01b81523360048201526001600160a01b0390911690634048d9099060240160206040518083038186803b158015610d9e57600080fd5b505afa158015610db2573d6000803e3d6000fd5b505050506040513d601f19601f82011682018060405250810190610dd69190614064565b610e075760405162461bcd60e51b81526020600482015260026024820152614d3160f01b6044820152606401610574565b6033805473ffffffffffffffffffffffffffffffffffffffff19166001600160a01b03831690811790915560405133907fec10a16af385903532506d1567380fd8d93d880e8ed4bcacc42b0848e781406a90600090a350565b60026001541415610ea15760405162461bcd60e51b815260206004820152601f6024820152600080516020614c348339815191526044820152606401610574565b600260018190556040805180820182526107329286928691908390839080828437600092019190915250506040805180820182529150859060029083908390808284376000920191909152506126bf915050565b600054610100900460ff16610f105760005460ff1615610f14565b303b155b610f775760405162461bcd60e51b815260206004820152602e60248201527f496e697469616c697a61626c653a20636f6e747261637420697320616c72656160448201526d191e481a5b9a5d1a585b1a5e995960921b6064820152608401610574565b600054610100900460ff16158015610f99576000805461ffff19166101011790555b610fa282612cd3565b610faa612df5565b816001600160a01b031663c58aad876040518163ffffffff1660e01b81526004016101006040518083038186803b158015610fe457600080fd5b505afa158015610ff8573d6000803e3d6000fd5b505050506040513d601f19601f8201168201806040525081019061101c9190614305565b805160668054602084015160408501516060860151608087015160a088015160c089015160e09099015163ffffffff908116600160e01b026001600160e01b039a8216600160c01b029a909a1677ffffffffffffffffffffffffffffffffffffffffffffffff928216600160a01b0263ffffffff60a01b19948316600160801b029490941667ffffffffffffffff60801b19958316600160601b026fffffffff000000000000000000000000199784166801000000000000000002979097166fffffffffffffffff0000000000000000199884166401000000000267ffffffffffffffff19909a1693909b16929092179790971795909516979097179290921716919091171792909216919091179190911790558015611142576000805461ff00191690555b5050565b60335460405163698ef99360e01b81523360048201526001600160a01b039091169063698ef9939060240160206040518083038186803b15801561118957600080fd5b505afa15801561119d573d6000803e3d6000fd5b505050506040513d601f19601f820116820180604052508101906111c19190614064565b6111f25760405162461bcd60e51b8152602060048201526002602482015261269960f11b6044820152606401610574565b603360009054906101000a90046001600160a01b03166001600160a01b031663c58aad876040518163ffffffff1660e01b81526004016101006040518083038186803b15801561124157600080fd5b505afa158015611255573d6000803e3d6000fd5b505050506040513d601f19601f820116820180604052508101906112799190614305565b805160668054602084015160408501516060860151608087015160a088015160c089015160e09099015163ffffffff908116600160e01b026001600160e01b039a8216600160c01b029a909a1677ffffffffffffffffffffffffffffffffffffffffffffffff928216600160a01b0263ffffffff60a01b19948316600160801b029490941667ffffffffffffffff60801b19958316600160601b026fffffffff000000000000000000000000199784166801000000000000000002979097166fffffffffffffffff0000000000000000199884166401000000000267ffffffffffffffff19909a1693909b1692909217979097179590951697909717929092171691909117179290921691909117919091179055565b600260015414156113d05760405162461bcd60e51b815260206004820152601f6024820152600080516020614c348339815191526044820152606401610574565b6002600155610732836113e5610a5982614a67565b8484612198565b60335460405163698ef99360e01b81523360048201526001600160a01b039091169063698ef9939060240160206040518083038186803b15801561142f57600080fd5b505afa158015611443573d6000803e3d6000fd5b505050506040513d601f19601f820116820180604052508101906114679190614064565b6114985760405162461bcd60e51b8152602060048201526002602482015261269960f11b6044820152606401610574565b603360009054906101000a90046001600160a01b03166001600160a01b031663a1774da06040518163ffffffff1660e01b81526004016101206040518083038186803b1580156114e757600080fd5b505afa1580156114fb573d6000803e3d6000fd5b505050506040513d601f19601f8201168201806040525081019061151f919061424f565b80516067805473ffffffffffffffffffffffffffffffffffffffff199081166001600160a01b0393841617909155602083015160688054831691841691909117905560408301516069805483169184169190911790556060830151606a805483169184169190911790556080830151606b8054831691841691909117905560a0830151606c805490921690831617905560c0820151606d805460e085015161010090950151929093167fffffffffffffffff00000000000000000000000000000000000000000000000090931692909217600160a01b63ffffffff94851602177fffffffff00000000ffffffffffffffffffffffffffffffffffffffffffffffff16600160c01b9390911692909202919091179055565b600260015414156116775760405162461bcd60e51b815260206004820152601f6024820152600080516020614c348339815191526044820152606401610574565b6002600181905560408051808201825261058d9290918591908390839080828437600092019190915250849150612e6a9050565b600260015414156116ec5760405162461bcd60e51b815260206004820152601f6024820152600080516020614c348339815191526044820152606401610574565b60026001558281146117255760405162461bcd60e51b8152602060048201526002602482015261433160f01b6044820152606401610574565b60005b838110156108625761179385858381811061174557611745614bef565b90506040020160028060200260405190810160405280929190826002602002808284376000920191909152508691508590508481811061178757611787614bef565b90506020020135612e6a565b8061179d81614b7e565b915050611728565b6001600160a01b038083166000908152607160209081526040808320938516835292905220545b92915050565b600260015414156118135760405162461bcd60e51b815260206004820152601f6024820152600080516020614c348339815191526044820152606401610574565b60026001556107328383835b603360009054906101000a90046001600160a01b03166001600160a01b031663c823b5db6040518163ffffffff1660e01b815260040160206040518083038186803b15801561186d57600080fd5b505afa158015611881573d6000803e3d6000fd5b505050506040513d601f19601f820116820180604052508101906118a59190614064565b156118d85760405162461bcd60e51b815260206004820152600360248201526204332360ec1b6044820152606401610574565b6000826001600160a01b031663ce21286d6040518163ffffffff1660e01b815260040160006040518083038186803b15801561191357600080fd5b505afa158015611927573d6000803e3d6000fd5b505050506040513d6000823e601f3d908101601f1916820160405261194f91908101906140f5565b905061195b83826132f1565b6040808201516000908152606f602052205460ff16156119a25760405162461bcd60e51b8152602060048201526002602482015261433760f01b6044820152606401610574565b8051602001514210156119dd5760405162461bcd60e51b815260206004820152600360248201526204331360ec1b6044820152606401610574565b6001600160a01b038416331480611a6f5750805160a00151604051631e44861d60e31b81526001600160a01b0386811660048301529091169063f22430e89060240160206040518083038186803b158015611a3757600080fd5b505afa158015611a4b573d6000803e3d6000fd5b505050506040513d601f19601f82011682018060405250810190611a6f9190614064565b611aa15760405162461bcd60e51b815260206004820152600360248201526243313160e81b6044820152606401610574565b606854604051633dae446f60e21b81526001600160a01b0386811660048301528581166024830152604482018590529091169063f6b911bc90606401600060405180830381600087803b158015611af757600080fd5b505af1158015611b0b573d6000803e3d6000fd5b5050606a5460695460009350611b329250849186916001600160a01b0391821691166133fa565b90508015611b5457815160800151611b54906001600160a01b03168683611ba8565b836001600160a01b0316856001600160a01b03167fe7f87f0b9d521ac925b66f1e1599d5389bf92e298a6cbf0750f68d5beffed1a685604051611b9991815260200190565b60405180910390a35050505050565b604080516001600160a01b038416602482015260448082018490528251808303909101815260649091019091526020810180516001600160e01b031663a9059cbb60e01b179052611bfa90849061374b565b505050565b603360009054906101000a90046001600160a01b03166001600160a01b0316634e562cbb6040518163ffffffff1660e01b815260040160206040518083038186803b158015611c4d57600080fd5b505afa158015611c61573d6000803e3d6000fd5b505050506040513d601f19601f82011682018060405250810190611c859190614064565b15611cb85760405162461bcd60e51b815260206004820152600360248201526243323160e81b6044820152606401610574565b6000826001600160a01b031663ce21286d6040518163ffffffff1660e01b815260040160006040518083038186803b158015611cf357600080fd5b505afa158015611d07573d6000803e3d6000fd5b505050506040513d6000823e601f3d908101601f19168201604052611d2f91908101906140f5565b9050611d3b83826132f1565b6040808201516000908152606f602052205460ff16611ef2578051606001516001600160a01b0316611d945760405162461bcd60e51b8152602060048201526002602482015261219b60f11b6044820152606401610574565b6066548151602001514291611db19163ffffffff90911690614a05565b1115611de55760405162461bcd60e51b815260206004820152600360248201526243313360e81b6044820152606401610574565b6069548151606081015160209091015160405163c8384d2f60e01b81526001600160a01b039283166004820152602481019190915291169063c8384d2f9060440160206040518083038186803b158015611e3e57600080fd5b505afa158015611e52573d6000803e3d6000fd5b505050506040513d601f19601f82011682018060405250810190611e769190614064565b15611ea95760405162461bcd60e51b815260206004820152600360248201526243313360e81b6044820152606401610574565b604080820180516000908152606f602052828120805460ff191660011790559051915133917f0eebb9e336ae26031f3bedd462ffab2102cba74395b046ff8dcfc9ecbf1e7bca91a35b6000600182602001516001811115611f0c57611f0c614bd9565b1415611fb157606a54604080840151845191516308d52f0760e41b81526000936001600160a01b031692638d52f07092611f4b929091906004016147ac565b6040805180830381600087803b158015611f6457600080fd5b505af1158015611f78573d6000803e3d6000fd5b505050506040513d601f19601f82011682018060405250810190611f9c9190614495565b509050611fa98185613830565b91505061204d565b606a54604080840151845191516308d52f0760e41b81526000936001600160a01b031692638d52f07092611fea929091906004016147ac565b6040805180830381600087803b15801561200357600080fd5b505af1158015612017573d6000803e3d6000fd5b505050506040513d601f19601f8201168201806040525081019061203b9190614495565b915061204990508185613830565b9150505b61205b826040015182613856565b606854604051633dae446f60e21b81523360048201526001600160a01b038681166024830152604482018690529091169063f6b911bc90606401600060405180830381600087803b1580156120af57600080fd5b505af11580156120c3573d6000803e3d6000fd5b5050505060008111156120ea578151608001516120ea906001600160a01b03163383611ba8565b604080830151905184815233907fd07fdd78e4cc0e5509d86fabf263fbcd1113f9b43fd927f6631b0c13bd18a00c9060200160405180910390a350505050565b80516020808301516040808501516060860151608087015160a0880151935160009761215a9790969591016146b9565b604051602081830303815290604052805190602001209050919050565b6000806000612188878787876138c0565b97883b1515975095505050505050565b836020013542106121d15760405162461bcd60e51b815260206004820152600360248201526221989b60e91b6044820152606401610574565b603360009054906101000a90046001600160a01b03166001600160a01b031663fbc422f66040518163ffffffff1660e01b815260040160206040518083038186803b15801561221f57600080fd5b505afa158015612233573d6000803e3d6000fd5b505050506040513d601f19601f820116820180604052508101906122579190614064565b1561228a5760405162461bcd60e51b815260206004820152600360248201526243313760e81b6044820152606401610574565b61229a60c0850160a08601613de9565b6001600160a01b0316633a6f60a9856040518263ffffffff1660e01b81526004016122c591906147f8565b60206040518083038186803b1580156122dd57600080fd5b505afa1580156122f1573d6000803e3d6000fd5b505050506040513d601f19601f820116820180604052508101906123159190614064565b6123465760405162461bcd60e51b8152602060048201526002602482015261086760f31b6044820152606401610574565b61234e613ccd565b606a546040516308d52f0760e41b81526001600160a01b0390911690638d52f070906123809087908990600401614793565b6040805180830381600087803b15801561239957600080fd5b505af11580156123ad573d6000803e3d6000fd5b505050506040513d601f19601f820116820180604052508101906123d19190614495565b602083018190528183526000916123e89190614a05565b90506123fc6123f78583614a31565b6139b0565b1561242e5760405162461bcd60e51b8152602060048201526002602482015261433560f01b6044820152606401610574565b600061243a8286613830565b90508061244d60a0890160808a01613de9565b606b54604051636eb1769f60e11b81523360048201526001600160a01b03918216602482015291169063dd62ed3e9060440160206040518083038186803b15801561249757600080fd5b505afa1580156124ab573d6000803e3d6000fd5b505050506040513d601f19601f820116820180604052508101906124cf9190614447565b10156125035760405162461bcd60e51b815260206004820152600360248201526221989960e91b6044820152606401610574565b61250d86826139c4565b606b546001600160a01b0316630a5ea46661252e60a08a0160808b01613de9565b6040517fffffffff0000000000000000000000000000000000000000000000000000000060e084901b1681526001600160a01b03909116600482015233602482015230604482015260648101849052608401600060405180830381600087803b15801561259a57600080fd5b505af11580156125ae573d6000803e3d6000fd5b50506068546001600160a01b03169150639873dba990506125d26020870187613de9565b6125e26040880160208901613de9565b888a8c6040518663ffffffff1660e01b815260040161260595949392919061472a565b600060405180830381600087803b15801561261f57600080fd5b505af1158015612633573d6000803e3d6000fd5b50505050858460016002811061264b5761264b614bef565b60200201602081019061265e9190613de9565b6001600160a01b03166126746020870187613de9565b6001600160a01b03167fed55db682403ff79a20059d95317cb2e4f4d322b5b4d062ca27c10de39bdcae4886040516126ae91815260200190565b60405180910390a450505050505050565b603360009054906101000a90046001600160a01b03166001600160a01b031663dd1eb52c6040518163ffffffff1660e01b815260040160206040518083038186803b15801561270d57600080fd5b505afa158015612721573d6000803e3d6000fd5b505050506040513d601f19601f820116820180604052508101906127459190614064565b156127785760405162461bcd60e51b815260206004820152600360248201526208662760eb1b6044820152606401610574565b6000828160200201516001600160a01b031663ce21286d6040518163ffffffff1660e01b815260040160006040518083038186803b1580156127b957600080fd5b505afa1580156127cd573d6000803e3d6000fd5b505050506040513d6000823e601f3d908101601f191682016040526127f591908101906140f5565b9050600083600160200201516001600160a01b031663ce21286d6040518163ffffffff1660e01b815260040160006040518083038186803b15801561283957600080fd5b505afa15801561284d573d6000803e3d6000fd5b505050506040513d6000823e601f3d908101601f1916820160405261287591908101906140f5565b90506128898460005b6020020151836132f1565b61289b8460015b6020020151826132f1565b81604001518160400151146128d75760405162461bcd60e51b8152602060048201526002602482015261219960f11b6044820152606401610574565b6001826020015160018111156128ef576128ef614bd9565b146129215760405162461bcd60e51b8152602060048201526002602482015261433360f01b6044820152606401610574565b60008160200151600181111561293957612939614bd9565b1461296b5760405162461bcd60e51b8152602060048201526002602482015261433360f01b6044820152606401610574565b81516020015142106129a55760405162461bcd60e51b815260206004820152600360248201526221989b60e91b6044820152606401610574565b6129ad613ccd565b606a54604080850151855191516308d52f0760e41b81526001600160a01b0390931692638d52f070926129e392916004016147ac565b6040805180830381600087803b1580156129fc57600080fd5b505af1158015612a10573d6000803e3d6000fd5b505050506040513d601f19601f82011682018060405250810190612a349190614495565b60208301819052818352600091612a4b9190614a05565b9050612a5a6123f78883614a31565b15612a8c5760405162461bcd60e51b8152602060048201526002602482015261433560f01b6044820152606401610574565b6000612a988289613830565b855160800151606b54604051636eb1769f60e11b81523360048201526001600160a01b039182166024820152929350839291169063dd62ed3e9060440160206040518083038186803b158015612aed57600080fd5b505afa158015612b01573d6000803e3d6000fd5b505050506040513d601f19601f82011682018060405250810190612b259190614447565b1015612b595760405162461bcd60e51b815260206004820152600360248201526221989960e91b6044820152606401610574565b612b678560400151826139c4565b606b5485516080015160405163052f523360e11b81526001600160a01b03918216600482015233602482015230604482015260648101849052911690630a5ea46690608401600060405180830381600087803b158015612bc657600080fd5b505af1158015612bda573d6000803e3d6000fd5b505060685488516020808b01518c51918d01516040516347704dbd60e01b81526001600160a01b039485166004820152918416602483015291831660448201529082166064820152608481018d9052911692506347704dbd915060a401600060405180830381600087803b158015612c5157600080fd5b505af1158015612c65573d6000803e3d6000fd5b50505050604085015186600160200201516001600160a01b031687600060200201516001600160a01b03167fa30ccd8346a5af0c1bc132bb36cd047e4aa428d028231aba6802e45bc4d172a58b604051612cc191815260200190565b60405180910390a45050505050505050565b600054610100900460ff16612cee5760005460ff1615612cf2565b303b155b612d555760405162461bcd60e51b815260206004820152602e60248201527f496e697469616c697a61626c653a20636f6e747261637420697320616c72656160448201526d191e481a5b9a5d1a585b1a5e995960921b6064820152608401610574565b600054610100900460ff16158015612d77576000805461ffff19166101011790555b6001600160a01b038216612d8a57600080fd5b6033805473ffffffffffffffffffffffffffffffffffffffff19166001600160a01b03841690811790915560405133907fec10a16af385903532506d1567380fd8d93d880e8ed4bcacc42b0848e781406a90600090a38015611142576000805461ff00191690555050565b600054610100900460ff16612e605760405162461bcd60e51b815260206004820152602b60248201527f496e697469616c697a61626c653a20636f6e7472616374206973206e6f74206960448201526a6e697469616c697a696e6760a81b6064820152608401610574565b612e686139e2565b565b603360009054906101000a90046001600160a01b03166001600160a01b031663f10827e06040518163ffffffff1660e01b815260040160206040518083038186803b158015612eb857600080fd5b505afa158015612ecc573d6000803e3d6000fd5b505050506040513d601f19601f82011682018060405250810190612ef09190614064565b15612f235760405162461bcd60e51b815260206004820152600360248201526243313960e81b6044820152606401610574565b6000828160200201516001600160a01b031663ce21286d6040518163ffffffff1660e01b815260040160006040518083038186803b158015612f6457600080fd5b505afa158015612f78573d6000803e3d6000fd5b505050506040513d6000823e601f3d908101601f19168201604052612fa091908101906140f5565b9050600083600160200201516001600160a01b031663ce21286d6040518163ffffffff1660e01b815260040160006040518083038186803b158015612fe457600080fd5b505afa158015612ff8573d6000803e3d6000fd5b505050506040513d6000823e601f3d908101601f1916820160405261302091908101906140f5565b905061302d84600061287e565b613038846001612890565b81604001518160400151146130745760405162461bcd60e51b8152602060048201526002602482015261219960f11b6044820152606401610574565b60018260200151600181111561308c5761308c614bd9565b146130be5760405162461bcd60e51b8152602060048201526002602482015261433360f01b6044820152606401610574565b6000816020015160018111156130d6576130d6614bd9565b146131085760405162461bcd60e51b8152602060048201526002602482015261433360f01b6044820152606401610574565b606a546040808301518351915163a28702f160e01b81526000936001600160a01b03169263a28702f192613141929091906004016147ac565b60a060405180830381600087803b15801561315b57600080fd5b505af115801561316f573d6000803e3d6000fd5b505050506040513d601f19601f8201168201806040525081019061319391906143ca565b905060006131b585836020015184600001516131af9190614a05565b90613830565b6060830151845160800151606d546066549394506000936131fe9392916001600160a01b03169063ffffffff680100000000000000008204811691600160801b90041687613a53565b905061320e846040015183613856565b60685487516020890151604051636ade6d1960e01b81523360048201526001600160a01b039283166024820152908216604482015260648101899052911690636ade6d1990608401600060405180830381600087803b15801561327057600080fd5b505af1158015613284573d6000803e3d6000fd5b505050506132ae3382846132989190614a50565b8651608001516001600160a01b03169190611ba8565b604080850151905187815233907f8f0329a95509d4de040892b232f60d694b862b6a18f929f332f3bf24d33cb69c9060200160405180910390a350505050505050565b60006133b160018360200151600181111561330e5761330e614bd9565b14606760010160009054906101000a90046001600160a01b03166001600160a01b0316630cbcae706040518163ffffffff1660e01b815260040160206040518083038186803b15801561336057600080fd5b505afa158015613374573d6000803e3d6000fd5b505050506040513d601f19601f820116820180604052508101906133989190613e06565b60685460408601519291906001600160a01b0316613b27565b9050806001600160a01b0316836001600160a01b031614611bfa5760405162461bcd60e51b815260206004820152600360248201526210cc4d60ea1b6044820152606401610574565b60008060006134218760400151600090815260706020526040902080546001909101549091565b91509150816000148015613433575080155b156135b1578651606001516000906001600160a01b0316156134ef5787516060810151602090910151604051632979d02560e01b81526001600160a01b03881692632979d0259261349a926004016001600160a01b03929092168252602082015260400190565b60206040518083038186803b1580156134b257600080fd5b505afa1580156134c6573d6000803e3d6000fd5b505050506040513d601f19601f820116820180604052508101906134ea9190614447565b6134f2565b60005b885160a081015160405163dd0060fd60e01b81529293506001600160a01b03169163dd0060fd9161352791859060040161480b565b604080518083038186803b15801561353e57600080fd5b505afa158015613552573d6000803e3d6000fd5b505050506040513d601f19601f820116820180604052508101906135769190614495565b60408051808201825283815260208082018490528c83015160009081526070909152919091209295509093506135ae91906002613ceb565b50505b6040808801518851915163a28702f160e01b81526000926001600160a01b0389169263a28702f1926135e692906004016147ac565b60a060405180830381600087803b15801561360057600080fd5b505af1158015613614573d6000803e3d6000fd5b505050506040513d601f19601f8201168201806040525081019061363891906143ca565b9050600060018960200151600181111561365457613654614bd9565b14156136a45761368e886136688587614a05565b60208501518551889161367a91614a05565b6136849190614a31565b6131af9190614a1d565b825190955061369d9089613830565b90506136d9565b6136c4886136b28587614a05565b60208501518551879161367a91614a05565b60208301519095506136d69089613830565b90505b6136e7896040015186613856565b8085111561373f576060820151895160800151606c5460408501516066546137329493926001600160a01b03169190600160601b900463ffffffff1661372d878c614a50565b613a53565b61373c9086614a50565b94505b50505050949350505050565b60006137a0826040518060400160405280602081526020017f5361666545524332303a206c6f772d6c6576656c2063616c6c206661696c6564815250856001600160a01b0316613b3e9092919063ffffffff16565b805190915015611bfa57808060200190518101906137be9190614064565b611bfa5760405162461bcd60e51b815260206004820152602a60248201527f5361666545524332303a204552433230206f7065726174696f6e20646964206e60448201527f6f742073756363656564000000000000000000000000000000000000000000006064820152608401610574565b6000670de0b6b3a76400006138458385614a31565b61384f9190614a1d565b9392505050565b6000828152606e60205260409020548111156138995760405162461bcd60e51b8152602060048201526002602482015261433960f01b6044820152606401610574565b6000828152606e6020526040812080548392906138b7908490614a50565b90915550505050565b60008085856138e857604051806040016040528060018152602001605360f81b815250613903565b604051806040016040528060018152602001601360fa1b8152505b604051602001613914929190614677565b6040516020818303038152906040528051906020012090506139a68482856040517f3d602d80600a3d3981f3363d3d373d3d3d363d730000000000000000000000008152606093841b60148201527f5af43d82803e903d91602b57fd5bf3ff000000000000000000000000000000006028820152921b6038830152604c8201526037808220606c830152605591012090565b9695505050505050565b60006117cc670de0b6b3a764000083614b99565b6000828152606e6020526040812080548392906138b7908490614a05565b600054610100900460ff16613a4d5760405162461bcd60e51b815260206004820152602b60248201527f496e697469616c697a61626c653a20636f6e7472616374206973206e6f74206960448201526a6e697469616c697a696e6760a81b6064820152608401610574565b60018055565b6000612710613a628584614a31565b613a6c9190614a1d565b905080613a7b575060006139a6565b6000612710613a8a8584614a31565b613a949190614a1d565b6001600160a01b038088166000908152607160209081526040808320938c16835292905290812080549293508392909190613ad0908490614a05565b90915550613ae090508183614a50565b6001600160a01b03808a166000908152607160209081526040808320938c1683529290529081208054909190613b17908490614a05565b9091555050509695505050505050565b6000613b35858585856138c0565b95945050505050565b6060613b4d8484600085613b55565b949350505050565b606082471015613bcd5760405162461bcd60e51b815260206004820152602660248201527f416464726573733a20696e73756666696369656e742062616c616e636520666f60448201527f722063616c6c00000000000000000000000000000000000000000000000000006064820152608401610574565b843b613c1b5760405162461bcd60e51b815260206004820152601d60248201527f416464726573733a2063616c6c20746f206e6f6e2d636f6e74726163740000006044820152606401610574565b600080866001600160a01b03168587604051613c37919061469d565b60006040518083038185875af1925050503d8060008114613c74576040519150601f19603f3d011682016040523d82523d6000602084013e613c79565b606091505b5091509150613c89828286613c94565b979650505050505050565b60608315613ca357508161384f565b825115613cb35782518084602001fd5b8160405162461bcd60e51b815260040161057491906147c5565b60405180604001604052806002906020820280368337509192915050565b8260028101928215613d19579160200282015b82811115613d19578251825591602001919060010190613cfe565b50613d25929150613d29565b5090565b5b80821115613d255760008155600101613d2a565b8035613d4981614c1b565b919050565b8051613d4981614c1b565b80604081018310156117cc57600080fd5b60008083601f840112613d7c57600080fd5b50813567ffffffffffffffff811115613d9457600080fd5b6020830191508360208260051b8501011115613daf57600080fd5b9250929050565b80518015158114613d4957600080fd5b805160028110613d4957600080fd5b805163ffffffff81168114613d4957600080fd5b600060208284031215613dfb57600080fd5b813561384f81614c1b565b600060208284031215613e1857600080fd5b815161384f81614c1b565b60008060408385031215613e3657600080fd5b8235613e4181614c1b565b91506020830135613e5181614c1b565b809150509250929050565b600080600060608486031215613e7157600080fd5b8335613e7c81614c1b565b92506020840135613e8c81614c1b565b929592945050506040919091013590565b600080600080600060608688031215613eb557600080fd5b8535613ec081614c1b565b9450602086013567ffffffffffffffff80821115613edd57600080fd5b613ee989838a01613d6a565b90965094506040880135915080821115613f0257600080fd5b50613f0f88828901613d6a565b969995985093965092949392505050565b60008060408385031215613f3357600080fd5b8235613f3e81614c1b565b946020939093013593505050565b60008060608385031215613f5f57600080fd5b613f698484613d59565b946040939093013593505050565b60008060008060408587031215613f8d57600080fd5b843567ffffffffffffffff80821115613fa557600080fd5b613fb188838901613d6a565b90965094506020870135915080821115613fca57600080fd5b50613fd787828801613d6a565b95989497509550505050565b60008060008060408587031215613ff957600080fd5b843567ffffffffffffffff8082111561401157600080fd5b818701915087601f83011261402557600080fd5b81358181111561403457600080fd5b8860208260061b850101111561404957600080fd5b602092830196509450908601359080821115613fca57600080fd5b60006020828403121561407657600080fd5b61384f82613db6565b60006020828403121561409157600080fd5b5035919050565b6000806000608084860312156140ad57600080fd5b833567ffffffffffffffff8111156140c457600080fd5b840160c081870312156140d657600080fd5b9250602084013591506140ec8560408601613d59565b90509250925092565b6000602080838503121561410857600080fd5b825167ffffffffffffffff8082111561412057600080fd5b908401906060828703121561413457600080fd5b61413c614940565b82518281111561414b57600080fd5b830160c0818903121561415d57600080fd5b614165614969565b81518152858201518682015260408201518481111561418357600080fd5b82019350601f8401891361419657600080fd5b83516141a96141a4826149e1565b6149b0565b8082825288820191508887018c8a8560051b8a010111156141c957600080fd5b600097505b838810156141ec5780518352600197909701969189019189016141ce565b50604084015250614201905060608301613d4e565b606082015261421260808301613d4e565b608082015261422360a08301613d4e565b60a0820152825250614236838501613dc6565b9381019390935250604090810151908201529392505050565b6000610120828403121561426257600080fd5b61426a61498c565b61427383613d4e565b815261428160208401613d4e565b602082015261429260408401613d4e565b60408201526142a360608401613d4e565b60608201526142b460808401613d4e565b60808201526142c560a08401613d4e565b60a08201526142d660c08401613d4e565b60c08201526142e760e08401613dd5565b60e08201526101006142fa818501613dd5565b908201529392505050565b600061010080838503121561431957600080fd5b6040519081019067ffffffffffffffff8211818310171561433c5761433c614c05565b8160405261434984613dd5565b815261435760208501613dd5565b602082015261436860408501613dd5565b604082015261437960608501613dd5565b606082015261438a60808501613dd5565b608082015261439b60a08501613dd5565b60a08201526143ac60c08501613dd5565b60c08201526143bd60e08501613dd5565b60e0820152949350505050565b600060a082840312156143dc57600080fd5b60405160a0810181811067ffffffffffffffff821117156143ff576143ff614c05565b8060405250825181526020830151602082015260408301516040820152606083015161442a81614c1b565b606082015261443b60808401613db6565b60808201529392505050565b60006020828403121561445957600080fd5b5051919050565b600080600060a0848603121561447557600080fd5b833592506144868560208601613d59565b91506140ec8560608601613d59565b600080604083850312156144a857600080fd5b505080516020909101519092909150565b81835260007f07ffffffffffffffffffffffffffffffffffffffffffffffffffffffffffffff8311156144eb57600080fd5b8260051b8083602087013760009401602001938452509192915050565b803582526020810135602083015260006040820135601e1983360301811261452f57600080fd5b8201803567ffffffffffffffff81111561454857600080fd5b8060051b360384131561455a57600080fd5b60c0604086015261457260c0860182602085016144b9565b91505061458160608401613d3e565b6001600160a01b0316606085015261459b60808401613d3e565b6001600160a01b031660808501526145b560a08401613d3e565b6001600160a01b03811660a0860152509392505050565b600060c083018251845260208084015181860152604084015160c0604087015282815180855260e0880191508383019450600092505b808310156146225784518252938301936001929092019190830190614602565b506060860151935061463f60608801856001600160a01b03169052565b6080860151935061465b60808801856001600160a01b03169052565b60a086015193506139a660a08801856001600160a01b03169052565b8281526000825161468f816020850160208701614b4e565b919091016020019392505050565b600082516146af818460208701614b4e565b9190910192915050565b86815260006020878184015260408301875182890160005b828110156146ed578151845292840192908401906001016146d1565b5050506bffffffffffffffffffffffff19606097881b8116825295871b861660148201529390951b909316602883015250603c0195945050505050565b60006001600160a01b03808816835280871660208401525084604083015283606083015260a06080830152613c8960a0830184614508565b60408101818360005b600281101561478a57815183526020928301929091019060010161476b565b50505092915050565b828152604060208201526000613b4d6040830184614508565b828152604060208201526000613b4d60408301846145cc565b60208152600082518060208401526147e4816040850160208701614b4e565b601f01601f19169190910160400192915050565b60208152600061384f6020830184614508565b60408152600061481e60408301856145cc565b90508260208301529392505050565b81516001600160a01b03908116825260208084015182169083015260408084015182169083015260608084015182169083015260808084015182169083015260a08084015182169083015260c080840151918216908301526101208201905060e08301516148a360e084018263ffffffff169052565b506101009283015163ffffffff16919092015290565b60006101008201905063ffffffff8084511683528060208501511660208401528060408501511660408401528060608501511660608401528060808501511660808401528060a08501511660a08401525060c083015161492160c084018263ffffffff169052565b5060e083015161493960e084018263ffffffff169052565b5092915050565b6040516060810167ffffffffffffffff8111828210171561496357614963614c05565b60405290565b60405160c0810167ffffffffffffffff8111828210171561496357614963614c05565b604051610120810167ffffffffffffffff8111828210171561496357614963614c05565b604051601f8201601f1916810167ffffffffffffffff811182821017156149d9576149d9614c05565b604052919050565b600067ffffffffffffffff8211156149fb576149fb614c05565b5060051b60200190565b60008219821115614a1857614a18614bad565b500190565b600082614a2c57614a2c614bc3565b500490565b6000816000190483118215151615614a4b57614a4b614bad565b500290565b600082821015614a6257614a62614bad565b500390565b600060c08236031215614a7957600080fd5b614a81614969565b8235815260208084013581830152604084013567ffffffffffffffff811115614aa957600080fd5b840136601f820112614aba57600080fd5b8035614ac86141a4826149e1565b8181528381019083850136600585901b860187011115614ae757600080fd5b600094505b83851015614b0a578035835260019490940193918501918501614aec565b50604086015250614b219250505060608401613d3e565b6060820152614b3260808401613d3e565b6080820152614b4360a08401613d3e565b60a082015292915050565b60005b83811015614b69578181015183820152602001614b51565b83811115614b78576000848401525b50505050565b6000600019821415614b9257614b92614bad565b5060010190565b600082614ba857614ba8614bc3565b500690565b634e487b7160e01b600052601160045260246000fd5b634e487b7160e01b600052601260045260246000fd5b634e487b7160e01b600052602160045260246000fd5b634e487b7160e01b600052603260045260246000fd5b634e487b7160e01b600052604160045260246000fd5b6001600160a01b0381168114614c3057600080fd5b5056fe5265656e7472616e637947756172643a207265656e7472616e742063616c6c00a2646970667358221220b816041cc4b2257be0da28957defbc0a0968818ebda66c71d501b3cfc490e66564736f6c63430008050033",
  "devdoc": {
    "kind": "dev",
    "methods": {
      "cancel(address,uint256)": {
        "params": {
          "_amount": "uint256 Amount of positions to cancel",
          "_positionAddress": "PositionType of positions to be canceled"
        }
      },
      "cancel(address[],uint256[])": {
        "params": {
          "_amounts": "uint256[] Amount of positions to cancel for each `positionAddress`",
          "_positionsAddresses": "PositionTypes of positions to be cancelled"
        }
      },
      "claimReserves(address)": {
        "params": {
          "_tokenAddress": "address of the ERC20 token to withdraw"
        }
      },
      "claimReserves(address,uint256)": {
        "params": {
          "_amount": "uint256 amount of reserves to withdraw",
          "_tokenAddress": "address of the ERC20 token to withdraw"
        }
      },
      "create((uint256,uint256,uint256[],address,address,address),uint256,address[2])": {
        "params": {
          "_amount": "uint256 Amount of positions to create",
          "_derivative": "LibDerivative.Derivative Derivative definition",
          "_positionsOwners": "address[2] Addresses of buyer and seller [0] - buyer address [1] - seller address"
        }
      },
      "createAndMint((uint256,uint256,uint256[],address,address,address),uint256,address[2])": {
        "details": "if the position contracts have been deployed, it uses Core._create()if the position contracts have deployed, it uses Core._mint()",
        "params": {
          "_amount": "uint256 Amount of LONG and SHORT positions create and/or mint",
          "_derivative": "LibDerivative.Derivative Derivative definition",
          "_positionsOwners": "address[2] Addresses of buyer and seller _positionsOwners[0] - buyer address -> receives LONG position _positionsOwners[1] - seller address -> receives SHORT position"
        }
      },
      "execute(address,address,uint256)": {
        "params": {
          "_amount": "uint256 Amount of positions to execute",
          "_positionAddress": "address `positionAddress` of positions that needs to be executed",
          "_positionOwner": "address Address of the owner of positions"
        }
      },
      "execute(address,address[],uint256[])": {
        "params": {
          "_amounts": "uint256[] Amount of positions to execute for each `positionAddresses`",
          "_positionsAddresses": "address[] `positionAddresses` of positions that need to be executed",
          "_positionsOwner": "address Address of the owner of positions"
        }
      },
      "execute(address,uint256)": {
        "params": {
          "_amount": "uint256 Amount of positions to execute",
          "_positionAddress": "address `positionAddress` of position that needs to be executed"
        }
      },
      "execute(address[],uint256[])": {
        "params": {
          "_amounts": "uint256[] Amount of positions to execute for each `positionAddress`",
          "_positionsAddresses": "address[] `positionAddresses` of positions that need to be executed"
        }
      },
      "getDerivativePayouts(bytes32)": {
        "params": {
          "_derivativeHash": "bytes32 unique derivative identifier"
        },
        "returns": {
          "_0": "uint256[2] tuple containing LONG and SHORT payouts"
        }
      },
      "getP2pDerivativeVaultFunds(bytes32)": {
        "params": {
          "_derivativeHash": "bytes32 unique derivative identifier"
        },
        "returns": {
          "_0": "uint256 representing the remaining derivative's funds"
        }
      },
      "getProtocolAddresses()": {
        "details": "{see RegistryEntities.sol for a description of the protocolAddressesArgs struct}",
        "returns": {
          "_0": "ProtocolAddressesArgs struct including the protocol's main addresses - contracts and reseves recipients"
        }
      },
      "getProtocolParametersArgs()": {
        "details": "{see RegistryEntities.sol for a description of the ProtocolParametersArgs struct}",
        "returns": {
          "_0": "ProtocolParametersArgs struct including the protocol's main parameters"
        }
      },
      "getReservesVaultBalance(address,address)": {
        "params": {
          "_reseveRecipient": "address of the reseve recipient",
          "_token": "address of a token used as a reseve compensation"
        },
        "returns": {
          "_0": "uint256 amount of the accrued reseves denominated in the provided token"
        }
      },
      "isDerivativeCancelled(bytes32)": {
        "params": {
          "_derivativeHash": "bytes32 unique derivative identifier"
        },
        "returns": {
          "_0": "bool true if derivative has been cancelled, false if derivative has not been cancelled"
        }
      },
      "mint(uint256,address[2],address[2])": {
        "params": {
          "_amount": "uint256 Amount of positions to create",
          "_positionsAddresses": "address[2] Addresses of buyer and seller [0] - LONG erc20 position address [1] - SHORT erc20 position address",
          "_positionsOwners": "address[2] Addresses of buyer and seller _positionsOwners[0] - buyer address _positionsOwners[1] - seller address"
        }
      },
      "redeem(address[2],uint256)": {
        "params": {
          "_amount": "uint256 Amount of tokens to redeem",
          "_positionsAddresses": "address[2] `_positionsAddresses` of the positions that need to be redeemed"
        }
      },
      "redeem(address[2][],uint256[])": {
        "params": {
          "_amounts": "uint256[] Amount of tokens to redeem for each position pair",
          "_positionsAddresses": "address[2][] `_positionsAddresses` of the positions that need to be redeemed"
        }
      },
      "updateProtocolAddresses()": {
        "details": "{see RegistryEntities.sol for a description of the protocolAddressesArgs struct}should be called immediately after the deployment of the contractonly accounts who have been assigned the CORE_CONFIGURATION_UPDATER_ROLE { See LibRoles.sol } should be able to call the function"
      },
      "updateProtocolParametersArgs()": {
        "details": "{see RegistryEntities.sol for a description of the ProtocolParametersArgs struct}should be called immediately after the deployment of the contractonly accounts who have been assigned the CORE_CONFIGURATION_UPDATER_ROLE { See LibRoles.sol } should be able to call the function"
      }
    },
    "title": "Opium.Core contract creates positions, holds and distributes margin at the maturity",
    "version": 1
  },
  "userdoc": {
    "kind": "user",
    "methods": {
      "cancel(address,uint256)": {
        "notice": "It cancels the specified amount of a derivative's position { see Core._cancel for the business logic description }"
      },
      "cancel(address[],uint256[])": {
        "notice": "It cancels the specified amounts of a list of derivative's position { see Core._cancel for the business logic description }"
      },
      "claimReserves(address)": {
        "notice": "It allows a reseve recipient to claim their entire accrued reserves"
      },
      "claimReserves(address,uint256)": {
        "notice": "It allows a reserves recipient to to claim the desired amount of accrued reserves"
      },
      "create((uint256,uint256,uint256[],address,address,address),uint256,address[2])": {
        "notice": "It deploys and mints the two erc20 contracts representing a derivative's LONG and SHORT positions { see Core._create for the business logic description }"
      },
      "createAndMint((uint256,uint256,uint256[],address,address,address),uint256,address[2])": {
        "notice": "It can either 1) deploy AND mint 2) only mint.It checks whether the ERC20 contracts representing the LONG and SHORT positions of the provided `LibDerivative.Derivative` have been deployed. If not, then it deploys the respective ERC20 contracts and mints the supplied _amount respectively to the provided buyer's and seller's accounts. If they have already been deployed, it only mints the provided _amount to the provided buyer's and seller's accounts."
      },
      "execute(address,address,uint256)": {
        "notice": "Executes a single position of `_positionsOwner` with specified `positionAddress` { see Core._execute for the business logic description }"
      },
      "execute(address,address[],uint256[])": {
        "notice": "Executes several positions of `_positionsOwner` with different `positionAddresses` { see Core._execute for the business logic description }"
      },
      "execute(address,uint256)": {
        "notice": "Executes a single position of `msg.sender` with specified `positionAddress` { see Core._execute for the business logic description }"
      },
      "execute(address[],uint256[])": {
        "notice": "Executes several positions of `msg.sender` with different `positionAddresses` { see Core._execute for the business logic description }"
      },
      "getDerivativePayouts(bytes32)": {
        "notice": "It queries the buyer's and seller's payouts for a given derivativeif it returns [0, 0] then the derivative has not been executed yet"
      },
      "getP2pDerivativeVaultFunds(bytes32)": {
        "notice": "It queries the amount of funds allocated for a given derivative"
      },
      "getProtocolAddresses()": {
        "notice": "It returns Opium.Core's internal state of the protocol contracts' and recipients' addresses fetched from the Opium.Registry"
      },
      "getProtocolParametersArgs()": {
        "notice": "It returns Opium.Core's internal state of the protocol parameters fetched from the Opium.Registry"
      },
      "getReservesVaultBalance(address,address)": {
        "notice": "It returns the accrued reseves of a given address denominated in a specified token"
      },
      "initialize(address)": {
        "notice": "It is called only once upon deployment of the contract. It sets the current Opium.Registry address and assigns the current protocol parameters stored in the Opium.Registry to the Core.protocolParametersArgs private variable {see RegistryEntities.sol for a description of the ProtocolParametersArgs struct}"
      },
      "isDerivativeCancelled(bytes32)": {
        "notice": "It checks whether a given derivative has been cancelled"
      },
      "mint(uint256,address[2],address[2])": {
        "notice": "This function mints the provided amount of LONG/SHORT positions to msg.sender for a previously deployed pair of LONG/SHORT ERC20 contracts { see Core._mint for the business logic description }"
      },
      "redeem(address[2],uint256)": {
        "notice": "Redeems a single market neutral position pair { see Core._redeem for the business logic description }"
      },
      "redeem(address[2][],uint256[])": {
        "notice": "Redeems several market neutral position pairs { see Core._redeem for the business logic description }"
      },
      "updateProtocolAddresses()": {
        "notice": "Allows to sync the Core protocol's addresses with the Registry protocol's addresses in case the registry updates at least one of them"
      },
      "updateProtocolParametersArgs()": {
        "notice": "It allows to update the Opium Protocol parameters according to the current state of the Opium.Registry"
      }
    },
    "version": 1
  },
  "storageLayout": {
    "storage": [
      {
        "astId": 542,
        "contract": "contracts/core/Core.sol:Core",
        "label": "_initialized",
        "offset": 0,
        "slot": "0",
        "type": "t_bool"
      },
      {
        "astId": 545,
        "contract": "contracts/core/Core.sol:Core",
        "label": "_initializing",
        "offset": 1,
        "slot": "0",
        "type": "t_bool"
      },
      {
        "astId": 623,
        "contract": "contracts/core/Core.sol:Core",
        "label": "_status",
        "offset": 0,
        "slot": "1",
        "type": "t_uint256"
      },
      {
        "astId": 666,
        "contract": "contracts/core/Core.sol:Core",
        "label": "__gap",
        "offset": 0,
        "slot": "2",
        "type": "t_array(t_uint256)49_storage"
      },
      {
        "astId": 5862,
        "contract": "contracts/core/Core.sol:Core",
        "label": "registry",
        "offset": 0,
        "slot": "51",
        "type": "t_contract(IRegistry)8169"
      },
      {
        "astId": 5952,
        "contract": "contracts/core/Core.sol:Core",
        "label": "__gap",
        "offset": 0,
        "slot": "52",
        "type": "t_array(t_uint256)50_storage"
      },
      {
        "astId": 3052,
        "contract": "contracts/core/Core.sol:Core",
        "label": "protocolParametersArgs",
        "offset": 0,
        "slot": "102",
        "type": "t_struct(ProtocolParametersArgs)7165_storage"
      },
      {
        "astId": 3055,
        "contract": "contracts/core/Core.sol:Core",
        "label": "protocolAddressesArgs",
        "offset": 0,
        "slot": "103",
        "type": "t_struct(ProtocolAddressesArgs)7185_storage"
      },
      {
        "astId": 3059,
        "contract": "contracts/core/Core.sol:Core",
        "label": "p2pVaults",
        "offset": 0,
        "slot": "110",
        "type": "t_mapping(t_bytes32,t_uint256)"
      },
      {
        "astId": 3063,
        "contract": "contracts/core/Core.sol:Core",
        "label": "cancelledDerivatives",
        "offset": 0,
        "slot": "111",
        "type": "t_mapping(t_bytes32,t_bool)"
      },
      {
        "astId": 3070,
        "contract": "contracts/core/Core.sol:Core",
        "label": "derivativePayouts",
        "offset": 0,
        "slot": "112",
        "type": "t_mapping(t_bytes32,t_array(t_uint256)2_storage)"
      },
      {
        "astId": 3077,
        "contract": "contracts/core/Core.sol:Core",
        "label": "reservesVault",
        "offset": 0,
        "slot": "113",
        "type": "t_mapping(t_address,t_mapping(t_address,t_uint256))"
      },
      {
        "astId": 4931,
        "contract": "contracts/core/Core.sol:Core",
        "label": "__gap",
        "offset": 0,
        "slot": "114",
        "type": "t_array(t_uint256)50_storage"
      }
    ],
    "types": {
      "t_address": {
        "encoding": "inplace",
        "label": "address",
        "numberOfBytes": "20"
      },
      "t_array(t_uint256)2_storage": {
        "base": "t_uint256",
        "encoding": "inplace",
        "label": "uint256[2]",
        "numberOfBytes": "64"
      },
      "t_array(t_uint256)49_storage": {
        "base": "t_uint256",
        "encoding": "inplace",
        "label": "uint256[49]",
        "numberOfBytes": "1568"
      },
      "t_array(t_uint256)50_storage": {
        "base": "t_uint256",
        "encoding": "inplace",
        "label": "uint256[50]",
        "numberOfBytes": "1600"
      },
      "t_bool": {
        "encoding": "inplace",
        "label": "bool",
        "numberOfBytes": "1"
      },
      "t_bytes32": {
        "encoding": "inplace",
        "label": "bytes32",
        "numberOfBytes": "32"
      },
      "t_contract(IRegistry)8169": {
        "encoding": "inplace",
        "label": "contract IRegistry",
        "numberOfBytes": "20"
      },
      "t_mapping(t_address,t_mapping(t_address,t_uint256))": {
        "encoding": "mapping",
        "key": "t_address",
        "label": "mapping(address => mapping(address => uint256))",
        "numberOfBytes": "32",
        "value": "t_mapping(t_address,t_uint256)"
      },
      "t_mapping(t_address,t_uint256)": {
        "encoding": "mapping",
        "key": "t_address",
        "label": "mapping(address => uint256)",
        "numberOfBytes": "32",
        "value": "t_uint256"
      },
      "t_mapping(t_bytes32,t_array(t_uint256)2_storage)": {
        "encoding": "mapping",
        "key": "t_bytes32",
        "label": "mapping(bytes32 => uint256[2])",
        "numberOfBytes": "32",
        "value": "t_array(t_uint256)2_storage"
      },
      "t_mapping(t_bytes32,t_bool)": {
        "encoding": "mapping",
        "key": "t_bytes32",
        "label": "mapping(bytes32 => bool)",
        "numberOfBytes": "32",
        "value": "t_bool"
      },
      "t_mapping(t_bytes32,t_uint256)": {
        "encoding": "mapping",
        "key": "t_bytes32",
        "label": "mapping(bytes32 => uint256)",
        "numberOfBytes": "32",
        "value": "t_uint256"
      },
      "t_struct(ProtocolAddressesArgs)7185_storage": {
        "encoding": "inplace",
        "label": "struct RegistryEntities.ProtocolAddressesArgs",
        "members": [
          {
            "astId": 7167,
            "contract": "contracts/core/Core.sol:Core",
            "label": "core",
            "offset": 0,
            "slot": "0",
            "type": "t_address"
          },
          {
            "astId": 7169,
            "contract": "contracts/core/Core.sol:Core",
            "label": "opiumProxyFactory",
            "offset": 0,
            "slot": "1",
            "type": "t_address"
          },
          {
            "astId": 7171,
            "contract": "contracts/core/Core.sol:Core",
            "label": "oracleAggregator",
            "offset": 0,
            "slot": "2",
            "type": "t_address"
          },
          {
            "astId": 7173,
            "contract": "contracts/core/Core.sol:Core",
            "label": "syntheticAggregator",
            "offset": 0,
            "slot": "3",
            "type": "t_address"
          },
          {
            "astId": 7175,
            "contract": "contracts/core/Core.sol:Core",
            "label": "tokenSpender",
            "offset": 0,
            "slot": "4",
            "type": "t_address"
          },
          {
            "astId": 7177,
            "contract": "contracts/core/Core.sol:Core",
            "label": "protocolExecutionReserveClaimer",
            "offset": 0,
            "slot": "5",
            "type": "t_address"
          },
          {
            "astId": 7179,
            "contract": "contracts/core/Core.sol:Core",
            "label": "protocolRedemptionReserveClaimer",
            "offset": 0,
            "slot": "6",
            "type": "t_address"
          },
          {
            "astId": 7182,
            "contract": "contracts/core/Core.sol:Core",
            "label": "__gapOne",
            "offset": 20,
            "slot": "6",
            "type": "t_uint32"
          },
          {
            "astId": 7184,
            "contract": "contracts/core/Core.sol:Core",
            "label": "__gapTwo",
            "offset": 24,
            "slot": "6",
            "type": "t_uint32"
          }
        ],
        "numberOfBytes": "224"
      },
      "t_struct(ProtocolParametersArgs)7165_storage": {
        "encoding": "inplace",
        "label": "struct RegistryEntities.ProtocolParametersArgs",
        "members": [
          {
            "astId": 7149,
            "contract": "contracts/core/Core.sol:Core",
            "label": "noDataCancellationPeriod",
            "offset": 0,
            "slot": "0",
            "type": "t_uint32"
          },
          {
            "astId": 7151,
            "contract": "contracts/core/Core.sol:Core",
            "label": "derivativeAuthorExecutionFeeCap",
            "offset": 4,
            "slot": "0",
            "type": "t_uint32"
          },
          {
            "astId": 7153,
            "contract": "contracts/core/Core.sol:Core",
            "label": "derivativeAuthorRedemptionReservePart",
            "offset": 8,
            "slot": "0",
            "type": "t_uint32"
          },
          {
            "astId": 7155,
            "contract": "contracts/core/Core.sol:Core",
            "label": "protocolExecutionReservePart",
            "offset": 12,
            "slot": "0",
            "type": "t_uint32"
          },
          {
            "astId": 7157,
            "contract": "contracts/core/Core.sol:Core",
            "label": "protocolRedemptionReservePart",
            "offset": 16,
            "slot": "0",
            "type": "t_uint32"
          },
          {
            "astId": 7160,
            "contract": "contracts/core/Core.sol:Core",
            "label": "__gapOne",
            "offset": 20,
            "slot": "0",
            "type": "t_uint32"
          },
          {
            "astId": 7162,
            "contract": "contracts/core/Core.sol:Core",
            "label": "__gapTwo",
            "offset": 24,
            "slot": "0",
            "type": "t_uint32"
          },
          {
            "astId": 7164,
            "contract": "contracts/core/Core.sol:Core",
            "label": "__gapThree",
            "offset": 28,
            "slot": "0",
            "type": "t_uint32"
          }
        ],
        "numberOfBytes": "32"
      },
      "t_uint256": {
        "encoding": "inplace",
        "label": "uint256",
        "numberOfBytes": "32"
      },
      "t_uint32": {
        "encoding": "inplace",
        "label": "uint32",
        "numberOfBytes": "4"
      }
    }
  }
}