{
  "address": "0x7C78bfaDb7F0EA6E84CC5196B6fAC48fb1cFA34E",
  "abi": [
    {
      "anonymous": false,
      "inputs": [
        {
          "indexed": true,
          "internalType": "address",
          "name": "_changer",
          "type": "address"
        },
        {
          "indexed": true,
          "internalType": "address",
          "name": "_newRegistryAddress",
          "type": "address"
        }
      ],
      "name": "LogRegistryChanged",
      "type": "event"
    },
    {
      "inputs": [
        {
          "internalType": "contract IERC20Upgradeable",
          "name": "_token",
          "type": "address"
        },
        {
          "internalType": "address",
          "name": "_from",
          "type": "address"
        },
        {
          "internalType": "address",
          "name": "_to",
          "type": "address"
        },
        {
          "internalType": "uint256",
          "name": "_amount",
          "type": "uint256"
        }
      ],
      "name": "claimTokens",
      "outputs": [],
      "stateMutability": "nonpayable",
      "type": "function"
    },
    {
      "inputs": [],
      "name": "getRegistry",
      "outputs": [
        {
          "internalType": "address",
          "name": "",
          "type": "address"
        }
      ],
      "stateMutability": "view",
      "type": "function"
    },
    {
      "inputs": [
        {
          "internalType": "address",
          "name": "_registry",
          "type": "address"
        }
      ],
      "name": "initialize",
      "outputs": [],
      "stateMutability": "nonpayable",
      "type": "function"
    },
    {
      "inputs": [
        {
          "internalType": "address",
          "name": "_registry",
          "type": "address"
        }
      ],
      "name": "setRegistry",
      "outputs": [],
      "stateMutability": "nonpayable",
      "type": "function"
    }
  ],
  "transactionHash": "0xc3f909a3cb61dc5c69a85895609b95872df3385dbe21dbbc74e77157dc8384d8",
  "args": [],
  "solcInputHash": "6906dc93f57e85482da6ea178e2dedc3",
  "bytecode": "0x608060405234801561001057600080fd5b506108cf806100206000396000f3fe608060405234801561001057600080fd5b506004361061004c5760003560e01c80630a5ea466146100515780635ab1bd5314610066578063a91ee0dc14610094578063c4d66de8146100a7575b600080fd5b61006461005f3660046107b5565b6100ba565b005b6000546201000090046001600160a01b03166040516001600160a01b03909116815260200160405180910390f35b6100646100a2366004610776565b61018b565b6100646100b5366004610776565b61029e565b60005460405163bd6962d160e01b8152336004820152620100009091046001600160a01b03169063bd6962d19060240160206040518083038186803b15801561010257600080fd5b505afa158015610116573d6000803e3d6000fd5b505050506040513d601f19601f8201168201806040525081019061013a9190610793565b6101705760405162461bcd60e51b8152602060048201526002602482015261543160f01b60448201526064015b60405180910390fd5b6101856001600160a01b038516848484610361565b50505050565b600054604051634048d90960e01b8152336004820152620100009091046001600160a01b031690634048d9099060240160206040518083038186803b1580156101d357600080fd5b505afa1580156101e7573d6000803e3d6000fd5b505050506040513d601f19601f8201168201806040525081019061020b9190610793565b61023c5760405162461bcd60e51b81526020600482015260026024820152614d3160f01b6044820152606401610167565b6000805475ffffffffffffffffffffffffffffffffffffffff00001916620100006001600160a01b038416908102919091178255604051909133917fec10a16af385903532506d1567380fd8d93d880e8ed4bcacc42b0848e781406a9190a350565b600054610100900460ff166102b95760005460ff16156102bd565b303b155b6103205760405162461bcd60e51b815260206004820152602e60248201527f496e697469616c697a61626c653a20636f6e747261637420697320616c72656160448201526d191e481a5b9a5d1a585b1a5e995960921b6064820152608401610167565b600054610100900460ff16158015610342576000805461ffff19166101011790555b61034b826103d0565b801561035d576000805461ff00191690555b5050565b604080516001600160a01b0385811660248301528416604482015260648082018490528251808303909101815260849091019091526020810180517bffffffffffffffffffffffffffffffffffffffffffffffffffffffff166323b872dd60e01b1790526101859085906104fb565b600054610100900460ff166103eb5760005460ff16156103ef565b303b155b6104525760405162461bcd60e51b815260206004820152602e60248201527f496e697469616c697a61626c653a20636f6e747261637420697320616c72656160448201526d191e481a5b9a5d1a585b1a5e995960921b6064820152608401610167565b600054610100900460ff16158015610474576000805461ffff19166101011790555b6001600160a01b03821661048757600080fd5b6000805475ffffffffffffffffffffffffffffffffffffffff00001916620100006001600160a01b038516908102919091178255604051909133917fec10a16af385903532506d1567380fd8d93d880e8ed4bcacc42b0848e781406a9190a3801561035d576000805461ff00191690555050565b6000610550826040518060400160405280602081526020017f5361666545524332303a206c6f772d6c6576656c2063616c6c206661696c6564815250856001600160a01b03166105e59092919063ffffffff16565b8051909150156105e0578080602001905181019061056e9190610793565b6105e05760405162461bcd60e51b815260206004820152602a60248201527f5361666545524332303a204552433230206f7065726174696f6e20646964206e60448201527f6f742073756363656564000000000000000000000000000000000000000000006064820152608401610167565b505050565b60606105f484846000856105fe565b90505b9392505050565b6060824710156106765760405162461bcd60e51b815260206004820152602660248201527f416464726573733a20696e73756666696369656e742062616c616e636520666f60448201527f722063616c6c00000000000000000000000000000000000000000000000000006064820152608401610167565b843b6106c45760405162461bcd60e51b815260206004820152601d60248201527f416464726573733a2063616c6c20746f206e6f6e2d636f6e74726163740000006044820152606401610167565b600080866001600160a01b031685876040516106e09190610806565b60006040518083038185875af1925050503d806000811461071d576040519150601f19603f3d011682016040523d82523d6000602084013e610722565b606091505b509150915061073282828661073d565b979650505050505050565b6060831561074c5750816105f7565b82511561075c5782518084602001fd5b8160405162461bcd60e51b81526004016101679190610822565b60006020828403121561078857600080fd5b81356105f781610881565b6000602082840312156107a557600080fd5b815180151581146105f757600080fd5b600080600080608085870312156107cb57600080fd5b84356107d681610881565b935060208501356107e681610881565b925060408501356107f681610881565b9396929550929360600135925050565b60008251610818818460208701610855565b9190910192915050565b6020815260008251806020840152610841816040850160208701610855565b601f01601f19169190910160400192915050565b60005b83811015610870578181015183820152602001610858565b838111156101855750506000910152565b6001600160a01b038116811461089657600080fd5b5056fea26469706673582212204353ce599c6a2ffda95f2e3548403ddad3d6daf551fd678502491dc6e4aacd7964736f6c63430008050033",
  "devdoc": {
    "kind": "dev",
    "methods": {
      "claimTokens(address,address,address,uint256)": {
        "params": {
          "_amount": "uint256 Amount of tokens to be transferred",
          "_from": "address Address from which tokens are transferred",
          "_to": "address Address of tokens receiver",
          "_token": "IERC20 Instance of token"
        }
      },
      "initialize(address)": {
        "params": {
          "_registry": "sets the address of the Opium.Registry"
        }
      }
    },
    "title": "Opium.TokenSpender contract holds users ERC20 allowances and allows whitelisted contracts to use ERC20 tokens",
    "version": 1
  },
  "userdoc": {
    "kind": "user",
    "methods": {
      "claimTokens(address,address,address,uint256)": {
        "notice": "Using this function whitelisted contracts could call ERC20 transfers"
      },
      "initialize(address)": {
        "notice": "it is called only once upon deployment of the contract"
      }
    },
    "version": 1
  },
  "storageLayout": {
    "storage": [
      {
        "astId": 542,
        "contract": "contracts/core/TokenSpender.sol:TokenSpender",
        "label": "_initialized",
        "offset": 0,
        "slot": "0",
        "type": "t_bool"
      },
      {
        "astId": 545,
        "contract": "contracts/core/TokenSpender.sol:TokenSpender",
        "label": "_initializing",
        "offset": 1,
        "slot": "0",
        "type": "t_bool"
      },
      {
        "astId": 5862,
        "contract": "contracts/core/TokenSpender.sol:TokenSpender",
        "label": "registry",
        "offset": 2,
        "slot": "0",
        "type": "t_contract(IRegistry)8169"
      },
      {
        "astId": 5952,
        "contract": "contracts/core/TokenSpender.sol:TokenSpender",
        "label": "__gap",
        "offset": 0,
        "slot": "1",
        "type": "t_array(t_uint256)50_storage"
      },
      {
        "astId": 5845,
        "contract": "contracts/core/TokenSpender.sol:TokenSpender",
        "label": "__gap",
        "offset": 0,
        "slot": "51",
        "type": "t_array(t_uint256)50_storage"
      }
    ],
    "types": {
      "t_array(t_uint256)50_storage": {
        "base": "t_uint256",
        "encoding": "inplace",
        "label": "uint256[50]",
        "numberOfBytes": "1600"
      },
      "t_bool": {
        "encoding": "inplace",
        "label": "bool",
        "numberOfBytes": "1"
      },
      "t_contract(IRegistry)8169": {
        "encoding": "inplace",
        "label": "contract IRegistry",
        "numberOfBytes": "20"
      },
      "t_uint256": {
        "encoding": "inplace",
        "label": "uint256",
        "numberOfBytes": "32"
      }
    }
  }
}