{
  "address": "0x8EcC08Db686212157a8C4e512319c80723c430c8",
  "abi": [
    {
      "anonymous": false,
      "inputs": [
        {
          "indexed": true,
          "internalType": "bytes32",
          "name": "_derivativeHash",
          "type": "bytes32"
        },
        {
          "indexed": true,
          "internalType": "address",
          "name": "_longPositionAddress",
          "type": "address"
        },
        {
          "indexed": true,
          "internalType": "address",
          "name": "_shortPositionAddress",
          "type": "address"
        }
      ],
      "name": "LogPositionTokenPair",
      "type": "event"
    },
    {
      "anonymous": false,
      "inputs": [
        {
          "indexed": true,
          "internalType": "address",
          "name": "_changer",
          "type": "address"
        },
        {
          "indexed": true,
          "internalType": "address",
          "name": "_newRegistryAddress",
          "type": "address"
        }
      ],
      "name": "LogRegistryChanged",
      "type": "event"
    },
    {
      "inputs": [
        {
          "internalType": "address",
          "name": "_positionOwner",
          "type": "address"
        },
        {
          "internalType": "address",
          "name": "_positionAddress",
          "type": "address"
        },
        {
          "internalType": "uint256",
          "name": "_amount",
          "type": "uint256"
        }
      ],
      "name": "burn",
      "outputs": [],
      "stateMutability": "nonpayable",
      "type": "function"
    },
    {
      "inputs": [
        {
          "internalType": "address",
          "name": "_positionOwner",
          "type": "address"
        },
        {
          "internalType": "address",
          "name": "_longPositionAddress",
          "type": "address"
        },
        {
          "internalType": "address",
          "name": "_shortPositionAddress",
          "type": "address"
        },
        {
          "internalType": "uint256",
          "name": "_amount",
          "type": "uint256"
        }
      ],
      "name": "burnPair",
      "outputs": [],
      "stateMutability": "nonpayable",
      "type": "function"
    },
    {
      "inputs": [
        {
          "internalType": "address",
          "name": "_buyer",
          "type": "address"
        },
        {
          "internalType": "address",
          "name": "_seller",
          "type": "address"
        },
        {
          "internalType": "uint256",
          "name": "_amount",
          "type": "uint256"
        },
        {
          "internalType": "bytes32",
          "name": "_derivativeHash",
          "type": "bytes32"
        },
        {
          "components": [
            {
              "internalType": "uint256",
              "name": "margin",
              "type": "uint256"
            },
            {
              "internalType": "uint256",
              "name": "endTime",
              "type": "uint256"
            },
            {
              "internalType": "uint256[]",
              "name": "params",
              "type": "uint256[]"
            },
            {
              "internalType": "address",
              "name": "oracleId",
              "type": "address"
            },
            {
              "internalType": "address",
              "name": "token",
              "type": "address"
            },
            {
              "internalType": "address",
              "name": "syntheticId",
              "type": "address"
            }
          ],
          "internalType": "struct LibDerivative.Derivative",
          "name": "_derivative",
          "type": "tuple"
        }
      ],
      "name": "create",
      "outputs": [],
      "stateMutability": "nonpayable",
      "type": "function"
    },
    {
      "inputs": [],
      "name": "getImplementationAddress",
      "outputs": [
        {
          "internalType": "address",
          "name": "",
          "type": "address"
        }
      ],
      "stateMutability": "view",
      "type": "function"
    },
    {
      "inputs": [],
      "name": "getRegistry",
      "outputs": [
        {
          "internalType": "address",
          "name": "",
          "type": "address"
        }
      ],
      "stateMutability": "view",
      "type": "function"
    },
    {
      "inputs": [
        {
          "internalType": "address",
          "name": "_registry",
          "type": "address"
        }
      ],
      "name": "initialize",
      "outputs": [],
      "stateMutability": "nonpayable",
      "type": "function"
    },
    {
      "inputs": [
        {
          "internalType": "address",
          "name": "_buyer",
          "type": "address"
        },
        {
          "internalType": "address",
          "name": "_seller",
          "type": "address"
        },
        {
          "internalType": "address",
          "name": "_longPositionAddress",
          "type": "address"
        },
        {
          "internalType": "address",
          "name": "_shortPositionAddress",
          "type": "address"
        },
        {
          "internalType": "uint256",
          "name": "_amount",
          "type": "uint256"
        }
      ],
      "name": "mintPair",
      "outputs": [],
      "stateMutability": "nonpayable",
      "type": "function"
    },
    {
      "inputs": [
        {
          "internalType": "address",
          "name": "_registry",
          "type": "address"
        }
      ],
      "name": "setRegistry",
      "outputs": [],
      "stateMutability": "nonpayable",
      "type": "function"
    }
  ],
  "transactionHash": "0xdaff1c5e2aaa926d1e6a9f9bd2d563a5ee86980aa3293f7609c4d0eb3d438e02",
  "args": [],
  "solcInputHash": "58dbb558cb816b5402f8301bbf18d319",
  "bytecode": "0x608060405234801561001057600080fd5b506139fe806100206000396000f3fe608060405234801561001057600080fd5b50600436106100885760003560e01c80639873dba91161005b5780639873dba9146100f5578063a91ee0dc14610108578063c4d66de81461011b578063f6b911bc1461012e57600080fd5b80630cbcae701461008d57806347704dbd146100b65780635ab1bd53146100cb5780636ade6d19146100e2575b600080fd5b6033546001600160a01b03165b6040516001600160a01b03909116815260200160405180910390f35b6100c96100c4366004610d6f565b610141565b005b6000546201000090046001600160a01b031661009a565b6100c96100f0366004610dd3565b6102dc565b6100c9610103366004610e65565b610471565b6100c9610116366004610d2e565b610756565b6100c9610129366004610d2e565b610869565b6100c961013c366004610e24565b610987565b600060029054906101000a90046001600160a01b03166001600160a01b031663da4fbe526040518163ffffffff1660e01b815260040160206040518083038186803b15801561018f57600080fd5b505afa1580156101a3573d6000803e3d6000fd5b505050506040513d601f19601f820116820180604052508101906101c79190610d52565b6001600160a01b0316336001600160a01b0316146102115760405162461bcd60e51b8152602060048201526002602482015261463160f01b60448201526064015b60405180910390fd5b6040516340c10f1960e01b81526001600160a01b038681166004830152602482018390528416906340c10f1990604401600060405180830381600087803b15801561025b57600080fd5b505af115801561026f573d6000803e3d6000fd5b50506040516340c10f1960e01b81526001600160a01b03878116600483015260248201859052851692506340c10f199150604401600060405180830381600087803b1580156102bd57600080fd5b505af11580156102d1573d6000803e3d6000fd5b505050505050505050565b600060029054906101000a90046001600160a01b03166001600160a01b031663da4fbe526040518163ffffffff1660e01b815260040160206040518083038186803b15801561032a57600080fd5b505afa15801561033e573d6000803e3d6000fd5b505050506040513d601f19601f820116820180604052508101906103629190610d52565b6001600160a01b0316336001600160a01b0316146103a75760405162461bcd60e51b8152602060048201526002602482015261463160f01b6044820152606401610208565b604051632770a7eb60e21b81526001600160a01b03858116600483015260248201839052841690639dc29fac90604401600060405180830381600087803b1580156103f157600080fd5b505af1158015610405573d6000803e3d6000fd5b5050604051632770a7eb60e21b81526001600160a01b0387811660048301526024820185905285169250639dc29fac9150604401600060405180830381600087803b15801561045357600080fd5b505af1158015610467573d6000803e3d6000fd5b5050505050505050565b600060029054906101000a90046001600160a01b03166001600160a01b031663da4fbe526040518163ffffffff1660e01b815260040160206040518083038186803b1580156104bf57600080fd5b505afa1580156104d3573d6000803e3d6000fd5b505050506040513d601f19601f820116820180604052508101906104f79190610d52565b6001600160a01b0316336001600160a01b03161461053c5760405162461bcd60e51b8152602060048201526002602482015261463160f01b6044820152606401610208565b6033546000906105599084906001906001600160a01b0316610ab0565b60335490915060009061057890859083906001600160a01b0316610ab0565b6040516372d6d1b960e01b81529091506001600160a01b038316906372d6d1b9906105ac9087906001908890600401610f9a565b600060405180830381600087803b1580156105c657600080fd5b505af11580156105da573d6000803e3d6000fd5b50506040516372d6d1b960e01b81526001600160a01b03841692506372d6d1b9915061060f9087906000908890600401610f9a565b600060405180830381600087803b15801561062957600080fd5b505af115801561063d573d6000803e3d6000fd5b50505050806001600160a01b0316826001600160a01b0316857facda084bb7d7816e4761589dd38d696b720ae5609d71839a5cf8c40f9f6b3db360405160405180910390a4841561074d576040516340c10f1960e01b81526001600160a01b038881166004830152602482018790528316906340c10f1990604401600060405180830381600087803b1580156106d257600080fd5b505af11580156106e6573d6000803e3d6000fd5b50506040516340c10f1960e01b81526001600160a01b03898116600483015260248201899052841692506340c10f199150604401600060405180830381600087803b15801561073457600080fd5b505af1158015610748573d6000803e3d6000fd5b505050505b50505050505050565b600054604051634048d90960e01b8152336004820152620100009091046001600160a01b031690634048d9099060240160206040518083038186803b15801561079e57600080fd5b505afa1580156107b2573d6000803e3d6000fd5b505050506040513d601f19601f820116820180604052508101906107d69190610ee2565b6108075760405162461bcd60e51b81526020600482015260026024820152614d3160f01b6044820152606401610208565b6000805475ffffffffffffffffffffffffffffffffffffffff00001916620100006001600160a01b038416908102919091178255604051909133917fec10a16af385903532506d1567380fd8d93d880e8ed4bcacc42b0848e781406a9190a350565b600054610100900460ff1680610882575060005460ff16155b6108e55760405162461bcd60e51b815260206004820152602e60248201527f496e697469616c697a61626c653a20636f6e747261637420697320616c72656160448201526d191e481a5b9a5d1a585b1a5e995960921b6064820152608401610208565b600054610100900460ff16158015610907576000805461ffff19166101011790555b61091082610b2f565b60405161091c90610d11565b604051809103906000f080158015610938573d6000803e3d6000fd5b50603380547fffffffffffffffffffffffff0000000000000000000000000000000000000000166001600160a01b03929092169190911790558015610983576000805461ff00191690555b5050565b600060029054906101000a90046001600160a01b03166001600160a01b031663da4fbe526040518163ffffffff1660e01b815260040160206040518083038186803b1580156109d557600080fd5b505afa1580156109e9573d6000803e3d6000fd5b505050506040513d601f19601f82011682018060405250810190610a0d9190610d52565b6001600160a01b0316336001600160a01b031614610a525760405162461bcd60e51b8152602060048201526002602482015261463160f01b6044820152606401610208565b604051632770a7eb60e21b81526001600160a01b03848116600483015260248201839052831690639dc29fac90604401600060405180830381600087803b158015610a9c57600080fd5b505af115801561074d573d6000803e3d6000fd5b6000808484610ad857604051806040016040528060018152602001605360f81b815250610af3565b604051806040016040528060018152602001601360fa1b8152505b604051602001610b04929190610f53565b604051602081830303815290604052805190602001209050610b268382610c54565b95945050505050565b600054610100900460ff1680610b48575060005460ff16155b610bab5760405162461bcd60e51b815260206004820152602e60248201527f496e697469616c697a61626c653a20636f6e747261637420697320616c72656160448201526d191e481a5b9a5d1a585b1a5e995960921b6064820152608401610208565b600054610100900460ff16158015610bcd576000805461ffff19166101011790555b6001600160a01b038216610be057600080fd5b6000805475ffffffffffffffffffffffffffffffffffffffff00001916620100006001600160a01b038516908102919091178255604051909133917fec10a16af385903532506d1567380fd8d93d880e8ed4bcacc42b0848e781406a9190a38015610983576000805461ff00191690555050565b60006040517f3d602d80600a3d3981f3363d3d373d3d3d363d7300000000000000000000000081528360601b60148201527f5af43d82803e903d91602b57fd5bf300000000000000000000000000000000006028820152826037826000f59150506001600160a01b038116610d0b5760405162461bcd60e51b815260206004820152601760248201527f455243313136373a2063726561746532206661696c65640000000000000000006044820152606401610208565b92915050565b61291d806110ac83390190565b8035610d2981611093565b919050565b600060208284031215610d4057600080fd5b8135610d4b81611093565b9392505050565b600060208284031215610d6457600080fd5b8151610d4b81611093565b600080600080600060a08688031215610d8757600080fd5b8535610d9281611093565b94506020860135610da281611093565b93506040860135610db281611093565b92506060860135610dc281611093565b949793965091946080013592915050565b60008060008060808587031215610de957600080fd5b8435610df481611093565b93506020850135610e0481611093565b92506040850135610e1481611093565b9396929550929360600135925050565b600080600060608486031215610e3957600080fd5b8335610e4481611093565b92506020840135610e5481611093565b929592945050506040919091013590565b600080600080600060a08688031215610e7d57600080fd5b8535610e8881611093565b94506020860135610e9881611093565b93506040860135925060608601359150608086013567ffffffffffffffff811115610ec257600080fd5b860160c08189031215610ed457600080fd5b809150509295509295909350565b600060208284031215610ef457600080fd5b81518015158114610d4b57600080fd5b81835260007f07ffffffffffffffffffffffffffffffffffffffffffffffffffffffffffffff831115610f3657600080fd5b8260051b8083602087013760009401602001938452509192915050565b8281526000825160005b81811015610f7957602081860181015185830182015201610f5d565b81811115610f8b576000602083860101525b50919091016020019392505050565b838152600060028410610fbd57634e487b7160e01b600052602160045260246000fd5b8360208301526060604083015282356060830152602083013560808301526040830135601e19843603018112610ff257600080fd5b8301803567ffffffffffffffff81111561100b57600080fd5b8060051b360385131561101d57600080fd5b60c060a085015261103661012085018260208501610f04565b91505061104560608501610d1e565b6001600160a01b031660c084015261105f60808501610d1e565b6001600160a01b031660e084015261107960a08501610d1e565b6001600160a01b0381166101008501525095945050505050565b6001600160a01b03811681146110a857600080fd5b5056fe608060405234801561001057600080fd5b506128fd806100206000396000f3fe608060405234801561001057600080fd5b50600436106101515760003560e01c806372d6d1b9116100cd578063a9059cbb11610081578063ce21286d11610066578063ce21286d146102a6578063d505accf146102bb578063dd62ed3e146102ce57600080fd5b8063a9059cbb14610278578063a9c2e36c1461028b57600080fd5b806395d89b41116100b257806395d89b411461024a5780639dc29fac14610252578063a457c2d71461026557600080fd5b806372d6d1b9146102245780637ecebe001461023757600080fd5b8063313ce56711610124578063395093511161010957806339509351146101d357806340c10f19146101e657806370a08231146101fb57600080fd5b8063313ce567146101bc5780633644e515146101cb57600080fd5b806306fdde0314610156578063095ea7b31461017457806318160ddd1461019757806323b872dd146101a9575b600080fd5b61015e610307565b60405161016b91906123ba565b60405180910390f35b6101876101823660046120da565b610496565b604051901515815260200161016b565b6035545b60405190815260200161016b565b6101876101b736600461202b565b6104ac565b6040516012815260200161016b565b61019b610570565b6101876101e13660046120da565b61057f565b6101f96101f43660046120da565b6105bb565b005b61019b610209366004611fd6565b6001600160a01b031660009081526033602052604090205490565b6101f9610232366004612104565b610608565b61019b610245366004611fd6565b610867565b61015e610887565b6101f96102603660046120da565b6109c7565b6101876102733660046120da565b610a10565b6101876102863660046120da565b610ac1565b60cc546040516001600160a01b03909116815260200161016b565b6102ae610ace565b60405161016b91906123ed565b6101f96102c9366004612067565b610c06565b61019b6102dc366004611ff8565b6001600160a01b03918216600090815260346020908152604080832093909416825291909152205490565b60d254604080516307ac921760e31b815290516060926000926001600160a01b0390911691633d6490b8916004808201928692909190829003018186803b15801561035157600080fd5b505afa158015610365573d6000803e3d6000fd5b505050506040513d6000823e601f3d908101601f1916820160405261038d9190810190612168565b9050600061039f60cd60070154610d4c565b60ce549091506000906103b190610e5a565b905060008184846040516020016103ca939291906122b9565b60408051601f19818403018152919052905080600160d35460ff1660018111156103f6576103f6612885565b14610436576040518060400160405280600681526020017f2d53484f5254000000000000000000000000000000000000000000000000000081525061046d565b6040518060400160405280600581526020017f2d4c4f4e470000000000000000000000000000000000000000000000000000008152505b60405160200161047e92919061221e565b60405160208183030381529060405294505050505090565b60006104a3338484610f22565b50600192915050565b60006104b9848484611046565b6001600160a01b0384166000908152603460209081526040808320338452909152902054828110156105585760405162461bcd60e51b815260206004820152602860248201527f45524332303a207472616e7366657220616d6f756e742065786365656473206160448201527f6c6c6f77616e636500000000000000000000000000000000000000000000000060648201526084015b60405180910390fd5b6105658533858403610f22565b506001949350505050565b600061057a611243565b905090565b3360008181526034602090815260408083206001600160a01b038716845290915281205490916104a39185906105b690869061254a565b610f22565b60cc546001600160a01b031633146105fa5760405162461bcd60e51b8152602060048201526002602482015261503160f01b604482015260640161054f565b61060482826112be565b5050565b600054610100900460ff1680610621575060005460ff16155b6106845760405162461bcd60e51b815260206004820152602e60248201527f496e697469616c697a61626c653a20636f6e747261637420697320616c72656160448201526d191e481a5b9a5d1a585b1a5e995960921b606482015260840161054f565b600054610100900460ff161580156106a6576000805461ffff19166101011790555b6106ce604051806020016040528060008152506040518060200160405280600081525061139d565b6107266040518060400160405280601481526020017f4f7069756d20506f736974696f6e20546f6b656e000000000000000000000000815250604051806040016040528060018152602001603160f81b815250611464565b61073e60405180602001604052806000815250611535565b60cc805473ffffffffffffffffffffffffffffffffffffffff191633179055604080516060810190915280610772846126cc565b815260200184600181111561078957610789612885565b815260209081018690528151805160cd9081558183015160ce5560408201518051919384926107bc9260cf920190611ee7565b50606082015160038201805473ffffffffffffffffffffffffffffffffffffffff199081166001600160a01b03938416179091556080840151600484018054831691841691909117905560a090930151600590920180549093169116179055602082015160068201805460ff19166001838181111561083d5761083d612885565b0217905550604082015181600701559050508015610861576000805461ff00191690555b50505050565b6001600160a01b0381166000908152609960205260408120545b92915050565b60d254604080516307ac921760e31b815290516060926000926001600160a01b0390911691633d6490b8916004808201928692909190829003018186803b1580156108d157600080fd5b505afa1580156108e5573d6000803e3d6000fd5b505050506040513d6000823e601f3d908101601f1916820160405261090d9190810190612168565b9050600061091f60cd60070154610d4c565b60ce5490915060009061093190610e5a565b9050600081848460405160200161094a9392919061233c565b60408051601f19818403018152919052905080600160d35460ff16600181111561097657610976612885565b1461099b57604051806040016040528060028152602001615f5360f01b81525061046d565b6040518060400160405280600281526020016117d360f21b81525060405160200161047e92919061221e565b60cc546001600160a01b03163314610a065760405162461bcd60e51b8152602060048201526002602482015261503160f01b604482015260640161054f565b610604828261160c565b3360009081526034602090815260408083206001600160a01b038616845290915281205482811015610aaa5760405162461bcd60e51b815260206004820152602560248201527f45524332303a2064656372656173656420616c6c6f77616e63652062656c6f7760448201527f207a65726f000000000000000000000000000000000000000000000000000000606482015260840161054f565b610ab73385858403610f22565b5060019392505050565b60006104a3338484611046565b6040805161012081018252600060608083018281526080840183905260a084019190915260c0830182905260e08301829052610100830182905282526020820181905291810191909152604080516101208101825260cd80546060830190815260ce54608084015260cf80548551602082810282018101909752818152949593948694869360a08701939091830182828015610b8957602002820191906000526020600020905b815481526020019060010190808311610b75575b505050918352505060038201546001600160a01b0390811660208084019190915260048401548216604084015260059093015416606090910152908252600683015491019060ff166001811115610be257610be2612885565b6001811115610bf357610bf3612885565b8152602001600782015481525050905090565b83421115610c565760405162461bcd60e51b815260206004820152601d60248201527f45524332305065726d69743a206578706972656420646561646c696e65000000604482015260640161054f565b6000609a54888888610c678c61175a565b6040805160208101969096526001600160a01b0394851690860152929091166060840152608083015260a082015260c0810186905260e0016040516020818303038152906040528051906020012090506000610cc282611782565b90506000610cd2828787876117d0565b9050896001600160a01b0316816001600160a01b031614610d355760405162461bcd60e51b815260206004820152601e60248201527f45524332305065726d69743a20696e76616c6964207369676e61747572650000604482015260640161054f565b610d408a8a8a610f22565b50505050505050505050565b6060600f60f81b600483811c91909116600f60f01b600885901c161783821b7f0f000f000f000f000f000f000f000f000f000f000f000f000f000f000f000f00167e0f000f000f000f000f000f000f000f000f000f000f000f000f000f000f000f85161760101c1790610dc760e083901c6306060606612562565b63ffffffff16901c630f0f0f0f166007610de1919061264a565b610df360e083901c6330303030612562565b610dfd9190612562565b60e01b604051602001610e43919061060f60f31b81527fffffffff0000000000000000000000000000000000000000000000000000000091909116600282015260060190565b604051602081830303815290604052915050919050565b60606000806000610e6a856117f8565b925092509250610e798361181e565b600a8310610e8f57610e8a8361181e565b610eb8565b610e988361181e565b604051602001610ea89190612290565b6040516020818303038152906040525b600a8310610ece57610ec98361181e565b610ef7565b610ed78361181e565b604051602001610ee79190612290565b6040516020818303038152906040525b604051602001610f099392919061224d565b6040516020818303038152906040529350505050919050565b6001600160a01b038316610f845760405162461bcd60e51b8152602060048201526024808201527f45524332303a20617070726f76652066726f6d20746865207a65726f206164646044820152637265737360e01b606482015260840161054f565b6001600160a01b038216610fe55760405162461bcd60e51b815260206004820152602260248201527f45524332303a20617070726f766520746f20746865207a65726f206164647265604482015261737360f01b606482015260840161054f565b6001600160a01b0383811660008181526034602090815260408083209487168084529482529182902085905590518481527f8c5be1e5ebec7d5bd14f71427d1e84f3dd0314c0f7b2291e5b200ac8c7c3b925910160405180910390a3505050565b6001600160a01b0383166110c25760405162461bcd60e51b815260206004820152602560248201527f45524332303a207472616e736665722066726f6d20746865207a65726f20616460448201527f6472657373000000000000000000000000000000000000000000000000000000606482015260840161054f565b6001600160a01b0382166111245760405162461bcd60e51b815260206004820152602360248201527f45524332303a207472616e7366657220746f20746865207a65726f206164647260448201526265737360e81b606482015260840161054f565b6001600160a01b038316600090815260336020526040902054818110156111b35760405162461bcd60e51b815260206004820152602660248201527f45524332303a207472616e7366657220616d6f756e742065786365656473206260448201527f616c616e63650000000000000000000000000000000000000000000000000000606482015260840161054f565b6001600160a01b038085166000908152603360205260408082208585039055918516815290812080548492906111ea90849061254a565b92505081905550826001600160a01b0316846001600160a01b03167fddf252ad1be2c89b69c2b068fc378daa952ba7f163c4a11628f55a4df523b3ef8460405161123691815260200190565b60405180910390a3610861565b600061057a7f8b73c3c69bb8fe3d512ecc4cf759cc79239f7b179b0ffacaa9a75d522b39400f61127260655490565b6066546040805160208101859052908101839052606081018290524660808201523060a082015260009060c0016040516020818303038152906040528051906020012090509392505050565b6001600160a01b0382166113145760405162461bcd60e51b815260206004820152601f60248201527f45524332303a206d696e7420746f20746865207a65726f206164647265737300604482015260640161054f565b8060356000828254611326919061254a565b90915550506001600160a01b0382166000908152603360205260408120805483929061135390849061254a565b90915550506040518181526001600160a01b038316906000907fddf252ad1be2c89b69c2b068fc378daa952ba7f163c4a11628f55a4df523b3ef9060200160405180910390a35050565b600054610100900460ff16806113b6575060005460ff16155b6114195760405162461bcd60e51b815260206004820152602e60248201527f496e697469616c697a61626c653a20636f6e747261637420697320616c72656160448201526d191e481a5b9a5d1a585b1a5e995960921b606482015260840161054f565b600054610100900460ff1615801561143b576000805461ffff19166101011790555b61144361193c565b61144d83836119ef565b801561145f576000805461ff00191690555b505050565b600054610100900460ff168061147d575060005460ff16155b6114e05760405162461bcd60e51b815260206004820152602e60248201527f496e697469616c697a61626c653a20636f6e747261637420697320616c72656160448201526d191e481a5b9a5d1a585b1a5e995960921b606482015260840161054f565b600054610100900460ff16158015611502576000805461ffff19166101011790555b8251602080850191909120835191840191909120606591909155606655801561145f576000805461ff0019169055505050565b600054610100900460ff168061154e575060005460ff16155b6115b15760405162461bcd60e51b815260206004820152602e60248201527f496e697469616c697a61626c653a20636f6e747261637420697320616c72656160448201526d191e481a5b9a5d1a585b1a5e995960921b606482015260840161054f565b600054610100900460ff161580156115d3576000805461ffff19166101011790555b7f6e71edae12b1b97f4d1f60370fef10105fa2faae0126114a169c64845d6126c9609a558015610604576000805461ff00191690555050565b6001600160a01b03821661166c5760405162461bcd60e51b815260206004820152602160248201527f45524332303a206275726e2066726f6d20746865207a65726f206164647265736044820152607360f81b606482015260840161054f565b6001600160a01b038216600090815260336020526040902054818110156116e05760405162461bcd60e51b815260206004820152602260248201527f45524332303a206275726e20616d6f756e7420657863656564732062616c616e604482015261636560f01b606482015260840161054f565b6001600160a01b038316600090815260336020526040812083830390556035805484929061170f9084906126b5565b90915550506040518281526000906001600160a01b038516907fddf252ad1be2c89b69c2b068fc378daa952ba7f163c4a11628f55a4df523b3ef9060200160405180910390a3505050565b6001600160a01b03811660009081526099602052604090208054600181018255905b50919050565b600061088161178f611243565b8360405161190160f01b6020820152602281018390526042810182905260009060620160405160208183030381529060405280519060200120905092915050565b60008060006117e187878787611acb565b915091506117ee81611bb8565b5095945050505050565b6000808061181161180c62015180866125af565b611d73565b9196909550909350915050565b6060816118425750506040805180820190915260018152600360fc1b602082015290565b8160005b811561186c57806118568161282a565b91506118659050600a836125af565b9150611846565b60008167ffffffffffffffff811115611887576118876128b1565b6040519080825280601f01601f1916602001820160405280156118b1576020820181803683370190505b5090505b8415611934576118c66001836126b5565b91506118d3600a86612845565b6118de90603061254a565b60f81b8183815181106118f3576118f361289b565b60200101907effffffffffffffffffffffffffffffffffffffffffffffffffffffffffffff1916908160001a90535061192d600a866125af565b94506118b5565b949350505050565b600054610100900460ff1680611955575060005460ff16155b6119b85760405162461bcd60e51b815260206004820152602e60248201527f496e697469616c697a61626c653a20636f6e747261637420697320616c72656160448201526d191e481a5b9a5d1a585b1a5e995960921b606482015260840161054f565b600054610100900460ff161580156119da576000805461ffff19166101011790555b80156119ec576000805461ff00191690555b50565b600054610100900460ff1680611a08575060005460ff16155b611a6b5760405162461bcd60e51b815260206004820152602e60248201527f496e697469616c697a61626c653a20636f6e747261637420697320616c72656160448201526d191e481a5b9a5d1a585b1a5e995960921b606482015260840161054f565b600054610100900460ff16158015611a8d576000805461ffff19166101011790555b8251611aa0906036906020860190611f32565b508151611ab4906037906020850190611f32565b50801561145f576000805461ff0019169055505050565b6000807f7fffffffffffffffffffffffffffffff5d576e7357a4501ddfe92f46681b20a0831115611b025750600090506003611baf565b8460ff16601b14158015611b1a57508460ff16601c14155b15611b2b5750600090506004611baf565b6040805160008082526020820180845289905260ff881692820192909252606081018690526080810185905260019060a0016020604051602081039080840390855afa158015611b7f573d6000803e3d6000fd5b5050604051601f1901519150506001600160a01b038116611ba857600060019250925050611baf565b9150600090505b94509492505050565b6000816004811115611bcc57611bcc612885565b1415611bd55750565b6001816004811115611be957611be9612885565b1415611c375760405162461bcd60e51b815260206004820152601860248201527f45434453413a20696e76616c6964207369676e61747572650000000000000000604482015260640161054f565b6002816004811115611c4b57611c4b612885565b1415611c995760405162461bcd60e51b815260206004820152601f60248201527f45434453413a20696e76616c6964207369676e6174757265206c656e67746800604482015260640161054f565b6003816004811115611cad57611cad612885565b1415611d065760405162461bcd60e51b815260206004820152602260248201527f45434453413a20696e76616c6964207369676e6174757265202773272076616c604482015261756560f01b606482015260840161054f565b6004816004811115611d1a57611d1a612885565b14156119ec5760405162461bcd60e51b815260206004820152602260248201527f45434453413a20696e76616c6964207369676e6174757265202776272076616c604482015261756560f01b606482015260840161054f565b60008080838162253d8c611d8a8362010bd961250a565b611d94919061250a565b9050600062023ab1611da78360046125c3565b611db19190612581565b90506004611dc28262023ab16125c3565b611dcd90600361250a565b611dd79190612581565b611de19083612676565b9150600062164b09611df484600161250a565b611e0090610fa06125c3565b611e0a9190612581565b90506004611e1a826105b56125c3565b611e249190612581565b611e2e9084612676565b611e3990601f61250a565b9250600061098f611e4b8560506125c3565b611e559190612581565b905060006050611e678361098f6125c3565b611e719190612581565b611e7b9086612676565b9050611e88600b83612581565b9450611e9585600c6125c3565b611ea083600261250a565b611eaa9190612676565b91508483611eb9603187612676565b611ec49060646125c3565b611ece919061250a565b611ed8919061250a565b9a919950975095505050505050565b828054828255906000526020600020908101928215611f22579160200282015b82811115611f22578251825591602001919060010190611f07565b50611f2e929150611fa5565b5090565b828054611f3e906127f5565b90600052602060002090601f016020900481019282611f605760008555611f22565b82601f10611f7957805160ff1916838001178555611f22565b82800160010185558215611f225791820182811115611f22578251825591602001919060010190611f07565b5b80821115611f2e5760008155600101611fa6565b80356001600160a01b0381168114611fd157600080fd5b919050565b600060208284031215611fe857600080fd5b611ff182611fba565b9392505050565b6000806040838503121561200b57600080fd5b61201483611fba565b915061202260208401611fba565b90509250929050565b60008060006060848603121561204057600080fd5b61204984611fba565b925061205760208501611fba565b9150604084013590509250925092565b600080600080600080600060e0888a03121561208257600080fd5b61208b88611fba565b965061209960208901611fba565b95506040880135945060608801359350608088013560ff811681146120bd57600080fd5b9699959850939692959460a0840135945060c09093013592915050565b600080604083850312156120ed57600080fd5b6120f683611fba565b946020939093013593505050565b60008060006060848603121561211957600080fd5b8335925060208401356002811061212f57600080fd5b9150604084013567ffffffffffffffff81111561214b57600080fd5b840160c0818703121561215d57600080fd5b809150509250925092565b60006020828403121561217a57600080fd5b815167ffffffffffffffff8082111561219257600080fd5b818401915084601f8301126121a657600080fd5b8151818111156121b8576121b86128b1565b6121cb601f8201601f19166020016124d9565b91508082528560208285010111156121e257600080fd5b6121f38160208401602086016127c9565b50949350505050565b6002811061221a57634e487b7160e01b600052602160045260246000fd5b9052565b600083516122308184602088016127c9565b8351908301906122448183602088016127c9565b01949350505050565b6000845161225f8184602089016127c9565b8451908301906122738183602089016127c9565b84519101906122868183602088016127c9565b0195945050505050565b600360fc1b8152600082516122ac8160018501602087016127c9565b9190910160010192915050565b7f4f7069756d3a00000000000000000000000000000000000000000000000000008152600084516122f18160068501602089016127c9565b8083019050602d60f81b8060068301528551612314816007850160208a016127c9565b6007920191820152835161232f8160088401602088016127c9565b0160080195945050505050565b7f4f5049554d00000000000000000000000000000000000000000000000000000081526000605f60f81b806005840152855161237f816006860160208a016127c9565b8084019050816006820152855161239d816007840160208a016127c9565b01600781019190915283519061232f8260088301602088016127c9565b60208152600082518060208401526123d98160408501602087016127c9565b601f01601f19169190910160400192915050565b60208082528251606083830152805160808401528082015160a0840152604081015160c08085015280516101408501819052600093929183019084906101608701905b808310156124505783518252928501926001929092019190850190612430565b5060608401516001600160a01b0390811660e089015260808501518082166101008a015260a090950151908116610120890152939250938701519361249860408801866121fc565b60408801516060880152809550505050505092915050565b60405160c0810167ffffffffffffffff811182821017156124d3576124d36128b1565b60405290565b604051601f8201601f1916810167ffffffffffffffff81118282101715612502576125026128b1565b604052919050565b6000808212826001600160ff1b030384138115161561252b5761252b612859565b600160ff1b839003841281161561254457612544612859565b50500190565b6000821982111561255d5761255d612859565b500190565b600063ffffffff80831681851680830382111561224457612244612859565b6000826125905761259061286f565b600160ff1b8214600019841416156125aa576125aa612859565b500590565b6000826125be576125be61286f565b500490565b60006001600160ff1b036000841360008413858304851182821616156125eb576125eb612859565b600160ff1b600087128281168783058912161561260a5761260a612859565b6000871292508782058712848416161561262657612626612859565b8785058712818416161561263c5761263c612859565b505050929093029392505050565b600063ffffffff8083168185168183048111821515161561266d5761266d612859565b02949350505050565b60008083128015600160ff1b85018412161561269457612694612859565b836001600160ff1b030183138116156126af576126af612859565b50500390565b6000828210156126c7576126c7612859565b500390565b600060c082360312156126de57600080fd5b6126e66124b0565b8235815260208084013581830152604084013567ffffffffffffffff8082111561270f57600080fd5b9085019036601f83011261272257600080fd5b813581811115612734576127346128b1565b8060051b91506127458483016124d9565b81815284810190848601368587018801111561276057600080fd5b600095505b83861015612783578035835260019590950194918601918601612765565b5080604088015250505050505061279c60608401611fba565b60608201526127ad60808401611fba565b60808201526127be60a08401611fba565b60a082015292915050565b60005b838110156127e45781810151838201526020016127cc565b838111156108615750506000910152565b600181811c9082168061280957607f821691505b6020821081141561177c57634e487b7160e01b600052602260045260246000fd5b600060001982141561283e5761283e612859565b5060010190565b6000826128545761285461286f565b500690565b634e487b7160e01b600052601160045260246000fd5b634e487b7160e01b600052601260045260246000fd5b634e487b7160e01b600052602160045260246000fd5b634e487b7160e01b600052603260045260246000fd5b634e487b7160e01b600052604160045260246000fdfea26469706673582212205e363b3033dc17fd0e35d2136409df84a76fe4ce993050cc8f3d54775cac7b8164736f6c63430008050033a26469706673582212201fd06c0f1f725f0911b53122b0cf6ff58c85debded536e9bac07ef2792985c5464736f6c63430008050033",
  "devdoc": {
    "kind": "dev",
    "methods": {
      "burn(address,address,uint256)": {
        "details": "if no position has been deployed at the provided address, it is expected to revert",
        "params": {
          "_amount": "amount of position tokens to be minted to the _positionHolder",
          "_positionAddress": "address of the position token to be burnt",
          "_positionOwner": "address of the owner of the specified position token"
        }
      },
      "burnPair(address,address,address,uint256)": {
        "params": {
          "_amount": "amount of position tokens to be minted to the _positionHolder",
          "_longPositionAddress": "address of the deployed LONG position token",
          "_positionOwner": "address of the owner of the LONG/SHORT position tokens",
          "_shortPositionAddress": "address of the deployed SHORT position token"
        }
      },
      "create(address,address,uint256,bytes32,(uint256,uint256,uint256[],address,address,address))": {
        "details": "if either of the LONG or SHORT position contracts already exists then it is expected to fail",
        "params": {
          "_amount": "amount of position tokens to be minted to the _positionHolder",
          "_buyer": "address of the recipient of the LONG position tokens",
          "_derivative": "LibDerivative.Derivative Derivative definition",
          "_derivativeHash": "bytes32 hash of `LibDerivative.Derivative`",
          "_seller": "address of the recipient of the SHORT position tokens"
        }
      },
      "getImplementationAddress()": {
        "returns": {
          "_0": "_opiumPositionTokenParams OpiumPositionTokenParams struct which contains `LibDerivative.Derivative` schema of the derivative, the ` LibDerivative.PositionType` of the present ERC20 token and the bytes32 hash `derivativeHash` of the `LibDerivative.Derivative` derivative"
        }
      },
      "initialize(address)": {
        "details": "It sets the the address of the implementation of the OpiumPositionToken contract which will be used for the factory-deployment of erc20 positions via the minimal proxy contract",
        "params": {
          "_registry": "address of Opium.Registry"
        }
      },
      "mintPair(address,address,address,address,uint256)": {
        "details": "if LONG or SHORT position contracts have not been deployed yet at the provided addresses then it is expected to fail",
        "params": {
          "_amount": "amount of position tokens to be minted to the _positionHolder",
          "_buyer": "address of the recipient of the LONG position tokens",
          "_longPositionAddress": "address of the deployed LONG position token",
          "_seller": "address of the recipient of the SHORT position tokens",
          "_shortPositionAddress": "address of the deployed SHORT position token"
        }
      }
    },
    "title": "Opium.OpiumProxyFactory contract manages the deployment of ERC20 LONG/SHORT positions for a given `LibDerivative.Derivative` structure and it's responsible for minting and burning positions according to the parameters supplied by `Opium.Core`",
    "version": 1
  },
  "userdoc": {
    "kind": "user",
    "methods": {
      "burn(address,address,uint256)": {
        "notice": "it burns specified amount of a specific position tokens on behalf of a specified ownerit is consumed by Opium.Core to execute or cancel a specific position type"
      },
      "burnPair(address,address,address,uint256)": {
        "notice": "It burns the specified amount of LONG/SHORT position tokens on behalf of a specified ownerIt is consumed by Opium.Core to redeem market neutral position pairs"
      },
      "create(address,address,uint256,bytes32,(uint256,uint256,uint256[],address,address,address))": {
        "notice": "It creates a specified amount of LONG/SHORT position tokens on behalf of the buyer(LONG) and seller(SHORT) - the specified amount can be 0 in which case the ERC20 contract of the position tokens will only be deployed"
      },
      "getImplementationAddress()": {
        "notice": "It retrieves the information about the underlying derivative"
      },
      "initialize(address)": {
        "notice": "It is called only once upon deployment of the contract"
      },
      "mintPair(address,address,address,address,uint256)": {
        "notice": "it creates a specified amount of LONG/SHORT position tokens on behalf of the buyer(LONG) and seller(SHORT) - the specified amount can be 0 in which case the ERC20 contract of the position tokens will only be deployed"
      }
    },
    "version": 1
  },
  "storageLayout": {
    "storage": [
      {
        "astId": 539,
        "contract": "contracts/core/OpiumProxyFactory.sol:OpiumProxyFactory",
        "label": "_initialized",
        "offset": 0,
        "slot": "0",
        "type": "t_bool"
      },
      {
        "astId": 542,
        "contract": "contracts/core/OpiumProxyFactory.sol:OpiumProxyFactory",
        "label": "_initializing",
        "offset": 1,
        "slot": "0",
        "type": "t_bool"
      },
      {
        "astId": 5809,
        "contract": "contracts/core/OpiumProxyFactory.sol:OpiumProxyFactory",
        "label": "registry",
        "offset": 2,
        "slot": "0",
        "type": "t_contract(IRegistry)8116"
      },
      {
        "astId": 5899,
        "contract": "contracts/core/OpiumProxyFactory.sol:OpiumProxyFactory",
        "label": "__gap",
        "offset": 0,
        "slot": "1",
        "type": "t_array(t_uint256)50_storage"
      },
      {
        "astId": 5285,
        "contract": "contracts/core/OpiumProxyFactory.sol:OpiumProxyFactory",
        "label": "opiumPositionTokenImplementation",
        "offset": 0,
        "slot": "51",
        "type": "t_address"
      },
      {
        "astId": 5504,
        "contract": "contracts/core/OpiumProxyFactory.sol:OpiumProxyFactory",
        "label": "__gap",
        "offset": 0,
        "slot": "52",
        "type": "t_array(t_uint256)50_storage"
      }
    ],
    "types": {
      "t_address": {
        "encoding": "inplace",
        "label": "address",
        "numberOfBytes": "20"
      },
      "t_array(t_uint256)50_storage": {
        "base": "t_uint256",
        "encoding": "inplace",
        "label": "uint256[50]",
        "numberOfBytes": "1600"
      },
      "t_bool": {
        "encoding": "inplace",
        "label": "bool",
        "numberOfBytes": "1"
      },
      "t_contract(IRegistry)8116": {
        "encoding": "inplace",
        "label": "contract IRegistry",
        "numberOfBytes": "20"
      },
      "t_uint256": {
        "encoding": "inplace",
        "label": "uint256",
        "numberOfBytes": "32"
      }
    }
  }
}