{
  "address": "0xc14487E30B1baDE713C00da7A5541a823442E99b",
  "abi": [
    {
      "inputs": [
        {
          "internalType": "uint256",
          "name": "_fetchPrice",
          "type": "uint256"
        },
        {
          "internalType": "address",
          "name": "_registry",
          "type": "address"
        }
      ],
      "stateMutability": "nonpayable",
      "type": "constructor"
    },
    {
      "inputs": [
        {
          "internalType": "uint256",
          "name": "timestamp",
          "type": "uint256"
        },
        {
          "internalType": "uint256",
          "name": "returnData",
          "type": "uint256"
        }
      ],
      "name": "triggerCallback",
      "outputs": [],
      "stateMutability": "nonpayable",
      "type": "function"
    }
  ],
  "transactionHash": "0x314b5af00db87c3a4136c129a55a132868a665d5de74dc774eec9fddc9d4b9ba",
  "args": [
    "100000000000000000",
    "0x7A667f935f767CbcBBd3B005a38C13448BfFEA70"
  ],
  "solcInputHash": "58dbb558cb816b5402f8301bbf18d319",
  "bytecode": "0x608060405234801561001057600080fd5b5060405161035238038061035283398101604081905261002f91610059565b600091909155600180546001600160a01b0319166001600160a01b03909216919091179055610096565b6000806040838503121561006c57600080fd5b825160208401519092506001600160a01b038116811461008b57600080fd5b809150509250929050565b6102ad806100a56000396000f3fe608060405234801561001057600080fd5b506004361061002b5760003560e01c806316f937b114610030575b600080fd5b61004361003e36600461021d565b610045565b005b600160009054906101000a90046001600160a01b03166001600160a01b031663a1774da06040518163ffffffff1660e01b81526004016101206040518083038186803b15801561009457600080fd5b505afa1580156100a8573d6000803e3d6000fd5b505050506040513d601f19601f820116820180604052508101906100cc9190610167565b6040908101519051633102e5ab60e01b815260048101849052602481018390526001600160a01b0390911690633102e5ab90604401600060405180830381600087803b15801561011b57600080fd5b505af115801561012f573d6000803e3d6000fd5b505050505050565b80516001600160a01b038116811461014e57600080fd5b919050565b805163ffffffff8116811461014e57600080fd5b6000610120828403121561017a57600080fd5b61018261023f565b61018b83610137565b815261019960208401610137565b60208201526101aa60408401610137565b60408201526101bb60608401610137565b60608201526101cc60808401610137565b60808201526101dd60a08401610137565b60a08201526101ee60c08401610137565b60c08201526101ff60e08401610153565b60e0820152610100610212818501610153565b908201529392505050565b6000806040838503121561023057600080fd5b50508035926020909101359150565b604051610120810167ffffffffffffffff8111828210171561027157634e487b7160e01b600052604160045260246000fd5b6040529056fea2646970667358221220e31812333f92c91ff45107d7f91d8749abdb26c3b5f63b6f039cd64bb104e4b864736f6c63430008050033",
  "devdoc": {
    "kind": "dev",
    "methods": {},
    "version": 1
  },
  "userdoc": {
    "kind": "user",
    "methods": {},
    "version": 1
  },
  "storageLayout": {
    "storage": [
      {
        "astId": 9280,
        "contract": "contracts/test/mocks/oracles/OracleIdMock.sol:OracleIdMock",
        "label": "fetchPrice",
        "offset": 0,
        "slot": "0",
        "type": "t_uint256"
      },
      {
        "astId": 9283,
        "contract": "contracts/test/mocks/oracles/OracleIdMock.sol:OracleIdMock",
        "label": "registry",
        "offset": 0,
        "slot": "1",
        "type": "t_contract(IRegistry)8116"
      }
    ],
    "types": {
      "t_contract(IRegistry)8116": {
        "encoding": "inplace",
        "label": "contract IRegistry",
        "numberOfBytes": "20"
      },
      "t_uint256": {
        "encoding": "inplace",
        "label": "uint256",
        "numberOfBytes": "32"
      }
    }
  }
}